{
	"Voting Sytem.sol": {
		"Ballot": {
			"abi": [
				{
					"inputs": [
						{
							"internalType": "string[]",
							"name": "candidateNames",
							"type": "string[]"
						}
					],
					"stateMutability": "nonpayable",
					"type": "constructor"
				},
				{
					"inputs": [
						{
							"internalType": "string[]",
							"name": "candidateNames",
							"type": "string[]"
						}
					],
					"name": "addCandidates",
					"outputs": [],
					"stateMutability": "nonpayable",
					"type": "function"
				},
				{
					"inputs": [
						{
							"internalType": "uint256",
							"name": "",
							"type": "uint256"
						}
					],
					"name": "candidates",
					"outputs": [
						{
							"internalType": "string",
							"name": "name",
							"type": "string"
						},
						{
							"internalType": "uint256",
							"name": "voteCount",
							"type": "uint256"
						}
					],
					"stateMutability": "view",
					"type": "function"
				},
				{
					"inputs": [],
					"name": "chairperson",
					"outputs": [
						{
							"internalType": "address",
							"name": "",
							"type": "address"
						}
					],
					"stateMutability": "view",
					"type": "function"
				},
				{
					"inputs": [],
					"name": "endVote",
					"outputs": [],
					"stateMutability": "nonpayable",
					"type": "function"
				},
				{
					"inputs": [
						{
							"internalType": "address",
							"name": "voter",
							"type": "address"
						}
					],
					"name": "giveRightToVote",
					"outputs": [],
					"stateMutability": "nonpayable",
					"type": "function"
				},
				{
					"inputs": [],
					"name": "startVote",
					"outputs": [],
					"stateMutability": "nonpayable",
					"type": "function"
				},
				{
					"inputs": [],
					"name": "state",
					"outputs": [
						{
							"internalType": "enum Ballot.State",
							"name": "",
							"type": "uint8"
						}
					],
					"stateMutability": "view",
					"type": "function"
				},
				{
					"inputs": [
						{
							"internalType": "uint256",
							"name": "candidate",
							"type": "uint256"
						}
					],
					"name": "vote",
					"outputs": [],
					"stateMutability": "nonpayable",
					"type": "function"
				},
				{
					"inputs": [
						{
							"internalType": "address",
							"name": "",
							"type": "address"
						}
					],
					"name": "voters",
					"outputs": [
						{
							"internalType": "uint256",
							"name": "weight",
							"type": "uint256"
						},
						{
							"internalType": "bool",
							"name": "voted",
							"type": "bool"
						},
						{
							"internalType": "uint256",
							"name": "vote",
							"type": "uint256"
						}
					],
					"stateMutability": "view",
					"type": "function"
				},
				{
					"inputs": [],
					"name": "winningCandidate",
					"outputs": [
						{
							"internalType": "string",
							"name": "winnerName_",
							"type": "string"
						}
					],
					"stateMutability": "view",
					"type": "function"
				}
			],
			"devdoc": {
				"details": "Implements voting process along with vote delegation",
				"kind": "dev",
				"methods": {
					"giveRightToVote(address)": {
						"details": "Give 'voter' the right to vote on this ballot. May only be called by 'chairperson'.",
						"params": {
							"voter": "address of voter"
						}
					},
					"vote(uint256)": {
						"details": "Give your vote (including votes delegated to you) to candidate 'candidates[candidate].name'.",
						"params": {
							"candidate": "index of candidate in the candidates array"
						}
					}
				},
				"title": "Ballot",
				"version": 1
			},
			"evm": {
				"assembly": "    /* \"Voting Sytem.sol\":186:4210  contract Ballot {... */\n  mstore(0x40, 0x80)\n    /* \"Voting Sytem.sol\":776:1148  constructor(string[] memory candidateNames) {... */\n  callvalue\n  dup1\n  iszero\n  tag_1\n  jumpi\n  0x00\n  dup1\n  revert\ntag_1:\n  pop\n  mload(0x40)\n  sub(codesize, bytecodeSize)\n  dup1\n  bytecodeSize\n  dup4\n  codecopy\n  dup2\n  dup2\n  add\n  0x40\n  mstore\n  dup2\n  add\n  swap1\n  tag_2\n  swap2\n  swap1\n  tag_3\n  jump\t// in\ntag_2:\n    /* \"Voting Sytem.sol\":845:855  msg.sender */\n  caller\n    /* \"Voting Sytem.sol\":831:842  chairperson */\n  0x00\n  dup1\n    /* \"Voting Sytem.sol\":831:855  chairperson = msg.sender */\n  0x0100\n  exp\n  dup2\n  sload\n  dup2\n  0xffffffffffffffffffffffffffffffffffffffff\n  mul\n  not\n  and\n  swap1\n  dup4\n  0xffffffffffffffffffffffffffffffffffffffff\n  and\n  mul\n  or\n  swap1\n  sstore\n  pop\n    /* \"Voting Sytem.sol\":895:896  1 */\n  0x01\n    /* \"Voting Sytem.sol\":866:872  voters */\n  dup1\n    /* \"Voting Sytem.sol\":866:885  voters[chairperson] */\n  0x00\n    /* \"Voting Sytem.sol\":873:884  chairperson */\n  dup1\n  0x00\n  swap1\n  sload\n  swap1\n  0x0100\n  exp\n  swap1\n  div\n  0xffffffffffffffffffffffffffffffffffffffff\n  and\n    /* \"Voting Sytem.sol\":866:885  voters[chairperson] */\n  0xffffffffffffffffffffffffffffffffffffffff\n  and\n  0xffffffffffffffffffffffffffffffffffffffff\n  and\n  dup2\n  mstore\n  0x20\n  add\n  swap1\n  dup2\n  mstore\n  0x20\n  add\n  0x00\n  keccak256\n    /* \"Voting Sytem.sol\":866:892  voters[chairperson].weight */\n  0x00\n  add\n    /* \"Voting Sytem.sol\":866:896  voters[chairperson].weight = 1 */\n  dup2\n  swap1\n  sstore\n  pop\n    /* \"Voting Sytem.sol\":915:928  State.Created */\n  0x00\n    /* \"Voting Sytem.sol\":907:912  state */\n  0x03\n  0x00\n    /* \"Voting Sytem.sol\":907:928  state = State.Created */\n  0x0100\n  exp\n  dup2\n  sload\n  dup2\n  0xff\n  mul\n  not\n  and\n  swap1\n  dup4\n  0x02\n  dup2\n  gt\n  iszero\n  tag_6\n  jumpi\n  tag_7\n  tag_8\n  jump\t// in\ntag_7:\ntag_6:\n  mul\n  or\n  swap1\n  sstore\n  pop\n    /* \"Voting Sytem.sol\":954:960  uint i */\n  0x00\n    /* \"Voting Sytem.sol\":949:1141  for (uint i = 0; i < candidateNames.length; i++) {... */\ntag_9:\n    /* \"Voting Sytem.sol\":970:984  candidateNames */\n  dup2\n    /* \"Voting Sytem.sol\":970:991  candidateNames.length */\n  mload\n    /* \"Voting Sytem.sol\":966:967  i */\n  dup2\n    /* \"Voting Sytem.sol\":966:991  i < candidateNames.length */\n  lt\n    /* \"Voting Sytem.sol\":949:1141  for (uint i = 0; i < candidateNames.length; i++) {... */\n  iszero\n  tag_10\n  jumpi\n    /* \"Voting Sytem.sol\":1013:1023  candidates */\n  0x02\n    /* \"Voting Sytem.sol\":1029:1128  Candidate({... */\n  mload(0x40)\n  dup1\n  0x40\n  add\n  0x40\n  mstore\n  dup1\n    /* \"Voting Sytem.sol\":1064:1078  candidateNames */\n  dup5\n    /* \"Voting Sytem.sol\":1079:1080  i */\n  dup5\n    /* \"Voting Sytem.sol\":1064:1081  candidateNames[i] */\n  dup2\n  mload\n  dup2\n  lt\n  tag_12\n  jumpi\n  tag_13\n  tag_14\n  jump\t// in\ntag_13:\ntag_12:\n  0x20\n  mul\n  0x20\n  add\n  add\n  mload\n    /* \"Voting Sytem.sol\":1029:1128  Candidate({... */\n  dup2\n  mstore\n  0x20\n  add\n    /* \"Voting Sytem.sol\":1111:1112  0 */\n  0x00\n    /* \"Voting Sytem.sol\":1029:1128  Candidate({... */\n  dup2\n  mstore\n  pop\n    /* \"Voting Sytem.sol\":1013:1129  candidates.push(Candidate({... */\n  swap1\n  dup1\n  0x01\n  dup2\n  sload\n  add\n  dup1\n  dup3\n  sstore\n  dup1\n  swap2\n  pop\n  pop\n  0x01\n  swap1\n  sub\n  swap1\n  0x00\n  mstore\n  keccak256(0x00, 0x20)\n  swap1\n  0x02\n  mul\n  add\n  0x00\n  swap1\n  swap2\n  swap1\n  swap2\n  swap1\n  swap2\n  pop\n  0x00\n  dup3\n  add\n  mload\n  dup2\n  0x00\n  add\n  swap1\n  dup2\n  tag_16\n  swap2\n  swap1\n  tag_17\n  jump\t// in\ntag_16:\n  pop\n  0x20\n  dup3\n  add\n  mload\n  dup2\n  0x01\n  add\n  sstore\n  pop\n  pop\n    /* \"Voting Sytem.sol\":993:996  i++ */\n  dup1\n  dup1\n  0x01\n  add\n  swap2\n  pop\n  pop\n    /* \"Voting Sytem.sol\":949:1141  for (uint i = 0; i < candidateNames.length; i++) {... */\n  jump(tag_9)\ntag_10:\n  pop\n    /* \"Voting Sytem.sol\":776:1148  constructor(string[] memory candidateNames) {... */\n  pop\n    /* \"Voting Sytem.sol\":186:4210  contract Ballot {... */\n  jump(tag_18)\n    /* \"#utility.yul\":7:82   */\ntag_19:\n    /* \"#utility.yul\":40:46   */\n  0x00\n    /* \"#utility.yul\":73:75   */\n  0x40\n    /* \"#utility.yul\":67:76   */\n  mload\n    /* \"#utility.yul\":57:76   */\n  swap1\n  pop\n    /* \"#utility.yul\":7:82   */\n  swap1\n  jump\t// out\n    /* \"#utility.yul\":88:205   */\ntag_20:\n    /* \"#utility.yul\":197:198   */\n  0x00\n    /* \"#utility.yul\":194:195   */\n  dup1\n    /* \"#utility.yul\":187:199   */\n  revert\n    /* \"#utility.yul\":211:328   */\ntag_21:\n    /* \"#utility.yul\":320:321   */\n  0x00\n    /* \"#utility.yul\":317:318   */\n  dup1\n    /* \"#utility.yul\":310:322   */\n  revert\n    /* \"#utility.yul\":334:451   */\ntag_22:\n    /* \"#utility.yul\":443:444   */\n  0x00\n    /* \"#utility.yul\":440:441   */\n  dup1\n    /* \"#utility.yul\":433:445   */\n  revert\n    /* \"#utility.yul\":457:559   */\ntag_23:\n    /* \"#utility.yul\":498:504   */\n  0x00\n    /* \"#utility.yul\":549:551   */\n  0x1f\n    /* \"#utility.yul\":545:552   */\n  not\n    /* \"#utility.yul\":540:542   */\n  0x1f\n    /* \"#utility.yul\":533:538   */\n  dup4\n    /* \"#utility.yul\":529:543   */\n  add\n    /* \"#utility.yul\":525:553   */\n  and\n    /* \"#utility.yul\":515:553   */\n  swap1\n  pop\n    /* \"#utility.yul\":457:559   */\n  swap2\n  swap1\n  pop\n  jump\t// out\n    /* \"#utility.yul\":565:745   */\ntag_24:\n    /* \"#utility.yul\":613:690   */\n  0x4e487b7100000000000000000000000000000000000000000000000000000000\n    /* \"#utility.yul\":610:611   */\n  0x00\n    /* \"#utility.yul\":603:691   */\n  mstore\n    /* \"#utility.yul\":710:714   */\n  0x41\n    /* \"#utility.yul\":707:708   */\n  0x04\n    /* \"#utility.yul\":700:715   */\n  mstore\n    /* \"#utility.yul\":734:738   */\n  0x24\n    /* \"#utility.yul\":731:732   */\n  0x00\n    /* \"#utility.yul\":724:739   */\n  revert\n    /* \"#utility.yul\":751:1032   */\ntag_25:\n    /* \"#utility.yul\":834:861   */\n  tag_63\n    /* \"#utility.yul\":856:860   */\n  dup3\n    /* \"#utility.yul\":834:861   */\n  tag_23\n  jump\t// in\ntag_63:\n    /* \"#utility.yul\":826:832   */\n  dup2\n    /* \"#utility.yul\":822:862   */\n  add\n    /* \"#utility.yul\":964:970   */\n  dup2\n    /* \"#utility.yul\":952:962   */\n  dup2\n    /* \"#utility.yul\":949:971   */\n  lt\n    /* \"#utility.yul\":928:946   */\n  0xffffffffffffffff\n    /* \"#utility.yul\":916:926   */\n  dup3\n    /* \"#utility.yul\":913:947   */\n  gt\n    /* \"#utility.yul\":910:972   */\n  or\n    /* \"#utility.yul\":907:995   */\n  iszero\n  tag_64\n  jumpi\n    /* \"#utility.yul\":975:993   */\n  tag_65\n  tag_24\n  jump\t// in\ntag_65:\n    /* \"#utility.yul\":907:995   */\ntag_64:\n    /* \"#utility.yul\":1015:1025   */\n  dup1\n    /* \"#utility.yul\":1011:1013   */\n  0x40\n    /* \"#utility.yul\":1004:1026   */\n  mstore\n    /* \"#utility.yul\":794:1032   */\n  pop\n    /* \"#utility.yul\":751:1032   */\n  pop\n  pop\n  jump\t// out\n    /* \"#utility.yul\":1038:1167   */\ntag_26:\n    /* \"#utility.yul\":1072:1078   */\n  0x00\n    /* \"#utility.yul\":1099:1119   */\n  tag_67\n  tag_19\n  jump\t// in\ntag_67:\n    /* \"#utility.yul\":1089:1119   */\n  swap1\n  pop\n    /* \"#utility.yul\":1128:1161   */\n  tag_68\n    /* \"#utility.yul\":1156:1160   */\n  dup3\n    /* \"#utility.yul\":1148:1154   */\n  dup3\n    /* \"#utility.yul\":1128:1161   */\n  tag_25\n  jump\t// in\ntag_68:\n    /* \"#utility.yul\":1038:1167   */\n  swap2\n  swap1\n  pop\n  jump\t// out\n    /* \"#utility.yul\":1173:1494   */\ntag_27:\n    /* \"#utility.yul\":1260:1264   */\n  0x00\n    /* \"#utility.yul\":1350:1368   */\n  0xffffffffffffffff\n    /* \"#utility.yul\":1342:1348   */\n  dup3\n    /* \"#utility.yul\":1339:1369   */\n  gt\n    /* \"#utility.yul\":1336:1392   */\n  iszero\n  tag_70\n  jumpi\n    /* \"#utility.yul\":1372:1390   */\n  tag_71\n  tag_24\n  jump\t// in\ntag_71:\n    /* \"#utility.yul\":1336:1392   */\ntag_70:\n    /* \"#utility.yul\":1422:1426   */\n  0x20\n    /* \"#utility.yul\":1414:1420   */\n  dup3\n    /* \"#utility.yul\":1410:1427   */\n  mul\n    /* \"#utility.yul\":1402:1427   */\n  swap1\n  pop\n    /* \"#utility.yul\":1482:1486   */\n  0x20\n    /* \"#utility.yul\":1476:1480   */\n  dup2\n    /* \"#utility.yul\":1472:1487   */\n  add\n    /* \"#utility.yul\":1464:1487   */\n  swap1\n  pop\n    /* \"#utility.yul\":1173:1494   */\n  swap2\n  swap1\n  pop\n  jump\t// out\n    /* \"#utility.yul\":1500:1617   */\ntag_28:\n    /* \"#utility.yul\":1609:1610   */\n  0x00\n    /* \"#utility.yul\":1606:1607   */\n  dup1\n    /* \"#utility.yul\":1599:1611   */\n  revert\n    /* \"#utility.yul\":1623:1740   */\ntag_29:\n    /* \"#utility.yul\":1732:1733   */\n  0x00\n    /* \"#utility.yul\":1729:1730   */\n  dup1\n    /* \"#utility.yul\":1722:1734   */\n  revert\n    /* \"#utility.yul\":1746:2054   */\ntag_30:\n    /* \"#utility.yul\":1808:1812   */\n  0x00\n    /* \"#utility.yul\":1898:1916   */\n  0xffffffffffffffff\n    /* \"#utility.yul\":1890:1896   */\n  dup3\n    /* \"#utility.yul\":1887:1917   */\n  gt\n    /* \"#utility.yul\":1884:1940   */\n  iszero\n  tag_75\n  jumpi\n    /* \"#utility.yul\":1920:1938   */\n  tag_76\n  tag_24\n  jump\t// in\ntag_76:\n    /* \"#utility.yul\":1884:1940   */\ntag_75:\n    /* \"#utility.yul\":1958:1987   */\n  tag_77\n    /* \"#utility.yul\":1980:1986   */\n  dup3\n    /* \"#utility.yul\":1958:1987   */\n  tag_23\n  jump\t// in\ntag_77:\n    /* \"#utility.yul\":1950:1987   */\n  swap1\n  pop\n    /* \"#utility.yul\":2042:2046   */\n  0x20\n    /* \"#utility.yul\":2036:2040   */\n  dup2\n    /* \"#utility.yul\":2032:2047   */\n  add\n    /* \"#utility.yul\":2024:2047   */\n  swap1\n  pop\n    /* \"#utility.yul\":1746:2054   */\n  swap2\n  swap1\n  pop\n  jump\t// out\n    /* \"#utility.yul\":2060:2199   */\ntag_31:\n    /* \"#utility.yul\":2149:2155   */\n  dup3\n    /* \"#utility.yul\":2144:2147   */\n  dup2\n    /* \"#utility.yul\":2139:2142   */\n  dup4\n    /* \"#utility.yul\":2133:2156   */\n  mcopy\n    /* \"#utility.yul\":2190:2191   */\n  0x00\n    /* \"#utility.yul\":2181:2187   */\n  dup4\n    /* \"#utility.yul\":2176:2179   */\n  dup4\n    /* \"#utility.yul\":2172:2188   */\n  add\n    /* \"#utility.yul\":2165:2192   */\n  mstore\n    /* \"#utility.yul\":2060:2199   */\n  pop\n  pop\n  pop\n  jump\t// out\n    /* \"#utility.yul\":2205:2639   */\ntag_32:\n    /* \"#utility.yul\":2294:2299   */\n  0x00\n    /* \"#utility.yul\":2319:2385   */\n  tag_80\n    /* \"#utility.yul\":2335:2384   */\n  tag_81\n    /* \"#utility.yul\":2377:2383   */\n  dup5\n    /* \"#utility.yul\":2335:2384   */\n  tag_30\n  jump\t// in\ntag_81:\n    /* \"#utility.yul\":2319:2385   */\n  tag_26\n  jump\t// in\ntag_80:\n    /* \"#utility.yul\":2310:2385   */\n  swap1\n  pop\n    /* \"#utility.yul\":2408:2414   */\n  dup3\n    /* \"#utility.yul\":2401:2406   */\n  dup2\n    /* \"#utility.yul\":2394:2415   */\n  mstore\n    /* \"#utility.yul\":2446:2450   */\n  0x20\n    /* \"#utility.yul\":2439:2444   */\n  dup2\n    /* \"#utility.yul\":2435:2451   */\n  add\n    /* \"#utility.yul\":2484:2487   */\n  dup5\n    /* \"#utility.yul\":2475:2481   */\n  dup5\n    /* \"#utility.yul\":2470:2473   */\n  dup5\n    /* \"#utility.yul\":2466:2482   */\n  add\n    /* \"#utility.yul\":2463:2488   */\n  gt\n    /* \"#utility.yul\":2460:2572   */\n  iszero\n  tag_82\n  jumpi\n    /* \"#utility.yul\":2491:2570   */\n  tag_83\n  tag_29\n  jump\t// in\ntag_83:\n    /* \"#utility.yul\":2460:2572   */\ntag_82:\n    /* \"#utility.yul\":2581:2633   */\n  tag_84\n    /* \"#utility.yul\":2626:2632   */\n  dup5\n    /* \"#utility.yul\":2621:2624   */\n  dup3\n    /* \"#utility.yul\":2616:2619   */\n  dup6\n    /* \"#utility.yul\":2581:2633   */\n  tag_31\n  jump\t// in\ntag_84:\n    /* \"#utility.yul\":2300:2639   */\n  pop\n    /* \"#utility.yul\":2205:2639   */\n  swap4\n  swap3\n  pop\n  pop\n  pop\n  jump\t// out\n    /* \"#utility.yul\":2659:3014   */\ntag_33:\n    /* \"#utility.yul\":2726:2731   */\n  0x00\n    /* \"#utility.yul\":2775:2778   */\n  dup3\n    /* \"#utility.yul\":2768:2772   */\n  0x1f\n    /* \"#utility.yul\":2760:2766   */\n  dup4\n    /* \"#utility.yul\":2756:2773   */\n  add\n    /* \"#utility.yul\":2752:2779   */\n  slt\n    /* \"#utility.yul\":2742:2864   */\n  tag_86\n  jumpi\n    /* \"#utility.yul\":2783:2862   */\n  tag_87\n  tag_22\n  jump\t// in\ntag_87:\n    /* \"#utility.yul\":2742:2864   */\ntag_86:\n    /* \"#utility.yul\":2893:2899   */\n  dup2\n    /* \"#utility.yul\":2887:2900   */\n  mload\n    /* \"#utility.yul\":2918:3008   */\n  tag_88\n    /* \"#utility.yul\":3004:3007   */\n  dup5\n    /* \"#utility.yul\":2996:3002   */\n  dup3\n    /* \"#utility.yul\":2989:2993   */\n  0x20\n    /* \"#utility.yul\":2981:2987   */\n  dup7\n    /* \"#utility.yul\":2977:2994   */\n  add\n    /* \"#utility.yul\":2918:3008   */\n  tag_32\n  jump\t// in\ntag_88:\n    /* \"#utility.yul\":2909:3008   */\n  swap2\n  pop\n    /* \"#utility.yul\":2732:3014   */\n  pop\n    /* \"#utility.yul\":2659:3014   */\n  swap3\n  swap2\n  pop\n  pop\n  jump\t// out\n    /* \"#utility.yul\":3036:3996   */\ntag_34:\n    /* \"#utility.yul\":3153:3158   */\n  0x00\n    /* \"#utility.yul\":3178:3269   */\n  tag_90\n    /* \"#utility.yul\":3194:3268   */\n  tag_91\n    /* \"#utility.yul\":3261:3267   */\n  dup5\n    /* \"#utility.yul\":3194:3268   */\n  tag_27\n  jump\t// in\ntag_91:\n    /* \"#utility.yul\":3178:3269   */\n  tag_26\n  jump\t// in\ntag_90:\n    /* \"#utility.yul\":3169:3269   */\n  swap1\n  pop\n    /* \"#utility.yul\":3289:3294   */\n  dup1\n    /* \"#utility.yul\":3318:3324   */\n  dup4\n    /* \"#utility.yul\":3311:3316   */\n  dup3\n    /* \"#utility.yul\":3304:3325   */\n  mstore\n    /* \"#utility.yul\":3352:3356   */\n  0x20\n    /* \"#utility.yul\":3345:3350   */\n  dup3\n    /* \"#utility.yul\":3341:3357   */\n  add\n    /* \"#utility.yul\":3334:3357   */\n  swap1\n  pop\n    /* \"#utility.yul\":3405:3409   */\n  0x20\n    /* \"#utility.yul\":3397:3403   */\n  dup5\n    /* \"#utility.yul\":3393:3410   */\n  mul\n    /* \"#utility.yul\":3385:3391   */\n  dup4\n    /* \"#utility.yul\":3381:3411   */\n  add\n    /* \"#utility.yul\":3434:3437   */\n  dup6\n    /* \"#utility.yul\":3426:3432   */\n  dup2\n    /* \"#utility.yul\":3423:3438   */\n  gt\n    /* \"#utility.yul\":3420:3542   */\n  iszero\n  tag_92\n  jumpi\n    /* \"#utility.yul\":3453:3532   */\n  tag_93\n  tag_28\n  jump\t// in\ntag_93:\n    /* \"#utility.yul\":3420:3542   */\ntag_92:\n    /* \"#utility.yul\":3568:3574   */\n  dup4\n    /* \"#utility.yul\":3551:3990   */\ntag_94:\n    /* \"#utility.yul\":3585:3591   */\n  dup2\n    /* \"#utility.yul\":3580:3583   */\n  dup2\n    /* \"#utility.yul\":3577:3592   */\n  lt\n    /* \"#utility.yul\":3551:3990   */\n  iszero\n  tag_96\n  jumpi\n    /* \"#utility.yul\":3667:3670   */\n  dup1\n    /* \"#utility.yul\":3661:3671   */\n  mload\n    /* \"#utility.yul\":3703:3721   */\n  0xffffffffffffffff\n    /* \"#utility.yul\":3690:3701   */\n  dup2\n    /* \"#utility.yul\":3687:3722   */\n  gt\n    /* \"#utility.yul\":3684:3806   */\n  iszero\n  tag_97\n  jumpi\n    /* \"#utility.yul\":3725:3804   */\n  tag_98\n  tag_22\n  jump\t// in\ntag_98:\n    /* \"#utility.yul\":3684:3806   */\ntag_97:\n    /* \"#utility.yul\":3849:3860   */\n  dup1\n    /* \"#utility.yul\":3841:3847   */\n  dup7\n    /* \"#utility.yul\":3837:3861   */\n  add\n    /* \"#utility.yul\":3887:3945   */\n  tag_99\n    /* \"#utility.yul\":3941:3944   */\n  dup10\n    /* \"#utility.yul\":3929:3939   */\n  dup3\n    /* \"#utility.yul\":3887:3945   */\n  tag_33\n  jump\t// in\ntag_99:\n    /* \"#utility.yul\":3882:3885   */\n  dup6\n    /* \"#utility.yul\":3875:3946   */\n  mstore\n    /* \"#utility.yul\":3975:3979   */\n  0x20\n    /* \"#utility.yul\":3970:3973   */\n  dup6\n    /* \"#utility.yul\":3966:3980   */\n  add\n    /* \"#utility.yul\":3959:3980   */\n  swap5\n  pop\n    /* \"#utility.yul\":3627:3990   */\n  pop\n  pop\n    /* \"#utility.yul\":3611:3615   */\n  0x20\n    /* \"#utility.yul\":3606:3609   */\n  dup2\n    /* \"#utility.yul\":3602:3616   */\n  add\n    /* \"#utility.yul\":3595:3616   */\n  swap1\n  pop\n    /* \"#utility.yul\":3551:3990   */\n  jump(tag_94)\ntag_96:\n    /* \"#utility.yul\":3555:3576   */\n  pop\n    /* \"#utility.yul\":3159:3996   */\n  pop\n  pop\n    /* \"#utility.yul\":3036:3996   */\n  swap4\n  swap3\n  pop\n  pop\n  pop\n  jump\t// out\n    /* \"#utility.yul\":4018:4423   */\ntag_35:\n    /* \"#utility.yul\":4110:4115   */\n  0x00\n    /* \"#utility.yul\":4159:4162   */\n  dup3\n    /* \"#utility.yul\":4152:4156   */\n  0x1f\n    /* \"#utility.yul\":4144:4150   */\n  dup4\n    /* \"#utility.yul\":4140:4157   */\n  add\n    /* \"#utility.yul\":4136:4163   */\n  slt\n    /* \"#utility.yul\":4126:4248   */\n  tag_101\n  jumpi\n    /* \"#utility.yul\":4167:4246   */\n  tag_102\n  tag_22\n  jump\t// in\ntag_102:\n    /* \"#utility.yul\":4126:4248   */\ntag_101:\n    /* \"#utility.yul\":4277:4283   */\n  dup2\n    /* \"#utility.yul\":4271:4284   */\n  mload\n    /* \"#utility.yul\":4302:4417   */\n  tag_103\n    /* \"#utility.yul\":4413:4416   */\n  dup5\n    /* \"#utility.yul\":4405:4411   */\n  dup3\n    /* \"#utility.yul\":4398:4402   */\n  0x20\n    /* \"#utility.yul\":4390:4396   */\n  dup7\n    /* \"#utility.yul\":4386:4403   */\n  add\n    /* \"#utility.yul\":4302:4417   */\n  tag_34\n  jump\t// in\ntag_103:\n    /* \"#utility.yul\":4293:4417   */\n  swap2\n  pop\n    /* \"#utility.yul\":4116:4423   */\n  pop\n    /* \"#utility.yul\":4018:4423   */\n  swap3\n  swap2\n  pop\n  pop\n  jump\t// out\n    /* \"#utility.yul\":4429:5003   */\ntag_3:\n    /* \"#utility.yul\":4534:4540   */\n  0x00\n    /* \"#utility.yul\":4583:4585   */\n  0x20\n    /* \"#utility.yul\":4571:4580   */\n  dup3\n    /* \"#utility.yul\":4562:4569   */\n  dup5\n    /* \"#utility.yul\":4558:4581   */\n  sub\n    /* \"#utility.yul\":4554:4586   */\n  slt\n    /* \"#utility.yul\":4551:4670   */\n  iszero\n  tag_105\n  jumpi\n    /* \"#utility.yul\":4589:4668   */\n  tag_106\n  tag_20\n  jump\t// in\ntag_106:\n    /* \"#utility.yul\":4551:4670   */\ntag_105:\n    /* \"#utility.yul\":4730:4731   */\n  0x00\n    /* \"#utility.yul\":4719:4728   */\n  dup3\n    /* \"#utility.yul\":4715:4732   */\n  add\n    /* \"#utility.yul\":4709:4733   */\n  mload\n    /* \"#utility.yul\":4760:4778   */\n  0xffffffffffffffff\n    /* \"#utility.yul\":4752:4758   */\n  dup2\n    /* \"#utility.yul\":4749:4779   */\n  gt\n    /* \"#utility.yul\":4746:4863   */\n  iszero\n  tag_107\n  jumpi\n    /* \"#utility.yul\":4782:4861   */\n  tag_108\n  tag_21\n  jump\t// in\ntag_108:\n    /* \"#utility.yul\":4746:4863   */\ntag_107:\n    /* \"#utility.yul\":4887:4986   */\n  tag_109\n    /* \"#utility.yul\":4978:4985   */\n  dup5\n    /* \"#utility.yul\":4969:4975   */\n  dup3\n    /* \"#utility.yul\":4958:4967   */\n  dup6\n    /* \"#utility.yul\":4954:4976   */\n  add\n    /* \"#utility.yul\":4887:4986   */\n  tag_35\n  jump\t// in\ntag_109:\n    /* \"#utility.yul\":4877:4986   */\n  swap2\n  pop\n    /* \"#utility.yul\":4680:4996   */\n  pop\n    /* \"#utility.yul\":4429:5003   */\n  swap3\n  swap2\n  pop\n  pop\n  jump\t// out\n    /* \"#utility.yul\":5009:5189   */\ntag_8:\n    /* \"#utility.yul\":5057:5134   */\n  0x4e487b7100000000000000000000000000000000000000000000000000000000\n    /* \"#utility.yul\":5054:5055   */\n  0x00\n    /* \"#utility.yul\":5047:5135   */\n  mstore\n    /* \"#utility.yul\":5154:5158   */\n  0x21\n    /* \"#utility.yul\":5151:5152   */\n  0x04\n    /* \"#utility.yul\":5144:5159   */\n  mstore\n    /* \"#utility.yul\":5178:5182   */\n  0x24\n    /* \"#utility.yul\":5175:5176   */\n  0x00\n    /* \"#utility.yul\":5168:5183   */\n  revert\n    /* \"#utility.yul\":5195:5375   */\ntag_14:\n    /* \"#utility.yul\":5243:5320   */\n  0x4e487b7100000000000000000000000000000000000000000000000000000000\n    /* \"#utility.yul\":5240:5241   */\n  0x00\n    /* \"#utility.yul\":5233:5321   */\n  mstore\n    /* \"#utility.yul\":5340:5344   */\n  0x32\n    /* \"#utility.yul\":5337:5338   */\n  0x04\n    /* \"#utility.yul\":5330:5345   */\n  mstore\n    /* \"#utility.yul\":5364:5368   */\n  0x24\n    /* \"#utility.yul\":5361:5362   */\n  0x00\n    /* \"#utility.yul\":5354:5369   */\n  revert\n    /* \"#utility.yul\":5381:5480   */\ntag_36:\n    /* \"#utility.yul\":5433:5439   */\n  0x00\n    /* \"#utility.yul\":5467:5472   */\n  dup2\n    /* \"#utility.yul\":5461:5473   */\n  mload\n    /* \"#utility.yul\":5451:5473   */\n  swap1\n  pop\n    /* \"#utility.yul\":5381:5480   */\n  swap2\n  swap1\n  pop\n  jump\t// out\n    /* \"#utility.yul\":5486:5666   */\ntag_37:\n    /* \"#utility.yul\":5534:5611   */\n  0x4e487b7100000000000000000000000000000000000000000000000000000000\n    /* \"#utility.yul\":5531:5532   */\n  0x00\n    /* \"#utility.yul\":5524:5612   */\n  mstore\n    /* \"#utility.yul\":5631:5635   */\n  0x22\n    /* \"#utility.yul\":5628:5629   */\n  0x04\n    /* \"#utility.yul\":5621:5636   */\n  mstore\n    /* \"#utility.yul\":5655:5659   */\n  0x24\n    /* \"#utility.yul\":5652:5653   */\n  0x00\n    /* \"#utility.yul\":5645:5660   */\n  revert\n    /* \"#utility.yul\":5672:5992   */\ntag_38:\n    /* \"#utility.yul\":5716:5722   */\n  0x00\n    /* \"#utility.yul\":5753:5754   */\n  0x02\n    /* \"#utility.yul\":5747:5751   */\n  dup3\n    /* \"#utility.yul\":5743:5755   */\n  div\n    /* \"#utility.yul\":5733:5755   */\n  swap1\n  pop\n    /* \"#utility.yul\":5800:5801   */\n  0x01\n    /* \"#utility.yul\":5794:5798   */\n  dup3\n    /* \"#utility.yul\":5790:5802   */\n  and\n    /* \"#utility.yul\":5821:5839   */\n  dup1\n    /* \"#utility.yul\":5811:5892   */\n  tag_115\n  jumpi\n    /* \"#utility.yul\":5877:5881   */\n  0x7f\n    /* \"#utility.yul\":5869:5875   */\n  dup3\n    /* \"#utility.yul\":5865:5882   */\n  and\n    /* \"#utility.yul\":5855:5882   */\n  swap2\n  pop\n    /* \"#utility.yul\":5811:5892   */\ntag_115:\n    /* \"#utility.yul\":5939:5941   */\n  0x20\n    /* \"#utility.yul\":5931:5937   */\n  dup3\n    /* \"#utility.yul\":5928:5942   */\n  lt\n    /* \"#utility.yul\":5908:5926   */\n  dup2\n    /* \"#utility.yul\":5905:5943   */\n  sub\n    /* \"#utility.yul\":5902:5986   */\n  tag_116\n  jumpi\n    /* \"#utility.yul\":5958:5976   */\n  tag_117\n  tag_37\n  jump\t// in\ntag_117:\n    /* \"#utility.yul\":5902:5986   */\ntag_116:\n    /* \"#utility.yul\":5723:5992   */\n  pop\n    /* \"#utility.yul\":5672:5992   */\n  swap2\n  swap1\n  pop\n  jump\t// out\n    /* \"#utility.yul\":5998:6139   */\ntag_39:\n    /* \"#utility.yul\":6047:6051   */\n  0x00\n    /* \"#utility.yul\":6070:6073   */\n  dup2\n    /* \"#utility.yul\":6062:6073   */\n  swap1\n  pop\n    /* \"#utility.yul\":6093:6096   */\n  dup2\n    /* \"#utility.yul\":6090:6091   */\n  0x00\n    /* \"#utility.yul\":6083:6097   */\n  mstore\n    /* \"#utility.yul\":6127:6131   */\n  0x20\n    /* \"#utility.yul\":6124:6125   */\n  0x00\n    /* \"#utility.yul\":6114:6132   */\n  keccak256\n    /* \"#utility.yul\":6106:6132   */\n  swap1\n  pop\n    /* \"#utility.yul\":5998:6139   */\n  swap2\n  swap1\n  pop\n  jump\t// out\n    /* \"#utility.yul\":6145:6238   */\ntag_40:\n    /* \"#utility.yul\":6182:6188   */\n  0x00\n    /* \"#utility.yul\":6229:6231   */\n  0x20\n    /* \"#utility.yul\":6224:6226   */\n  0x1f\n    /* \"#utility.yul\":6217:6222   */\n  dup4\n    /* \"#utility.yul\":6213:6227   */\n  add\n    /* \"#utility.yul\":6209:6232   */\n  div\n    /* \"#utility.yul\":6199:6232   */\n  swap1\n  pop\n    /* \"#utility.yul\":6145:6238   */\n  swap2\n  swap1\n  pop\n  jump\t// out\n    /* \"#utility.yul\":6244:6351   */\ntag_41:\n    /* \"#utility.yul\":6288:6296   */\n  0x00\n    /* \"#utility.yul\":6338:6343   */\n  dup3\n    /* \"#utility.yul\":6332:6336   */\n  dup3\n    /* \"#utility.yul\":6328:6344   */\n  shl\n    /* \"#utility.yul\":6307:6344   */\n  swap1\n  pop\n    /* \"#utility.yul\":6244:6351   */\n  swap3\n  swap2\n  pop\n  pop\n  jump\t// out\n    /* \"#utility.yul\":6357:6750   */\ntag_42:\n    /* \"#utility.yul\":6426:6432   */\n  0x00\n    /* \"#utility.yul\":6476:6477   */\n  0x08\n    /* \"#utility.yul\":6464:6474   */\n  dup4\n    /* \"#utility.yul\":6460:6478   */\n  mul\n    /* \"#utility.yul\":6499:6596   */\n  tag_122\n    /* \"#utility.yul\":6529:6595   */\n  0xffffffffffffffffffffffffffffffffffffffffffffffffffffffffffffffff\n    /* \"#utility.yul\":6518:6527   */\n  dup3\n    /* \"#utility.yul\":6499:6596   */\n  tag_41\n  jump\t// in\ntag_122:\n    /* \"#utility.yul\":6617:6656   */\n  tag_123\n    /* \"#utility.yul\":6647:6655   */\n  dup7\n    /* \"#utility.yul\":6636:6645   */\n  dup4\n    /* \"#utility.yul\":6617:6656   */\n  tag_41\n  jump\t// in\ntag_123:\n    /* \"#utility.yul\":6605:6656   */\n  swap6\n  pop\n    /* \"#utility.yul\":6689:6693   */\n  dup1\n    /* \"#utility.yul\":6685:6694   */\n  not\n    /* \"#utility.yul\":6678:6683   */\n  dup5\n    /* \"#utility.yul\":6674:6695   */\n  and\n    /* \"#utility.yul\":6665:6695   */\n  swap4\n  pop\n    /* \"#utility.yul\":6738:6742   */\n  dup1\n    /* \"#utility.yul\":6728:6736   */\n  dup7\n    /* \"#utility.yul\":6724:6743   */\n  and\n    /* \"#utility.yul\":6717:6722   */\n  dup5\n    /* \"#utility.yul\":6714:6744   */\n  or\n    /* \"#utility.yul\":6704:6744   */\n  swap3\n  pop\n    /* \"#utility.yul\":6433:6750   */\n  pop\n  pop\n    /* \"#utility.yul\":6357:6750   */\n  swap4\n  swap3\n  pop\n  pop\n  pop\n  jump\t// out\n    /* \"#utility.yul\":6756:6833   */\ntag_43:\n    /* \"#utility.yul\":6793:6800   */\n  0x00\n    /* \"#utility.yul\":6822:6827   */\n  dup2\n    /* \"#utility.yul\":6811:6827   */\n  swap1\n  pop\n    /* \"#utility.yul\":6756:6833   */\n  swap2\n  swap1\n  pop\n  jump\t// out\n    /* \"#utility.yul\":6839:6899   */\ntag_44:\n    /* \"#utility.yul\":6867:6870   */\n  0x00\n    /* \"#utility.yul\":6888:6893   */\n  dup2\n    /* \"#utility.yul\":6881:6893   */\n  swap1\n  pop\n    /* \"#utility.yul\":6839:6899   */\n  swap2\n  swap1\n  pop\n  jump\t// out\n    /* \"#utility.yul\":6905:7047   */\ntag_45:\n    /* \"#utility.yul\":6955:6964   */\n  0x00\n    /* \"#utility.yul\":6988:7041   */\n  tag_127\n    /* \"#utility.yul\":7006:7040   */\n  tag_128\n    /* \"#utility.yul\":7015:7039   */\n  tag_129\n    /* \"#utility.yul\":7033:7038   */\n  dup5\n    /* \"#utility.yul\":7015:7039   */\n  tag_43\n  jump\t// in\ntag_129:\n    /* \"#utility.yul\":7006:7040   */\n  tag_44\n  jump\t// in\ntag_128:\n    /* \"#utility.yul\":6988:7041   */\n  tag_43\n  jump\t// in\ntag_127:\n    /* \"#utility.yul\":6975:7041   */\n  swap1\n  pop\n    /* \"#utility.yul\":6905:7047   */\n  swap2\n  swap1\n  pop\n  jump\t// out\n    /* \"#utility.yul\":7053:7128   */\ntag_46:\n    /* \"#utility.yul\":7096:7099   */\n  0x00\n    /* \"#utility.yul\":7117:7122   */\n  dup2\n    /* \"#utility.yul\":7110:7122   */\n  swap1\n  pop\n    /* \"#utility.yul\":7053:7128   */\n  swap2\n  swap1\n  pop\n  jump\t// out\n    /* \"#utility.yul\":7134:7403   */\ntag_47:\n    /* \"#utility.yul\":7244:7283   */\n  tag_132\n    /* \"#utility.yul\":7275:7282   */\n  dup4\n    /* \"#utility.yul\":7244:7283   */\n  tag_45\n  jump\t// in\ntag_132:\n    /* \"#utility.yul\":7305:7396   */\n  tag_133\n    /* \"#utility.yul\":7354:7395   */\n  tag_134\n    /* \"#utility.yul\":7378:7394   */\n  dup3\n    /* \"#utility.yul\":7354:7395   */\n  tag_46\n  jump\t// in\ntag_134:\n    /* \"#utility.yul\":7346:7352   */\n  dup5\n    /* \"#utility.yul\":7339:7343   */\n  dup5\n    /* \"#utility.yul\":7333:7344   */\n  sload\n    /* \"#utility.yul\":7305:7396   */\n  tag_42\n  jump\t// in\ntag_133:\n    /* \"#utility.yul\":7299:7303   */\n  dup3\n    /* \"#utility.yul\":7292:7397   */\n  sstore\n    /* \"#utility.yul\":7210:7403   */\n  pop\n    /* \"#utility.yul\":7134:7403   */\n  pop\n  pop\n  pop\n  jump\t// out\n    /* \"#utility.yul\":7409:7482   */\ntag_48:\n    /* \"#utility.yul\":7454:7457   */\n  0x00\n    /* \"#utility.yul\":7409:7482   */\n  swap1\n  jump\t// out\n    /* \"#utility.yul\":7488:7677   */\ntag_49:\n    /* \"#utility.yul\":7565:7597   */\n  tag_137\n  tag_48\n  jump\t// in\ntag_137:\n    /* \"#utility.yul\":7606:7671   */\n  tag_138\n    /* \"#utility.yul\":7664:7670   */\n  dup2\n    /* \"#utility.yul\":7656:7662   */\n  dup5\n    /* \"#utility.yul\":7650:7654   */\n  dup5\n    /* \"#utility.yul\":7606:7671   */\n  tag_47\n  jump\t// in\ntag_138:\n    /* \"#utility.yul\":7541:7677   */\n  pop\n    /* \"#utility.yul\":7488:7677   */\n  pop\n  pop\n  jump\t// out\n    /* \"#utility.yul\":7683:7869   */\ntag_50:\n    /* \"#utility.yul\":7743:7863   */\ntag_140:\n    /* \"#utility.yul\":7760:7763   */\n  dup2\n    /* \"#utility.yul\":7753:7758   */\n  dup2\n    /* \"#utility.yul\":7750:7764   */\n  lt\n    /* \"#utility.yul\":7743:7863   */\n  iszero\n  tag_142\n  jumpi\n    /* \"#utility.yul\":7814:7853   */\n  tag_143\n    /* \"#utility.yul\":7851:7852   */\n  0x00\n    /* \"#utility.yul\":7844:7849   */\n  dup3\n    /* \"#utility.yul\":7814:7853   */\n  tag_49\n  jump\t// in\ntag_143:\n    /* \"#utility.yul\":7787:7788   */\n  0x01\n    /* \"#utility.yul\":7780:7785   */\n  dup2\n    /* \"#utility.yul\":7776:7789   */\n  add\n    /* \"#utility.yul\":7767:7789   */\n  swap1\n  pop\n    /* \"#utility.yul\":7743:7863   */\n  jump(tag_140)\ntag_142:\n    /* \"#utility.yul\":7683:7869   */\n  pop\n  pop\n  jump\t// out\n    /* \"#utility.yul\":7875:8418   */\ntag_51:\n    /* \"#utility.yul\":7976:7978   */\n  0x1f\n    /* \"#utility.yul\":7971:7974   */\n  dup3\n    /* \"#utility.yul\":7968:7979   */\n  gt\n    /* \"#utility.yul\":7965:8411   */\n  iszero\n  tag_145\n  jumpi\n    /* \"#utility.yul\":8010:8048   */\n  tag_146\n    /* \"#utility.yul\":8042:8047   */\n  dup2\n    /* \"#utility.yul\":8010:8048   */\n  tag_39\n  jump\t// in\ntag_146:\n    /* \"#utility.yul\":8094:8123   */\n  tag_147\n    /* \"#utility.yul\":8112:8122   */\n  dup5\n    /* \"#utility.yul\":8094:8123   */\n  tag_40\n  jump\t// in\ntag_147:\n    /* \"#utility.yul\":8084:8092   */\n  dup2\n    /* \"#utility.yul\":8080:8124   */\n  add\n    /* \"#utility.yul\":8277:8279   */\n  0x20\n    /* \"#utility.yul\":8265:8275   */\n  dup6\n    /* \"#utility.yul\":8262:8280   */\n  lt\n    /* \"#utility.yul\":8259:8308   */\n  iszero\n  tag_148\n  jumpi\n    /* \"#utility.yul\":8298:8306   */\n  dup2\n    /* \"#utility.yul\":8283:8306   */\n  swap1\n  pop\n    /* \"#utility.yul\":8259:8308   */\ntag_148:\n    /* \"#utility.yul\":8321:8401   */\n  tag_149\n    /* \"#utility.yul\":8377:8399   */\n  tag_150\n    /* \"#utility.yul\":8395:8398   */\n  dup6\n    /* \"#utility.yul\":8377:8399   */\n  tag_40\n  jump\t// in\ntag_150:\n    /* \"#utility.yul\":8367:8375   */\n  dup4\n    /* \"#utility.yul\":8363:8400   */\n  add\n    /* \"#utility.yul\":8350:8361   */\n  dup3\n    /* \"#utility.yul\":8321:8401   */\n  tag_50\n  jump\t// in\ntag_149:\n    /* \"#utility.yul\":7980:8411   */\n  pop\n  pop\n    /* \"#utility.yul\":7965:8411   */\ntag_145:\n    /* \"#utility.yul\":7875:8418   */\n  pop\n  pop\n  pop\n  jump\t// out\n    /* \"#utility.yul\":8424:8541   */\ntag_52:\n    /* \"#utility.yul\":8478:8486   */\n  0x00\n    /* \"#utility.yul\":8528:8533   */\n  dup3\n    /* \"#utility.yul\":8522:8526   */\n  dup3\n    /* \"#utility.yul\":8518:8534   */\n  shr\n    /* \"#utility.yul\":8497:8534   */\n  swap1\n  pop\n    /* \"#utility.yul\":8424:8541   */\n  swap3\n  swap2\n  pop\n  pop\n  jump\t// out\n    /* \"#utility.yul\":8547:8716   */\ntag_53:\n    /* \"#utility.yul\":8591:8597   */\n  0x00\n    /* \"#utility.yul\":8624:8675   */\n  tag_153\n    /* \"#utility.yul\":8672:8673   */\n  0x00\n    /* \"#utility.yul\":8668:8674   */\n  not\n    /* \"#utility.yul\":8660:8665   */\n  dup5\n    /* \"#utility.yul\":8657:8658   */\n  0x08\n    /* \"#utility.yul\":8653:8666   */\n  mul\n    /* \"#utility.yul\":8624:8675   */\n  tag_52\n  jump\t// in\ntag_153:\n    /* \"#utility.yul\":8620:8676   */\n  not\n    /* \"#utility.yul\":8705:8709   */\n  dup1\n    /* \"#utility.yul\":8699:8703   */\n  dup4\n    /* \"#utility.yul\":8695:8710   */\n  and\n    /* \"#utility.yul\":8685:8710   */\n  swap2\n  pop\n    /* \"#utility.yul\":8598:8716   */\n  pop\n    /* \"#utility.yul\":8547:8716   */\n  swap3\n  swap2\n  pop\n  pop\n  jump\t// out\n    /* \"#utility.yul\":8721:9016   */\ntag_54:\n    /* \"#utility.yul\":8797:8801   */\n  0x00\n    /* \"#utility.yul\":8943:8972   */\n  tag_155\n    /* \"#utility.yul\":8968:8971   */\n  dup4\n    /* \"#utility.yul\":8962:8966   */\n  dup4\n    /* \"#utility.yul\":8943:8972   */\n  tag_53\n  jump\t// in\ntag_155:\n    /* \"#utility.yul\":8935:8972   */\n  swap2\n  pop\n    /* \"#utility.yul\":9005:9008   */\n  dup3\n    /* \"#utility.yul\":9002:9003   */\n  0x02\n    /* \"#utility.yul\":8998:9009   */\n  mul\n    /* \"#utility.yul\":8992:8996   */\n  dup3\n    /* \"#utility.yul\":8989:9010   */\n  or\n    /* \"#utility.yul\":8981:9010   */\n  swap1\n  pop\n    /* \"#utility.yul\":8721:9016   */\n  swap3\n  swap2\n  pop\n  pop\n  jump\t// out\n    /* \"#utility.yul\":9021:10416   */\ntag_17:\n    /* \"#utility.yul\":9138:9175   */\n  tag_157\n    /* \"#utility.yul\":9171:9174   */\n  dup3\n    /* \"#utility.yul\":9138:9175   */\n  tag_36\n  jump\t// in\ntag_157:\n    /* \"#utility.yul\":9240:9258   */\n  0xffffffffffffffff\n    /* \"#utility.yul\":9232:9238   */\n  dup2\n    /* \"#utility.yul\":9229:9259   */\n  gt\n    /* \"#utility.yul\":9226:9282   */\n  iszero\n  tag_158\n  jumpi\n    /* \"#utility.yul\":9262:9280   */\n  tag_159\n  tag_24\n  jump\t// in\ntag_159:\n    /* \"#utility.yul\":9226:9282   */\ntag_158:\n    /* \"#utility.yul\":9306:9344   */\n  tag_160\n    /* \"#utility.yul\":9338:9342   */\n  dup3\n    /* \"#utility.yul\":9332:9343   */\n  sload\n    /* \"#utility.yul\":9306:9344   */\n  tag_38\n  jump\t// in\ntag_160:\n    /* \"#utility.yul\":9391:9458   */\n  tag_161\n    /* \"#utility.yul\":9451:9457   */\n  dup3\n    /* \"#utility.yul\":9443:9449   */\n  dup3\n    /* \"#utility.yul\":9437:9441   */\n  dup6\n    /* \"#utility.yul\":9391:9458   */\n  tag_51\n  jump\t// in\ntag_161:\n    /* \"#utility.yul\":9485:9486   */\n  0x00\n    /* \"#utility.yul\":9509:9513   */\n  0x20\n    /* \"#utility.yul\":9496:9513   */\n  swap1\n  pop\n    /* \"#utility.yul\":9541:9543   */\n  0x1f\n    /* \"#utility.yul\":9533:9539   */\n  dup4\n    /* \"#utility.yul\":9530:9544   */\n  gt\n    /* \"#utility.yul\":9558:9559   */\n  0x01\n    /* \"#utility.yul\":9553:10171   */\n  dup2\n  eq\n  tag_163\n  jumpi\n    /* \"#utility.yul\":10215:10216   */\n  0x00\n    /* \"#utility.yul\":10232:10238   */\n  dup5\n    /* \"#utility.yul\":10229:10306   */\n  iszero\n  tag_164\n  jumpi\n    /* \"#utility.yul\":10281:10290   */\n  dup3\n    /* \"#utility.yul\":10276:10279   */\n  dup8\n    /* \"#utility.yul\":10272:10291   */\n  add\n    /* \"#utility.yul\":10266:10292   */\n  mload\n    /* \"#utility.yul\":10257:10292   */\n  swap1\n  pop\n    /* \"#utility.yul\":10229:10306   */\ntag_164:\n    /* \"#utility.yul\":10332:10399   */\n  tag_165\n    /* \"#utility.yul\":10392:10398   */\n  dup6\n    /* \"#utility.yul\":10385:10390   */\n  dup3\n    /* \"#utility.yul\":10332:10399   */\n  tag_54\n  jump\t// in\ntag_165:\n    /* \"#utility.yul\":10326:10330   */\n  dup7\n    /* \"#utility.yul\":10319:10400   */\n  sstore\n    /* \"#utility.yul\":10188:10410   */\n  pop\n    /* \"#utility.yul\":9523:10410   */\n  jump(tag_162)\n    /* \"#utility.yul\":9553:10171   */\ntag_163:\n    /* \"#utility.yul\":9605:9609   */\n  0x1f\n    /* \"#utility.yul\":9601:9610   */\n  not\n    /* \"#utility.yul\":9593:9599   */\n  dup5\n    /* \"#utility.yul\":9589:9611   */\n  and\n    /* \"#utility.yul\":9639:9676   */\n  tag_166\n    /* \"#utility.yul\":9671:9675   */\n  dup7\n    /* \"#utility.yul\":9639:9676   */\n  tag_39\n  jump\t// in\ntag_166:\n    /* \"#utility.yul\":9698:9699   */\n  0x00\n    /* \"#utility.yul\":9712:9920   */\ntag_167:\n    /* \"#utility.yul\":9726:9733   */\n  dup3\n    /* \"#utility.yul\":9723:9724   */\n  dup2\n    /* \"#utility.yul\":9720:9734   */\n  lt\n    /* \"#utility.yul\":9712:9920   */\n  iszero\n  tag_169\n  jumpi\n    /* \"#utility.yul\":9805:9814   */\n  dup5\n    /* \"#utility.yul\":9800:9803   */\n  dup10\n    /* \"#utility.yul\":9796:9815   */\n  add\n    /* \"#utility.yul\":9790:9816   */\n  mload\n    /* \"#utility.yul\":9782:9788   */\n  dup3\n    /* \"#utility.yul\":9775:9817   */\n  sstore\n    /* \"#utility.yul\":9856:9857   */\n  0x01\n    /* \"#utility.yul\":9848:9854   */\n  dup3\n    /* \"#utility.yul\":9844:9858   */\n  add\n    /* \"#utility.yul\":9834:9858   */\n  swap2\n  pop\n    /* \"#utility.yul\":9903:9905   */\n  0x20\n    /* \"#utility.yul\":9892:9901   */\n  dup6\n    /* \"#utility.yul\":9888:9906   */\n  add\n    /* \"#utility.yul\":9875:9906   */\n  swap5\n  pop\n    /* \"#utility.yul\":9749:9753   */\n  0x20\n    /* \"#utility.yul\":9746:9747   */\n  dup2\n    /* \"#utility.yul\":9742:9754   */\n  add\n    /* \"#utility.yul\":9737:9754   */\n  swap1\n  pop\n    /* \"#utility.yul\":9712:9920   */\n  jump(tag_167)\ntag_169:\n    /* \"#utility.yul\":9948:9954   */\n  dup7\n    /* \"#utility.yul\":9939:9946   */\n  dup4\n    /* \"#utility.yul\":9936:9955   */\n  lt\n    /* \"#utility.yul\":9933:10112   */\n  iszero\n  tag_170\n  jumpi\n    /* \"#utility.yul\":10006:10015   */\n  dup5\n    /* \"#utility.yul\":10001:10004   */\n  dup10\n    /* \"#utility.yul\":9997:10016   */\n  add\n    /* \"#utility.yul\":9991:10017   */\n  mload\n    /* \"#utility.yul\":10049:10097   */\n  tag_171\n    /* \"#utility.yul\":10091:10095   */\n  0x1f\n    /* \"#utility.yul\":10083:10089   */\n  dup10\n    /* \"#utility.yul\":10079:10096   */\n  and\n    /* \"#utility.yul\":10068:10077   */\n  dup3\n    /* \"#utility.yul\":10049:10097   */\n  tag_53\n  jump\t// in\ntag_171:\n    /* \"#utility.yul\":10041:10047   */\n  dup4\n    /* \"#utility.yul\":10034:10098   */\n  sstore\n    /* \"#utility.yul\":9956:10112   */\n  pop\n    /* \"#utility.yul\":9933:10112   */\ntag_170:\n    /* \"#utility.yul\":10158:10159   */\n  0x01\n    /* \"#utility.yul\":10154:10155   */\n  0x02\n    /* \"#utility.yul\":10146:10152   */\n  dup9\n    /* \"#utility.yul\":10142:10156   */\n  mul\n    /* \"#utility.yul\":10138:10160   */\n  add\n    /* \"#utility.yul\":10132:10136   */\n  dup9\n    /* \"#utility.yul\":10125:10161   */\n  sstore\n    /* \"#utility.yul\":9560:10171   */\n  pop\n  pop\n  pop\n    /* \"#utility.yul\":9523:10410   */\ntag_162:\n  pop\n    /* \"#utility.yul\":9113:10416   */\n  pop\n  pop\n  pop\n    /* \"#utility.yul\":9021:10416   */\n  pop\n  pop\n  jump\t// out\n    /* \"Voting Sytem.sol\":186:4210  contract Ballot {... */\ntag_18:\n  dataSize(sub_0)\n  dup1\n  dataOffset(sub_0)\n  0x00\n  codecopy\n  0x00\n  return\nstop\n\nsub_0: assembly {\n        /* \"Voting Sytem.sol\":186:4210  contract Ballot {... */\n      mstore(0x40, 0x80)\n      callvalue\n      dup1\n      iszero\n      tag_1\n      jumpi\n      0x00\n      dup1\n      revert\n    tag_1:\n      pop\n      jumpi(tag_2, lt(calldatasize, 0x04))\n      shr(0xe0, calldataload(0x00))\n      dup1\n      0xa3ec138d\n      gt\n      tag_13\n      jumpi\n      dup1\n      0xa3ec138d\n      eq\n      tag_8\n      jumpi\n      dup1\n      0xa999e562\n      eq\n      tag_9\n      jumpi\n      dup1\n      0xb9223946\n      eq\n      tag_10\n      jumpi\n      dup1\n      0xc19d93fb\n      eq\n      tag_11\n      jumpi\n      dup1\n      0xd28178d7\n      eq\n      tag_12\n      jumpi\n      jump(tag_2)\n    tag_13:\n      dup1\n      0x0121b93f\n      eq\n      tag_3\n      jumpi\n      dup1\n      0x2e4176cf\n      eq\n      tag_4\n      jumpi\n      dup1\n      0x3477ee2e\n      eq\n      tag_5\n      jumpi\n      dup1\n      0x4c0a6af0\n      eq\n      tag_6\n      jumpi\n      dup1\n      0x9e7b8d61\n      eq\n      tag_7\n      jumpi\n    tag_2:\n      0x00\n      dup1\n      revert\n        /* \"Voting Sytem.sol\":3259:3769  function vote(uint candidate) ... */\n    tag_3:\n      tag_14\n      0x04\n      dup1\n      calldatasize\n      sub\n      dup2\n      add\n      swap1\n      tag_15\n      swap2\n      swap1\n      tag_16\n      jump\t// in\n    tag_15:\n      tag_17\n      jump\t// in\n    tag_14:\n      stop\n        /* \"Voting Sytem.sol\":549:575  address public chairperson */\n    tag_4:\n      tag_18\n      tag_19\n      jump\t// in\n    tag_18:\n      mload(0x40)\n      tag_20\n      swap2\n      swap1\n      tag_21\n      jump\t// in\n    tag_20:\n      mload(0x40)\n      dup1\n      swap2\n      sub\n      swap1\n      return\n        /* \"Voting Sytem.sol\":632:661  Candidate[] public candidates */\n    tag_5:\n      tag_22\n      0x04\n      dup1\n      calldatasize\n      sub\n      dup2\n      add\n      swap1\n      tag_23\n      swap2\n      swap1\n      tag_16\n      jump\t// in\n    tag_23:\n      tag_24\n      jump\t// in\n    tag_22:\n      mload(0x40)\n      tag_25\n      swap3\n      swap2\n      swap1\n      tag_26\n      jump\t// in\n    tag_25:\n      mload(0x40)\n      dup1\n      swap2\n      sub\n      swap1\n      return\n        /* \"Voting Sytem.sol\":2136:2272  function startVote() ... */\n    tag_6:\n      tag_27\n      tag_28\n      jump\t// in\n    tag_27:\n      stop\n        /* \"Voting Sytem.sol\":2693:3059  function giveRightToVote(address voter) public {... */\n    tag_7:\n      tag_29\n      0x04\n      dup1\n      calldatasize\n      sub\n      dup2\n      add\n      swap1\n      tag_30\n      swap2\n      swap1\n      tag_31\n      jump\t// in\n    tag_30:\n      tag_32\n      jump\t// in\n    tag_29:\n      stop\n        /* \"Voting Sytem.sol\":584:623  mapping(address => Voter) public voters */\n    tag_8:\n      tag_33\n      0x04\n      dup1\n      calldatasize\n      sub\n      dup2\n      add\n      swap1\n      tag_34\n      swap2\n      swap1\n      tag_31\n      jump\t// in\n    tag_34:\n      tag_35\n      jump\t// in\n    tag_33:\n      mload(0x40)\n      tag_36\n      swap4\n      swap3\n      swap2\n      swap1\n      tag_37\n      jump\t// in\n    tag_36:\n      mload(0x40)\n      dup1\n      swap2\n      sub\n      swap1\n      return\n        /* \"Voting Sytem.sol\":1749:2089  function addCandidates(string[] memory candidateNames) ... */\n    tag_9:\n      tag_38\n      0x04\n      dup1\n      calldatasize\n      sub\n      dup2\n      add\n      swap1\n      tag_39\n      swap2\n      swap1\n      tag_40\n      jump\t// in\n    tag_39:\n      tag_41\n      jump\t// in\n    tag_38:\n      stop\n        /* \"Voting Sytem.sol\":2388:2521  function endVote() ... */\n    tag_10:\n      tag_42\n      tag_43\n      jump\t// in\n    tag_42:\n      stop\n        /* \"Voting Sytem.sol\":749:767  State public state */\n    tag_11:\n      tag_44\n      tag_45\n      jump\t// in\n    tag_44:\n      mload(0x40)\n      tag_46\n      swap2\n      swap1\n      tag_47\n      jump\t// in\n    tag_46:\n      mload(0x40)\n      dup1\n      swap2\n      sub\n      swap1\n      return\n        /* \"Voting Sytem.sol\":3777:4207  function winningCandidate() ... */\n    tag_12:\n      tag_48\n      tag_49\n      jump\t// in\n    tag_48:\n      mload(0x40)\n      tag_50\n      swap2\n      swap1\n      tag_51\n      jump\t// in\n    tag_50:\n      mload(0x40)\n      dup1\n      swap2\n      sub\n      swap1\n      return\n        /* \"Voting Sytem.sol\":3259:3769  function vote(uint candidate) ... */\n    tag_17:\n        /* \"Voting Sytem.sol\":1549:1561  State.Voting */\n      0x01\n        /* \"Voting Sytem.sol\":1540:1561  state == State.Voting */\n      0x02\n      dup2\n      gt\n      iszero\n      tag_53\n      jumpi\n      tag_54\n      tag_55\n      jump\t// in\n    tag_54:\n    tag_53:\n        /* \"Voting Sytem.sol\":1540:1545  state */\n      0x03\n      0x00\n      swap1\n      sload\n      swap1\n      0x0100\n      exp\n      swap1\n      div\n      0xff\n      and\n        /* \"Voting Sytem.sol\":1540:1561  state == State.Voting */\n      0x02\n      dup2\n      gt\n      iszero\n      tag_56\n      jumpi\n      tag_57\n      tag_55\n      jump\t// in\n    tag_57:\n    tag_56:\n      eq\n        /* \"Voting Sytem.sol\":1532:1593  require(state == State.Voting, \"it must be in Voting Period\") */\n      tag_58\n      jumpi\n      mload(0x40)\n      0x08c379a000000000000000000000000000000000000000000000000000000000\n      dup2\n      mstore\n      0x04\n      add\n      tag_59\n      swap1\n      tag_60\n      jump\t// in\n    tag_59:\n      mload(0x40)\n      dup1\n      swap2\n      sub\n      swap1\n      revert\n    tag_58:\n        /* \"Voting Sytem.sol\":3343:3363  Voter storage sender */\n      0x00\n        /* \"Voting Sytem.sol\":3366:3372  voters */\n      0x01\n        /* \"Voting Sytem.sol\":3366:3384  voters[msg.sender] */\n      0x00\n        /* \"Voting Sytem.sol\":3373:3383  msg.sender */\n      caller\n        /* \"Voting Sytem.sol\":3366:3384  voters[msg.sender] */\n      0xffffffffffffffffffffffffffffffffffffffff\n      and\n      0xffffffffffffffffffffffffffffffffffffffff\n      and\n      dup2\n      mstore\n      0x20\n      add\n      swap1\n      dup2\n      mstore\n      0x20\n      add\n      0x00\n      keccak256\n        /* \"Voting Sytem.sol\":3343:3384  Voter storage sender = voters[msg.sender] */\n      swap1\n      pop\n        /* \"Voting Sytem.sol\":3420:3421  0 */\n      0x00\n        /* \"Voting Sytem.sol\":3403:3409  sender */\n      dup2\n        /* \"Voting Sytem.sol\":3403:3416  sender.weight */\n      0x00\n      add\n      sload\n        /* \"Voting Sytem.sol\":3403:3421  sender.weight != 0 */\n      sub\n        /* \"Voting Sytem.sol\":3395:3446  require(sender.weight != 0, \"Has no right to vote\") */\n      tag_62\n      jumpi\n      mload(0x40)\n      0x08c379a000000000000000000000000000000000000000000000000000000000\n      dup2\n      mstore\n      0x04\n      add\n      tag_63\n      swap1\n      tag_64\n      jump\t// in\n    tag_63:\n      mload(0x40)\n      dup1\n      swap2\n      sub\n      swap1\n      revert\n    tag_62:\n        /* \"Voting Sytem.sol\":3466:3472  sender */\n      dup1\n        /* \"Voting Sytem.sol\":3466:3478  sender.voted */\n      0x01\n      add\n      0x00\n      swap1\n      sload\n      swap1\n      0x0100\n      exp\n      swap1\n      div\n      0xff\n      and\n        /* \"Voting Sytem.sol\":3465:3478  !sender.voted */\n      iszero\n        /* \"Voting Sytem.sol\":3457:3497  require(!sender.voted, \"Already voted.\") */\n      tag_65\n      jumpi\n      mload(0x40)\n      0x08c379a000000000000000000000000000000000000000000000000000000000\n      dup2\n      mstore\n      0x04\n      add\n      tag_66\n      swap1\n      tag_67\n      jump\t// in\n    tag_66:\n      mload(0x40)\n      dup1\n      swap2\n      sub\n      swap1\n      revert\n    tag_65:\n        /* \"Voting Sytem.sol\":3523:3527  true */\n      0x01\n        /* \"Voting Sytem.sol\":3508:3514  sender */\n      dup2\n        /* \"Voting Sytem.sol\":3508:3520  sender.voted */\n      0x01\n      add\n      0x00\n        /* \"Voting Sytem.sol\":3508:3527  sender.voted = true */\n      0x0100\n      exp\n      dup2\n      sload\n      dup2\n      0xff\n      mul\n      not\n      and\n      swap1\n      dup4\n      iszero\n      iszero\n      mul\n      or\n      swap1\n      sstore\n      pop\n        /* \"Voting Sytem.sol\":3552:3561  candidate */\n      dup2\n        /* \"Voting Sytem.sol\":3538:3544  sender */\n      dup2\n        /* \"Voting Sytem.sol\":3538:3549  sender.vote */\n      0x02\n      add\n        /* \"Voting Sytem.sol\":3538:3561  sender.vote = candidate */\n      dup2\n      swap1\n      sstore\n      pop\n        /* \"Voting Sytem.sol\":3748:3754  sender */\n      dup1\n        /* \"Voting Sytem.sol\":3748:3761  sender.weight */\n      0x00\n      add\n      sload\n        /* \"Voting Sytem.sol\":3713:3723  candidates */\n      0x02\n        /* \"Voting Sytem.sol\":3724:3733  candidate */\n      dup4\n        /* \"Voting Sytem.sol\":3713:3734  candidates[candidate] */\n      dup2\n      sload\n      dup2\n      lt\n      tag_68\n      jumpi\n      tag_69\n      tag_70\n      jump\t// in\n    tag_69:\n    tag_68:\n      swap1\n      0x00\n      mstore\n      keccak256(0x00, 0x20)\n      swap1\n      0x02\n      mul\n      add\n        /* \"Voting Sytem.sol\":3713:3744  candidates[candidate].voteCount */\n      0x01\n      add\n      0x00\n        /* \"Voting Sytem.sol\":3713:3761  candidates[candidate].voteCount += sender.weight */\n      dup3\n      dup3\n      sload\n      tag_72\n      swap2\n      swap1\n      tag_73\n      jump\t// in\n    tag_72:\n      swap3\n      pop\n      pop\n      dup2\n      swap1\n      sstore\n      pop\n        /* \"Voting Sytem.sol\":3332:3769  {... */\n      pop\n        /* \"Voting Sytem.sol\":3259:3769  function vote(uint candidate) ... */\n      pop\n      jump\t// out\n        /* \"Voting Sytem.sol\":549:575  address public chairperson */\n    tag_19:\n      0x00\n      dup1\n      sload\n      swap1\n      0x0100\n      exp\n      swap1\n      div\n      0xffffffffffffffffffffffffffffffffffffffff\n      and\n      dup2\n      jump\t// out\n        /* \"Voting Sytem.sol\":632:661  Candidate[] public candidates */\n    tag_24:\n      0x02\n      dup2\n      dup2\n      sload\n      dup2\n      lt\n      tag_74\n      jumpi\n      0x00\n      dup1\n      revert\n    tag_74:\n      swap1\n      0x00\n      mstore\n      keccak256(0x00, 0x20)\n      swap1\n      0x02\n      mul\n      add\n      0x00\n      swap2\n      pop\n      swap1\n      pop\n      dup1\n      0x00\n      add\n      dup1\n      sload\n      tag_76\n      swap1\n      tag_77\n      jump\t// in\n    tag_76:\n      dup1\n      0x1f\n      add\n      0x20\n      dup1\n      swap2\n      div\n      mul\n      0x20\n      add\n      mload(0x40)\n      swap1\n      dup2\n      add\n      0x40\n      mstore\n      dup1\n      swap3\n      swap2\n      swap1\n      dup2\n      dup2\n      mstore\n      0x20\n      add\n      dup3\n      dup1\n      sload\n      tag_78\n      swap1\n      tag_77\n      jump\t// in\n    tag_78:\n      dup1\n      iszero\n      tag_79\n      jumpi\n      dup1\n      0x1f\n      lt\n      tag_80\n      jumpi\n      0x0100\n      dup1\n      dup4\n      sload\n      div\n      mul\n      dup4\n      mstore\n      swap2\n      0x20\n      add\n      swap2\n      jump(tag_79)\n    tag_80:\n      dup3\n      add\n      swap2\n      swap1\n      0x00\n      mstore\n      keccak256(0x00, 0x20)\n      swap1\n    tag_81:\n      dup2\n      sload\n      dup2\n      mstore\n      swap1\n      0x01\n      add\n      swap1\n      0x20\n      add\n      dup1\n      dup4\n      gt\n      tag_81\n      jumpi\n      dup3\n      swap1\n      sub\n      0x1f\n      and\n      dup3\n      add\n      swap2\n    tag_79:\n      pop\n      pop\n      pop\n      pop\n      pop\n      swap1\n      dup1\n      0x01\n      add\n      sload\n      swap1\n      pop\n      dup3\n      jump\t// out\n        /* \"Voting Sytem.sol\":2136:2272  function startVote() ... */\n    tag_28:\n        /* \"Voting Sytem.sol\":1259:1270  chairperson */\n      0x00\n      dup1\n      sload\n      swap1\n      0x0100\n      exp\n      swap1\n      div\n      0xffffffffffffffffffffffffffffffffffffffff\n      and\n        /* \"Voting Sytem.sol\":1245:1270  msg.sender == chairperson */\n      0xffffffffffffffffffffffffffffffffffffffff\n      and\n        /* \"Voting Sytem.sol\":1245:1255  msg.sender */\n      caller\n        /* \"Voting Sytem.sol\":1245:1270  msg.sender == chairperson */\n      0xffffffffffffffffffffffffffffffffffffffff\n      and\n      eq\n        /* \"Voting Sytem.sol\":1223:1343  require(... */\n      tag_83\n      jumpi\n      mload(0x40)\n      0x08c379a000000000000000000000000000000000000000000000000000000000\n      dup2\n      mstore\n      0x04\n      add\n      tag_84\n      swap1\n      tag_85\n      jump\t// in\n    tag_84:\n      mload(0x40)\n      dup1\n      swap2\n      sub\n      swap1\n      revert\n    tag_83:\n        /* \"Voting Sytem.sol\":1427:1440  State.Created */\n      0x00\n        /* \"Voting Sytem.sol\":1418:1440  state == State.Created */\n      0x02\n      dup2\n      gt\n      iszero\n      tag_87\n      jumpi\n      tag_88\n      tag_55\n      jump\t// in\n    tag_88:\n    tag_87:\n        /* \"Voting Sytem.sol\":1418:1423  state */\n      0x03\n      0x00\n      swap1\n      sload\n      swap1\n      0x0100\n      exp\n      swap1\n      div\n      0xff\n      and\n        /* \"Voting Sytem.sol\":1418:1440  state == State.Created */\n      0x02\n      dup2\n      gt\n      iszero\n      tag_89\n      jumpi\n      tag_90\n      tag_55\n      jump\t// in\n    tag_90:\n    tag_89:\n      eq\n        /* \"Voting Sytem.sol\":1410:1466  require(state == State.Created, \"it must be in Started\") */\n      tag_91\n      jumpi\n      mload(0x40)\n      0x08c379a000000000000000000000000000000000000000000000000000000000\n      dup2\n      mstore\n      0x04\n      add\n      tag_92\n      swap1\n      tag_93\n      jump\t// in\n    tag_92:\n      mload(0x40)\n      dup1\n      swap2\n      sub\n      swap1\n      revert\n    tag_91:\n        /* \"Voting Sytem.sol\":2252:2264  State.Voting */\n      0x01\n        /* \"Voting Sytem.sol\":2244:2249  state */\n      0x03\n      0x00\n        /* \"Voting Sytem.sol\":2244:2264  state = State.Voting */\n      0x0100\n      exp\n      dup2\n      sload\n      dup2\n      0xff\n      mul\n      not\n      and\n      swap1\n      dup4\n      0x02\n      dup2\n      gt\n      iszero\n      tag_95\n      jumpi\n      tag_96\n      tag_55\n      jump\t// in\n    tag_96:\n    tag_95:\n      mul\n      or\n      swap1\n      sstore\n      pop\n        /* \"Voting Sytem.sol\":2136:2272  function startVote() ... */\n      jump\t// out\n        /* \"Voting Sytem.sol\":2693:3059  function giveRightToVote(address voter) public {... */\n    tag_32:\n        /* \"Voting Sytem.sol\":2787:2798  chairperson */\n      0x00\n      dup1\n      sload\n      swap1\n      0x0100\n      exp\n      swap1\n      div\n      0xffffffffffffffffffffffffffffffffffffffff\n      and\n        /* \"Voting Sytem.sol\":2773:2798  msg.sender == chairperson */\n      0xffffffffffffffffffffffffffffffffffffffff\n      and\n        /* \"Voting Sytem.sol\":2773:2783  msg.sender */\n      caller\n        /* \"Voting Sytem.sol\":2773:2798  msg.sender == chairperson */\n      0xffffffffffffffffffffffffffffffffffffffff\n      and\n      eq\n        /* \"Voting Sytem.sol\":2751:2866  require(... */\n      tag_98\n      jumpi\n      mload(0x40)\n      0x08c379a000000000000000000000000000000000000000000000000000000000\n      dup2\n      mstore\n      0x04\n      add\n      tag_99\n      swap1\n      tag_100\n      jump\t// in\n    tag_99:\n      mload(0x40)\n      dup1\n      swap2\n      sub\n      swap1\n      revert\n    tag_98:\n        /* \"Voting Sytem.sol\":2900:2906  voters */\n      0x01\n        /* \"Voting Sytem.sol\":2900:2913  voters[voter] */\n      0x00\n        /* \"Voting Sytem.sol\":2907:2912  voter */\n      dup3\n        /* \"Voting Sytem.sol\":2900:2913  voters[voter] */\n      0xffffffffffffffffffffffffffffffffffffffff\n      and\n      0xffffffffffffffffffffffffffffffffffffffff\n      and\n      dup2\n      mstore\n      0x20\n      add\n      swap1\n      dup2\n      mstore\n      0x20\n      add\n      0x00\n      keccak256\n        /* \"Voting Sytem.sol\":2900:2919  voters[voter].voted */\n      0x01\n      add\n      0x00\n      swap1\n      sload\n      swap1\n      0x0100\n      exp\n      swap1\n      div\n      0xff\n      and\n        /* \"Voting Sytem.sol\":2899:2919  !voters[voter].voted */\n      iszero\n        /* \"Voting Sytem.sol\":2877:2971  require(... */\n      tag_101\n      jumpi\n      mload(0x40)\n      0x08c379a000000000000000000000000000000000000000000000000000000000\n      dup2\n      mstore\n      0x04\n      add\n      tag_102\n      swap1\n      tag_103\n      jump\t// in\n    tag_102:\n      mload(0x40)\n      dup1\n      swap2\n      sub\n      swap1\n      revert\n    tag_101:\n        /* \"Voting Sytem.sol\":3014:3015  0 */\n      0x00\n        /* \"Voting Sytem.sol\":2990:2996  voters */\n      0x01\n        /* \"Voting Sytem.sol\":2990:3003  voters[voter] */\n      0x00\n        /* \"Voting Sytem.sol\":2997:3002  voter */\n      dup4\n        /* \"Voting Sytem.sol\":2990:3003  voters[voter] */\n      0xffffffffffffffffffffffffffffffffffffffff\n      and\n      0xffffffffffffffffffffffffffffffffffffffff\n      and\n      dup2\n      mstore\n      0x20\n      add\n      swap1\n      dup2\n      mstore\n      0x20\n      add\n      0x00\n      keccak256\n        /* \"Voting Sytem.sol\":2990:3010  voters[voter].weight */\n      0x00\n      add\n      sload\n        /* \"Voting Sytem.sol\":2990:3015  voters[voter].weight == 0 */\n      eq\n        /* \"Voting Sytem.sol\":2982:3016  require(voters[voter].weight == 0) */\n      tag_104\n      jumpi\n      0x00\n      dup1\n      revert\n    tag_104:\n        /* \"Voting Sytem.sol\":3050:3051  1 */\n      0x01\n        /* \"Voting Sytem.sol\":3027:3033  voters */\n      dup1\n        /* \"Voting Sytem.sol\":3027:3040  voters[voter] */\n      0x00\n        /* \"Voting Sytem.sol\":3034:3039  voter */\n      dup4\n        /* \"Voting Sytem.sol\":3027:3040  voters[voter] */\n      0xffffffffffffffffffffffffffffffffffffffff\n      and\n      0xffffffffffffffffffffffffffffffffffffffff\n      and\n      dup2\n      mstore\n      0x20\n      add\n      swap1\n      dup2\n      mstore\n      0x20\n      add\n      0x00\n      keccak256\n        /* \"Voting Sytem.sol\":3027:3047  voters[voter].weight */\n      0x00\n      add\n        /* \"Voting Sytem.sol\":3027:3051  voters[voter].weight = 1 */\n      dup2\n      swap1\n      sstore\n      pop\n        /* \"Voting Sytem.sol\":2693:3059  function giveRightToVote(address voter) public {... */\n      pop\n      jump\t// out\n        /* \"Voting Sytem.sol\":584:623  mapping(address => Voter) public voters */\n    tag_35:\n      mstore(0x20, 0x01)\n      dup1\n      0x00\n      mstore\n      keccak256(0x00, 0x40)\n      0x00\n      swap2\n      pop\n      swap1\n      pop\n      dup1\n      0x00\n      add\n      sload\n      swap1\n      dup1\n      0x01\n      add\n      0x00\n      swap1\n      sload\n      swap1\n      0x0100\n      exp\n      swap1\n      div\n      0xff\n      and\n      swap1\n      dup1\n      0x02\n      add\n      sload\n      swap1\n      pop\n      dup4\n      jump\t// out\n        /* \"Voting Sytem.sol\":1749:2089  function addCandidates(string[] memory candidateNames) ... */\n    tag_41:\n        /* \"Voting Sytem.sol\":1675:1686  State.Ended */\n      0x02\n        /* \"Voting Sytem.sol\":1666:1686  state == State.Ended */\n      dup1\n      dup2\n      gt\n      iszero\n      tag_106\n      jumpi\n      tag_107\n      tag_55\n      jump\t// in\n    tag_107:\n    tag_106:\n        /* \"Voting Sytem.sol\":1666:1671  state */\n      0x03\n      0x00\n      swap1\n      sload\n      swap1\n      0x0100\n      exp\n      swap1\n      div\n      0xff\n      and\n        /* \"Voting Sytem.sol\":1666:1686  state == State.Ended */\n      0x02\n      dup2\n      gt\n      iszero\n      tag_108\n      jumpi\n      tag_109\n      tag_55\n      jump\t// in\n    tag_109:\n    tag_108:\n      eq\n        /* \"Voting Sytem.sol\":1658:1717  require(state == State.Ended, \"it must be in Ended Period\") */\n      tag_110\n      jumpi\n      mload(0x40)\n      0x08c379a000000000000000000000000000000000000000000000000000000000\n      dup2\n      mstore\n      0x04\n      add\n      tag_111\n      swap1\n      tag_112\n      jump\t// in\n    tag_111:\n      mload(0x40)\n      dup1\n      swap2\n      sub\n      swap1\n      revert\n    tag_110:\n        /* \"Voting Sytem.sol\":1866:1879  State.Created */\n      0x00\n        /* \"Voting Sytem.sol\":1858:1863  state */\n      0x03\n      0x00\n        /* \"Voting Sytem.sol\":1858:1879  state = State.Created */\n      0x0100\n      exp\n      dup2\n      sload\n      dup2\n      0xff\n      mul\n      not\n      and\n      swap1\n      dup4\n      0x02\n      dup2\n      gt\n      iszero\n      tag_114\n      jumpi\n      tag_115\n      tag_55\n      jump\t// in\n    tag_115:\n    tag_114:\n      mul\n      or\n      swap1\n      sstore\n      pop\n        /* \"Voting Sytem.sol\":1895:1901  uint i */\n      0x00\n        /* \"Voting Sytem.sol\":1890:2082  for (uint i = 0; i < candidateNames.length; i++) {... */\n    tag_116:\n        /* \"Voting Sytem.sol\":1911:1925  candidateNames */\n      dup2\n        /* \"Voting Sytem.sol\":1911:1932  candidateNames.length */\n      mload\n        /* \"Voting Sytem.sol\":1907:1908  i */\n      dup2\n        /* \"Voting Sytem.sol\":1907:1932  i < candidateNames.length */\n      lt\n        /* \"Voting Sytem.sol\":1890:2082  for (uint i = 0; i < candidateNames.length; i++) {... */\n      iszero\n      tag_117\n      jumpi\n        /* \"Voting Sytem.sol\":1954:1964  candidates */\n      0x02\n        /* \"Voting Sytem.sol\":1970:2069  Candidate({... */\n      mload(0x40)\n      dup1\n      0x40\n      add\n      0x40\n      mstore\n      dup1\n        /* \"Voting Sytem.sol\":2005:2019  candidateNames */\n      dup5\n        /* \"Voting Sytem.sol\":2020:2021  i */\n      dup5\n        /* \"Voting Sytem.sol\":2005:2022  candidateNames[i] */\n      dup2\n      mload\n      dup2\n      lt\n      tag_119\n      jumpi\n      tag_120\n      tag_70\n      jump\t// in\n    tag_120:\n    tag_119:\n      0x20\n      mul\n      0x20\n      add\n      add\n      mload\n        /* \"Voting Sytem.sol\":1970:2069  Candidate({... */\n      dup2\n      mstore\n      0x20\n      add\n        /* \"Voting Sytem.sol\":2052:2053  0 */\n      0x00\n        /* \"Voting Sytem.sol\":1970:2069  Candidate({... */\n      dup2\n      mstore\n      pop\n        /* \"Voting Sytem.sol\":1954:2070  candidates.push(Candidate({... */\n      swap1\n      dup1\n      0x01\n      dup2\n      sload\n      add\n      dup1\n      dup3\n      sstore\n      dup1\n      swap2\n      pop\n      pop\n      0x01\n      swap1\n      sub\n      swap1\n      0x00\n      mstore\n      keccak256(0x00, 0x20)\n      swap1\n      0x02\n      mul\n      add\n      0x00\n      swap1\n      swap2\n      swap1\n      swap2\n      swap1\n      swap2\n      pop\n      0x00\n      dup3\n      add\n      mload\n      dup2\n      0x00\n      add\n      swap1\n      dup2\n      tag_122\n      swap2\n      swap1\n      tag_123\n      jump\t// in\n    tag_122:\n      pop\n      0x20\n      dup3\n      add\n      mload\n      dup2\n      0x01\n      add\n      sstore\n      pop\n      pop\n        /* \"Voting Sytem.sol\":1934:1937  i++ */\n      dup1\n      dup1\n      0x01\n      add\n      swap2\n      pop\n      pop\n        /* \"Voting Sytem.sol\":1890:2082  for (uint i = 0; i < candidateNames.length; i++) {... */\n      jump(tag_116)\n    tag_117:\n      pop\n        /* \"Voting Sytem.sol\":1749:2089  function addCandidates(string[] memory candidateNames) ... */\n      pop\n      jump\t// out\n        /* \"Voting Sytem.sol\":2388:2521  function endVote() ... */\n    tag_43:\n        /* \"Voting Sytem.sol\":1259:1270  chairperson */\n      0x00\n      dup1\n      sload\n      swap1\n      0x0100\n      exp\n      swap1\n      div\n      0xffffffffffffffffffffffffffffffffffffffff\n      and\n        /* \"Voting Sytem.sol\":1245:1270  msg.sender == chairperson */\n      0xffffffffffffffffffffffffffffffffffffffff\n      and\n        /* \"Voting Sytem.sol\":1245:1255  msg.sender */\n      caller\n        /* \"Voting Sytem.sol\":1245:1270  msg.sender == chairperson */\n      0xffffffffffffffffffffffffffffffffffffffff\n      and\n      eq\n        /* \"Voting Sytem.sol\":1223:1343  require(... */\n      tag_125\n      jumpi\n      mload(0x40)\n      0x08c379a000000000000000000000000000000000000000000000000000000000\n      dup2\n      mstore\n      0x04\n      add\n      tag_126\n      swap1\n      tag_85\n      jump\t// in\n    tag_126:\n      mload(0x40)\n      dup1\n      swap2\n      sub\n      swap1\n      revert\n    tag_125:\n        /* \"Voting Sytem.sol\":1549:1561  State.Voting */\n      0x01\n        /* \"Voting Sytem.sol\":1540:1561  state == State.Voting */\n      0x02\n      dup2\n      gt\n      iszero\n      tag_128\n      jumpi\n      tag_129\n      tag_55\n      jump\t// in\n    tag_129:\n    tag_128:\n        /* \"Voting Sytem.sol\":1540:1545  state */\n      0x03\n      0x00\n      swap1\n      sload\n      swap1\n      0x0100\n      exp\n      swap1\n      div\n      0xff\n      and\n        /* \"Voting Sytem.sol\":1540:1561  state == State.Voting */\n      0x02\n      dup2\n      gt\n      iszero\n      tag_130\n      jumpi\n      tag_131\n      tag_55\n      jump\t// in\n    tag_131:\n    tag_130:\n      eq\n        /* \"Voting Sytem.sol\":1532:1593  require(state == State.Voting, \"it must be in Voting Period\") */\n      tag_132\n      jumpi\n      mload(0x40)\n      0x08c379a000000000000000000000000000000000000000000000000000000000\n      dup2\n      mstore\n      0x04\n      add\n      tag_133\n      swap1\n      tag_60\n      jump\t// in\n    tag_133:\n      mload(0x40)\n      dup1\n      swap2\n      sub\n      swap1\n      revert\n    tag_132:\n        /* \"Voting Sytem.sol\":2502:2513  State.Ended */\n      0x02\n        /* \"Voting Sytem.sol\":2494:2499  state */\n      0x03\n      0x00\n        /* \"Voting Sytem.sol\":2494:2513  state = State.Ended */\n      0x0100\n      exp\n      dup2\n      sload\n      dup2\n      0xff\n      mul\n      not\n      and\n      swap1\n      dup4\n      0x02\n      dup2\n      gt\n      iszero\n      tag_135\n      jumpi\n      tag_136\n      tag_55\n      jump\t// in\n    tag_136:\n    tag_135:\n      mul\n      or\n      swap1\n      sstore\n      pop\n        /* \"Voting Sytem.sol\":2388:2521  function endVote() ... */\n      jump\t// out\n        /* \"Voting Sytem.sol\":749:767  State public state */\n    tag_45:\n      0x03\n      0x00\n      swap1\n      sload\n      swap1\n      0x0100\n      exp\n      swap1\n      div\n      0xff\n      and\n      dup2\n      jump\t// out\n        /* \"Voting Sytem.sol\":3777:4207  function winningCandidate() ... */\n    tag_49:\n        /* \"Voting Sytem.sol\":3874:3899  string memory winnerName_ */\n      0x60\n        /* \"Voting Sytem.sol\":1675:1686  State.Ended */\n      0x02\n        /* \"Voting Sytem.sol\":1666:1686  state == State.Ended */\n      dup1\n      dup2\n      gt\n      iszero\n      tag_138\n      jumpi\n      tag_139\n      tag_55\n      jump\t// in\n    tag_139:\n    tag_138:\n        /* \"Voting Sytem.sol\":1666:1671  state */\n      0x03\n      0x00\n      swap1\n      sload\n      swap1\n      0x0100\n      exp\n      swap1\n      div\n      0xff\n      and\n        /* \"Voting Sytem.sol\":1666:1686  state == State.Ended */\n      0x02\n      dup2\n      gt\n      iszero\n      tag_140\n      jumpi\n      tag_141\n      tag_55\n      jump\t// in\n    tag_141:\n    tag_140:\n      eq\n        /* \"Voting Sytem.sol\":1658:1717  require(state == State.Ended, \"it must be in Ended Period\") */\n      tag_142\n      jumpi\n      mload(0x40)\n      0x08c379a000000000000000000000000000000000000000000000000000000000\n      dup2\n      mstore\n      0x04\n      add\n      tag_143\n      swap1\n      tag_112\n      jump\t// in\n    tag_143:\n      mload(0x40)\n      dup1\n      swap2\n      sub\n      swap1\n      revert\n    tag_142:\n        /* \"Voting Sytem.sol\":3917:3938  uint winningVoteCount */\n      0x00\n        /* \"Voting Sytem.sol\":3958:3964  uint p */\n      dup1\n        /* \"Voting Sytem.sol\":3953:4200  for (uint p = 0; p < candidates.length; p++) {... */\n    tag_145:\n        /* \"Voting Sytem.sol\":3974:3984  candidates */\n      0x02\n        /* \"Voting Sytem.sol\":3974:3991  candidates.length */\n      dup1\n      sload\n      swap1\n      pop\n        /* \"Voting Sytem.sol\":3970:3971  p */\n      dup2\n        /* \"Voting Sytem.sol\":3970:3991  p < candidates.length */\n      lt\n        /* \"Voting Sytem.sol\":3953:4200  for (uint p = 0; p < candidates.length; p++) {... */\n      iszero\n      tag_146\n      jumpi\n        /* \"Voting Sytem.sol\":4043:4059  winningVoteCount */\n      dup2\n        /* \"Voting Sytem.sol\":4017:4027  candidates */\n      0x02\n        /* \"Voting Sytem.sol\":4028:4029  p */\n      dup3\n        /* \"Voting Sytem.sol\":4017:4030  candidates[p] */\n      dup2\n      sload\n      dup2\n      lt\n      tag_148\n      jumpi\n      tag_149\n      tag_70\n      jump\t// in\n    tag_149:\n    tag_148:\n      swap1\n      0x00\n      mstore\n      keccak256(0x00, 0x20)\n      swap1\n      0x02\n      mul\n      add\n        /* \"Voting Sytem.sol\":4017:4040  candidates[p].voteCount */\n      0x01\n      add\n      sload\n        /* \"Voting Sytem.sol\":4017:4059  candidates[p].voteCount > winningVoteCount */\n      gt\n        /* \"Voting Sytem.sol\":4013:4189  if (candidates[p].voteCount > winningVoteCount) {... */\n      iszero\n      tag_151\n      jumpi\n        /* \"Voting Sytem.sol\":4099:4109  candidates */\n      0x02\n        /* \"Voting Sytem.sol\":4110:4111  p */\n      dup2\n        /* \"Voting Sytem.sol\":4099:4112  candidates[p] */\n      dup2\n      sload\n      dup2\n      lt\n      tag_152\n      jumpi\n      tag_153\n      tag_70\n      jump\t// in\n    tag_153:\n    tag_152:\n      swap1\n      0x00\n      mstore\n      keccak256(0x00, 0x20)\n      swap1\n      0x02\n      mul\n      add\n        /* \"Voting Sytem.sol\":4099:4122  candidates[p].voteCount */\n      0x01\n      add\n      sload\n        /* \"Voting Sytem.sol\":4080:4122  winningVoteCount = candidates[p].voteCount */\n      swap2\n      pop\n        /* \"Voting Sytem.sol\":4155:4165  candidates */\n      0x02\n        /* \"Voting Sytem.sol\":4166:4167  p */\n      dup2\n        /* \"Voting Sytem.sol\":4155:4168  candidates[p] */\n      dup2\n      sload\n      dup2\n      lt\n      tag_155\n      jumpi\n      tag_156\n      tag_70\n      jump\t// in\n    tag_156:\n    tag_155:\n      swap1\n      0x00\n      mstore\n      keccak256(0x00, 0x20)\n      swap1\n      0x02\n      mul\n      add\n        /* \"Voting Sytem.sol\":4155:4173  candidates[p].name */\n      0x00\n      add\n        /* \"Voting Sytem.sol\":4141:4173  winnerName_ = candidates[p].name */\n      dup1\n      sload\n      tag_158\n      swap1\n      tag_77\n      jump\t// in\n    tag_158:\n      dup1\n      0x1f\n      add\n      0x20\n      dup1\n      swap2\n      div\n      mul\n      0x20\n      add\n      mload(0x40)\n      swap1\n      dup2\n      add\n      0x40\n      mstore\n      dup1\n      swap3\n      swap2\n      swap1\n      dup2\n      dup2\n      mstore\n      0x20\n      add\n      dup3\n      dup1\n      sload\n      tag_159\n      swap1\n      tag_77\n      jump\t// in\n    tag_159:\n      dup1\n      iszero\n      tag_160\n      jumpi\n      dup1\n      0x1f\n      lt\n      tag_161\n      jumpi\n      0x0100\n      dup1\n      dup4\n      sload\n      div\n      mul\n      dup4\n      mstore\n      swap2\n      0x20\n      add\n      swap2\n      jump(tag_160)\n    tag_161:\n      dup3\n      add\n      swap2\n      swap1\n      0x00\n      mstore\n      keccak256(0x00, 0x20)\n      swap1\n    tag_162:\n      dup2\n      sload\n      dup2\n      mstore\n      swap1\n      0x01\n      add\n      swap1\n      0x20\n      add\n      dup1\n      dup4\n      gt\n      tag_162\n      jumpi\n      dup3\n      swap1\n      sub\n      0x1f\n      and\n      dup3\n      add\n      swap2\n    tag_160:\n      pop\n      pop\n      pop\n      pop\n      pop\n      swap3\n      pop\n        /* \"Voting Sytem.sol\":4013:4189  if (candidates[p].voteCount > winningVoteCount) {... */\n    tag_151:\n        /* \"Voting Sytem.sol\":3993:3996  p++ */\n      dup1\n      dup1\n      0x01\n      add\n      swap2\n      pop\n      pop\n        /* \"Voting Sytem.sol\":3953:4200  for (uint p = 0; p < candidates.length; p++) {... */\n      jump(tag_145)\n    tag_146:\n      pop\n        /* \"Voting Sytem.sol\":3906:4207  {... */\n      pop\n        /* \"Voting Sytem.sol\":3777:4207  function winningCandidate() ... */\n      swap1\n      jump\t// out\n        /* \"#utility.yul\":7:82   */\n    tag_163:\n        /* \"#utility.yul\":40:46   */\n      0x00\n        /* \"#utility.yul\":73:75   */\n      0x40\n        /* \"#utility.yul\":67:76   */\n      mload\n        /* \"#utility.yul\":57:76   */\n      swap1\n      pop\n        /* \"#utility.yul\":7:82   */\n      swap1\n      jump\t// out\n        /* \"#utility.yul\":88:205   */\n    tag_164:\n        /* \"#utility.yul\":197:198   */\n      0x00\n        /* \"#utility.yul\":194:195   */\n      dup1\n        /* \"#utility.yul\":187:199   */\n      revert\n        /* \"#utility.yul\":211:328   */\n    tag_165:\n        /* \"#utility.yul\":320:321   */\n      0x00\n        /* \"#utility.yul\":317:318   */\n      dup1\n        /* \"#utility.yul\":310:322   */\n      revert\n        /* \"#utility.yul\":334:411   */\n    tag_166:\n        /* \"#utility.yul\":371:378   */\n      0x00\n        /* \"#utility.yul\":400:405   */\n      dup2\n        /* \"#utility.yul\":389:405   */\n      swap1\n      pop\n        /* \"#utility.yul\":334:411   */\n      swap2\n      swap1\n      pop\n      jump\t// out\n        /* \"#utility.yul\":417:539   */\n    tag_167:\n        /* \"#utility.yul\":490:514   */\n      tag_238\n        /* \"#utility.yul\":508:513   */\n      dup2\n        /* \"#utility.yul\":490:514   */\n      tag_166\n      jump\t// in\n    tag_238:\n        /* \"#utility.yul\":483:488   */\n      dup2\n        /* \"#utility.yul\":480:515   */\n      eq\n        /* \"#utility.yul\":470:533   */\n      tag_239\n      jumpi\n        /* \"#utility.yul\":529:530   */\n      0x00\n        /* \"#utility.yul\":526:527   */\n      dup1\n        /* \"#utility.yul\":519:531   */\n      revert\n        /* \"#utility.yul\":470:533   */\n    tag_239:\n        /* \"#utility.yul\":417:539   */\n      pop\n      jump\t// out\n        /* \"#utility.yul\":545:684   */\n    tag_168:\n        /* \"#utility.yul\":591:596   */\n      0x00\n        /* \"#utility.yul\":629:635   */\n      dup2\n        /* \"#utility.yul\":616:636   */\n      calldataload\n        /* \"#utility.yul\":607:636   */\n      swap1\n      pop\n        /* \"#utility.yul\":645:678   */\n      tag_241\n        /* \"#utility.yul\":672:677   */\n      dup2\n        /* \"#utility.yul\":645:678   */\n      tag_167\n      jump\t// in\n    tag_241:\n        /* \"#utility.yul\":545:684   */\n      swap3\n      swap2\n      pop\n      pop\n      jump\t// out\n        /* \"#utility.yul\":690:1019   */\n    tag_16:\n        /* \"#utility.yul\":749:755   */\n      0x00\n        /* \"#utility.yul\":798:800   */\n      0x20\n        /* \"#utility.yul\":786:795   */\n      dup3\n        /* \"#utility.yul\":777:784   */\n      dup5\n        /* \"#utility.yul\":773:796   */\n      sub\n        /* \"#utility.yul\":769:801   */\n      slt\n        /* \"#utility.yul\":766:885   */\n      iszero\n      tag_243\n      jumpi\n        /* \"#utility.yul\":804:883   */\n      tag_244\n      tag_164\n      jump\t// in\n    tag_244:\n        /* \"#utility.yul\":766:885   */\n    tag_243:\n        /* \"#utility.yul\":924:925   */\n      0x00\n        /* \"#utility.yul\":949:1002   */\n      tag_245\n        /* \"#utility.yul\":994:1001   */\n      dup5\n        /* \"#utility.yul\":985:991   */\n      dup3\n        /* \"#utility.yul\":974:983   */\n      dup6\n        /* \"#utility.yul\":970:992   */\n      add\n        /* \"#utility.yul\":949:1002   */\n      tag_168\n      jump\t// in\n    tag_245:\n        /* \"#utility.yul\":939:1002   */\n      swap2\n      pop\n        /* \"#utility.yul\":895:1012   */\n      pop\n        /* \"#utility.yul\":690:1019   */\n      swap3\n      swap2\n      pop\n      pop\n      jump\t// out\n        /* \"#utility.yul\":1025:1151   */\n    tag_169:\n        /* \"#utility.yul\":1062:1069   */\n      0x00\n        /* \"#utility.yul\":1102:1144   */\n      0xffffffffffffffffffffffffffffffffffffffff\n        /* \"#utility.yul\":1095:1100   */\n      dup3\n        /* \"#utility.yul\":1091:1145   */\n      and\n        /* \"#utility.yul\":1080:1145   */\n      swap1\n      pop\n        /* \"#utility.yul\":1025:1151   */\n      swap2\n      swap1\n      pop\n      jump\t// out\n        /* \"#utility.yul\":1157:1253   */\n    tag_170:\n        /* \"#utility.yul\":1194:1201   */\n      0x00\n        /* \"#utility.yul\":1223:1247   */\n      tag_248\n        /* \"#utility.yul\":1241:1246   */\n      dup3\n        /* \"#utility.yul\":1223:1247   */\n      tag_169\n      jump\t// in\n    tag_248:\n        /* \"#utility.yul\":1212:1247   */\n      swap1\n      pop\n        /* \"#utility.yul\":1157:1253   */\n      swap2\n      swap1\n      pop\n      jump\t// out\n        /* \"#utility.yul\":1259:1377   */\n    tag_171:\n        /* \"#utility.yul\":1346:1370   */\n      tag_250\n        /* \"#utility.yul\":1364:1369   */\n      dup2\n        /* \"#utility.yul\":1346:1370   */\n      tag_170\n      jump\t// in\n    tag_250:\n        /* \"#utility.yul\":1341:1344   */\n      dup3\n        /* \"#utility.yul\":1334:1371   */\n      mstore\n        /* \"#utility.yul\":1259:1377   */\n      pop\n      pop\n      jump\t// out\n        /* \"#utility.yul\":1383:1605   */\n    tag_21:\n        /* \"#utility.yul\":1476:1480   */\n      0x00\n        /* \"#utility.yul\":1514:1516   */\n      0x20\n        /* \"#utility.yul\":1503:1512   */\n      dup3\n        /* \"#utility.yul\":1499:1517   */\n      add\n        /* \"#utility.yul\":1491:1517   */\n      swap1\n      pop\n        /* \"#utility.yul\":1527:1598   */\n      tag_252\n        /* \"#utility.yul\":1595:1596   */\n      0x00\n        /* \"#utility.yul\":1584:1593   */\n      dup4\n        /* \"#utility.yul\":1580:1597   */\n      add\n        /* \"#utility.yul\":1571:1577   */\n      dup5\n        /* \"#utility.yul\":1527:1598   */\n      tag_171\n      jump\t// in\n    tag_252:\n        /* \"#utility.yul\":1383:1605   */\n      swap3\n      swap2\n      pop\n      pop\n      jump\t// out\n        /* \"#utility.yul\":1611:1710   */\n    tag_172:\n        /* \"#utility.yul\":1663:1669   */\n      0x00\n        /* \"#utility.yul\":1697:1702   */\n      dup2\n        /* \"#utility.yul\":1691:1703   */\n      mload\n        /* \"#utility.yul\":1681:1703   */\n      swap1\n      pop\n        /* \"#utility.yul\":1611:1710   */\n      swap2\n      swap1\n      pop\n      jump\t// out\n        /* \"#utility.yul\":1716:1885   */\n    tag_173:\n        /* \"#utility.yul\":1800:1811   */\n      0x00\n        /* \"#utility.yul\":1834:1840   */\n      dup3\n        /* \"#utility.yul\":1829:1832   */\n      dup3\n        /* \"#utility.yul\":1822:1841   */\n      mstore\n        /* \"#utility.yul\":1874:1878   */\n      0x20\n        /* \"#utility.yul\":1869:1872   */\n      dup3\n        /* \"#utility.yul\":1865:1879   */\n      add\n        /* \"#utility.yul\":1850:1879   */\n      swap1\n      pop\n        /* \"#utility.yul\":1716:1885   */\n      swap3\n      swap2\n      pop\n      pop\n      jump\t// out\n        /* \"#utility.yul\":1891:2030   */\n    tag_174:\n        /* \"#utility.yul\":1980:1986   */\n      dup3\n        /* \"#utility.yul\":1975:1978   */\n      dup2\n        /* \"#utility.yul\":1970:1973   */\n      dup4\n        /* \"#utility.yul\":1964:1987   */\n      mcopy\n        /* \"#utility.yul\":2021:2022   */\n      0x00\n        /* \"#utility.yul\":2012:2018   */\n      dup4\n        /* \"#utility.yul\":2007:2010   */\n      dup4\n        /* \"#utility.yul\":2003:2019   */\n      add\n        /* \"#utility.yul\":1996:2023   */\n      mstore\n        /* \"#utility.yul\":1891:2030   */\n      pop\n      pop\n      pop\n      jump\t// out\n        /* \"#utility.yul\":2036:2138   */\n    tag_175:\n        /* \"#utility.yul\":2077:2083   */\n      0x00\n        /* \"#utility.yul\":2128:2130   */\n      0x1f\n        /* \"#utility.yul\":2124:2131   */\n      not\n        /* \"#utility.yul\":2119:2121   */\n      0x1f\n        /* \"#utility.yul\":2112:2117   */\n      dup4\n        /* \"#utility.yul\":2108:2122   */\n      add\n        /* \"#utility.yul\":2104:2132   */\n      and\n        /* \"#utility.yul\":2094:2132   */\n      swap1\n      pop\n        /* \"#utility.yul\":2036:2138   */\n      swap2\n      swap1\n      pop\n      jump\t// out\n        /* \"#utility.yul\":2144:2521   */\n    tag_176:\n        /* \"#utility.yul\":2232:2235   */\n      0x00\n        /* \"#utility.yul\":2260:2299   */\n      tag_258\n        /* \"#utility.yul\":2293:2298   */\n      dup3\n        /* \"#utility.yul\":2260:2299   */\n      tag_172\n      jump\t// in\n    tag_258:\n        /* \"#utility.yul\":2315:2386   */\n      tag_259\n        /* \"#utility.yul\":2379:2385   */\n      dup2\n        /* \"#utility.yul\":2374:2377   */\n      dup6\n        /* \"#utility.yul\":2315:2386   */\n      tag_173\n      jump\t// in\n    tag_259:\n        /* \"#utility.yul\":2308:2386   */\n      swap4\n      pop\n        /* \"#utility.yul\":2395:2460   */\n      tag_260\n        /* \"#utility.yul\":2453:2459   */\n      dup2\n        /* \"#utility.yul\":2448:2451   */\n      dup6\n        /* \"#utility.yul\":2441:2445   */\n      0x20\n        /* \"#utility.yul\":2434:2439   */\n      dup7\n        /* \"#utility.yul\":2430:2446   */\n      add\n        /* \"#utility.yul\":2395:2460   */\n      tag_174\n      jump\t// in\n    tag_260:\n        /* \"#utility.yul\":2485:2514   */\n      tag_261\n        /* \"#utility.yul\":2507:2513   */\n      dup2\n        /* \"#utility.yul\":2485:2514   */\n      tag_175\n      jump\t// in\n    tag_261:\n        /* \"#utility.yul\":2480:2483   */\n      dup5\n        /* \"#utility.yul\":2476:2515   */\n      add\n        /* \"#utility.yul\":2469:2515   */\n      swap2\n      pop\n        /* \"#utility.yul\":2236:2521   */\n      pop\n        /* \"#utility.yul\":2144:2521   */\n      swap3\n      swap2\n      pop\n      pop\n      jump\t// out\n        /* \"#utility.yul\":2527:2645   */\n    tag_177:\n        /* \"#utility.yul\":2614:2638   */\n      tag_263\n        /* \"#utility.yul\":2632:2637   */\n      dup2\n        /* \"#utility.yul\":2614:2638   */\n      tag_166\n      jump\t// in\n    tag_263:\n        /* \"#utility.yul\":2609:2612   */\n      dup3\n        /* \"#utility.yul\":2602:2639   */\n      mstore\n        /* \"#utility.yul\":2527:2645   */\n      pop\n      pop\n      jump\t// out\n        /* \"#utility.yul\":2651:3074   */\n    tag_26:\n        /* \"#utility.yul\":2792:2796   */\n      0x00\n        /* \"#utility.yul\":2830:2832   */\n      0x40\n        /* \"#utility.yul\":2819:2828   */\n      dup3\n        /* \"#utility.yul\":2815:2833   */\n      add\n        /* \"#utility.yul\":2807:2833   */\n      swap1\n      pop\n        /* \"#utility.yul\":2879:2888   */\n      dup2\n        /* \"#utility.yul\":2873:2877   */\n      dup2\n        /* \"#utility.yul\":2869:2889   */\n      sub\n        /* \"#utility.yul\":2865:2866   */\n      0x00\n        /* \"#utility.yul\":2854:2863   */\n      dup4\n        /* \"#utility.yul\":2850:2867   */\n      add\n        /* \"#utility.yul\":2843:2890   */\n      mstore\n        /* \"#utility.yul\":2907:2985   */\n      tag_265\n        /* \"#utility.yul\":2980:2984   */\n      dup2\n        /* \"#utility.yul\":2971:2977   */\n      dup6\n        /* \"#utility.yul\":2907:2985   */\n      tag_176\n      jump\t// in\n    tag_265:\n        /* \"#utility.yul\":2899:2985   */\n      swap1\n      pop\n        /* \"#utility.yul\":2995:3067   */\n      tag_266\n        /* \"#utility.yul\":3063:3065   */\n      0x20\n        /* \"#utility.yul\":3052:3061   */\n      dup4\n        /* \"#utility.yul\":3048:3066   */\n      add\n        /* \"#utility.yul\":3039:3045   */\n      dup5\n        /* \"#utility.yul\":2995:3067   */\n      tag_177\n      jump\t// in\n    tag_266:\n        /* \"#utility.yul\":2651:3074   */\n      swap4\n      swap3\n      pop\n      pop\n      pop\n      jump\t// out\n        /* \"#utility.yul\":3080:3202   */\n    tag_178:\n        /* \"#utility.yul\":3153:3177   */\n      tag_268\n        /* \"#utility.yul\":3171:3176   */\n      dup2\n        /* \"#utility.yul\":3153:3177   */\n      tag_170\n      jump\t// in\n    tag_268:\n        /* \"#utility.yul\":3146:3151   */\n      dup2\n        /* \"#utility.yul\":3143:3178   */\n      eq\n        /* \"#utility.yul\":3133:3196   */\n      tag_269\n      jumpi\n        /* \"#utility.yul\":3192:3193   */\n      0x00\n        /* \"#utility.yul\":3189:3190   */\n      dup1\n        /* \"#utility.yul\":3182:3194   */\n      revert\n        /* \"#utility.yul\":3133:3196   */\n    tag_269:\n        /* \"#utility.yul\":3080:3202   */\n      pop\n      jump\t// out\n        /* \"#utility.yul\":3208:3347   */\n    tag_179:\n        /* \"#utility.yul\":3254:3259   */\n      0x00\n        /* \"#utility.yul\":3292:3298   */\n      dup2\n        /* \"#utility.yul\":3279:3299   */\n      calldataload\n        /* \"#utility.yul\":3270:3299   */\n      swap1\n      pop\n        /* \"#utility.yul\":3308:3341   */\n      tag_271\n        /* \"#utility.yul\":3335:3340   */\n      dup2\n        /* \"#utility.yul\":3308:3341   */\n      tag_178\n      jump\t// in\n    tag_271:\n        /* \"#utility.yul\":3208:3347   */\n      swap3\n      swap2\n      pop\n      pop\n      jump\t// out\n        /* \"#utility.yul\":3353:3682   */\n    tag_31:\n        /* \"#utility.yul\":3412:3418   */\n      0x00\n        /* \"#utility.yul\":3461:3463   */\n      0x20\n        /* \"#utility.yul\":3449:3458   */\n      dup3\n        /* \"#utility.yul\":3440:3447   */\n      dup5\n        /* \"#utility.yul\":3436:3459   */\n      sub\n        /* \"#utility.yul\":3432:3464   */\n      slt\n        /* \"#utility.yul\":3429:3548   */\n      iszero\n      tag_273\n      jumpi\n        /* \"#utility.yul\":3467:3546   */\n      tag_274\n      tag_164\n      jump\t// in\n    tag_274:\n        /* \"#utility.yul\":3429:3548   */\n    tag_273:\n        /* \"#utility.yul\":3587:3588   */\n      0x00\n        /* \"#utility.yul\":3612:3665   */\n      tag_275\n        /* \"#utility.yul\":3657:3664   */\n      dup5\n        /* \"#utility.yul\":3648:3654   */\n      dup3\n        /* \"#utility.yul\":3637:3646   */\n      dup6\n        /* \"#utility.yul\":3633:3655   */\n      add\n        /* \"#utility.yul\":3612:3665   */\n      tag_179\n      jump\t// in\n    tag_275:\n        /* \"#utility.yul\":3602:3665   */\n      swap2\n      pop\n        /* \"#utility.yul\":3558:3675   */\n      pop\n        /* \"#utility.yul\":3353:3682   */\n      swap3\n      swap2\n      pop\n      pop\n      jump\t// out\n        /* \"#utility.yul\":3688:3778   */\n    tag_180:\n        /* \"#utility.yul\":3722:3729   */\n      0x00\n        /* \"#utility.yul\":3765:3770   */\n      dup2\n        /* \"#utility.yul\":3758:3771   */\n      iszero\n        /* \"#utility.yul\":3751:3772   */\n      iszero\n        /* \"#utility.yul\":3740:3772   */\n      swap1\n      pop\n        /* \"#utility.yul\":3688:3778   */\n      swap2\n      swap1\n      pop\n      jump\t// out\n        /* \"#utility.yul\":3784:3893   */\n    tag_181:\n        /* \"#utility.yul\":3865:3886   */\n      tag_278\n        /* \"#utility.yul\":3880:3885   */\n      dup2\n        /* \"#utility.yul\":3865:3886   */\n      tag_180\n      jump\t// in\n    tag_278:\n        /* \"#utility.yul\":3860:3863   */\n      dup3\n        /* \"#utility.yul\":3853:3887   */\n      mstore\n        /* \"#utility.yul\":3784:3893   */\n      pop\n      pop\n      jump\t// out\n        /* \"#utility.yul\":3899:4329   */\n    tag_37:\n        /* \"#utility.yul\":4042:4046   */\n      0x00\n        /* \"#utility.yul\":4080:4082   */\n      0x60\n        /* \"#utility.yul\":4069:4078   */\n      dup3\n        /* \"#utility.yul\":4065:4083   */\n      add\n        /* \"#utility.yul\":4057:4083   */\n      swap1\n      pop\n        /* \"#utility.yul\":4093:4164   */\n      tag_280\n        /* \"#utility.yul\":4161:4162   */\n      0x00\n        /* \"#utility.yul\":4150:4159   */\n      dup4\n        /* \"#utility.yul\":4146:4163   */\n      add\n        /* \"#utility.yul\":4137:4143   */\n      dup7\n        /* \"#utility.yul\":4093:4164   */\n      tag_177\n      jump\t// in\n    tag_280:\n        /* \"#utility.yul\":4174:4240   */\n      tag_281\n        /* \"#utility.yul\":4236:4238   */\n      0x20\n        /* \"#utility.yul\":4225:4234   */\n      dup4\n        /* \"#utility.yul\":4221:4239   */\n      add\n        /* \"#utility.yul\":4212:4218   */\n      dup6\n        /* \"#utility.yul\":4174:4240   */\n      tag_181\n      jump\t// in\n    tag_281:\n        /* \"#utility.yul\":4250:4322   */\n      tag_282\n        /* \"#utility.yul\":4318:4320   */\n      0x40\n        /* \"#utility.yul\":4307:4316   */\n      dup4\n        /* \"#utility.yul\":4303:4321   */\n      add\n        /* \"#utility.yul\":4294:4300   */\n      dup5\n        /* \"#utility.yul\":4250:4322   */\n      tag_177\n      jump\t// in\n    tag_282:\n        /* \"#utility.yul\":3899:4329   */\n      swap5\n      swap4\n      pop\n      pop\n      pop\n      pop\n      jump\t// out\n        /* \"#utility.yul\":4335:4452   */\n    tag_182:\n        /* \"#utility.yul\":4444:4445   */\n      0x00\n        /* \"#utility.yul\":4441:4442   */\n      dup1\n        /* \"#utility.yul\":4434:4446   */\n      revert\n        /* \"#utility.yul\":4458:4638   */\n    tag_183:\n        /* \"#utility.yul\":4506:4583   */\n      0x4e487b7100000000000000000000000000000000000000000000000000000000\n        /* \"#utility.yul\":4503:4504   */\n      0x00\n        /* \"#utility.yul\":4496:4584   */\n      mstore\n        /* \"#utility.yul\":4603:4607   */\n      0x41\n        /* \"#utility.yul\":4600:4601   */\n      0x04\n        /* \"#utility.yul\":4593:4608   */\n      mstore\n        /* \"#utility.yul\":4627:4631   */\n      0x24\n        /* \"#utility.yul\":4624:4625   */\n      0x00\n        /* \"#utility.yul\":4617:4632   */\n      revert\n        /* \"#utility.yul\":4644:4925   */\n    tag_184:\n        /* \"#utility.yul\":4727:4754   */\n      tag_286\n        /* \"#utility.yul\":4749:4753   */\n      dup3\n        /* \"#utility.yul\":4727:4754   */\n      tag_175\n      jump\t// in\n    tag_286:\n        /* \"#utility.yul\":4719:4725   */\n      dup2\n        /* \"#utility.yul\":4715:4755   */\n      add\n        /* \"#utility.yul\":4857:4863   */\n      dup2\n        /* \"#utility.yul\":4845:4855   */\n      dup2\n        /* \"#utility.yul\":4842:4864   */\n      lt\n        /* \"#utility.yul\":4821:4839   */\n      0xffffffffffffffff\n        /* \"#utility.yul\":4809:4819   */\n      dup3\n        /* \"#utility.yul\":4806:4840   */\n      gt\n        /* \"#utility.yul\":4803:4865   */\n      or\n        /* \"#utility.yul\":4800:4888   */\n      iszero\n      tag_287\n      jumpi\n        /* \"#utility.yul\":4868:4886   */\n      tag_288\n      tag_183\n      jump\t// in\n    tag_288:\n        /* \"#utility.yul\":4800:4888   */\n    tag_287:\n        /* \"#utility.yul\":4908:4918   */\n      dup1\n        /* \"#utility.yul\":4904:4906   */\n      0x40\n        /* \"#utility.yul\":4897:4919   */\n      mstore\n        /* \"#utility.yul\":4687:4925   */\n      pop\n        /* \"#utility.yul\":4644:4925   */\n      pop\n      pop\n      jump\t// out\n        /* \"#utility.yul\":4931:5060   */\n    tag_185:\n        /* \"#utility.yul\":4965:4971   */\n      0x00\n        /* \"#utility.yul\":4992:5012   */\n      tag_290\n      tag_163\n      jump\t// in\n    tag_290:\n        /* \"#utility.yul\":4982:5012   */\n      swap1\n      pop\n        /* \"#utility.yul\":5021:5054   */\n      tag_291\n        /* \"#utility.yul\":5049:5053   */\n      dup3\n        /* \"#utility.yul\":5041:5047   */\n      dup3\n        /* \"#utility.yul\":5021:5054   */\n      tag_184\n      jump\t// in\n    tag_291:\n        /* \"#utility.yul\":4931:5060   */\n      swap2\n      swap1\n      pop\n      jump\t// out\n        /* \"#utility.yul\":5066:5387   */\n    tag_186:\n        /* \"#utility.yul\":5153:5157   */\n      0x00\n        /* \"#utility.yul\":5243:5261   */\n      0xffffffffffffffff\n        /* \"#utility.yul\":5235:5241   */\n      dup3\n        /* \"#utility.yul\":5232:5262   */\n      gt\n        /* \"#utility.yul\":5229:5285   */\n      iszero\n      tag_293\n      jumpi\n        /* \"#utility.yul\":5265:5283   */\n      tag_294\n      tag_183\n      jump\t// in\n    tag_294:\n        /* \"#utility.yul\":5229:5285   */\n    tag_293:\n        /* \"#utility.yul\":5315:5319   */\n      0x20\n        /* \"#utility.yul\":5307:5313   */\n      dup3\n        /* \"#utility.yul\":5303:5320   */\n      mul\n        /* \"#utility.yul\":5295:5320   */\n      swap1\n      pop\n        /* \"#utility.yul\":5375:5379   */\n      0x20\n        /* \"#utility.yul\":5369:5373   */\n      dup2\n        /* \"#utility.yul\":5365:5380   */\n      add\n        /* \"#utility.yul\":5357:5380   */\n      swap1\n      pop\n        /* \"#utility.yul\":5066:5387   */\n      swap2\n      swap1\n      pop\n      jump\t// out\n        /* \"#utility.yul\":5393:5510   */\n    tag_187:\n        /* \"#utility.yul\":5502:5503   */\n      0x00\n        /* \"#utility.yul\":5499:5500   */\n      dup1\n        /* \"#utility.yul\":5492:5504   */\n      revert\n        /* \"#utility.yul\":5516:5633   */\n    tag_188:\n        /* \"#utility.yul\":5625:5626   */\n      0x00\n        /* \"#utility.yul\":5622:5623   */\n      dup1\n        /* \"#utility.yul\":5615:5627   */\n      revert\n        /* \"#utility.yul\":5639:5947   */\n    tag_189:\n        /* \"#utility.yul\":5701:5705   */\n      0x00\n        /* \"#utility.yul\":5791:5809   */\n      0xffffffffffffffff\n        /* \"#utility.yul\":5783:5789   */\n      dup3\n        /* \"#utility.yul\":5780:5810   */\n      gt\n        /* \"#utility.yul\":5777:5833   */\n      iszero\n      tag_298\n      jumpi\n        /* \"#utility.yul\":5813:5831   */\n      tag_299\n      tag_183\n      jump\t// in\n    tag_299:\n        /* \"#utility.yul\":5777:5833   */\n    tag_298:\n        /* \"#utility.yul\":5851:5880   */\n      tag_300\n        /* \"#utility.yul\":5873:5879   */\n      dup3\n        /* \"#utility.yul\":5851:5880   */\n      tag_175\n      jump\t// in\n    tag_300:\n        /* \"#utility.yul\":5843:5880   */\n      swap1\n      pop\n        /* \"#utility.yul\":5935:5939   */\n      0x20\n        /* \"#utility.yul\":5929:5933   */\n      dup2\n        /* \"#utility.yul\":5925:5940   */\n      add\n        /* \"#utility.yul\":5917:5940   */\n      swap1\n      pop\n        /* \"#utility.yul\":5639:5947   */\n      swap2\n      swap1\n      pop\n      jump\t// out\n        /* \"#utility.yul\":5953:6101   */\n    tag_190:\n        /* \"#utility.yul\":6051:6057   */\n      dup3\n        /* \"#utility.yul\":6046:6049   */\n      dup2\n        /* \"#utility.yul\":6041:6044   */\n      dup4\n        /* \"#utility.yul\":6028:6058   */\n      calldatacopy\n        /* \"#utility.yul\":6092:6093   */\n      0x00\n        /* \"#utility.yul\":6083:6089   */\n      dup4\n        /* \"#utility.yul\":6078:6081   */\n      dup4\n        /* \"#utility.yul\":6074:6090   */\n      add\n        /* \"#utility.yul\":6067:6094   */\n      mstore\n        /* \"#utility.yul\":5953:6101   */\n      pop\n      pop\n      pop\n      jump\t// out\n        /* \"#utility.yul\":6107:6532   */\n    tag_191:\n        /* \"#utility.yul\":6185:6190   */\n      0x00\n        /* \"#utility.yul\":6210:6276   */\n      tag_303\n        /* \"#utility.yul\":6226:6275   */\n      tag_304\n        /* \"#utility.yul\":6268:6274   */\n      dup5\n        /* \"#utility.yul\":6226:6275   */\n      tag_189\n      jump\t// in\n    tag_304:\n        /* \"#utility.yul\":6210:6276   */\n      tag_185\n      jump\t// in\n    tag_303:\n        /* \"#utility.yul\":6201:6276   */\n      swap1\n      pop\n        /* \"#utility.yul\":6299:6305   */\n      dup3\n        /* \"#utility.yul\":6292:6297   */\n      dup2\n        /* \"#utility.yul\":6285:6306   */\n      mstore\n        /* \"#utility.yul\":6337:6341   */\n      0x20\n        /* \"#utility.yul\":6330:6335   */\n      dup2\n        /* \"#utility.yul\":6326:6342   */\n      add\n        /* \"#utility.yul\":6375:6378   */\n      dup5\n        /* \"#utility.yul\":6366:6372   */\n      dup5\n        /* \"#utility.yul\":6361:6364   */\n      dup5\n        /* \"#utility.yul\":6357:6373   */\n      add\n        /* \"#utility.yul\":6354:6379   */\n      gt\n        /* \"#utility.yul\":6351:6463   */\n      iszero\n      tag_305\n      jumpi\n        /* \"#utility.yul\":6382:6461   */\n      tag_306\n      tag_188\n      jump\t// in\n    tag_306:\n        /* \"#utility.yul\":6351:6463   */\n    tag_305:\n        /* \"#utility.yul\":6472:6526   */\n      tag_307\n        /* \"#utility.yul\":6519:6525   */\n      dup5\n        /* \"#utility.yul\":6514:6517   */\n      dup3\n        /* \"#utility.yul\":6509:6512   */\n      dup6\n        /* \"#utility.yul\":6472:6526   */\n      tag_190\n      jump\t// in\n    tag_307:\n        /* \"#utility.yul\":6191:6532   */\n      pop\n        /* \"#utility.yul\":6107:6532   */\n      swap4\n      swap3\n      pop\n      pop\n      pop\n      jump\t// out\n        /* \"#utility.yul\":6552:6892   */\n    tag_192:\n        /* \"#utility.yul\":6608:6613   */\n      0x00\n        /* \"#utility.yul\":6657:6660   */\n      dup3\n        /* \"#utility.yul\":6650:6654   */\n      0x1f\n        /* \"#utility.yul\":6642:6648   */\n      dup4\n        /* \"#utility.yul\":6638:6655   */\n      add\n        /* \"#utility.yul\":6634:6661   */\n      slt\n        /* \"#utility.yul\":6624:6746   */\n      tag_309\n      jumpi\n        /* \"#utility.yul\":6665:6744   */\n      tag_310\n      tag_182\n      jump\t// in\n    tag_310:\n        /* \"#utility.yul\":6624:6746   */\n    tag_309:\n        /* \"#utility.yul\":6782:6788   */\n      dup2\n        /* \"#utility.yul\":6769:6789   */\n      calldataload\n        /* \"#utility.yul\":6807:6886   */\n      tag_311\n        /* \"#utility.yul\":6882:6885   */\n      dup5\n        /* \"#utility.yul\":6874:6880   */\n      dup3\n        /* \"#utility.yul\":6867:6871   */\n      0x20\n        /* \"#utility.yul\":6859:6865   */\n      dup7\n        /* \"#utility.yul\":6855:6872   */\n      add\n        /* \"#utility.yul\":6807:6886   */\n      tag_191\n      jump\t// in\n    tag_311:\n        /* \"#utility.yul\":6798:6886   */\n      swap2\n      pop\n        /* \"#utility.yul\":6614:6892   */\n      pop\n        /* \"#utility.yul\":6552:6892   */\n      swap3\n      swap2\n      pop\n      pop\n      jump\t// out\n        /* \"#utility.yul\":6914:7859   */\n    tag_193:\n        /* \"#utility.yul\":7020:7025   */\n      0x00\n        /* \"#utility.yul\":7045:7136   */\n      tag_313\n        /* \"#utility.yul\":7061:7135   */\n      tag_314\n        /* \"#utility.yul\":7128:7134   */\n      dup5\n        /* \"#utility.yul\":7061:7135   */\n      tag_186\n      jump\t// in\n    tag_314:\n        /* \"#utility.yul\":7045:7136   */\n      tag_185\n      jump\t// in\n    tag_313:\n        /* \"#utility.yul\":7036:7136   */\n      swap1\n      pop\n        /* \"#utility.yul\":7156:7161   */\n      dup1\n        /* \"#utility.yul\":7185:7191   */\n      dup4\n        /* \"#utility.yul\":7178:7183   */\n      dup3\n        /* \"#utility.yul\":7171:7192   */\n      mstore\n        /* \"#utility.yul\":7219:7223   */\n      0x20\n        /* \"#utility.yul\":7212:7217   */\n      dup3\n        /* \"#utility.yul\":7208:7224   */\n      add\n        /* \"#utility.yul\":7201:7224   */\n      swap1\n      pop\n        /* \"#utility.yul\":7272:7276   */\n      0x20\n        /* \"#utility.yul\":7264:7270   */\n      dup5\n        /* \"#utility.yul\":7260:7277   */\n      mul\n        /* \"#utility.yul\":7252:7258   */\n      dup4\n        /* \"#utility.yul\":7248:7278   */\n      add\n        /* \"#utility.yul\":7301:7304   */\n      dup6\n        /* \"#utility.yul\":7293:7299   */\n      dup2\n        /* \"#utility.yul\":7290:7305   */\n      gt\n        /* \"#utility.yul\":7287:7409   */\n      iszero\n      tag_315\n      jumpi\n        /* \"#utility.yul\":7320:7399   */\n      tag_316\n      tag_187\n      jump\t// in\n    tag_316:\n        /* \"#utility.yul\":7287:7409   */\n    tag_315:\n        /* \"#utility.yul\":7435:7441   */\n      dup4\n        /* \"#utility.yul\":7418:7853   */\n    tag_317:\n        /* \"#utility.yul\":7452:7458   */\n      dup2\n        /* \"#utility.yul\":7447:7450   */\n      dup2\n        /* \"#utility.yul\":7444:7459   */\n      lt\n        /* \"#utility.yul\":7418:7853   */\n      iszero\n      tag_319\n      jumpi\n        /* \"#utility.yul\":7541:7544   */\n      dup1\n        /* \"#utility.yul\":7528:7545   */\n      calldataload\n        /* \"#utility.yul\":7577:7595   */\n      0xffffffffffffffff\n        /* \"#utility.yul\":7564:7575   */\n      dup2\n        /* \"#utility.yul\":7561:7596   */\n      gt\n        /* \"#utility.yul\":7558:7680   */\n      iszero\n      tag_320\n      jumpi\n        /* \"#utility.yul\":7599:7678   */\n      tag_321\n      tag_182\n      jump\t// in\n    tag_321:\n        /* \"#utility.yul\":7558:7680   */\n    tag_320:\n        /* \"#utility.yul\":7723:7734   */\n      dup1\n        /* \"#utility.yul\":7715:7721   */\n      dup7\n        /* \"#utility.yul\":7711:7735   */\n      add\n        /* \"#utility.yul\":7761:7808   */\n      tag_322\n        /* \"#utility.yul\":7804:7807   */\n      dup10\n        /* \"#utility.yul\":7792:7802   */\n      dup3\n        /* \"#utility.yul\":7761:7808   */\n      tag_192\n      jump\t// in\n    tag_322:\n        /* \"#utility.yul\":7756:7759   */\n      dup6\n        /* \"#utility.yul\":7749:7809   */\n      mstore\n        /* \"#utility.yul\":7838:7842   */\n      0x20\n        /* \"#utility.yul\":7833:7836   */\n      dup6\n        /* \"#utility.yul\":7829:7843   */\n      add\n        /* \"#utility.yul\":7822:7843   */\n      swap5\n      pop\n        /* \"#utility.yul\":7494:7853   */\n      pop\n      pop\n        /* \"#utility.yul\":7478:7482   */\n      0x20\n        /* \"#utility.yul\":7473:7476   */\n      dup2\n        /* \"#utility.yul\":7469:7483   */\n      add\n        /* \"#utility.yul\":7462:7483   */\n      swap1\n      pop\n        /* \"#utility.yul\":7418:7853   */\n      jump(tag_317)\n    tag_319:\n        /* \"#utility.yul\":7422:7443   */\n      pop\n        /* \"#utility.yul\":7026:7859   */\n      pop\n      pop\n        /* \"#utility.yul\":6914:7859   */\n      swap4\n      swap3\n      pop\n      pop\n      pop\n      jump\t// out\n        /* \"#utility.yul\":7881:8271   */\n    tag_194:\n        /* \"#utility.yul\":7962:7967   */\n      0x00\n        /* \"#utility.yul\":8011:8014   */\n      dup3\n        /* \"#utility.yul\":8004:8008   */\n      0x1f\n        /* \"#utility.yul\":7996:8002   */\n      dup4\n        /* \"#utility.yul\":7992:8009   */\n      add\n        /* \"#utility.yul\":7988:8015   */\n      slt\n        /* \"#utility.yul\":7978:8100   */\n      tag_324\n      jumpi\n        /* \"#utility.yul\":8019:8098   */\n      tag_325\n      tag_182\n      jump\t// in\n    tag_325:\n        /* \"#utility.yul\":7978:8100   */\n    tag_324:\n        /* \"#utility.yul\":8136:8142   */\n      dup2\n        /* \"#utility.yul\":8123:8143   */\n      calldataload\n        /* \"#utility.yul\":8161:8265   */\n      tag_326\n        /* \"#utility.yul\":8261:8264   */\n      dup5\n        /* \"#utility.yul\":8253:8259   */\n      dup3\n        /* \"#utility.yul\":8246:8250   */\n      0x20\n        /* \"#utility.yul\":8238:8244   */\n      dup7\n        /* \"#utility.yul\":8234:8251   */\n      add\n        /* \"#utility.yul\":8161:8265   */\n      tag_193\n      jump\t// in\n    tag_326:\n        /* \"#utility.yul\":8152:8265   */\n      swap2\n      pop\n        /* \"#utility.yul\":7968:8271   */\n      pop\n        /* \"#utility.yul\":7881:8271   */\n      swap3\n      swap2\n      pop\n      pop\n      jump\t// out\n        /* \"#utility.yul\":8277:8836   */\n    tag_40:\n        /* \"#utility.yul\":8371:8377   */\n      0x00\n        /* \"#utility.yul\":8420:8422   */\n      0x20\n        /* \"#utility.yul\":8408:8417   */\n      dup3\n        /* \"#utility.yul\":8399:8406   */\n      dup5\n        /* \"#utility.yul\":8395:8418   */\n      sub\n        /* \"#utility.yul\":8391:8423   */\n      slt\n        /* \"#utility.yul\":8388:8507   */\n      iszero\n      tag_328\n      jumpi\n        /* \"#utility.yul\":8426:8505   */\n      tag_329\n      tag_164\n      jump\t// in\n    tag_329:\n        /* \"#utility.yul\":8388:8507   */\n    tag_328:\n        /* \"#utility.yul\":8574:8575   */\n      0x00\n        /* \"#utility.yul\":8563:8572   */\n      dup3\n        /* \"#utility.yul\":8559:8576   */\n      add\n        /* \"#utility.yul\":8546:8577   */\n      calldataload\n        /* \"#utility.yul\":8604:8622   */\n      0xffffffffffffffff\n        /* \"#utility.yul\":8596:8602   */\n      dup2\n        /* \"#utility.yul\":8593:8623   */\n      gt\n        /* \"#utility.yul\":8590:8707   */\n      iszero\n      tag_330\n      jumpi\n        /* \"#utility.yul\":8626:8705   */\n      tag_331\n      tag_165\n      jump\t// in\n    tag_331:\n        /* \"#utility.yul\":8590:8707   */\n    tag_330:\n        /* \"#utility.yul\":8731:8819   */\n      tag_332\n        /* \"#utility.yul\":8811:8818   */\n      dup5\n        /* \"#utility.yul\":8802:8808   */\n      dup3\n        /* \"#utility.yul\":8791:8800   */\n      dup6\n        /* \"#utility.yul\":8787:8809   */\n      add\n        /* \"#utility.yul\":8731:8819   */\n      tag_194\n      jump\t// in\n    tag_332:\n        /* \"#utility.yul\":8721:8819   */\n      swap2\n      pop\n        /* \"#utility.yul\":8517:8829   */\n      pop\n        /* \"#utility.yul\":8277:8836   */\n      swap3\n      swap2\n      pop\n      pop\n      jump\t// out\n        /* \"#utility.yul\":8842:9022   */\n    tag_55:\n        /* \"#utility.yul\":8890:8967   */\n      0x4e487b7100000000000000000000000000000000000000000000000000000000\n        /* \"#utility.yul\":8887:8888   */\n      0x00\n        /* \"#utility.yul\":8880:8968   */\n      mstore\n        /* \"#utility.yul\":8987:8991   */\n      0x21\n        /* \"#utility.yul\":8984:8985   */\n      0x04\n        /* \"#utility.yul\":8977:8992   */\n      mstore\n        /* \"#utility.yul\":9011:9015   */\n      0x24\n        /* \"#utility.yul\":9008:9009   */\n      0x00\n        /* \"#utility.yul\":9001:9016   */\n      revert\n        /* \"#utility.yul\":9028:9141   */\n    tag_195:\n        /* \"#utility.yul\":9109:9110   */\n      0x03\n        /* \"#utility.yul\":9102:9107   */\n      dup2\n        /* \"#utility.yul\":9099:9111   */\n      lt\n        /* \"#utility.yul\":9089:9135   */\n      tag_335\n      jumpi\n        /* \"#utility.yul\":9115:9133   */\n      tag_336\n      tag_55\n      jump\t// in\n    tag_336:\n        /* \"#utility.yul\":9089:9135   */\n    tag_335:\n        /* \"#utility.yul\":9028:9141   */\n      pop\n      jump\t// out\n        /* \"#utility.yul\":9147:9274   */\n    tag_196:\n        /* \"#utility.yul\":9192:9199   */\n      0x00\n        /* \"#utility.yul\":9221:9226   */\n      dup2\n        /* \"#utility.yul\":9210:9226   */\n      swap1\n      pop\n        /* \"#utility.yul\":9227:9268   */\n      tag_338\n        /* \"#utility.yul\":9262:9267   */\n      dup3\n        /* \"#utility.yul\":9227:9268   */\n      tag_195\n      jump\t// in\n    tag_338:\n        /* \"#utility.yul\":9147:9274   */\n      swap2\n      swap1\n      pop\n      jump\t// out\n        /* \"#utility.yul\":9280:9407   */\n    tag_197:\n        /* \"#utility.yul\":9336:9345   */\n      0x00\n        /* \"#utility.yul\":9369:9401   */\n      tag_340\n        /* \"#utility.yul\":9395:9400   */\n      dup3\n        /* \"#utility.yul\":9369:9401   */\n      tag_196\n      jump\t// in\n    tag_340:\n        /* \"#utility.yul\":9356:9401   */\n      swap1\n      pop\n        /* \"#utility.yul\":9280:9407   */\n      swap2\n      swap1\n      pop\n      jump\t// out\n        /* \"#utility.yul\":9413:9556   */\n    tag_198:\n        /* \"#utility.yul\":9506:9549   */\n      tag_342\n        /* \"#utility.yul\":9543:9548   */\n      dup2\n        /* \"#utility.yul\":9506:9549   */\n      tag_197\n      jump\t// in\n    tag_342:\n        /* \"#utility.yul\":9501:9504   */\n      dup3\n        /* \"#utility.yul\":9494:9550   */\n      mstore\n        /* \"#utility.yul\":9413:9556   */\n      pop\n      pop\n      jump\t// out\n        /* \"#utility.yul\":9562:9796   */\n    tag_47:\n        /* \"#utility.yul\":9661:9665   */\n      0x00\n        /* \"#utility.yul\":9699:9701   */\n      0x20\n        /* \"#utility.yul\":9688:9697   */\n      dup3\n        /* \"#utility.yul\":9684:9702   */\n      add\n        /* \"#utility.yul\":9676:9702   */\n      swap1\n      pop\n        /* \"#utility.yul\":9712:9789   */\n      tag_344\n        /* \"#utility.yul\":9786:9787   */\n      0x00\n        /* \"#utility.yul\":9775:9784   */\n      dup4\n        /* \"#utility.yul\":9771:9788   */\n      add\n        /* \"#utility.yul\":9762:9768   */\n      dup5\n        /* \"#utility.yul\":9712:9789   */\n      tag_198\n      jump\t// in\n    tag_344:\n        /* \"#utility.yul\":9562:9796   */\n      swap3\n      swap2\n      pop\n      pop\n      jump\t// out\n        /* \"#utility.yul\":9802:10115   */\n    tag_51:\n        /* \"#utility.yul\":9915:9919   */\n      0x00\n        /* \"#utility.yul\":9953:9955   */\n      0x20\n        /* \"#utility.yul\":9942:9951   */\n      dup3\n        /* \"#utility.yul\":9938:9956   */\n      add\n        /* \"#utility.yul\":9930:9956   */\n      swap1\n      pop\n        /* \"#utility.yul\":10002:10011   */\n      dup2\n        /* \"#utility.yul\":9996:10000   */\n      dup2\n        /* \"#utility.yul\":9992:10012   */\n      sub\n        /* \"#utility.yul\":9988:9989   */\n      0x00\n        /* \"#utility.yul\":9977:9986   */\n      dup4\n        /* \"#utility.yul\":9973:9990   */\n      add\n        /* \"#utility.yul\":9966:10013   */\n      mstore\n        /* \"#utility.yul\":10030:10108   */\n      tag_346\n        /* \"#utility.yul\":10103:10107   */\n      dup2\n        /* \"#utility.yul\":10094:10100   */\n      dup5\n        /* \"#utility.yul\":10030:10108   */\n      tag_176\n      jump\t// in\n    tag_346:\n        /* \"#utility.yul\":10022:10108   */\n      swap1\n      pop\n        /* \"#utility.yul\":9802:10115   */\n      swap3\n      swap2\n      pop\n      pop\n      jump\t// out\n        /* \"#utility.yul\":10121:10298   */\n    tag_199:\n        /* \"#utility.yul\":10261:10290   */\n      0x6974206d75737420626520696e20566f74696e6720506572696f640000000000\n        /* \"#utility.yul\":10257:10258   */\n      0x00\n        /* \"#utility.yul\":10249:10255   */\n      dup3\n        /* \"#utility.yul\":10245:10259   */\n      add\n        /* \"#utility.yul\":10238:10291   */\n      mstore\n        /* \"#utility.yul\":10121:10298   */\n      pop\n      jump\t// out\n        /* \"#utility.yul\":10304:10670   */\n    tag_200:\n        /* \"#utility.yul\":10446:10449   */\n      0x00\n        /* \"#utility.yul\":10467:10534   */\n      tag_349\n        /* \"#utility.yul\":10531:10533   */\n      0x1b\n        /* \"#utility.yul\":10526:10529   */\n      dup4\n        /* \"#utility.yul\":10467:10534   */\n      tag_173\n      jump\t// in\n    tag_349:\n        /* \"#utility.yul\":10460:10534   */\n      swap2\n      pop\n        /* \"#utility.yul\":10543:10636   */\n      tag_350\n        /* \"#utility.yul\":10632:10635   */\n      dup3\n        /* \"#utility.yul\":10543:10636   */\n      tag_199\n      jump\t// in\n    tag_350:\n        /* \"#utility.yul\":10661:10663   */\n      0x20\n        /* \"#utility.yul\":10656:10659   */\n      dup3\n        /* \"#utility.yul\":10652:10664   */\n      add\n        /* \"#utility.yul\":10645:10664   */\n      swap1\n      pop\n        /* \"#utility.yul\":10304:10670   */\n      swap2\n      swap1\n      pop\n      jump\t// out\n        /* \"#utility.yul\":10676:11095   */\n    tag_60:\n        /* \"#utility.yul\":10842:10846   */\n      0x00\n        /* \"#utility.yul\":10880:10882   */\n      0x20\n        /* \"#utility.yul\":10869:10878   */\n      dup3\n        /* \"#utility.yul\":10865:10883   */\n      add\n        /* \"#utility.yul\":10857:10883   */\n      swap1\n      pop\n        /* \"#utility.yul\":10929:10938   */\n      dup2\n        /* \"#utility.yul\":10923:10927   */\n      dup2\n        /* \"#utility.yul\":10919:10939   */\n      sub\n        /* \"#utility.yul\":10915:10916   */\n      0x00\n        /* \"#utility.yul\":10904:10913   */\n      dup4\n        /* \"#utility.yul\":10900:10917   */\n      add\n        /* \"#utility.yul\":10893:10940   */\n      mstore\n        /* \"#utility.yul\":10957:11088   */\n      tag_352\n        /* \"#utility.yul\":11083:11087   */\n      dup2\n        /* \"#utility.yul\":10957:11088   */\n      tag_200\n      jump\t// in\n    tag_352:\n        /* \"#utility.yul\":10949:11088   */\n      swap1\n      pop\n        /* \"#utility.yul\":10676:11095   */\n      swap2\n      swap1\n      pop\n      jump\t// out\n        /* \"#utility.yul\":11101:11271   */\n    tag_201:\n        /* \"#utility.yul\":11241:11263   */\n      0x486173206e6f20726967687420746f20766f7465000000000000000000000000\n        /* \"#utility.yul\":11237:11238   */\n      0x00\n        /* \"#utility.yul\":11229:11235   */\n      dup3\n        /* \"#utility.yul\":11225:11239   */\n      add\n        /* \"#utility.yul\":11218:11264   */\n      mstore\n        /* \"#utility.yul\":11101:11271   */\n      pop\n      jump\t// out\n        /* \"#utility.yul\":11277:11643   */\n    tag_202:\n        /* \"#utility.yul\":11419:11422   */\n      0x00\n        /* \"#utility.yul\":11440:11507   */\n      tag_355\n        /* \"#utility.yul\":11504:11506   */\n      0x14\n        /* \"#utility.yul\":11499:11502   */\n      dup4\n        /* \"#utility.yul\":11440:11507   */\n      tag_173\n      jump\t// in\n    tag_355:\n        /* \"#utility.yul\":11433:11507   */\n      swap2\n      pop\n        /* \"#utility.yul\":11516:11609   */\n      tag_356\n        /* \"#utility.yul\":11605:11608   */\n      dup3\n        /* \"#utility.yul\":11516:11609   */\n      tag_201\n      jump\t// in\n    tag_356:\n        /* \"#utility.yul\":11634:11636   */\n      0x20\n        /* \"#utility.yul\":11629:11632   */\n      dup3\n        /* \"#utility.yul\":11625:11637   */\n      add\n        /* \"#utility.yul\":11618:11637   */\n      swap1\n      pop\n        /* \"#utility.yul\":11277:11643   */\n      swap2\n      swap1\n      pop\n      jump\t// out\n        /* \"#utility.yul\":11649:12068   */\n    tag_64:\n        /* \"#utility.yul\":11815:11819   */\n      0x00\n        /* \"#utility.yul\":11853:11855   */\n      0x20\n        /* \"#utility.yul\":11842:11851   */\n      dup3\n        /* \"#utility.yul\":11838:11856   */\n      add\n        /* \"#utility.yul\":11830:11856   */\n      swap1\n      pop\n        /* \"#utility.yul\":11902:11911   */\n      dup2\n        /* \"#utility.yul\":11896:11900   */\n      dup2\n        /* \"#utility.yul\":11892:11912   */\n      sub\n        /* \"#utility.yul\":11888:11889   */\n      0x00\n        /* \"#utility.yul\":11877:11886   */\n      dup4\n        /* \"#utility.yul\":11873:11890   */\n      add\n        /* \"#utility.yul\":11866:11913   */\n      mstore\n        /* \"#utility.yul\":11930:12061   */\n      tag_358\n        /* \"#utility.yul\":12056:12060   */\n      dup2\n        /* \"#utility.yul\":11930:12061   */\n      tag_202\n      jump\t// in\n    tag_358:\n        /* \"#utility.yul\":11922:12061   */\n      swap1\n      pop\n        /* \"#utility.yul\":11649:12068   */\n      swap2\n      swap1\n      pop\n      jump\t// out\n        /* \"#utility.yul\":12074:12238   */\n    tag_203:\n        /* \"#utility.yul\":12214:12230   */\n      0x416c726561647920766f7465642e000000000000000000000000000000000000\n        /* \"#utility.yul\":12210:12211   */\n      0x00\n        /* \"#utility.yul\":12202:12208   */\n      dup3\n        /* \"#utility.yul\":12198:12212   */\n      add\n        /* \"#utility.yul\":12191:12231   */\n      mstore\n        /* \"#utility.yul\":12074:12238   */\n      pop\n      jump\t// out\n        /* \"#utility.yul\":12244:12610   */\n    tag_204:\n        /* \"#utility.yul\":12386:12389   */\n      0x00\n        /* \"#utility.yul\":12407:12474   */\n      tag_361\n        /* \"#utility.yul\":12471:12473   */\n      0x0e\n        /* \"#utility.yul\":12466:12469   */\n      dup4\n        /* \"#utility.yul\":12407:12474   */\n      tag_173\n      jump\t// in\n    tag_361:\n        /* \"#utility.yul\":12400:12474   */\n      swap2\n      pop\n        /* \"#utility.yul\":12483:12576   */\n      tag_362\n        /* \"#utility.yul\":12572:12575   */\n      dup3\n        /* \"#utility.yul\":12483:12576   */\n      tag_203\n      jump\t// in\n    tag_362:\n        /* \"#utility.yul\":12601:12603   */\n      0x20\n        /* \"#utility.yul\":12596:12599   */\n      dup3\n        /* \"#utility.yul\":12592:12604   */\n      add\n        /* \"#utility.yul\":12585:12604   */\n      swap1\n      pop\n        /* \"#utility.yul\":12244:12610   */\n      swap2\n      swap1\n      pop\n      jump\t// out\n        /* \"#utility.yul\":12616:13035   */\n    tag_67:\n        /* \"#utility.yul\":12782:12786   */\n      0x00\n        /* \"#utility.yul\":12820:12822   */\n      0x20\n        /* \"#utility.yul\":12809:12818   */\n      dup3\n        /* \"#utility.yul\":12805:12823   */\n      add\n        /* \"#utility.yul\":12797:12823   */\n      swap1\n      pop\n        /* \"#utility.yul\":12869:12878   */\n      dup2\n        /* \"#utility.yul\":12863:12867   */\n      dup2\n        /* \"#utility.yul\":12859:12879   */\n      sub\n        /* \"#utility.yul\":12855:12856   */\n      0x00\n        /* \"#utility.yul\":12844:12853   */\n      dup4\n        /* \"#utility.yul\":12840:12857   */\n      add\n        /* \"#utility.yul\":12833:12880   */\n      mstore\n        /* \"#utility.yul\":12897:13028   */\n      tag_364\n        /* \"#utility.yul\":13023:13027   */\n      dup2\n        /* \"#utility.yul\":12897:13028   */\n      tag_204\n      jump\t// in\n    tag_364:\n        /* \"#utility.yul\":12889:13028   */\n      swap1\n      pop\n        /* \"#utility.yul\":12616:13035   */\n      swap2\n      swap1\n      pop\n      jump\t// out\n        /* \"#utility.yul\":13041:13221   */\n    tag_70:\n        /* \"#utility.yul\":13089:13166   */\n      0x4e487b7100000000000000000000000000000000000000000000000000000000\n        /* \"#utility.yul\":13086:13087   */\n      0x00\n        /* \"#utility.yul\":13079:13167   */\n      mstore\n        /* \"#utility.yul\":13186:13190   */\n      0x32\n        /* \"#utility.yul\":13183:13184   */\n      0x04\n        /* \"#utility.yul\":13176:13191   */\n      mstore\n        /* \"#utility.yul\":13210:13214   */\n      0x24\n        /* \"#utility.yul\":13207:13208   */\n      0x00\n        /* \"#utility.yul\":13200:13215   */\n      revert\n        /* \"#utility.yul\":13227:13407   */\n    tag_205:\n        /* \"#utility.yul\":13275:13352   */\n      0x4e487b7100000000000000000000000000000000000000000000000000000000\n        /* \"#utility.yul\":13272:13273   */\n      0x00\n        /* \"#utility.yul\":13265:13353   */\n      mstore\n        /* \"#utility.yul\":13372:13376   */\n      0x11\n        /* \"#utility.yul\":13369:13370   */\n      0x04\n        /* \"#utility.yul\":13362:13377   */\n      mstore\n        /* \"#utility.yul\":13396:13400   */\n      0x24\n        /* \"#utility.yul\":13393:13394   */\n      0x00\n        /* \"#utility.yul\":13386:13401   */\n      revert\n        /* \"#utility.yul\":13413:13604   */\n    tag_73:\n        /* \"#utility.yul\":13453:13456   */\n      0x00\n        /* \"#utility.yul\":13472:13492   */\n      tag_368\n        /* \"#utility.yul\":13490:13491   */\n      dup3\n        /* \"#utility.yul\":13472:13492   */\n      tag_166\n      jump\t// in\n    tag_368:\n        /* \"#utility.yul\":13467:13492   */\n      swap2\n      pop\n        /* \"#utility.yul\":13506:13526   */\n      tag_369\n        /* \"#utility.yul\":13524:13525   */\n      dup4\n        /* \"#utility.yul\":13506:13526   */\n      tag_166\n      jump\t// in\n    tag_369:\n        /* \"#utility.yul\":13501:13526   */\n      swap3\n      pop\n        /* \"#utility.yul\":13549:13550   */\n      dup3\n        /* \"#utility.yul\":13546:13547   */\n      dup3\n        /* \"#utility.yul\":13542:13551   */\n      add\n        /* \"#utility.yul\":13535:13551   */\n      swap1\n      pop\n        /* \"#utility.yul\":13570:13573   */\n      dup1\n        /* \"#utility.yul\":13567:13568   */\n      dup3\n        /* \"#utility.yul\":13564:13574   */\n      gt\n        /* \"#utility.yul\":13561:13597   */\n      iszero\n      tag_370\n      jumpi\n        /* \"#utility.yul\":13577:13595   */\n      tag_371\n      tag_205\n      jump\t// in\n    tag_371:\n        /* \"#utility.yul\":13561:13597   */\n    tag_370:\n        /* \"#utility.yul\":13413:13604   */\n      swap3\n      swap2\n      pop\n      pop\n      jump\t// out\n        /* \"#utility.yul\":13610:13790   */\n    tag_206:\n        /* \"#utility.yul\":13658:13735   */\n      0x4e487b7100000000000000000000000000000000000000000000000000000000\n        /* \"#utility.yul\":13655:13656   */\n      0x00\n        /* \"#utility.yul\":13648:13736   */\n      mstore\n        /* \"#utility.yul\":13755:13759   */\n      0x22\n        /* \"#utility.yul\":13752:13753   */\n      0x04\n        /* \"#utility.yul\":13745:13760   */\n      mstore\n        /* \"#utility.yul\":13779:13783   */\n      0x24\n        /* \"#utility.yul\":13776:13777   */\n      0x00\n        /* \"#utility.yul\":13769:13784   */\n      revert\n        /* \"#utility.yul\":13796:14116   */\n    tag_77:\n        /* \"#utility.yul\":13840:13846   */\n      0x00\n        /* \"#utility.yul\":13877:13878   */\n      0x02\n        /* \"#utility.yul\":13871:13875   */\n      dup3\n        /* \"#utility.yul\":13867:13879   */\n      div\n        /* \"#utility.yul\":13857:13879   */\n      swap1\n      pop\n        /* \"#utility.yul\":13924:13925   */\n      0x01\n        /* \"#utility.yul\":13918:13922   */\n      dup3\n        /* \"#utility.yul\":13914:13926   */\n      and\n        /* \"#utility.yul\":13945:13963   */\n      dup1\n        /* \"#utility.yul\":13935:14016   */\n      tag_374\n      jumpi\n        /* \"#utility.yul\":14001:14005   */\n      0x7f\n        /* \"#utility.yul\":13993:13999   */\n      dup3\n        /* \"#utility.yul\":13989:14006   */\n      and\n        /* \"#utility.yul\":13979:14006   */\n      swap2\n      pop\n        /* \"#utility.yul\":13935:14016   */\n    tag_374:\n        /* \"#utility.yul\":14063:14065   */\n      0x20\n        /* \"#utility.yul\":14055:14061   */\n      dup3\n        /* \"#utility.yul\":14052:14066   */\n      lt\n        /* \"#utility.yul\":14032:14050   */\n      dup2\n        /* \"#utility.yul\":14029:14067   */\n      sub\n        /* \"#utility.yul\":14026:14110   */\n      tag_375\n      jumpi\n        /* \"#utility.yul\":14082:14100   */\n      tag_376\n      tag_206\n      jump\t// in\n    tag_376:\n        /* \"#utility.yul\":14026:14110   */\n    tag_375:\n        /* \"#utility.yul\":13847:14116   */\n      pop\n        /* \"#utility.yul\":13796:14116   */\n      swap2\n      swap1\n      pop\n      jump\t// out\n        /* \"#utility.yul\":14122:14354   */\n    tag_207:\n        /* \"#utility.yul\":14262:14296   */\n      0x4f6e6c79206368616972706572736f6e2063616e20737461727420616e642065\n        /* \"#utility.yul\":14258:14259   */\n      0x00\n        /* \"#utility.yul\":14250:14256   */\n      dup3\n        /* \"#utility.yul\":14246:14260   */\n      add\n        /* \"#utility.yul\":14239:14297   */\n      mstore\n        /* \"#utility.yul\":14331:14346   */\n      0x6e642074686520766f74696e6700000000000000000000000000000000000000\n        /* \"#utility.yul\":14326:14328   */\n      0x20\n        /* \"#utility.yul\":14318:14324   */\n      dup3\n        /* \"#utility.yul\":14314:14329   */\n      add\n        /* \"#utility.yul\":14307:14347   */\n      mstore\n        /* \"#utility.yul\":14122:14354   */\n      pop\n      jump\t// out\n        /* \"#utility.yul\":14360:14726   */\n    tag_208:\n        /* \"#utility.yul\":14502:14505   */\n      0x00\n        /* \"#utility.yul\":14523:14590   */\n      tag_379\n        /* \"#utility.yul\":14587:14589   */\n      0x2d\n        /* \"#utility.yul\":14582:14585   */\n      dup4\n        /* \"#utility.yul\":14523:14590   */\n      tag_173\n      jump\t// in\n    tag_379:\n        /* \"#utility.yul\":14516:14590   */\n      swap2\n      pop\n        /* \"#utility.yul\":14599:14692   */\n      tag_380\n        /* \"#utility.yul\":14688:14691   */\n      dup3\n        /* \"#utility.yul\":14599:14692   */\n      tag_207\n      jump\t// in\n    tag_380:\n        /* \"#utility.yul\":14717:14719   */\n      0x40\n        /* \"#utility.yul\":14712:14715   */\n      dup3\n        /* \"#utility.yul\":14708:14720   */\n      add\n        /* \"#utility.yul\":14701:14720   */\n      swap1\n      pop\n        /* \"#utility.yul\":14360:14726   */\n      swap2\n      swap1\n      pop\n      jump\t// out\n        /* \"#utility.yul\":14732:15151   */\n    tag_85:\n        /* \"#utility.yul\":14898:14902   */\n      0x00\n        /* \"#utility.yul\":14936:14938   */\n      0x20\n        /* \"#utility.yul\":14925:14934   */\n      dup3\n        /* \"#utility.yul\":14921:14939   */\n      add\n        /* \"#utility.yul\":14913:14939   */\n      swap1\n      pop\n        /* \"#utility.yul\":14985:14994   */\n      dup2\n        /* \"#utility.yul\":14979:14983   */\n      dup2\n        /* \"#utility.yul\":14975:14995   */\n      sub\n        /* \"#utility.yul\":14971:14972   */\n      0x00\n        /* \"#utility.yul\":14960:14969   */\n      dup4\n        /* \"#utility.yul\":14956:14973   */\n      add\n        /* \"#utility.yul\":14949:14996   */\n      mstore\n        /* \"#utility.yul\":15013:15144   */\n      tag_382\n        /* \"#utility.yul\":15139:15143   */\n      dup2\n        /* \"#utility.yul\":15013:15144   */\n      tag_208\n      jump\t// in\n    tag_382:\n        /* \"#utility.yul\":15005:15144   */\n      swap1\n      pop\n        /* \"#utility.yul\":14732:15151   */\n      swap2\n      swap1\n      pop\n      jump\t// out\n        /* \"#utility.yul\":15157:15328   */\n    tag_209:\n        /* \"#utility.yul\":15297:15320   */\n      0x6974206d75737420626520696e20537461727465640000000000000000000000\n        /* \"#utility.yul\":15293:15294   */\n      0x00\n        /* \"#utility.yul\":15285:15291   */\n      dup3\n        /* \"#utility.yul\":15281:15295   */\n      add\n        /* \"#utility.yul\":15274:15321   */\n      mstore\n        /* \"#utility.yul\":15157:15328   */\n      pop\n      jump\t// out\n        /* \"#utility.yul\":15334:15700   */\n    tag_210:\n        /* \"#utility.yul\":15476:15479   */\n      0x00\n        /* \"#utility.yul\":15497:15564   */\n      tag_385\n        /* \"#utility.yul\":15561:15563   */\n      0x15\n        /* \"#utility.yul\":15556:15559   */\n      dup4\n        /* \"#utility.yul\":15497:15564   */\n      tag_173\n      jump\t// in\n    tag_385:\n        /* \"#utility.yul\":15490:15564   */\n      swap2\n      pop\n        /* \"#utility.yul\":15573:15666   */\n      tag_386\n        /* \"#utility.yul\":15662:15665   */\n      dup3\n        /* \"#utility.yul\":15573:15666   */\n      tag_209\n      jump\t// in\n    tag_386:\n        /* \"#utility.yul\":15691:15693   */\n      0x20\n        /* \"#utility.yul\":15686:15689   */\n      dup3\n        /* \"#utility.yul\":15682:15694   */\n      add\n        /* \"#utility.yul\":15675:15694   */\n      swap1\n      pop\n        /* \"#utility.yul\":15334:15700   */\n      swap2\n      swap1\n      pop\n      jump\t// out\n        /* \"#utility.yul\":15706:16125   */\n    tag_93:\n        /* \"#utility.yul\":15872:15876   */\n      0x00\n        /* \"#utility.yul\":15910:15912   */\n      0x20\n        /* \"#utility.yul\":15899:15908   */\n      dup3\n        /* \"#utility.yul\":15895:15913   */\n      add\n        /* \"#utility.yul\":15887:15913   */\n      swap1\n      pop\n        /* \"#utility.yul\":15959:15968   */\n      dup2\n        /* \"#utility.yul\":15953:15957   */\n      dup2\n        /* \"#utility.yul\":15949:15969   */\n      sub\n        /* \"#utility.yul\":15945:15946   */\n      0x00\n        /* \"#utility.yul\":15934:15943   */\n      dup4\n        /* \"#utility.yul\":15930:15947   */\n      add\n        /* \"#utility.yul\":15923:15970   */\n      mstore\n        /* \"#utility.yul\":15987:16118   */\n      tag_388\n        /* \"#utility.yul\":16113:16117   */\n      dup2\n        /* \"#utility.yul\":15987:16118   */\n      tag_210\n      jump\t// in\n    tag_388:\n        /* \"#utility.yul\":15979:16118   */\n      swap1\n      pop\n        /* \"#utility.yul\":15706:16125   */\n      swap2\n      swap1\n      pop\n      jump\t// out\n        /* \"#utility.yul\":16131:16358   */\n    tag_211:\n        /* \"#utility.yul\":16271:16305   */\n      0x4f6e6c79206368616972706572736f6e2063616e206769766520726967687420\n        /* \"#utility.yul\":16267:16268   */\n      0x00\n        /* \"#utility.yul\":16259:16265   */\n      dup3\n        /* \"#utility.yul\":16255:16269   */\n      add\n        /* \"#utility.yul\":16248:16306   */\n      mstore\n        /* \"#utility.yul\":16340:16350   */\n      0x746f20766f74652e000000000000000000000000000000000000000000000000\n        /* \"#utility.yul\":16335:16337   */\n      0x20\n        /* \"#utility.yul\":16327:16333   */\n      dup3\n        /* \"#utility.yul\":16323:16338   */\n      add\n        /* \"#utility.yul\":16316:16351   */\n      mstore\n        /* \"#utility.yul\":16131:16358   */\n      pop\n      jump\t// out\n        /* \"#utility.yul\":16364:16730   */\n    tag_212:\n        /* \"#utility.yul\":16506:16509   */\n      0x00\n        /* \"#utility.yul\":16527:16594   */\n      tag_391\n        /* \"#utility.yul\":16591:16593   */\n      0x28\n        /* \"#utility.yul\":16586:16589   */\n      dup4\n        /* \"#utility.yul\":16527:16594   */\n      tag_173\n      jump\t// in\n    tag_391:\n        /* \"#utility.yul\":16520:16594   */\n      swap2\n      pop\n        /* \"#utility.yul\":16603:16696   */\n      tag_392\n        /* \"#utility.yul\":16692:16695   */\n      dup3\n        /* \"#utility.yul\":16603:16696   */\n      tag_211\n      jump\t// in\n    tag_392:\n        /* \"#utility.yul\":16721:16723   */\n      0x40\n        /* \"#utility.yul\":16716:16719   */\n      dup3\n        /* \"#utility.yul\":16712:16724   */\n      add\n        /* \"#utility.yul\":16705:16724   */\n      swap1\n      pop\n        /* \"#utility.yul\":16364:16730   */\n      swap2\n      swap1\n      pop\n      jump\t// out\n        /* \"#utility.yul\":16736:17155   */\n    tag_100:\n        /* \"#utility.yul\":16902:16906   */\n      0x00\n        /* \"#utility.yul\":16940:16942   */\n      0x20\n        /* \"#utility.yul\":16929:16938   */\n      dup3\n        /* \"#utility.yul\":16925:16943   */\n      add\n        /* \"#utility.yul\":16917:16943   */\n      swap1\n      pop\n        /* \"#utility.yul\":16989:16998   */\n      dup2\n        /* \"#utility.yul\":16983:16987   */\n      dup2\n        /* \"#utility.yul\":16979:16999   */\n      sub\n        /* \"#utility.yul\":16975:16976   */\n      0x00\n        /* \"#utility.yul\":16964:16973   */\n      dup4\n        /* \"#utility.yul\":16960:16977   */\n      add\n        /* \"#utility.yul\":16953:17000   */\n      mstore\n        /* \"#utility.yul\":17017:17148   */\n      tag_394\n        /* \"#utility.yul\":17143:17147   */\n      dup2\n        /* \"#utility.yul\":17017:17148   */\n      tag_212\n      jump\t// in\n    tag_394:\n        /* \"#utility.yul\":17009:17148   */\n      swap1\n      pop\n        /* \"#utility.yul\":16736:17155   */\n      swap2\n      swap1\n      pop\n      jump\t// out\n        /* \"#utility.yul\":17161:17335   */\n    tag_213:\n        /* \"#utility.yul\":17301:17327   */\n      0x54686520766f74657220616c726561647920766f7465642e0000000000000000\n        /* \"#utility.yul\":17297:17298   */\n      0x00\n        /* \"#utility.yul\":17289:17295   */\n      dup3\n        /* \"#utility.yul\":17285:17299   */\n      add\n        /* \"#utility.yul\":17278:17328   */\n      mstore\n        /* \"#utility.yul\":17161:17335   */\n      pop\n      jump\t// out\n        /* \"#utility.yul\":17341:17707   */\n    tag_214:\n        /* \"#utility.yul\":17483:17486   */\n      0x00\n        /* \"#utility.yul\":17504:17571   */\n      tag_397\n        /* \"#utility.yul\":17568:17570   */\n      0x18\n        /* \"#utility.yul\":17563:17566   */\n      dup4\n        /* \"#utility.yul\":17504:17571   */\n      tag_173\n      jump\t// in\n    tag_397:\n        /* \"#utility.yul\":17497:17571   */\n      swap2\n      pop\n        /* \"#utility.yul\":17580:17673   */\n      tag_398\n        /* \"#utility.yul\":17669:17672   */\n      dup3\n        /* \"#utility.yul\":17580:17673   */\n      tag_213\n      jump\t// in\n    tag_398:\n        /* \"#utility.yul\":17698:17700   */\n      0x20\n        /* \"#utility.yul\":17693:17696   */\n      dup3\n        /* \"#utility.yul\":17689:17701   */\n      add\n        /* \"#utility.yul\":17682:17701   */\n      swap1\n      pop\n        /* \"#utility.yul\":17341:17707   */\n      swap2\n      swap1\n      pop\n      jump\t// out\n        /* \"#utility.yul\":17713:18132   */\n    tag_103:\n        /* \"#utility.yul\":17879:17883   */\n      0x00\n        /* \"#utility.yul\":17917:17919   */\n      0x20\n        /* \"#utility.yul\":17906:17915   */\n      dup3\n        /* \"#utility.yul\":17902:17920   */\n      add\n        /* \"#utility.yul\":17894:17920   */\n      swap1\n      pop\n        /* \"#utility.yul\":17966:17975   */\n      dup2\n        /* \"#utility.yul\":17960:17964   */\n      dup2\n        /* \"#utility.yul\":17956:17976   */\n      sub\n        /* \"#utility.yul\":17952:17953   */\n      0x00\n        /* \"#utility.yul\":17941:17950   */\n      dup4\n        /* \"#utility.yul\":17937:17954   */\n      add\n        /* \"#utility.yul\":17930:17977   */\n      mstore\n        /* \"#utility.yul\":17994:18125   */\n      tag_400\n        /* \"#utility.yul\":18120:18124   */\n      dup2\n        /* \"#utility.yul\":17994:18125   */\n      tag_214\n      jump\t// in\n    tag_400:\n        /* \"#utility.yul\":17986:18125   */\n      swap1\n      pop\n        /* \"#utility.yul\":17713:18132   */\n      swap2\n      swap1\n      pop\n      jump\t// out\n        /* \"#utility.yul\":18138:18314   */\n    tag_215:\n        /* \"#utility.yul\":18278:18306   */\n      0x6974206d75737420626520696e20456e64656420506572696f64000000000000\n        /* \"#utility.yul\":18274:18275   */\n      0x00\n        /* \"#utility.yul\":18266:18272   */\n      dup3\n        /* \"#utility.yul\":18262:18276   */\n      add\n        /* \"#utility.yul\":18255:18307   */\n      mstore\n        /* \"#utility.yul\":18138:18314   */\n      pop\n      jump\t// out\n        /* \"#utility.yul\":18320:18686   */\n    tag_216:\n        /* \"#utility.yul\":18462:18465   */\n      0x00\n        /* \"#utility.yul\":18483:18550   */\n      tag_403\n        /* \"#utility.yul\":18547:18549   */\n      0x1a\n        /* \"#utility.yul\":18542:18545   */\n      dup4\n        /* \"#utility.yul\":18483:18550   */\n      tag_173\n      jump\t// in\n    tag_403:\n        /* \"#utility.yul\":18476:18550   */\n      swap2\n      pop\n        /* \"#utility.yul\":18559:18652   */\n      tag_404\n        /* \"#utility.yul\":18648:18651   */\n      dup3\n        /* \"#utility.yul\":18559:18652   */\n      tag_215\n      jump\t// in\n    tag_404:\n        /* \"#utility.yul\":18677:18679   */\n      0x20\n        /* \"#utility.yul\":18672:18675   */\n      dup3\n        /* \"#utility.yul\":18668:18680   */\n      add\n        /* \"#utility.yul\":18661:18680   */\n      swap1\n      pop\n        /* \"#utility.yul\":18320:18686   */\n      swap2\n      swap1\n      pop\n      jump\t// out\n        /* \"#utility.yul\":18692:19111   */\n    tag_112:\n        /* \"#utility.yul\":18858:18862   */\n      0x00\n        /* \"#utility.yul\":18896:18898   */\n      0x20\n        /* \"#utility.yul\":18885:18894   */\n      dup3\n        /* \"#utility.yul\":18881:18899   */\n      add\n        /* \"#utility.yul\":18873:18899   */\n      swap1\n      pop\n        /* \"#utility.yul\":18945:18954   */\n      dup2\n        /* \"#utility.yul\":18939:18943   */\n      dup2\n        /* \"#utility.yul\":18935:18955   */\n      sub\n        /* \"#utility.yul\":18931:18932   */\n      0x00\n        /* \"#utility.yul\":18920:18929   */\n      dup4\n        /* \"#utility.yul\":18916:18933   */\n      add\n        /* \"#utility.yul\":18909:18956   */\n      mstore\n        /* \"#utility.yul\":18973:19104   */\n      tag_406\n        /* \"#utility.yul\":19099:19103   */\n      dup2\n        /* \"#utility.yul\":18973:19104   */\n      tag_216\n      jump\t// in\n    tag_406:\n        /* \"#utility.yul\":18965:19104   */\n      swap1\n      pop\n        /* \"#utility.yul\":18692:19111   */\n      swap2\n      swap1\n      pop\n      jump\t// out\n        /* \"#utility.yul\":19117:19258   */\n    tag_217:\n        /* \"#utility.yul\":19166:19170   */\n      0x00\n        /* \"#utility.yul\":19189:19192   */\n      dup2\n        /* \"#utility.yul\":19181:19192   */\n      swap1\n      pop\n        /* \"#utility.yul\":19212:19215   */\n      dup2\n        /* \"#utility.yul\":19209:19210   */\n      0x00\n        /* \"#utility.yul\":19202:19216   */\n      mstore\n        /* \"#utility.yul\":19246:19250   */\n      0x20\n        /* \"#utility.yul\":19243:19244   */\n      0x00\n        /* \"#utility.yul\":19233:19251   */\n      keccak256\n        /* \"#utility.yul\":19225:19251   */\n      swap1\n      pop\n        /* \"#utility.yul\":19117:19258   */\n      swap2\n      swap1\n      pop\n      jump\t// out\n        /* \"#utility.yul\":19264:19357   */\n    tag_218:\n        /* \"#utility.yul\":19301:19307   */\n      0x00\n        /* \"#utility.yul\":19348:19350   */\n      0x20\n        /* \"#utility.yul\":19343:19345   */\n      0x1f\n        /* \"#utility.yul\":19336:19341   */\n      dup4\n        /* \"#utility.yul\":19332:19346   */\n      add\n        /* \"#utility.yul\":19328:19351   */\n      div\n        /* \"#utility.yul\":19318:19351   */\n      swap1\n      pop\n        /* \"#utility.yul\":19264:19357   */\n      swap2\n      swap1\n      pop\n      jump\t// out\n        /* \"#utility.yul\":19363:19470   */\n    tag_219:\n        /* \"#utility.yul\":19407:19415   */\n      0x00\n        /* \"#utility.yul\":19457:19462   */\n      dup3\n        /* \"#utility.yul\":19451:19455   */\n      dup3\n        /* \"#utility.yul\":19447:19463   */\n      shl\n        /* \"#utility.yul\":19426:19463   */\n      swap1\n      pop\n        /* \"#utility.yul\":19363:19470   */\n      swap3\n      swap2\n      pop\n      pop\n      jump\t// out\n        /* \"#utility.yul\":19476:19869   */\n    tag_220:\n        /* \"#utility.yul\":19545:19551   */\n      0x00\n        /* \"#utility.yul\":19595:19596   */\n      0x08\n        /* \"#utility.yul\":19583:19593   */\n      dup4\n        /* \"#utility.yul\":19579:19597   */\n      mul\n        /* \"#utility.yul\":19618:19715   */\n      tag_411\n        /* \"#utility.yul\":19648:19714   */\n      0xffffffffffffffffffffffffffffffffffffffffffffffffffffffffffffffff\n        /* \"#utility.yul\":19637:19646   */\n      dup3\n        /* \"#utility.yul\":19618:19715   */\n      tag_219\n      jump\t// in\n    tag_411:\n        /* \"#utility.yul\":19736:19775   */\n      tag_412\n        /* \"#utility.yul\":19766:19774   */\n      dup7\n        /* \"#utility.yul\":19755:19764   */\n      dup4\n        /* \"#utility.yul\":19736:19775   */\n      tag_219\n      jump\t// in\n    tag_412:\n        /* \"#utility.yul\":19724:19775   */\n      swap6\n      pop\n        /* \"#utility.yul\":19808:19812   */\n      dup1\n        /* \"#utility.yul\":19804:19813   */\n      not\n        /* \"#utility.yul\":19797:19802   */\n      dup5\n        /* \"#utility.yul\":19793:19814   */\n      and\n        /* \"#utility.yul\":19784:19814   */\n      swap4\n      pop\n        /* \"#utility.yul\":19857:19861   */\n      dup1\n        /* \"#utility.yul\":19847:19855   */\n      dup7\n        /* \"#utility.yul\":19843:19862   */\n      and\n        /* \"#utility.yul\":19836:19841   */\n      dup5\n        /* \"#utility.yul\":19833:19863   */\n      or\n        /* \"#utility.yul\":19823:19863   */\n      swap3\n      pop\n        /* \"#utility.yul\":19552:19869   */\n      pop\n      pop\n        /* \"#utility.yul\":19476:19869   */\n      swap4\n      swap3\n      pop\n      pop\n      pop\n      jump\t// out\n        /* \"#utility.yul\":19875:19935   */\n    tag_221:\n        /* \"#utility.yul\":19903:19906   */\n      0x00\n        /* \"#utility.yul\":19924:19929   */\n      dup2\n        /* \"#utility.yul\":19917:19929   */\n      swap1\n      pop\n        /* \"#utility.yul\":19875:19935   */\n      swap2\n      swap1\n      pop\n      jump\t// out\n        /* \"#utility.yul\":19941:20083   */\n    tag_222:\n        /* \"#utility.yul\":19991:20000   */\n      0x00\n        /* \"#utility.yul\":20024:20077   */\n      tag_415\n        /* \"#utility.yul\":20042:20076   */\n      tag_416\n        /* \"#utility.yul\":20051:20075   */\n      tag_417\n        /* \"#utility.yul\":20069:20074   */\n      dup5\n        /* \"#utility.yul\":20051:20075   */\n      tag_166\n      jump\t// in\n    tag_417:\n        /* \"#utility.yul\":20042:20076   */\n      tag_221\n      jump\t// in\n    tag_416:\n        /* \"#utility.yul\":20024:20077   */\n      tag_166\n      jump\t// in\n    tag_415:\n        /* \"#utility.yul\":20011:20077   */\n      swap1\n      pop\n        /* \"#utility.yul\":19941:20083   */\n      swap2\n      swap1\n      pop\n      jump\t// out\n        /* \"#utility.yul\":20089:20164   */\n    tag_223:\n        /* \"#utility.yul\":20132:20135   */\n      0x00\n        /* \"#utility.yul\":20153:20158   */\n      dup2\n        /* \"#utility.yul\":20146:20158   */\n      swap1\n      pop\n        /* \"#utility.yul\":20089:20164   */\n      swap2\n      swap1\n      pop\n      jump\t// out\n        /* \"#utility.yul\":20170:20439   */\n    tag_224:\n        /* \"#utility.yul\":20280:20319   */\n      tag_420\n        /* \"#utility.yul\":20311:20318   */\n      dup4\n        /* \"#utility.yul\":20280:20319   */\n      tag_222\n      jump\t// in\n    tag_420:\n        /* \"#utility.yul\":20341:20432   */\n      tag_421\n        /* \"#utility.yul\":20390:20431   */\n      tag_422\n        /* \"#utility.yul\":20414:20430   */\n      dup3\n        /* \"#utility.yul\":20390:20431   */\n      tag_223\n      jump\t// in\n    tag_422:\n        /* \"#utility.yul\":20382:20388   */\n      dup5\n        /* \"#utility.yul\":20375:20379   */\n      dup5\n        /* \"#utility.yul\":20369:20380   */\n      sload\n        /* \"#utility.yul\":20341:20432   */\n      tag_220\n      jump\t// in\n    tag_421:\n        /* \"#utility.yul\":20335:20339   */\n      dup3\n        /* \"#utility.yul\":20328:20433   */\n      sstore\n        /* \"#utility.yul\":20246:20439   */\n      pop\n        /* \"#utility.yul\":20170:20439   */\n      pop\n      pop\n      pop\n      jump\t// out\n        /* \"#utility.yul\":20445:20518   */\n    tag_225:\n        /* \"#utility.yul\":20490:20493   */\n      0x00\n        /* \"#utility.yul\":20445:20518   */\n      swap1\n      jump\t// out\n        /* \"#utility.yul\":20524:20713   */\n    tag_226:\n        /* \"#utility.yul\":20601:20633   */\n      tag_425\n      tag_225\n      jump\t// in\n    tag_425:\n        /* \"#utility.yul\":20642:20707   */\n      tag_426\n        /* \"#utility.yul\":20700:20706   */\n      dup2\n        /* \"#utility.yul\":20692:20698   */\n      dup5\n        /* \"#utility.yul\":20686:20690   */\n      dup5\n        /* \"#utility.yul\":20642:20707   */\n      tag_224\n      jump\t// in\n    tag_426:\n        /* \"#utility.yul\":20577:20713   */\n      pop\n        /* \"#utility.yul\":20524:20713   */\n      pop\n      pop\n      jump\t// out\n        /* \"#utility.yul\":20719:20905   */\n    tag_227:\n        /* \"#utility.yul\":20779:20899   */\n    tag_428:\n        /* \"#utility.yul\":20796:20799   */\n      dup2\n        /* \"#utility.yul\":20789:20794   */\n      dup2\n        /* \"#utility.yul\":20786:20800   */\n      lt\n        /* \"#utility.yul\":20779:20899   */\n      iszero\n      tag_430\n      jumpi\n        /* \"#utility.yul\":20850:20889   */\n      tag_431\n        /* \"#utility.yul\":20887:20888   */\n      0x00\n        /* \"#utility.yul\":20880:20885   */\n      dup3\n        /* \"#utility.yul\":20850:20889   */\n      tag_226\n      jump\t// in\n    tag_431:\n        /* \"#utility.yul\":20823:20824   */\n      0x01\n        /* \"#utility.yul\":20816:20821   */\n      dup2\n        /* \"#utility.yul\":20812:20825   */\n      add\n        /* \"#utility.yul\":20803:20825   */\n      swap1\n      pop\n        /* \"#utility.yul\":20779:20899   */\n      jump(tag_428)\n    tag_430:\n        /* \"#utility.yul\":20719:20905   */\n      pop\n      pop\n      jump\t// out\n        /* \"#utility.yul\":20911:21454   */\n    tag_228:\n        /* \"#utility.yul\":21012:21014   */\n      0x1f\n        /* \"#utility.yul\":21007:21010   */\n      dup3\n        /* \"#utility.yul\":21004:21015   */\n      gt\n        /* \"#utility.yul\":21001:21447   */\n      iszero\n      tag_433\n      jumpi\n        /* \"#utility.yul\":21046:21084   */\n      tag_434\n        /* \"#utility.yul\":21078:21083   */\n      dup2\n        /* \"#utility.yul\":21046:21084   */\n      tag_217\n      jump\t// in\n    tag_434:\n        /* \"#utility.yul\":21130:21159   */\n      tag_435\n        /* \"#utility.yul\":21148:21158   */\n      dup5\n        /* \"#utility.yul\":21130:21159   */\n      tag_218\n      jump\t// in\n    tag_435:\n        /* \"#utility.yul\":21120:21128   */\n      dup2\n        /* \"#utility.yul\":21116:21160   */\n      add\n        /* \"#utility.yul\":21313:21315   */\n      0x20\n        /* \"#utility.yul\":21301:21311   */\n      dup6\n        /* \"#utility.yul\":21298:21316   */\n      lt\n        /* \"#utility.yul\":21295:21344   */\n      iszero\n      tag_436\n      jumpi\n        /* \"#utility.yul\":21334:21342   */\n      dup2\n        /* \"#utility.yul\":21319:21342   */\n      swap1\n      pop\n        /* \"#utility.yul\":21295:21344   */\n    tag_436:\n        /* \"#utility.yul\":21357:21437   */\n      tag_437\n        /* \"#utility.yul\":21413:21435   */\n      tag_438\n        /* \"#utility.yul\":21431:21434   */\n      dup6\n        /* \"#utility.yul\":21413:21435   */\n      tag_218\n      jump\t// in\n    tag_438:\n        /* \"#utility.yul\":21403:21411   */\n      dup4\n        /* \"#utility.yul\":21399:21436   */\n      add\n        /* \"#utility.yul\":21386:21397   */\n      dup3\n        /* \"#utility.yul\":21357:21437   */\n      tag_227\n      jump\t// in\n    tag_437:\n        /* \"#utility.yul\":21016:21447   */\n      pop\n      pop\n        /* \"#utility.yul\":21001:21447   */\n    tag_433:\n        /* \"#utility.yul\":20911:21454   */\n      pop\n      pop\n      pop\n      jump\t// out\n        /* \"#utility.yul\":21460:21577   */\n    tag_229:\n        /* \"#utility.yul\":21514:21522   */\n      0x00\n        /* \"#utility.yul\":21564:21569   */\n      dup3\n        /* \"#utility.yul\":21558:21562   */\n      dup3\n        /* \"#utility.yul\":21554:21570   */\n      shr\n        /* \"#utility.yul\":21533:21570   */\n      swap1\n      pop\n        /* \"#utility.yul\":21460:21577   */\n      swap3\n      swap2\n      pop\n      pop\n      jump\t// out\n        /* \"#utility.yul\":21583:21752   */\n    tag_230:\n        /* \"#utility.yul\":21627:21633   */\n      0x00\n        /* \"#utility.yul\":21660:21711   */\n      tag_441\n        /* \"#utility.yul\":21708:21709   */\n      0x00\n        /* \"#utility.yul\":21704:21710   */\n      not\n        /* \"#utility.yul\":21696:21701   */\n      dup5\n        /* \"#utility.yul\":21693:21694   */\n      0x08\n        /* \"#utility.yul\":21689:21702   */\n      mul\n        /* \"#utility.yul\":21660:21711   */\n      tag_229\n      jump\t// in\n    tag_441:\n        /* \"#utility.yul\":21656:21712   */\n      not\n        /* \"#utility.yul\":21741:21745   */\n      dup1\n        /* \"#utility.yul\":21735:21739   */\n      dup4\n        /* \"#utility.yul\":21731:21746   */\n      and\n        /* \"#utility.yul\":21721:21746   */\n      swap2\n      pop\n        /* \"#utility.yul\":21634:21752   */\n      pop\n        /* \"#utility.yul\":21583:21752   */\n      swap3\n      swap2\n      pop\n      pop\n      jump\t// out\n        /* \"#utility.yul\":21757:22052   */\n    tag_231:\n        /* \"#utility.yul\":21833:21837   */\n      0x00\n        /* \"#utility.yul\":21979:22008   */\n      tag_443\n        /* \"#utility.yul\":22004:22007   */\n      dup4\n        /* \"#utility.yul\":21998:22002   */\n      dup4\n        /* \"#utility.yul\":21979:22008   */\n      tag_230\n      jump\t// in\n    tag_443:\n        /* \"#utility.yul\":21971:22008   */\n      swap2\n      pop\n        /* \"#utility.yul\":22041:22044   */\n      dup3\n        /* \"#utility.yul\":22038:22039   */\n      0x02\n        /* \"#utility.yul\":22034:22045   */\n      mul\n        /* \"#utility.yul\":22028:22032   */\n      dup3\n        /* \"#utility.yul\":22025:22046   */\n      or\n        /* \"#utility.yul\":22017:22046   */\n      swap1\n      pop\n        /* \"#utility.yul\":21757:22052   */\n      swap3\n      swap2\n      pop\n      pop\n      jump\t// out\n        /* \"#utility.yul\":22057:23452   */\n    tag_123:\n        /* \"#utility.yul\":22174:22211   */\n      tag_445\n        /* \"#utility.yul\":22207:22210   */\n      dup3\n        /* \"#utility.yul\":22174:22211   */\n      tag_172\n      jump\t// in\n    tag_445:\n        /* \"#utility.yul\":22276:22294   */\n      0xffffffffffffffff\n        /* \"#utility.yul\":22268:22274   */\n      dup2\n        /* \"#utility.yul\":22265:22295   */\n      gt\n        /* \"#utility.yul\":22262:22318   */\n      iszero\n      tag_446\n      jumpi\n        /* \"#utility.yul\":22298:22316   */\n      tag_447\n      tag_183\n      jump\t// in\n    tag_447:\n        /* \"#utility.yul\":22262:22318   */\n    tag_446:\n        /* \"#utility.yul\":22342:22380   */\n      tag_448\n        /* \"#utility.yul\":22374:22378   */\n      dup3\n        /* \"#utility.yul\":22368:22379   */\n      sload\n        /* \"#utility.yul\":22342:22380   */\n      tag_77\n      jump\t// in\n    tag_448:\n        /* \"#utility.yul\":22427:22494   */\n      tag_449\n        /* \"#utility.yul\":22487:22493   */\n      dup3\n        /* \"#utility.yul\":22479:22485   */\n      dup3\n        /* \"#utility.yul\":22473:22477   */\n      dup6\n        /* \"#utility.yul\":22427:22494   */\n      tag_228\n      jump\t// in\n    tag_449:\n        /* \"#utility.yul\":22521:22522   */\n      0x00\n        /* \"#utility.yul\":22545:22549   */\n      0x20\n        /* \"#utility.yul\":22532:22549   */\n      swap1\n      pop\n        /* \"#utility.yul\":22577:22579   */\n      0x1f\n        /* \"#utility.yul\":22569:22575   */\n      dup4\n        /* \"#utility.yul\":22566:22580   */\n      gt\n        /* \"#utility.yul\":22594:22595   */\n      0x01\n        /* \"#utility.yul\":22589:23207   */\n      dup2\n      eq\n      tag_451\n      jumpi\n        /* \"#utility.yul\":23251:23252   */\n      0x00\n        /* \"#utility.yul\":23268:23274   */\n      dup5\n        /* \"#utility.yul\":23265:23342   */\n      iszero\n      tag_452\n      jumpi\n        /* \"#utility.yul\":23317:23326   */\n      dup3\n        /* \"#utility.yul\":23312:23315   */\n      dup8\n        /* \"#utility.yul\":23308:23327   */\n      add\n        /* \"#utility.yul\":23302:23328   */\n      mload\n        /* \"#utility.yul\":23293:23328   */\n      swap1\n      pop\n        /* \"#utility.yul\":23265:23342   */\n    tag_452:\n        /* \"#utility.yul\":23368:23435   */\n      tag_453\n        /* \"#utility.yul\":23428:23434   */\n      dup6\n        /* \"#utility.yul\":23421:23426   */\n      dup3\n        /* \"#utility.yul\":23368:23435   */\n      tag_231\n      jump\t// in\n    tag_453:\n        /* \"#utility.yul\":23362:23366   */\n      dup7\n        /* \"#utility.yul\":23355:23436   */\n      sstore\n        /* \"#utility.yul\":23224:23446   */\n      pop\n        /* \"#utility.yul\":22559:23446   */\n      jump(tag_450)\n        /* \"#utility.yul\":22589:23207   */\n    tag_451:\n        /* \"#utility.yul\":22641:22645   */\n      0x1f\n        /* \"#utility.yul\":22637:22646   */\n      not\n        /* \"#utility.yul\":22629:22635   */\n      dup5\n        /* \"#utility.yul\":22625:22647   */\n      and\n        /* \"#utility.yul\":22675:22712   */\n      tag_454\n        /* \"#utility.yul\":22707:22711   */\n      dup7\n        /* \"#utility.yul\":22675:22712   */\n      tag_217\n      jump\t// in\n    tag_454:\n        /* \"#utility.yul\":22734:22735   */\n      0x00\n        /* \"#utility.yul\":22748:22956   */\n    tag_455:\n        /* \"#utility.yul\":22762:22769   */\n      dup3\n        /* \"#utility.yul\":22759:22760   */\n      dup2\n        /* \"#utility.yul\":22756:22770   */\n      lt\n        /* \"#utility.yul\":22748:22956   */\n      iszero\n      tag_457\n      jumpi\n        /* \"#utility.yul\":22841:22850   */\n      dup5\n        /* \"#utility.yul\":22836:22839   */\n      dup10\n        /* \"#utility.yul\":22832:22851   */\n      add\n        /* \"#utility.yul\":22826:22852   */\n      mload\n        /* \"#utility.yul\":22818:22824   */\n      dup3\n        /* \"#utility.yul\":22811:22853   */\n      sstore\n        /* \"#utility.yul\":22892:22893   */\n      0x01\n        /* \"#utility.yul\":22884:22890   */\n      dup3\n        /* \"#utility.yul\":22880:22894   */\n      add\n        /* \"#utility.yul\":22870:22894   */\n      swap2\n      pop\n        /* \"#utility.yul\":22939:22941   */\n      0x20\n        /* \"#utility.yul\":22928:22937   */\n      dup6\n        /* \"#utility.yul\":22924:22942   */\n      add\n        /* \"#utility.yul\":22911:22942   */\n      swap5\n      pop\n        /* \"#utility.yul\":22785:22789   */\n      0x20\n        /* \"#utility.yul\":22782:22783   */\n      dup2\n        /* \"#utility.yul\":22778:22790   */\n      add\n        /* \"#utility.yul\":22773:22790   */\n      swap1\n      pop\n        /* \"#utility.yul\":22748:22956   */\n      jump(tag_455)\n    tag_457:\n        /* \"#utility.yul\":22984:22990   */\n      dup7\n        /* \"#utility.yul\":22975:22982   */\n      dup4\n        /* \"#utility.yul\":22972:22991   */\n      lt\n        /* \"#utility.yul\":22969:23148   */\n      iszero\n      tag_458\n      jumpi\n        /* \"#utility.yul\":23042:23051   */\n      dup5\n        /* \"#utility.yul\":23037:23040   */\n      dup10\n        /* \"#utility.yul\":23033:23052   */\n      add\n        /* \"#utility.yul\":23027:23053   */\n      mload\n        /* \"#utility.yul\":23085:23133   */\n      tag_459\n        /* \"#utility.yul\":23127:23131   */\n      0x1f\n        /* \"#utility.yul\":23119:23125   */\n      dup10\n        /* \"#utility.yul\":23115:23132   */\n      and\n        /* \"#utility.yul\":23104:23113   */\n      dup3\n        /* \"#utility.yul\":23085:23133   */\n      tag_230\n      jump\t// in\n    tag_459:\n        /* \"#utility.yul\":23077:23083   */\n      dup4\n        /* \"#utility.yul\":23070:23134   */\n      sstore\n        /* \"#utility.yul\":22992:23148   */\n      pop\n        /* \"#utility.yul\":22969:23148   */\n    tag_458:\n        /* \"#utility.yul\":23194:23195   */\n      0x01\n        /* \"#utility.yul\":23190:23191   */\n      0x02\n        /* \"#utility.yul\":23182:23188   */\n      dup9\n        /* \"#utility.yul\":23178:23192   */\n      mul\n        /* \"#utility.yul\":23174:23196   */\n      add\n        /* \"#utility.yul\":23168:23172   */\n      dup9\n        /* \"#utility.yul\":23161:23197   */\n      sstore\n        /* \"#utility.yul\":22596:23207   */\n      pop\n      pop\n      pop\n        /* \"#utility.yul\":22559:23446   */\n    tag_450:\n      pop\n        /* \"#utility.yul\":22149:23452   */\n      pop\n      pop\n      pop\n        /* \"#utility.yul\":22057:23452   */\n      pop\n      pop\n      jump\t// out\n\n    auxdata: 0xa26469706673582212204b29198aa0d517904ef86bcca6f2616d2ba7cd9f269deb740fd4c2f4dd653e0164736f6c634300081a0033\n}\n",
				"bytecode": {
					"linkReferences": {},
					"object": "608060405234801561000f575f80fd5b50604051611ed9380380611ed9833981810160405281019061003191906103c2565b335f806101000a81548173ffffffffffffffffffffffffffffffffffffffff021916908373ffffffffffffffffffffffffffffffffffffffff1602179055506001805f805f9054906101000a900473ffffffffffffffffffffffffffffffffffffffff1673ffffffffffffffffffffffffffffffffffffffff1673ffffffffffffffffffffffffffffffffffffffff1681526020019081526020015f205f01819055505f60035f6101000a81548160ff021916908360028111156100f8576100f7610409565b5b02179055505f5b815181101561018c576002604051806040016040528084848151811061012857610127610436565b5b602002602001015181526020015f815250908060018154018082558091505060019003905f5260205f2090600202015f909190919091505f820151815f0190816101729190610670565b5060208201518160010155505080806001019150506100ff565b505061073f565b5f604051905090565b5f80fd5b5f80fd5b5f80fd5b5f601f19601f8301169050919050565b7f4e487b71000000000000000000000000000000000000000000000000000000005f52604160045260245ffd5b6101ee826101a8565b810181811067ffffffffffffffff8211171561020d5761020c6101b8565b5b80604052505050565b5f61021f610193565b905061022b82826101e5565b919050565b5f67ffffffffffffffff82111561024a576102496101b8565b5b602082029050602081019050919050565b5f80fd5b5f80fd5b5f67ffffffffffffffff82111561027d5761027c6101b8565b5b610286826101a8565b9050602081019050919050565b8281835e5f83830152505050565b5f6102b36102ae84610263565b610216565b9050828152602081018484840111156102cf576102ce61025f565b5b6102da848285610293565b509392505050565b5f82601f8301126102f6576102f56101a4565b5b81516103068482602086016102a1565b91505092915050565b5f61032161031c84610230565b610216565b905080838252602082019050602084028301858111156103445761034361025b565b5b835b8181101561038b57805167ffffffffffffffff811115610369576103686101a4565b5b80860161037689826102e2565b85526020850194505050602081019050610346565b5050509392505050565b5f82601f8301126103a9576103a86101a4565b5b81516103b984826020860161030f565b91505092915050565b5f602082840312156103d7576103d661019c565b5b5f82015167ffffffffffffffff8111156103f4576103f36101a0565b5b61040084828501610395565b91505092915050565b7f4e487b71000000000000000000000000000000000000000000000000000000005f52602160045260245ffd5b7f4e487b71000000000000000000000000000000000000000000000000000000005f52603260045260245ffd5b5f81519050919050565b7f4e487b71000000000000000000000000000000000000000000000000000000005f52602260045260245ffd5b5f60028204905060018216806104b157607f821691505b6020821081036104c4576104c361046d565b5b50919050565b5f819050815f5260205f209050919050565b5f6020601f8301049050919050565b5f82821b905092915050565b5f600883026105267fffffffffffffffffffffffffffffffffffffffffffffffffffffffffffffffff826104eb565b61053086836104eb565b95508019841693508086168417925050509392505050565b5f819050919050565b5f819050919050565b5f61057461056f61056a84610548565b610551565b610548565b9050919050565b5f819050919050565b61058d8361055a565b6105a16105998261057b565b8484546104f7565b825550505050565b5f90565b6105b56105a9565b6105c0818484610584565b505050565b5b818110156105e3576105d85f826105ad565b6001810190506105c6565b5050565b601f821115610628576105f9816104ca565b610602846104dc565b81016020851015610611578190505b61062561061d856104dc565b8301826105c5565b50505b505050565b5f82821c905092915050565b5f6106485f198460080261062d565b1980831691505092915050565b5f6106608383610639565b9150826002028217905092915050565b61067982610463565b67ffffffffffffffff811115610692576106916101b8565b5b61069c825461049a565b6106a78282856105e7565b5f60209050601f8311600181146106d8575f84156106c6578287015190505b6106d08582610655565b865550610737565b601f1984166106e6866104ca565b5f5b8281101561070d578489015182556001820191506020850194506020810190506106e8565b8683101561072a5784890151610726601f891682610639565b8355505b6001600288020188555050505b505050505050565b61178d8061074c5f395ff3fe608060405234801561000f575f80fd5b506004361061009c575f3560e01c8063a3ec138d11610064578063a3ec138d14610131578063a999e56214610163578063b92239461461017f578063c19d93fb14610189578063d28178d7146101a75761009c565b80630121b93f146100a05780632e4176cf146100bc5780633477ee2e146100da5780634c0a6af01461010b5780639e7b8d6114610115575b5f80fd5b6100ba60048036038101906100b59190610ba0565b6101c5565b005b6100c4610375565b6040516100d19190610c0a565b60405180910390f35b6100f460048036038101906100ef9190610ba0565b610398565b604051610102929190610ca2565b60405180910390f35b61011361044d565b005b61012f600480360381019061012a9190610cfa565b61057a565b005b61014b60048036038101906101469190610cfa565b610725565b60405161015a93929190610d3f565b60405180910390f35b61017d60048036038101906101789190610f82565b610757565b005b610187610887565b005b6101916109b5565b60405161019e919061103c565b60405180910390f35b6101af6109c7565b6040516101bc9190611055565b60405180910390f35b600160028111156101d9576101d8610fc9565b5b60035f9054906101000a900460ff1660028111156101fa576101f9610fc9565b5b1461023a576040517f08c379a0000000000000000000000000000000000000000000000000000000008152600401610231906110bf565b60405180910390fd5b5f60015f3373ffffffffffffffffffffffffffffffffffffffff1673ffffffffffffffffffffffffffffffffffffffff1681526020019081526020015f2090505f815f0154036102bf576040517f08c379a00000000000000000000000000000000000000000000000000000000081526004016102b690611127565b60405180910390fd5b806001015f9054906101000a900460ff1615610310576040517f08c379a00000000000000000000000000000000000000000000000000000000081526004016103079061118f565b60405180910390fd5b6001816001015f6101000a81548160ff021916908315150217905550818160020181905550805f01546002838154811061034d5761034c6111ad565b5b905f5260205f2090600202016001015f82825461036a9190611207565b925050819055505050565b5f8054906101000a900473ffffffffffffffffffffffffffffffffffffffff1681565b600281815481106103a7575f80fd5b905f5260205f2090600202015f91509050805f0180546103c690611267565b80601f01602080910402602001604051908101604052809291908181526020018280546103f290611267565b801561043d5780601f106104145761010080835404028352916020019161043d565b820191905f5260205f20905b81548152906001019060200180831161042057829003601f168201915b5050505050908060010154905082565b5f8054906101000a900473ffffffffffffffffffffffffffffffffffffffff1673ffffffffffffffffffffffffffffffffffffffff163373ffffffffffffffffffffffffffffffffffffffff16146104da576040517f08c379a00000000000000000000000000000000000000000000000000000000081526004016104d190611307565b60405180910390fd5b5f60028111156104ed576104ec610fc9565b5b60035f9054906101000a900460ff16600281111561050e5761050d610fc9565b5b1461054e576040517f08c379a00000000000000000000000000000000000000000000000000000000081526004016105459061136f565b60405180910390fd5b600160035f6101000a81548160ff0219169083600281111561057357610572610fc9565b5b0217905550565b5f8054906101000a900473ffffffffffffffffffffffffffffffffffffffff1673ffffffffffffffffffffffffffffffffffffffff163373ffffffffffffffffffffffffffffffffffffffff1614610607576040517f08c379a00000000000000000000000000000000000000000000000000000000081526004016105fe906113fd565b60405180910390fd5b60015f8273ffffffffffffffffffffffffffffffffffffffff1673ffffffffffffffffffffffffffffffffffffffff1681526020019081526020015f206001015f9054906101000a900460ff1615610694576040517f08c379a000000000000000000000000000000000000000000000000000000000815260040161068b90611465565b60405180910390fd5b5f60015f8373ffffffffffffffffffffffffffffffffffffffff1673ffffffffffffffffffffffffffffffffffffffff1681526020019081526020015f205f0154146106de575f80fd5b6001805f8373ffffffffffffffffffffffffffffffffffffffff1673ffffffffffffffffffffffffffffffffffffffff1681526020019081526020015f205f018190555050565b6001602052805f5260405f205f91509050805f015490806001015f9054906101000a900460ff16908060020154905083565b60028081111561076a57610769610fc9565b5b60035f9054906101000a900460ff16600281111561078b5761078a610fc9565b5b146107cb576040517f08c379a00000000000000000000000000000000000000000000000000000000081526004016107c2906114cd565b60405180910390fd5b5f60035f6101000a81548160ff021916908360028111156107ef576107ee610fc9565b5b02179055505f5b8151811015610883576002604051806040016040528084848151811061081f5761081e6111ad565b5b602002602001015181526020015f815250908060018154018082558091505060019003905f5260205f2090600202015f909190919091505f820151815f0190816108699190611688565b5060208201518160010155505080806001019150506107f6565b5050565b5f8054906101000a900473ffffffffffffffffffffffffffffffffffffffff1673ffffffffffffffffffffffffffffffffffffffff163373ffffffffffffffffffffffffffffffffffffffff1614610914576040517f08c379a000000000000000000000000000000000000000000000000000000000815260040161090b90611307565b60405180910390fd5b6001600281111561092857610927610fc9565b5b60035f9054906101000a900460ff16600281111561094957610948610fc9565b5b14610989576040517f08c379a0000000000000000000000000000000000000000000000000000000008152600401610980906110bf565b60405180910390fd5b600260035f6101000a81548160ff021916908360028111156109ae576109ad610fc9565b5b0217905550565b60035f9054906101000a900460ff1681565b60606002808111156109dc576109db610fc9565b5b60035f9054906101000a900460ff1660028111156109fd576109fc610fc9565b5b14610a3d576040517f08c379a0000000000000000000000000000000000000000000000000000000008152600401610a34906114cd565b60405180910390fd5b5f805b600280549050811015610b57578160028281548110610a6257610a616111ad565b5b905f5260205f209060020201600101541115610b4a5760028181548110610a8c57610a8b6111ad565b5b905f5260205f20906002020160010154915060028181548110610ab257610ab16111ad565b5b905f5260205f2090600202015f018054610acb90611267565b80601f0160208091040260200160405190810160405280929190818152602001828054610af790611267565b8015610b425780601f10610b1957610100808354040283529160200191610b42565b820191905f5260205f20905b815481529060010190602001808311610b2557829003601f168201915b505050505092505b8080600101915050610a40565b505090565b5f604051905090565b5f80fd5b5f80fd5b5f819050919050565b610b7f81610b6d565b8114610b89575f80fd5b50565b5f81359050610b9a81610b76565b92915050565b5f60208284031215610bb557610bb4610b65565b5b5f610bc284828501610b8c565b91505092915050565b5f73ffffffffffffffffffffffffffffffffffffffff82169050919050565b5f610bf482610bcb565b9050919050565b610c0481610bea565b82525050565b5f602082019050610c1d5f830184610bfb565b92915050565b5f81519050919050565b5f82825260208201905092915050565b8281835e5f83830152505050565b5f601f19601f8301169050919050565b5f610c6582610c23565b610c6f8185610c2d565b9350610c7f818560208601610c3d565b610c8881610c4b565b840191505092915050565b610c9c81610b6d565b82525050565b5f6040820190508181035f830152610cba8185610c5b565b9050610cc96020830184610c93565b9392505050565b610cd981610bea565b8114610ce3575f80fd5b50565b5f81359050610cf481610cd0565b92915050565b5f60208284031215610d0f57610d0e610b65565b5b5f610d1c84828501610ce6565b91505092915050565b5f8115159050919050565b610d3981610d25565b82525050565b5f606082019050610d525f830186610c93565b610d5f6020830185610d30565b610d6c6040830184610c93565b949350505050565b5f80fd5b7f4e487b71000000000000000000000000000000000000000000000000000000005f52604160045260245ffd5b610dae82610c4b565b810181811067ffffffffffffffff82111715610dcd57610dcc610d78565b5b80604052505050565b5f610ddf610b5c565b9050610deb8282610da5565b919050565b5f67ffffffffffffffff821115610e0a57610e09610d78565b5b602082029050602081019050919050565b5f80fd5b5f80fd5b5f67ffffffffffffffff821115610e3d57610e3c610d78565b5b610e4682610c4b565b9050602081019050919050565b828183375f83830152505050565b5f610e73610e6e84610e23565b610dd6565b905082815260208101848484011115610e8f57610e8e610e1f565b5b610e9a848285610e53565b509392505050565b5f82601f830112610eb657610eb5610d74565b5b8135610ec6848260208601610e61565b91505092915050565b5f610ee1610edc84610df0565b610dd6565b90508083825260208201905060208402830185811115610f0457610f03610e1b565b5b835b81811015610f4b57803567ffffffffffffffff811115610f2957610f28610d74565b5b808601610f368982610ea2565b85526020850194505050602081019050610f06565b5050509392505050565b5f82601f830112610f6957610f68610d74565b5b8135610f79848260208601610ecf565b91505092915050565b5f60208284031215610f9757610f96610b65565b5b5f82013567ffffffffffffffff811115610fb457610fb3610b69565b5b610fc084828501610f55565b91505092915050565b7f4e487b71000000000000000000000000000000000000000000000000000000005f52602160045260245ffd5b6003811061100757611006610fc9565b5b50565b5f81905061101782610ff6565b919050565b5f6110268261100a565b9050919050565b6110368161101c565b82525050565b5f60208201905061104f5f83018461102d565b92915050565b5f6020820190508181035f83015261106d8184610c5b565b905092915050565b7f6974206d75737420626520696e20566f74696e6720506572696f6400000000005f82015250565b5f6110a9601b83610c2d565b91506110b482611075565b602082019050919050565b5f6020820190508181035f8301526110d68161109d565b9050919050565b7f486173206e6f20726967687420746f20766f74650000000000000000000000005f82015250565b5f611111601483610c2d565b915061111c826110dd565b602082019050919050565b5f6020820190508181035f83015261113e81611105565b9050919050565b7f416c726561647920766f7465642e0000000000000000000000000000000000005f82015250565b5f611179600e83610c2d565b915061118482611145565b602082019050919050565b5f6020820190508181035f8301526111a68161116d565b9050919050565b7f4e487b71000000000000000000000000000000000000000000000000000000005f52603260045260245ffd5b7f4e487b71000000000000000000000000000000000000000000000000000000005f52601160045260245ffd5b5f61121182610b6d565b915061121c83610b6d565b9250828201905080821115611234576112336111da565b5b92915050565b7f4e487b71000000000000000000000000000000000000000000000000000000005f52602260045260245ffd5b5f600282049050600182168061127e57607f821691505b6020821081036112915761129061123a565b5b50919050565b7f4f6e6c79206368616972706572736f6e2063616e20737461727420616e6420655f8201527f6e642074686520766f74696e6700000000000000000000000000000000000000602082015250565b5f6112f1602d83610c2d565b91506112fc82611297565b604082019050919050565b5f6020820190508181035f83015261131e816112e5565b9050919050565b7f6974206d75737420626520696e205374617274656400000000000000000000005f82015250565b5f611359601583610c2d565b915061136482611325565b602082019050919050565b5f6020820190508181035f8301526113868161134d565b9050919050565b7f4f6e6c79206368616972706572736f6e2063616e2067697665207269676874205f8201527f746f20766f74652e000000000000000000000000000000000000000000000000602082015250565b5f6113e7602883610c2d565b91506113f28261138d565b604082019050919050565b5f6020820190508181035f830152611414816113db565b9050919050565b7f54686520766f74657220616c726561647920766f7465642e00000000000000005f82015250565b5f61144f601883610c2d565b915061145a8261141b565b602082019050919050565b5f6020820190508181035f83015261147c81611443565b9050919050565b7f6974206d75737420626520696e20456e64656420506572696f640000000000005f82015250565b5f6114b7601a83610c2d565b91506114c282611483565b602082019050919050565b5f6020820190508181035f8301526114e4816114ab565b9050919050565b5f819050815f5260205f209050919050565b5f6020601f8301049050919050565b5f82821b905092915050565b5f600883026115477fffffffffffffffffffffffffffffffffffffffffffffffffffffffffffffffff8261150c565b611551868361150c565b95508019841693508086168417925050509392505050565b5f819050919050565b5f61158c61158761158284610b6d565b611569565b610b6d565b9050919050565b5f819050919050565b6115a583611572565b6115b96115b182611593565b848454611518565b825550505050565b5f90565b6115cd6115c1565b6115d881848461159c565b505050565b5b818110156115fb576115f05f826115c5565b6001810190506115de565b5050565b601f82111561164057611611816114eb565b61161a846114fd565b81016020851015611629578190505b61163d611635856114fd565b8301826115dd565b50505b505050565b5f82821c905092915050565b5f6116605f1984600802611645565b1980831691505092915050565b5f6116788383611651565b9150826002028217905092915050565b61169182610c23565b67ffffffffffffffff8111156116aa576116a9610d78565b5b6116b48254611267565b6116bf8282856115ff565b5f60209050601f8311600181146116f0575f84156116de578287015190505b6116e8858261166d565b86555061174f565b601f1984166116fe866114eb565b5f5b8281101561172557848901518255600182019150602085019450602081019050611700565b86831015611742578489015161173e601f891682611651565b8355505b6001600288020188555050505b50505050505056fea26469706673582212204b29198aa0d517904ef86bcca6f2616d2ba7cd9f269deb740fd4c2f4dd653e0164736f6c634300081a0033",
					"opcodes": "PUSH1 0x80 PUSH1 0x40 MSTORE CALLVALUE DUP1 ISZERO PUSH2 0xF JUMPI PUSH0 DUP1 REVERT JUMPDEST POP PUSH1 0x40 MLOAD PUSH2 0x1ED9 CODESIZE SUB DUP1 PUSH2 0x1ED9 DUP4 CODECOPY DUP2 DUP2 ADD PUSH1 0x40 MSTORE DUP2 ADD SWAP1 PUSH2 0x31 SWAP2 SWAP1 PUSH2 0x3C2 JUMP JUMPDEST CALLER PUSH0 DUP1 PUSH2 0x100 EXP DUP2 SLOAD DUP2 PUSH20 0xFFFFFFFFFFFFFFFFFFFFFFFFFFFFFFFFFFFFFFFF MUL NOT AND SWAP1 DUP4 PUSH20 0xFFFFFFFFFFFFFFFFFFFFFFFFFFFFFFFFFFFFFFFF AND MUL OR SWAP1 SSTORE POP PUSH1 0x1 DUP1 PUSH0 DUP1 PUSH0 SWAP1 SLOAD SWAP1 PUSH2 0x100 EXP SWAP1 DIV PUSH20 0xFFFFFFFFFFFFFFFFFFFFFFFFFFFFFFFFFFFFFFFF AND PUSH20 0xFFFFFFFFFFFFFFFFFFFFFFFFFFFFFFFFFFFFFFFF AND PUSH20 0xFFFFFFFFFFFFFFFFFFFFFFFFFFFFFFFFFFFFFFFF AND DUP2 MSTORE PUSH1 0x20 ADD SWAP1 DUP2 MSTORE PUSH1 0x20 ADD PUSH0 KECCAK256 PUSH0 ADD DUP2 SWAP1 SSTORE POP PUSH0 PUSH1 0x3 PUSH0 PUSH2 0x100 EXP DUP2 SLOAD DUP2 PUSH1 0xFF MUL NOT AND SWAP1 DUP4 PUSH1 0x2 DUP2 GT ISZERO PUSH2 0xF8 JUMPI PUSH2 0xF7 PUSH2 0x409 JUMP JUMPDEST JUMPDEST MUL OR SWAP1 SSTORE POP PUSH0 JUMPDEST DUP2 MLOAD DUP2 LT ISZERO PUSH2 0x18C JUMPI PUSH1 0x2 PUSH1 0x40 MLOAD DUP1 PUSH1 0x40 ADD PUSH1 0x40 MSTORE DUP1 DUP5 DUP5 DUP2 MLOAD DUP2 LT PUSH2 0x128 JUMPI PUSH2 0x127 PUSH2 0x436 JUMP JUMPDEST JUMPDEST PUSH1 0x20 MUL PUSH1 0x20 ADD ADD MLOAD DUP2 MSTORE PUSH1 0x20 ADD PUSH0 DUP2 MSTORE POP SWAP1 DUP1 PUSH1 0x1 DUP2 SLOAD ADD DUP1 DUP3 SSTORE DUP1 SWAP2 POP POP PUSH1 0x1 SWAP1 SUB SWAP1 PUSH0 MSTORE PUSH1 0x20 PUSH0 KECCAK256 SWAP1 PUSH1 0x2 MUL ADD PUSH0 SWAP1 SWAP2 SWAP1 SWAP2 SWAP1 SWAP2 POP PUSH0 DUP3 ADD MLOAD DUP2 PUSH0 ADD SWAP1 DUP2 PUSH2 0x172 SWAP2 SWAP1 PUSH2 0x670 JUMP JUMPDEST POP PUSH1 0x20 DUP3 ADD MLOAD DUP2 PUSH1 0x1 ADD SSTORE POP POP DUP1 DUP1 PUSH1 0x1 ADD SWAP2 POP POP PUSH2 0xFF JUMP JUMPDEST POP POP PUSH2 0x73F JUMP JUMPDEST PUSH0 PUSH1 0x40 MLOAD SWAP1 POP SWAP1 JUMP JUMPDEST PUSH0 DUP1 REVERT JUMPDEST PUSH0 DUP1 REVERT JUMPDEST PUSH0 DUP1 REVERT JUMPDEST PUSH0 PUSH1 0x1F NOT PUSH1 0x1F DUP4 ADD AND SWAP1 POP SWAP2 SWAP1 POP JUMP JUMPDEST PUSH32 0x4E487B7100000000000000000000000000000000000000000000000000000000 PUSH0 MSTORE PUSH1 0x41 PUSH1 0x4 MSTORE PUSH1 0x24 PUSH0 REVERT JUMPDEST PUSH2 0x1EE DUP3 PUSH2 0x1A8 JUMP JUMPDEST DUP2 ADD DUP2 DUP2 LT PUSH8 0xFFFFFFFFFFFFFFFF DUP3 GT OR ISZERO PUSH2 0x20D JUMPI PUSH2 0x20C PUSH2 0x1B8 JUMP JUMPDEST JUMPDEST DUP1 PUSH1 0x40 MSTORE POP POP POP JUMP JUMPDEST PUSH0 PUSH2 0x21F PUSH2 0x193 JUMP JUMPDEST SWAP1 POP PUSH2 0x22B DUP3 DUP3 PUSH2 0x1E5 JUMP JUMPDEST SWAP2 SWAP1 POP JUMP JUMPDEST PUSH0 PUSH8 0xFFFFFFFFFFFFFFFF DUP3 GT ISZERO PUSH2 0x24A JUMPI PUSH2 0x249 PUSH2 0x1B8 JUMP JUMPDEST JUMPDEST PUSH1 0x20 DUP3 MUL SWAP1 POP PUSH1 0x20 DUP2 ADD SWAP1 POP SWAP2 SWAP1 POP JUMP JUMPDEST PUSH0 DUP1 REVERT JUMPDEST PUSH0 DUP1 REVERT JUMPDEST PUSH0 PUSH8 0xFFFFFFFFFFFFFFFF DUP3 GT ISZERO PUSH2 0x27D JUMPI PUSH2 0x27C PUSH2 0x1B8 JUMP JUMPDEST JUMPDEST PUSH2 0x286 DUP3 PUSH2 0x1A8 JUMP JUMPDEST SWAP1 POP PUSH1 0x20 DUP2 ADD SWAP1 POP SWAP2 SWAP1 POP JUMP JUMPDEST DUP3 DUP2 DUP4 MCOPY PUSH0 DUP4 DUP4 ADD MSTORE POP POP POP JUMP JUMPDEST PUSH0 PUSH2 0x2B3 PUSH2 0x2AE DUP5 PUSH2 0x263 JUMP JUMPDEST PUSH2 0x216 JUMP JUMPDEST SWAP1 POP DUP3 DUP2 MSTORE PUSH1 0x20 DUP2 ADD DUP5 DUP5 DUP5 ADD GT ISZERO PUSH2 0x2CF JUMPI PUSH2 0x2CE PUSH2 0x25F JUMP JUMPDEST JUMPDEST PUSH2 0x2DA DUP5 DUP3 DUP6 PUSH2 0x293 JUMP JUMPDEST POP SWAP4 SWAP3 POP POP POP JUMP JUMPDEST PUSH0 DUP3 PUSH1 0x1F DUP4 ADD SLT PUSH2 0x2F6 JUMPI PUSH2 0x2F5 PUSH2 0x1A4 JUMP JUMPDEST JUMPDEST DUP2 MLOAD PUSH2 0x306 DUP5 DUP3 PUSH1 0x20 DUP7 ADD PUSH2 0x2A1 JUMP JUMPDEST SWAP2 POP POP SWAP3 SWAP2 POP POP JUMP JUMPDEST PUSH0 PUSH2 0x321 PUSH2 0x31C DUP5 PUSH2 0x230 JUMP JUMPDEST PUSH2 0x216 JUMP JUMPDEST SWAP1 POP DUP1 DUP4 DUP3 MSTORE PUSH1 0x20 DUP3 ADD SWAP1 POP PUSH1 0x20 DUP5 MUL DUP4 ADD DUP6 DUP2 GT ISZERO PUSH2 0x344 JUMPI PUSH2 0x343 PUSH2 0x25B JUMP JUMPDEST JUMPDEST DUP4 JUMPDEST DUP2 DUP2 LT ISZERO PUSH2 0x38B JUMPI DUP1 MLOAD PUSH8 0xFFFFFFFFFFFFFFFF DUP2 GT ISZERO PUSH2 0x369 JUMPI PUSH2 0x368 PUSH2 0x1A4 JUMP JUMPDEST JUMPDEST DUP1 DUP7 ADD PUSH2 0x376 DUP10 DUP3 PUSH2 0x2E2 JUMP JUMPDEST DUP6 MSTORE PUSH1 0x20 DUP6 ADD SWAP5 POP POP POP PUSH1 0x20 DUP2 ADD SWAP1 POP PUSH2 0x346 JUMP JUMPDEST POP POP POP SWAP4 SWAP3 POP POP POP JUMP JUMPDEST PUSH0 DUP3 PUSH1 0x1F DUP4 ADD SLT PUSH2 0x3A9 JUMPI PUSH2 0x3A8 PUSH2 0x1A4 JUMP JUMPDEST JUMPDEST DUP2 MLOAD PUSH2 0x3B9 DUP5 DUP3 PUSH1 0x20 DUP7 ADD PUSH2 0x30F JUMP JUMPDEST SWAP2 POP POP SWAP3 SWAP2 POP POP JUMP JUMPDEST PUSH0 PUSH1 0x20 DUP3 DUP5 SUB SLT ISZERO PUSH2 0x3D7 JUMPI PUSH2 0x3D6 PUSH2 0x19C JUMP JUMPDEST JUMPDEST PUSH0 DUP3 ADD MLOAD PUSH8 0xFFFFFFFFFFFFFFFF DUP2 GT ISZERO PUSH2 0x3F4 JUMPI PUSH2 0x3F3 PUSH2 0x1A0 JUMP JUMPDEST JUMPDEST PUSH2 0x400 DUP5 DUP3 DUP6 ADD PUSH2 0x395 JUMP JUMPDEST SWAP2 POP POP SWAP3 SWAP2 POP POP JUMP JUMPDEST PUSH32 0x4E487B7100000000000000000000000000000000000000000000000000000000 PUSH0 MSTORE PUSH1 0x21 PUSH1 0x4 MSTORE PUSH1 0x24 PUSH0 REVERT JUMPDEST PUSH32 0x4E487B7100000000000000000000000000000000000000000000000000000000 PUSH0 MSTORE PUSH1 0x32 PUSH1 0x4 MSTORE PUSH1 0x24 PUSH0 REVERT JUMPDEST PUSH0 DUP2 MLOAD SWAP1 POP SWAP2 SWAP1 POP JUMP JUMPDEST PUSH32 0x4E487B7100000000000000000000000000000000000000000000000000000000 PUSH0 MSTORE PUSH1 0x22 PUSH1 0x4 MSTORE PUSH1 0x24 PUSH0 REVERT JUMPDEST PUSH0 PUSH1 0x2 DUP3 DIV SWAP1 POP PUSH1 0x1 DUP3 AND DUP1 PUSH2 0x4B1 JUMPI PUSH1 0x7F DUP3 AND SWAP2 POP JUMPDEST PUSH1 0x20 DUP3 LT DUP2 SUB PUSH2 0x4C4 JUMPI PUSH2 0x4C3 PUSH2 0x46D JUMP JUMPDEST JUMPDEST POP SWAP2 SWAP1 POP JUMP JUMPDEST PUSH0 DUP2 SWAP1 POP DUP2 PUSH0 MSTORE PUSH1 0x20 PUSH0 KECCAK256 SWAP1 POP SWAP2 SWAP1 POP JUMP JUMPDEST PUSH0 PUSH1 0x20 PUSH1 0x1F DUP4 ADD DIV SWAP1 POP SWAP2 SWAP1 POP JUMP JUMPDEST PUSH0 DUP3 DUP3 SHL SWAP1 POP SWAP3 SWAP2 POP POP JUMP JUMPDEST PUSH0 PUSH1 0x8 DUP4 MUL PUSH2 0x526 PUSH32 0xFFFFFFFFFFFFFFFFFFFFFFFFFFFFFFFFFFFFFFFFFFFFFFFFFFFFFFFFFFFFFFFF DUP3 PUSH2 0x4EB JUMP JUMPDEST PUSH2 0x530 DUP7 DUP4 PUSH2 0x4EB JUMP JUMPDEST SWAP6 POP DUP1 NOT DUP5 AND SWAP4 POP DUP1 DUP7 AND DUP5 OR SWAP3 POP POP POP SWAP4 SWAP3 POP POP POP JUMP JUMPDEST PUSH0 DUP2 SWAP1 POP SWAP2 SWAP1 POP JUMP JUMPDEST PUSH0 DUP2 SWAP1 POP SWAP2 SWAP1 POP JUMP JUMPDEST PUSH0 PUSH2 0x574 PUSH2 0x56F PUSH2 0x56A DUP5 PUSH2 0x548 JUMP JUMPDEST PUSH2 0x551 JUMP JUMPDEST PUSH2 0x548 JUMP JUMPDEST SWAP1 POP SWAP2 SWAP1 POP JUMP JUMPDEST PUSH0 DUP2 SWAP1 POP SWAP2 SWAP1 POP JUMP JUMPDEST PUSH2 0x58D DUP4 PUSH2 0x55A JUMP JUMPDEST PUSH2 0x5A1 PUSH2 0x599 DUP3 PUSH2 0x57B JUMP JUMPDEST DUP5 DUP5 SLOAD PUSH2 0x4F7 JUMP JUMPDEST DUP3 SSTORE POP POP POP POP JUMP JUMPDEST PUSH0 SWAP1 JUMP JUMPDEST PUSH2 0x5B5 PUSH2 0x5A9 JUMP JUMPDEST PUSH2 0x5C0 DUP2 DUP5 DUP5 PUSH2 0x584 JUMP JUMPDEST POP POP POP JUMP JUMPDEST JUMPDEST DUP2 DUP2 LT ISZERO PUSH2 0x5E3 JUMPI PUSH2 0x5D8 PUSH0 DUP3 PUSH2 0x5AD JUMP JUMPDEST PUSH1 0x1 DUP2 ADD SWAP1 POP PUSH2 0x5C6 JUMP JUMPDEST POP POP JUMP JUMPDEST PUSH1 0x1F DUP3 GT ISZERO PUSH2 0x628 JUMPI PUSH2 0x5F9 DUP2 PUSH2 0x4CA JUMP JUMPDEST PUSH2 0x602 DUP5 PUSH2 0x4DC JUMP JUMPDEST DUP2 ADD PUSH1 0x20 DUP6 LT ISZERO PUSH2 0x611 JUMPI DUP2 SWAP1 POP JUMPDEST PUSH2 0x625 PUSH2 0x61D DUP6 PUSH2 0x4DC JUMP JUMPDEST DUP4 ADD DUP3 PUSH2 0x5C5 JUMP JUMPDEST POP POP JUMPDEST POP POP POP JUMP JUMPDEST PUSH0 DUP3 DUP3 SHR SWAP1 POP SWAP3 SWAP2 POP POP JUMP JUMPDEST PUSH0 PUSH2 0x648 PUSH0 NOT DUP5 PUSH1 0x8 MUL PUSH2 0x62D JUMP JUMPDEST NOT DUP1 DUP4 AND SWAP2 POP POP SWAP3 SWAP2 POP POP JUMP JUMPDEST PUSH0 PUSH2 0x660 DUP4 DUP4 PUSH2 0x639 JUMP JUMPDEST SWAP2 POP DUP3 PUSH1 0x2 MUL DUP3 OR SWAP1 POP SWAP3 SWAP2 POP POP JUMP JUMPDEST PUSH2 0x679 DUP3 PUSH2 0x463 JUMP JUMPDEST PUSH8 0xFFFFFFFFFFFFFFFF DUP2 GT ISZERO PUSH2 0x692 JUMPI PUSH2 0x691 PUSH2 0x1B8 JUMP JUMPDEST JUMPDEST PUSH2 0x69C DUP3 SLOAD PUSH2 0x49A JUMP JUMPDEST PUSH2 0x6A7 DUP3 DUP3 DUP6 PUSH2 0x5E7 JUMP JUMPDEST PUSH0 PUSH1 0x20 SWAP1 POP PUSH1 0x1F DUP4 GT PUSH1 0x1 DUP2 EQ PUSH2 0x6D8 JUMPI PUSH0 DUP5 ISZERO PUSH2 0x6C6 JUMPI DUP3 DUP8 ADD MLOAD SWAP1 POP JUMPDEST PUSH2 0x6D0 DUP6 DUP3 PUSH2 0x655 JUMP JUMPDEST DUP7 SSTORE POP PUSH2 0x737 JUMP JUMPDEST PUSH1 0x1F NOT DUP5 AND PUSH2 0x6E6 DUP7 PUSH2 0x4CA JUMP JUMPDEST PUSH0 JUMPDEST DUP3 DUP2 LT ISZERO PUSH2 0x70D JUMPI DUP5 DUP10 ADD MLOAD DUP3 SSTORE PUSH1 0x1 DUP3 ADD SWAP2 POP PUSH1 0x20 DUP6 ADD SWAP5 POP PUSH1 0x20 DUP2 ADD SWAP1 POP PUSH2 0x6E8 JUMP JUMPDEST DUP7 DUP4 LT ISZERO PUSH2 0x72A JUMPI DUP5 DUP10 ADD MLOAD PUSH2 0x726 PUSH1 0x1F DUP10 AND DUP3 PUSH2 0x639 JUMP JUMPDEST DUP4 SSTORE POP JUMPDEST PUSH1 0x1 PUSH1 0x2 DUP9 MUL ADD DUP9 SSTORE POP POP POP JUMPDEST POP POP POP POP POP POP JUMP JUMPDEST PUSH2 0x178D DUP1 PUSH2 0x74C PUSH0 CODECOPY PUSH0 RETURN INVALID PUSH1 0x80 PUSH1 0x40 MSTORE CALLVALUE DUP1 ISZERO PUSH2 0xF JUMPI PUSH0 DUP1 REVERT JUMPDEST POP PUSH1 0x4 CALLDATASIZE LT PUSH2 0x9C JUMPI PUSH0 CALLDATALOAD PUSH1 0xE0 SHR DUP1 PUSH4 0xA3EC138D GT PUSH2 0x64 JUMPI DUP1 PUSH4 0xA3EC138D EQ PUSH2 0x131 JUMPI DUP1 PUSH4 0xA999E562 EQ PUSH2 0x163 JUMPI DUP1 PUSH4 0xB9223946 EQ PUSH2 0x17F JUMPI DUP1 PUSH4 0xC19D93FB EQ PUSH2 0x189 JUMPI DUP1 PUSH4 0xD28178D7 EQ PUSH2 0x1A7 JUMPI PUSH2 0x9C JUMP JUMPDEST DUP1 PUSH4 0x121B93F EQ PUSH2 0xA0 JUMPI DUP1 PUSH4 0x2E4176CF EQ PUSH2 0xBC JUMPI DUP1 PUSH4 0x3477EE2E EQ PUSH2 0xDA JUMPI DUP1 PUSH4 0x4C0A6AF0 EQ PUSH2 0x10B JUMPI DUP1 PUSH4 0x9E7B8D61 EQ PUSH2 0x115 JUMPI JUMPDEST PUSH0 DUP1 REVERT JUMPDEST PUSH2 0xBA PUSH1 0x4 DUP1 CALLDATASIZE SUB DUP2 ADD SWAP1 PUSH2 0xB5 SWAP2 SWAP1 PUSH2 0xBA0 JUMP JUMPDEST PUSH2 0x1C5 JUMP JUMPDEST STOP JUMPDEST PUSH2 0xC4 PUSH2 0x375 JUMP JUMPDEST PUSH1 0x40 MLOAD PUSH2 0xD1 SWAP2 SWAP1 PUSH2 0xC0A JUMP JUMPDEST PUSH1 0x40 MLOAD DUP1 SWAP2 SUB SWAP1 RETURN JUMPDEST PUSH2 0xF4 PUSH1 0x4 DUP1 CALLDATASIZE SUB DUP2 ADD SWAP1 PUSH2 0xEF SWAP2 SWAP1 PUSH2 0xBA0 JUMP JUMPDEST PUSH2 0x398 JUMP JUMPDEST PUSH1 0x40 MLOAD PUSH2 0x102 SWAP3 SWAP2 SWAP1 PUSH2 0xCA2 JUMP JUMPDEST PUSH1 0x40 MLOAD DUP1 SWAP2 SUB SWAP1 RETURN JUMPDEST PUSH2 0x113 PUSH2 0x44D JUMP JUMPDEST STOP JUMPDEST PUSH2 0x12F PUSH1 0x4 DUP1 CALLDATASIZE SUB DUP2 ADD SWAP1 PUSH2 0x12A SWAP2 SWAP1 PUSH2 0xCFA JUMP JUMPDEST PUSH2 0x57A JUMP JUMPDEST STOP JUMPDEST PUSH2 0x14B PUSH1 0x4 DUP1 CALLDATASIZE SUB DUP2 ADD SWAP1 PUSH2 0x146 SWAP2 SWAP1 PUSH2 0xCFA JUMP JUMPDEST PUSH2 0x725 JUMP JUMPDEST PUSH1 0x40 MLOAD PUSH2 0x15A SWAP4 SWAP3 SWAP2 SWAP1 PUSH2 0xD3F JUMP JUMPDEST PUSH1 0x40 MLOAD DUP1 SWAP2 SUB SWAP1 RETURN JUMPDEST PUSH2 0x17D PUSH1 0x4 DUP1 CALLDATASIZE SUB DUP2 ADD SWAP1 PUSH2 0x178 SWAP2 SWAP1 PUSH2 0xF82 JUMP JUMPDEST PUSH2 0x757 JUMP JUMPDEST STOP JUMPDEST PUSH2 0x187 PUSH2 0x887 JUMP JUMPDEST STOP JUMPDEST PUSH2 0x191 PUSH2 0x9B5 JUMP JUMPDEST PUSH1 0x40 MLOAD PUSH2 0x19E SWAP2 SWAP1 PUSH2 0x103C JUMP JUMPDEST PUSH1 0x40 MLOAD DUP1 SWAP2 SUB SWAP1 RETURN JUMPDEST PUSH2 0x1AF PUSH2 0x9C7 JUMP JUMPDEST PUSH1 0x40 MLOAD PUSH2 0x1BC SWAP2 SWAP1 PUSH2 0x1055 JUMP JUMPDEST PUSH1 0x40 MLOAD DUP1 SWAP2 SUB SWAP1 RETURN JUMPDEST PUSH1 0x1 PUSH1 0x2 DUP2 GT ISZERO PUSH2 0x1D9 JUMPI PUSH2 0x1D8 PUSH2 0xFC9 JUMP JUMPDEST JUMPDEST PUSH1 0x3 PUSH0 SWAP1 SLOAD SWAP1 PUSH2 0x100 EXP SWAP1 DIV PUSH1 0xFF AND PUSH1 0x2 DUP2 GT ISZERO PUSH2 0x1FA JUMPI PUSH2 0x1F9 PUSH2 0xFC9 JUMP JUMPDEST JUMPDEST EQ PUSH2 0x23A JUMPI PUSH1 0x40 MLOAD PUSH32 0x8C379A000000000000000000000000000000000000000000000000000000000 DUP2 MSTORE PUSH1 0x4 ADD PUSH2 0x231 SWAP1 PUSH2 0x10BF JUMP JUMPDEST PUSH1 0x40 MLOAD DUP1 SWAP2 SUB SWAP1 REVERT JUMPDEST PUSH0 PUSH1 0x1 PUSH0 CALLER PUSH20 0xFFFFFFFFFFFFFFFFFFFFFFFFFFFFFFFFFFFFFFFF AND PUSH20 0xFFFFFFFFFFFFFFFFFFFFFFFFFFFFFFFFFFFFFFFF AND DUP2 MSTORE PUSH1 0x20 ADD SWAP1 DUP2 MSTORE PUSH1 0x20 ADD PUSH0 KECCAK256 SWAP1 POP PUSH0 DUP2 PUSH0 ADD SLOAD SUB PUSH2 0x2BF JUMPI PUSH1 0x40 MLOAD PUSH32 0x8C379A000000000000000000000000000000000000000000000000000000000 DUP2 MSTORE PUSH1 0x4 ADD PUSH2 0x2B6 SWAP1 PUSH2 0x1127 JUMP JUMPDEST PUSH1 0x40 MLOAD DUP1 SWAP2 SUB SWAP1 REVERT JUMPDEST DUP1 PUSH1 0x1 ADD PUSH0 SWAP1 SLOAD SWAP1 PUSH2 0x100 EXP SWAP1 DIV PUSH1 0xFF AND ISZERO PUSH2 0x310 JUMPI PUSH1 0x40 MLOAD PUSH32 0x8C379A000000000000000000000000000000000000000000000000000000000 DUP2 MSTORE PUSH1 0x4 ADD PUSH2 0x307 SWAP1 PUSH2 0x118F JUMP JUMPDEST PUSH1 0x40 MLOAD DUP1 SWAP2 SUB SWAP1 REVERT JUMPDEST PUSH1 0x1 DUP2 PUSH1 0x1 ADD PUSH0 PUSH2 0x100 EXP DUP2 SLOAD DUP2 PUSH1 0xFF MUL NOT AND SWAP1 DUP4 ISZERO ISZERO MUL OR SWAP1 SSTORE POP DUP2 DUP2 PUSH1 0x2 ADD DUP2 SWAP1 SSTORE POP DUP1 PUSH0 ADD SLOAD PUSH1 0x2 DUP4 DUP2 SLOAD DUP2 LT PUSH2 0x34D JUMPI PUSH2 0x34C PUSH2 0x11AD JUMP JUMPDEST JUMPDEST SWAP1 PUSH0 MSTORE PUSH1 0x20 PUSH0 KECCAK256 SWAP1 PUSH1 0x2 MUL ADD PUSH1 0x1 ADD PUSH0 DUP3 DUP3 SLOAD PUSH2 0x36A SWAP2 SWAP1 PUSH2 0x1207 JUMP JUMPDEST SWAP3 POP POP DUP2 SWAP1 SSTORE POP POP POP JUMP JUMPDEST PUSH0 DUP1 SLOAD SWAP1 PUSH2 0x100 EXP SWAP1 DIV PUSH20 0xFFFFFFFFFFFFFFFFFFFFFFFFFFFFFFFFFFFFFFFF AND DUP2 JUMP JUMPDEST PUSH1 0x2 DUP2 DUP2 SLOAD DUP2 LT PUSH2 0x3A7 JUMPI PUSH0 DUP1 REVERT JUMPDEST SWAP1 PUSH0 MSTORE PUSH1 0x20 PUSH0 KECCAK256 SWAP1 PUSH1 0x2 MUL ADD PUSH0 SWAP2 POP SWAP1 POP DUP1 PUSH0 ADD DUP1 SLOAD PUSH2 0x3C6 SWAP1 PUSH2 0x1267 JUMP JUMPDEST DUP1 PUSH1 0x1F ADD PUSH1 0x20 DUP1 SWAP2 DIV MUL PUSH1 0x20 ADD PUSH1 0x40 MLOAD SWAP1 DUP2 ADD PUSH1 0x40 MSTORE DUP1 SWAP3 SWAP2 SWAP1 DUP2 DUP2 MSTORE PUSH1 0x20 ADD DUP3 DUP1 SLOAD PUSH2 0x3F2 SWAP1 PUSH2 0x1267 JUMP JUMPDEST DUP1 ISZERO PUSH2 0x43D JUMPI DUP1 PUSH1 0x1F LT PUSH2 0x414 JUMPI PUSH2 0x100 DUP1 DUP4 SLOAD DIV MUL DUP4 MSTORE SWAP2 PUSH1 0x20 ADD SWAP2 PUSH2 0x43D JUMP JUMPDEST DUP3 ADD SWAP2 SWAP1 PUSH0 MSTORE PUSH1 0x20 PUSH0 KECCAK256 SWAP1 JUMPDEST DUP2 SLOAD DUP2 MSTORE SWAP1 PUSH1 0x1 ADD SWAP1 PUSH1 0x20 ADD DUP1 DUP4 GT PUSH2 0x420 JUMPI DUP3 SWAP1 SUB PUSH1 0x1F AND DUP3 ADD SWAP2 JUMPDEST POP POP POP POP POP SWAP1 DUP1 PUSH1 0x1 ADD SLOAD SWAP1 POP DUP3 JUMP JUMPDEST PUSH0 DUP1 SLOAD SWAP1 PUSH2 0x100 EXP SWAP1 DIV PUSH20 0xFFFFFFFFFFFFFFFFFFFFFFFFFFFFFFFFFFFFFFFF AND PUSH20 0xFFFFFFFFFFFFFFFFFFFFFFFFFFFFFFFFFFFFFFFF AND CALLER PUSH20 0xFFFFFFFFFFFFFFFFFFFFFFFFFFFFFFFFFFFFFFFF AND EQ PUSH2 0x4DA JUMPI PUSH1 0x40 MLOAD PUSH32 0x8C379A000000000000000000000000000000000000000000000000000000000 DUP2 MSTORE PUSH1 0x4 ADD PUSH2 0x4D1 SWAP1 PUSH2 0x1307 JUMP JUMPDEST PUSH1 0x40 MLOAD DUP1 SWAP2 SUB SWAP1 REVERT JUMPDEST PUSH0 PUSH1 0x2 DUP2 GT ISZERO PUSH2 0x4ED JUMPI PUSH2 0x4EC PUSH2 0xFC9 JUMP JUMPDEST JUMPDEST PUSH1 0x3 PUSH0 SWAP1 SLOAD SWAP1 PUSH2 0x100 EXP SWAP1 DIV PUSH1 0xFF AND PUSH1 0x2 DUP2 GT ISZERO PUSH2 0x50E JUMPI PUSH2 0x50D PUSH2 0xFC9 JUMP JUMPDEST JUMPDEST EQ PUSH2 0x54E JUMPI PUSH1 0x40 MLOAD PUSH32 0x8C379A000000000000000000000000000000000000000000000000000000000 DUP2 MSTORE PUSH1 0x4 ADD PUSH2 0x545 SWAP1 PUSH2 0x136F JUMP JUMPDEST PUSH1 0x40 MLOAD DUP1 SWAP2 SUB SWAP1 REVERT JUMPDEST PUSH1 0x1 PUSH1 0x3 PUSH0 PUSH2 0x100 EXP DUP2 SLOAD DUP2 PUSH1 0xFF MUL NOT AND SWAP1 DUP4 PUSH1 0x2 DUP2 GT ISZERO PUSH2 0x573 JUMPI PUSH2 0x572 PUSH2 0xFC9 JUMP JUMPDEST JUMPDEST MUL OR SWAP1 SSTORE POP JUMP JUMPDEST PUSH0 DUP1 SLOAD SWAP1 PUSH2 0x100 EXP SWAP1 DIV PUSH20 0xFFFFFFFFFFFFFFFFFFFFFFFFFFFFFFFFFFFFFFFF AND PUSH20 0xFFFFFFFFFFFFFFFFFFFFFFFFFFFFFFFFFFFFFFFF AND CALLER PUSH20 0xFFFFFFFFFFFFFFFFFFFFFFFFFFFFFFFFFFFFFFFF AND EQ PUSH2 0x607 JUMPI PUSH1 0x40 MLOAD PUSH32 0x8C379A000000000000000000000000000000000000000000000000000000000 DUP2 MSTORE PUSH1 0x4 ADD PUSH2 0x5FE SWAP1 PUSH2 0x13FD JUMP JUMPDEST PUSH1 0x40 MLOAD DUP1 SWAP2 SUB SWAP1 REVERT JUMPDEST PUSH1 0x1 PUSH0 DUP3 PUSH20 0xFFFFFFFFFFFFFFFFFFFFFFFFFFFFFFFFFFFFFFFF AND PUSH20 0xFFFFFFFFFFFFFFFFFFFFFFFFFFFFFFFFFFFFFFFF AND DUP2 MSTORE PUSH1 0x20 ADD SWAP1 DUP2 MSTORE PUSH1 0x20 ADD PUSH0 KECCAK256 PUSH1 0x1 ADD PUSH0 SWAP1 SLOAD SWAP1 PUSH2 0x100 EXP SWAP1 DIV PUSH1 0xFF AND ISZERO PUSH2 0x694 JUMPI PUSH1 0x40 MLOAD PUSH32 0x8C379A000000000000000000000000000000000000000000000000000000000 DUP2 MSTORE PUSH1 0x4 ADD PUSH2 0x68B SWAP1 PUSH2 0x1465 JUMP JUMPDEST PUSH1 0x40 MLOAD DUP1 SWAP2 SUB SWAP1 REVERT JUMPDEST PUSH0 PUSH1 0x1 PUSH0 DUP4 PUSH20 0xFFFFFFFFFFFFFFFFFFFFFFFFFFFFFFFFFFFFFFFF AND PUSH20 0xFFFFFFFFFFFFFFFFFFFFFFFFFFFFFFFFFFFFFFFF AND DUP2 MSTORE PUSH1 0x20 ADD SWAP1 DUP2 MSTORE PUSH1 0x20 ADD PUSH0 KECCAK256 PUSH0 ADD SLOAD EQ PUSH2 0x6DE JUMPI PUSH0 DUP1 REVERT JUMPDEST PUSH1 0x1 DUP1 PUSH0 DUP4 PUSH20 0xFFFFFFFFFFFFFFFFFFFFFFFFFFFFFFFFFFFFFFFF AND PUSH20 0xFFFFFFFFFFFFFFFFFFFFFFFFFFFFFFFFFFFFFFFF AND DUP2 MSTORE PUSH1 0x20 ADD SWAP1 DUP2 MSTORE PUSH1 0x20 ADD PUSH0 KECCAK256 PUSH0 ADD DUP2 SWAP1 SSTORE POP POP JUMP JUMPDEST PUSH1 0x1 PUSH1 0x20 MSTORE DUP1 PUSH0 MSTORE PUSH1 0x40 PUSH0 KECCAK256 PUSH0 SWAP2 POP SWAP1 POP DUP1 PUSH0 ADD SLOAD SWAP1 DUP1 PUSH1 0x1 ADD PUSH0 SWAP1 SLOAD SWAP1 PUSH2 0x100 EXP SWAP1 DIV PUSH1 0xFF AND SWAP1 DUP1 PUSH1 0x2 ADD SLOAD SWAP1 POP DUP4 JUMP JUMPDEST PUSH1 0x2 DUP1 DUP2 GT ISZERO PUSH2 0x76A JUMPI PUSH2 0x769 PUSH2 0xFC9 JUMP JUMPDEST JUMPDEST PUSH1 0x3 PUSH0 SWAP1 SLOAD SWAP1 PUSH2 0x100 EXP SWAP1 DIV PUSH1 0xFF AND PUSH1 0x2 DUP2 GT ISZERO PUSH2 0x78B JUMPI PUSH2 0x78A PUSH2 0xFC9 JUMP JUMPDEST JUMPDEST EQ PUSH2 0x7CB JUMPI PUSH1 0x40 MLOAD PUSH32 0x8C379A000000000000000000000000000000000000000000000000000000000 DUP2 MSTORE PUSH1 0x4 ADD PUSH2 0x7C2 SWAP1 PUSH2 0x14CD JUMP JUMPDEST PUSH1 0x40 MLOAD DUP1 SWAP2 SUB SWAP1 REVERT JUMPDEST PUSH0 PUSH1 0x3 PUSH0 PUSH2 0x100 EXP DUP2 SLOAD DUP2 PUSH1 0xFF MUL NOT AND SWAP1 DUP4 PUSH1 0x2 DUP2 GT ISZERO PUSH2 0x7EF JUMPI PUSH2 0x7EE PUSH2 0xFC9 JUMP JUMPDEST JUMPDEST MUL OR SWAP1 SSTORE POP PUSH0 JUMPDEST DUP2 MLOAD DUP2 LT ISZERO PUSH2 0x883 JUMPI PUSH1 0x2 PUSH1 0x40 MLOAD DUP1 PUSH1 0x40 ADD PUSH1 0x40 MSTORE DUP1 DUP5 DUP5 DUP2 MLOAD DUP2 LT PUSH2 0x81F JUMPI PUSH2 0x81E PUSH2 0x11AD JUMP JUMPDEST JUMPDEST PUSH1 0x20 MUL PUSH1 0x20 ADD ADD MLOAD DUP2 MSTORE PUSH1 0x20 ADD PUSH0 DUP2 MSTORE POP SWAP1 DUP1 PUSH1 0x1 DUP2 SLOAD ADD DUP1 DUP3 SSTORE DUP1 SWAP2 POP POP PUSH1 0x1 SWAP1 SUB SWAP1 PUSH0 MSTORE PUSH1 0x20 PUSH0 KECCAK256 SWAP1 PUSH1 0x2 MUL ADD PUSH0 SWAP1 SWAP2 SWAP1 SWAP2 SWAP1 SWAP2 POP PUSH0 DUP3 ADD MLOAD DUP2 PUSH0 ADD SWAP1 DUP2 PUSH2 0x869 SWAP2 SWAP1 PUSH2 0x1688 JUMP JUMPDEST POP PUSH1 0x20 DUP3 ADD MLOAD DUP2 PUSH1 0x1 ADD SSTORE POP POP DUP1 DUP1 PUSH1 0x1 ADD SWAP2 POP POP PUSH2 0x7F6 JUMP JUMPDEST POP POP JUMP JUMPDEST PUSH0 DUP1 SLOAD SWAP1 PUSH2 0x100 EXP SWAP1 DIV PUSH20 0xFFFFFFFFFFFFFFFFFFFFFFFFFFFFFFFFFFFFFFFF AND PUSH20 0xFFFFFFFFFFFFFFFFFFFFFFFFFFFFFFFFFFFFFFFF AND CALLER PUSH20 0xFFFFFFFFFFFFFFFFFFFFFFFFFFFFFFFFFFFFFFFF AND EQ PUSH2 0x914 JUMPI PUSH1 0x40 MLOAD PUSH32 0x8C379A000000000000000000000000000000000000000000000000000000000 DUP2 MSTORE PUSH1 0x4 ADD PUSH2 0x90B SWAP1 PUSH2 0x1307 JUMP JUMPDEST PUSH1 0x40 MLOAD DUP1 SWAP2 SUB SWAP1 REVERT JUMPDEST PUSH1 0x1 PUSH1 0x2 DUP2 GT ISZERO PUSH2 0x928 JUMPI PUSH2 0x927 PUSH2 0xFC9 JUMP JUMPDEST JUMPDEST PUSH1 0x3 PUSH0 SWAP1 SLOAD SWAP1 PUSH2 0x100 EXP SWAP1 DIV PUSH1 0xFF AND PUSH1 0x2 DUP2 GT ISZERO PUSH2 0x949 JUMPI PUSH2 0x948 PUSH2 0xFC9 JUMP JUMPDEST JUMPDEST EQ PUSH2 0x989 JUMPI PUSH1 0x40 MLOAD PUSH32 0x8C379A000000000000000000000000000000000000000000000000000000000 DUP2 MSTORE PUSH1 0x4 ADD PUSH2 0x980 SWAP1 PUSH2 0x10BF JUMP JUMPDEST PUSH1 0x40 MLOAD DUP1 SWAP2 SUB SWAP1 REVERT JUMPDEST PUSH1 0x2 PUSH1 0x3 PUSH0 PUSH2 0x100 EXP DUP2 SLOAD DUP2 PUSH1 0xFF MUL NOT AND SWAP1 DUP4 PUSH1 0x2 DUP2 GT ISZERO PUSH2 0x9AE JUMPI PUSH2 0x9AD PUSH2 0xFC9 JUMP JUMPDEST JUMPDEST MUL OR SWAP1 SSTORE POP JUMP JUMPDEST PUSH1 0x3 PUSH0 SWAP1 SLOAD SWAP1 PUSH2 0x100 EXP SWAP1 DIV PUSH1 0xFF AND DUP2 JUMP JUMPDEST PUSH1 0x60 PUSH1 0x2 DUP1 DUP2 GT ISZERO PUSH2 0x9DC JUMPI PUSH2 0x9DB PUSH2 0xFC9 JUMP JUMPDEST JUMPDEST PUSH1 0x3 PUSH0 SWAP1 SLOAD SWAP1 PUSH2 0x100 EXP SWAP1 DIV PUSH1 0xFF AND PUSH1 0x2 DUP2 GT ISZERO PUSH2 0x9FD JUMPI PUSH2 0x9FC PUSH2 0xFC9 JUMP JUMPDEST JUMPDEST EQ PUSH2 0xA3D JUMPI PUSH1 0x40 MLOAD PUSH32 0x8C379A000000000000000000000000000000000000000000000000000000000 DUP2 MSTORE PUSH1 0x4 ADD PUSH2 0xA34 SWAP1 PUSH2 0x14CD JUMP JUMPDEST PUSH1 0x40 MLOAD DUP1 SWAP2 SUB SWAP1 REVERT JUMPDEST PUSH0 DUP1 JUMPDEST PUSH1 0x2 DUP1 SLOAD SWAP1 POP DUP2 LT ISZERO PUSH2 0xB57 JUMPI DUP2 PUSH1 0x2 DUP3 DUP2 SLOAD DUP2 LT PUSH2 0xA62 JUMPI PUSH2 0xA61 PUSH2 0x11AD JUMP JUMPDEST JUMPDEST SWAP1 PUSH0 MSTORE PUSH1 0x20 PUSH0 KECCAK256 SWAP1 PUSH1 0x2 MUL ADD PUSH1 0x1 ADD SLOAD GT ISZERO PUSH2 0xB4A JUMPI PUSH1 0x2 DUP2 DUP2 SLOAD DUP2 LT PUSH2 0xA8C JUMPI PUSH2 0xA8B PUSH2 0x11AD JUMP JUMPDEST JUMPDEST SWAP1 PUSH0 MSTORE PUSH1 0x20 PUSH0 KECCAK256 SWAP1 PUSH1 0x2 MUL ADD PUSH1 0x1 ADD SLOAD SWAP2 POP PUSH1 0x2 DUP2 DUP2 SLOAD DUP2 LT PUSH2 0xAB2 JUMPI PUSH2 0xAB1 PUSH2 0x11AD JUMP JUMPDEST JUMPDEST SWAP1 PUSH0 MSTORE PUSH1 0x20 PUSH0 KECCAK256 SWAP1 PUSH1 0x2 MUL ADD PUSH0 ADD DUP1 SLOAD PUSH2 0xACB SWAP1 PUSH2 0x1267 JUMP JUMPDEST DUP1 PUSH1 0x1F ADD PUSH1 0x20 DUP1 SWAP2 DIV MUL PUSH1 0x20 ADD PUSH1 0x40 MLOAD SWAP1 DUP2 ADD PUSH1 0x40 MSTORE DUP1 SWAP3 SWAP2 SWAP1 DUP2 DUP2 MSTORE PUSH1 0x20 ADD DUP3 DUP1 SLOAD PUSH2 0xAF7 SWAP1 PUSH2 0x1267 JUMP JUMPDEST DUP1 ISZERO PUSH2 0xB42 JUMPI DUP1 PUSH1 0x1F LT PUSH2 0xB19 JUMPI PUSH2 0x100 DUP1 DUP4 SLOAD DIV MUL DUP4 MSTORE SWAP2 PUSH1 0x20 ADD SWAP2 PUSH2 0xB42 JUMP JUMPDEST DUP3 ADD SWAP2 SWAP1 PUSH0 MSTORE PUSH1 0x20 PUSH0 KECCAK256 SWAP1 JUMPDEST DUP2 SLOAD DUP2 MSTORE SWAP1 PUSH1 0x1 ADD SWAP1 PUSH1 0x20 ADD DUP1 DUP4 GT PUSH2 0xB25 JUMPI DUP3 SWAP1 SUB PUSH1 0x1F AND DUP3 ADD SWAP2 JUMPDEST POP POP POP POP POP SWAP3 POP JUMPDEST DUP1 DUP1 PUSH1 0x1 ADD SWAP2 POP POP PUSH2 0xA40 JUMP JUMPDEST POP POP SWAP1 JUMP JUMPDEST PUSH0 PUSH1 0x40 MLOAD SWAP1 POP SWAP1 JUMP JUMPDEST PUSH0 DUP1 REVERT JUMPDEST PUSH0 DUP1 REVERT JUMPDEST PUSH0 DUP2 SWAP1 POP SWAP2 SWAP1 POP JUMP JUMPDEST PUSH2 0xB7F DUP2 PUSH2 0xB6D JUMP JUMPDEST DUP2 EQ PUSH2 0xB89 JUMPI PUSH0 DUP1 REVERT JUMPDEST POP JUMP JUMPDEST PUSH0 DUP2 CALLDATALOAD SWAP1 POP PUSH2 0xB9A DUP2 PUSH2 0xB76 JUMP JUMPDEST SWAP3 SWAP2 POP POP JUMP JUMPDEST PUSH0 PUSH1 0x20 DUP3 DUP5 SUB SLT ISZERO PUSH2 0xBB5 JUMPI PUSH2 0xBB4 PUSH2 0xB65 JUMP JUMPDEST JUMPDEST PUSH0 PUSH2 0xBC2 DUP5 DUP3 DUP6 ADD PUSH2 0xB8C JUMP JUMPDEST SWAP2 POP POP SWAP3 SWAP2 POP POP JUMP JUMPDEST PUSH0 PUSH20 0xFFFFFFFFFFFFFFFFFFFFFFFFFFFFFFFFFFFFFFFF DUP3 AND SWAP1 POP SWAP2 SWAP1 POP JUMP JUMPDEST PUSH0 PUSH2 0xBF4 DUP3 PUSH2 0xBCB JUMP JUMPDEST SWAP1 POP SWAP2 SWAP1 POP JUMP JUMPDEST PUSH2 0xC04 DUP2 PUSH2 0xBEA JUMP JUMPDEST DUP3 MSTORE POP POP JUMP JUMPDEST PUSH0 PUSH1 0x20 DUP3 ADD SWAP1 POP PUSH2 0xC1D PUSH0 DUP4 ADD DUP5 PUSH2 0xBFB JUMP JUMPDEST SWAP3 SWAP2 POP POP JUMP JUMPDEST PUSH0 DUP2 MLOAD SWAP1 POP SWAP2 SWAP1 POP JUMP JUMPDEST PUSH0 DUP3 DUP3 MSTORE PUSH1 0x20 DUP3 ADD SWAP1 POP SWAP3 SWAP2 POP POP JUMP JUMPDEST DUP3 DUP2 DUP4 MCOPY PUSH0 DUP4 DUP4 ADD MSTORE POP POP POP JUMP JUMPDEST PUSH0 PUSH1 0x1F NOT PUSH1 0x1F DUP4 ADD AND SWAP1 POP SWAP2 SWAP1 POP JUMP JUMPDEST PUSH0 PUSH2 0xC65 DUP3 PUSH2 0xC23 JUMP JUMPDEST PUSH2 0xC6F DUP2 DUP6 PUSH2 0xC2D JUMP JUMPDEST SWAP4 POP PUSH2 0xC7F DUP2 DUP6 PUSH1 0x20 DUP7 ADD PUSH2 0xC3D JUMP JUMPDEST PUSH2 0xC88 DUP2 PUSH2 0xC4B JUMP JUMPDEST DUP5 ADD SWAP2 POP POP SWAP3 SWAP2 POP POP JUMP JUMPDEST PUSH2 0xC9C DUP2 PUSH2 0xB6D JUMP JUMPDEST DUP3 MSTORE POP POP JUMP JUMPDEST PUSH0 PUSH1 0x40 DUP3 ADD SWAP1 POP DUP2 DUP2 SUB PUSH0 DUP4 ADD MSTORE PUSH2 0xCBA DUP2 DUP6 PUSH2 0xC5B JUMP JUMPDEST SWAP1 POP PUSH2 0xCC9 PUSH1 0x20 DUP4 ADD DUP5 PUSH2 0xC93 JUMP JUMPDEST SWAP4 SWAP3 POP POP POP JUMP JUMPDEST PUSH2 0xCD9 DUP2 PUSH2 0xBEA JUMP JUMPDEST DUP2 EQ PUSH2 0xCE3 JUMPI PUSH0 DUP1 REVERT JUMPDEST POP JUMP JUMPDEST PUSH0 DUP2 CALLDATALOAD SWAP1 POP PUSH2 0xCF4 DUP2 PUSH2 0xCD0 JUMP JUMPDEST SWAP3 SWAP2 POP POP JUMP JUMPDEST PUSH0 PUSH1 0x20 DUP3 DUP5 SUB SLT ISZERO PUSH2 0xD0F JUMPI PUSH2 0xD0E PUSH2 0xB65 JUMP JUMPDEST JUMPDEST PUSH0 PUSH2 0xD1C DUP5 DUP3 DUP6 ADD PUSH2 0xCE6 JUMP JUMPDEST SWAP2 POP POP SWAP3 SWAP2 POP POP JUMP JUMPDEST PUSH0 DUP2 ISZERO ISZERO SWAP1 POP SWAP2 SWAP1 POP JUMP JUMPDEST PUSH2 0xD39 DUP2 PUSH2 0xD25 JUMP JUMPDEST DUP3 MSTORE POP POP JUMP JUMPDEST PUSH0 PUSH1 0x60 DUP3 ADD SWAP1 POP PUSH2 0xD52 PUSH0 DUP4 ADD DUP7 PUSH2 0xC93 JUMP JUMPDEST PUSH2 0xD5F PUSH1 0x20 DUP4 ADD DUP6 PUSH2 0xD30 JUMP JUMPDEST PUSH2 0xD6C PUSH1 0x40 DUP4 ADD DUP5 PUSH2 0xC93 JUMP JUMPDEST SWAP5 SWAP4 POP POP POP POP JUMP JUMPDEST PUSH0 DUP1 REVERT JUMPDEST PUSH32 0x4E487B7100000000000000000000000000000000000000000000000000000000 PUSH0 MSTORE PUSH1 0x41 PUSH1 0x4 MSTORE PUSH1 0x24 PUSH0 REVERT JUMPDEST PUSH2 0xDAE DUP3 PUSH2 0xC4B JUMP JUMPDEST DUP2 ADD DUP2 DUP2 LT PUSH8 0xFFFFFFFFFFFFFFFF DUP3 GT OR ISZERO PUSH2 0xDCD JUMPI PUSH2 0xDCC PUSH2 0xD78 JUMP JUMPDEST JUMPDEST DUP1 PUSH1 0x40 MSTORE POP POP POP JUMP JUMPDEST PUSH0 PUSH2 0xDDF PUSH2 0xB5C JUMP JUMPDEST SWAP1 POP PUSH2 0xDEB DUP3 DUP3 PUSH2 0xDA5 JUMP JUMPDEST SWAP2 SWAP1 POP JUMP JUMPDEST PUSH0 PUSH8 0xFFFFFFFFFFFFFFFF DUP3 GT ISZERO PUSH2 0xE0A JUMPI PUSH2 0xE09 PUSH2 0xD78 JUMP JUMPDEST JUMPDEST PUSH1 0x20 DUP3 MUL SWAP1 POP PUSH1 0x20 DUP2 ADD SWAP1 POP SWAP2 SWAP1 POP JUMP JUMPDEST PUSH0 DUP1 REVERT JUMPDEST PUSH0 DUP1 REVERT JUMPDEST PUSH0 PUSH8 0xFFFFFFFFFFFFFFFF DUP3 GT ISZERO PUSH2 0xE3D JUMPI PUSH2 0xE3C PUSH2 0xD78 JUMP JUMPDEST JUMPDEST PUSH2 0xE46 DUP3 PUSH2 0xC4B JUMP JUMPDEST SWAP1 POP PUSH1 0x20 DUP2 ADD SWAP1 POP SWAP2 SWAP1 POP JUMP JUMPDEST DUP3 DUP2 DUP4 CALLDATACOPY PUSH0 DUP4 DUP4 ADD MSTORE POP POP POP JUMP JUMPDEST PUSH0 PUSH2 0xE73 PUSH2 0xE6E DUP5 PUSH2 0xE23 JUMP JUMPDEST PUSH2 0xDD6 JUMP JUMPDEST SWAP1 POP DUP3 DUP2 MSTORE PUSH1 0x20 DUP2 ADD DUP5 DUP5 DUP5 ADD GT ISZERO PUSH2 0xE8F JUMPI PUSH2 0xE8E PUSH2 0xE1F JUMP JUMPDEST JUMPDEST PUSH2 0xE9A DUP5 DUP3 DUP6 PUSH2 0xE53 JUMP JUMPDEST POP SWAP4 SWAP3 POP POP POP JUMP JUMPDEST PUSH0 DUP3 PUSH1 0x1F DUP4 ADD SLT PUSH2 0xEB6 JUMPI PUSH2 0xEB5 PUSH2 0xD74 JUMP JUMPDEST JUMPDEST DUP2 CALLDATALOAD PUSH2 0xEC6 DUP5 DUP3 PUSH1 0x20 DUP7 ADD PUSH2 0xE61 JUMP JUMPDEST SWAP2 POP POP SWAP3 SWAP2 POP POP JUMP JUMPDEST PUSH0 PUSH2 0xEE1 PUSH2 0xEDC DUP5 PUSH2 0xDF0 JUMP JUMPDEST PUSH2 0xDD6 JUMP JUMPDEST SWAP1 POP DUP1 DUP4 DUP3 MSTORE PUSH1 0x20 DUP3 ADD SWAP1 POP PUSH1 0x20 DUP5 MUL DUP4 ADD DUP6 DUP2 GT ISZERO PUSH2 0xF04 JUMPI PUSH2 0xF03 PUSH2 0xE1B JUMP JUMPDEST JUMPDEST DUP4 JUMPDEST DUP2 DUP2 LT ISZERO PUSH2 0xF4B JUMPI DUP1 CALLDATALOAD PUSH8 0xFFFFFFFFFFFFFFFF DUP2 GT ISZERO PUSH2 0xF29 JUMPI PUSH2 0xF28 PUSH2 0xD74 JUMP JUMPDEST JUMPDEST DUP1 DUP7 ADD PUSH2 0xF36 DUP10 DUP3 PUSH2 0xEA2 JUMP JUMPDEST DUP6 MSTORE PUSH1 0x20 DUP6 ADD SWAP5 POP POP POP PUSH1 0x20 DUP2 ADD SWAP1 POP PUSH2 0xF06 JUMP JUMPDEST POP POP POP SWAP4 SWAP3 POP POP POP JUMP JUMPDEST PUSH0 DUP3 PUSH1 0x1F DUP4 ADD SLT PUSH2 0xF69 JUMPI PUSH2 0xF68 PUSH2 0xD74 JUMP JUMPDEST JUMPDEST DUP2 CALLDATALOAD PUSH2 0xF79 DUP5 DUP3 PUSH1 0x20 DUP7 ADD PUSH2 0xECF JUMP JUMPDEST SWAP2 POP POP SWAP3 SWAP2 POP POP JUMP JUMPDEST PUSH0 PUSH1 0x20 DUP3 DUP5 SUB SLT ISZERO PUSH2 0xF97 JUMPI PUSH2 0xF96 PUSH2 0xB65 JUMP JUMPDEST JUMPDEST PUSH0 DUP3 ADD CALLDATALOAD PUSH8 0xFFFFFFFFFFFFFFFF DUP2 GT ISZERO PUSH2 0xFB4 JUMPI PUSH2 0xFB3 PUSH2 0xB69 JUMP JUMPDEST JUMPDEST PUSH2 0xFC0 DUP5 DUP3 DUP6 ADD PUSH2 0xF55 JUMP JUMPDEST SWAP2 POP POP SWAP3 SWAP2 POP POP JUMP JUMPDEST PUSH32 0x4E487B7100000000000000000000000000000000000000000000000000000000 PUSH0 MSTORE PUSH1 0x21 PUSH1 0x4 MSTORE PUSH1 0x24 PUSH0 REVERT JUMPDEST PUSH1 0x3 DUP2 LT PUSH2 0x1007 JUMPI PUSH2 0x1006 PUSH2 0xFC9 JUMP JUMPDEST JUMPDEST POP JUMP JUMPDEST PUSH0 DUP2 SWAP1 POP PUSH2 0x1017 DUP3 PUSH2 0xFF6 JUMP JUMPDEST SWAP2 SWAP1 POP JUMP JUMPDEST PUSH0 PUSH2 0x1026 DUP3 PUSH2 0x100A JUMP JUMPDEST SWAP1 POP SWAP2 SWAP1 POP JUMP JUMPDEST PUSH2 0x1036 DUP2 PUSH2 0x101C JUMP JUMPDEST DUP3 MSTORE POP POP JUMP JUMPDEST PUSH0 PUSH1 0x20 DUP3 ADD SWAP1 POP PUSH2 0x104F PUSH0 DUP4 ADD DUP5 PUSH2 0x102D JUMP JUMPDEST SWAP3 SWAP2 POP POP JUMP JUMPDEST PUSH0 PUSH1 0x20 DUP3 ADD SWAP1 POP DUP2 DUP2 SUB PUSH0 DUP4 ADD MSTORE PUSH2 0x106D DUP2 DUP5 PUSH2 0xC5B JUMP JUMPDEST SWAP1 POP SWAP3 SWAP2 POP POP JUMP JUMPDEST PUSH32 0x6974206D75737420626520696E20566F74696E6720506572696F640000000000 PUSH0 DUP3 ADD MSTORE POP JUMP JUMPDEST PUSH0 PUSH2 0x10A9 PUSH1 0x1B DUP4 PUSH2 0xC2D JUMP JUMPDEST SWAP2 POP PUSH2 0x10B4 DUP3 PUSH2 0x1075 JUMP JUMPDEST PUSH1 0x20 DUP3 ADD SWAP1 POP SWAP2 SWAP1 POP JUMP JUMPDEST PUSH0 PUSH1 0x20 DUP3 ADD SWAP1 POP DUP2 DUP2 SUB PUSH0 DUP4 ADD MSTORE PUSH2 0x10D6 DUP2 PUSH2 0x109D JUMP JUMPDEST SWAP1 POP SWAP2 SWAP1 POP JUMP JUMPDEST PUSH32 0x486173206E6F20726967687420746F20766F7465000000000000000000000000 PUSH0 DUP3 ADD MSTORE POP JUMP JUMPDEST PUSH0 PUSH2 0x1111 PUSH1 0x14 DUP4 PUSH2 0xC2D JUMP JUMPDEST SWAP2 POP PUSH2 0x111C DUP3 PUSH2 0x10DD JUMP JUMPDEST PUSH1 0x20 DUP3 ADD SWAP1 POP SWAP2 SWAP1 POP JUMP JUMPDEST PUSH0 PUSH1 0x20 DUP3 ADD SWAP1 POP DUP2 DUP2 SUB PUSH0 DUP4 ADD MSTORE PUSH2 0x113E DUP2 PUSH2 0x1105 JUMP JUMPDEST SWAP1 POP SWAP2 SWAP1 POP JUMP JUMPDEST PUSH32 0x416C726561647920766F7465642E000000000000000000000000000000000000 PUSH0 DUP3 ADD MSTORE POP JUMP JUMPDEST PUSH0 PUSH2 0x1179 PUSH1 0xE DUP4 PUSH2 0xC2D JUMP JUMPDEST SWAP2 POP PUSH2 0x1184 DUP3 PUSH2 0x1145 JUMP JUMPDEST PUSH1 0x20 DUP3 ADD SWAP1 POP SWAP2 SWAP1 POP JUMP JUMPDEST PUSH0 PUSH1 0x20 DUP3 ADD SWAP1 POP DUP2 DUP2 SUB PUSH0 DUP4 ADD MSTORE PUSH2 0x11A6 DUP2 PUSH2 0x116D JUMP JUMPDEST SWAP1 POP SWAP2 SWAP1 POP JUMP JUMPDEST PUSH32 0x4E487B7100000000000000000000000000000000000000000000000000000000 PUSH0 MSTORE PUSH1 0x32 PUSH1 0x4 MSTORE PUSH1 0x24 PUSH0 REVERT JUMPDEST PUSH32 0x4E487B7100000000000000000000000000000000000000000000000000000000 PUSH0 MSTORE PUSH1 0x11 PUSH1 0x4 MSTORE PUSH1 0x24 PUSH0 REVERT JUMPDEST PUSH0 PUSH2 0x1211 DUP3 PUSH2 0xB6D JUMP JUMPDEST SWAP2 POP PUSH2 0x121C DUP4 PUSH2 0xB6D JUMP JUMPDEST SWAP3 POP DUP3 DUP3 ADD SWAP1 POP DUP1 DUP3 GT ISZERO PUSH2 0x1234 JUMPI PUSH2 0x1233 PUSH2 0x11DA JUMP JUMPDEST JUMPDEST SWAP3 SWAP2 POP POP JUMP JUMPDEST PUSH32 0x4E487B7100000000000000000000000000000000000000000000000000000000 PUSH0 MSTORE PUSH1 0x22 PUSH1 0x4 MSTORE PUSH1 0x24 PUSH0 REVERT JUMPDEST PUSH0 PUSH1 0x2 DUP3 DIV SWAP1 POP PUSH1 0x1 DUP3 AND DUP1 PUSH2 0x127E JUMPI PUSH1 0x7F DUP3 AND SWAP2 POP JUMPDEST PUSH1 0x20 DUP3 LT DUP2 SUB PUSH2 0x1291 JUMPI PUSH2 0x1290 PUSH2 0x123A JUMP JUMPDEST JUMPDEST POP SWAP2 SWAP1 POP JUMP JUMPDEST PUSH32 0x4F6E6C79206368616972706572736F6E2063616E20737461727420616E642065 PUSH0 DUP3 ADD MSTORE PUSH32 0x6E642074686520766F74696E6700000000000000000000000000000000000000 PUSH1 0x20 DUP3 ADD MSTORE POP JUMP JUMPDEST PUSH0 PUSH2 0x12F1 PUSH1 0x2D DUP4 PUSH2 0xC2D JUMP JUMPDEST SWAP2 POP PUSH2 0x12FC DUP3 PUSH2 0x1297 JUMP JUMPDEST PUSH1 0x40 DUP3 ADD SWAP1 POP SWAP2 SWAP1 POP JUMP JUMPDEST PUSH0 PUSH1 0x20 DUP3 ADD SWAP1 POP DUP2 DUP2 SUB PUSH0 DUP4 ADD MSTORE PUSH2 0x131E DUP2 PUSH2 0x12E5 JUMP JUMPDEST SWAP1 POP SWAP2 SWAP1 POP JUMP JUMPDEST PUSH32 0x6974206D75737420626520696E20537461727465640000000000000000000000 PUSH0 DUP3 ADD MSTORE POP JUMP JUMPDEST PUSH0 PUSH2 0x1359 PUSH1 0x15 DUP4 PUSH2 0xC2D JUMP JUMPDEST SWAP2 POP PUSH2 0x1364 DUP3 PUSH2 0x1325 JUMP JUMPDEST PUSH1 0x20 DUP3 ADD SWAP1 POP SWAP2 SWAP1 POP JUMP JUMPDEST PUSH0 PUSH1 0x20 DUP3 ADD SWAP1 POP DUP2 DUP2 SUB PUSH0 DUP4 ADD MSTORE PUSH2 0x1386 DUP2 PUSH2 0x134D JUMP JUMPDEST SWAP1 POP SWAP2 SWAP1 POP JUMP JUMPDEST PUSH32 0x4F6E6C79206368616972706572736F6E2063616E206769766520726967687420 PUSH0 DUP3 ADD MSTORE PUSH32 0x746F20766F74652E000000000000000000000000000000000000000000000000 PUSH1 0x20 DUP3 ADD MSTORE POP JUMP JUMPDEST PUSH0 PUSH2 0x13E7 PUSH1 0x28 DUP4 PUSH2 0xC2D JUMP JUMPDEST SWAP2 POP PUSH2 0x13F2 DUP3 PUSH2 0x138D JUMP JUMPDEST PUSH1 0x40 DUP3 ADD SWAP1 POP SWAP2 SWAP1 POP JUMP JUMPDEST PUSH0 PUSH1 0x20 DUP3 ADD SWAP1 POP DUP2 DUP2 SUB PUSH0 DUP4 ADD MSTORE PUSH2 0x1414 DUP2 PUSH2 0x13DB JUMP JUMPDEST SWAP1 POP SWAP2 SWAP1 POP JUMP JUMPDEST PUSH32 0x54686520766F74657220616C726561647920766F7465642E0000000000000000 PUSH0 DUP3 ADD MSTORE POP JUMP JUMPDEST PUSH0 PUSH2 0x144F PUSH1 0x18 DUP4 PUSH2 0xC2D JUMP JUMPDEST SWAP2 POP PUSH2 0x145A DUP3 PUSH2 0x141B JUMP JUMPDEST PUSH1 0x20 DUP3 ADD SWAP1 POP SWAP2 SWAP1 POP JUMP JUMPDEST PUSH0 PUSH1 0x20 DUP3 ADD SWAP1 POP DUP2 DUP2 SUB PUSH0 DUP4 ADD MSTORE PUSH2 0x147C DUP2 PUSH2 0x1443 JUMP JUMPDEST SWAP1 POP SWAP2 SWAP1 POP JUMP JUMPDEST PUSH32 0x6974206D75737420626520696E20456E64656420506572696F64000000000000 PUSH0 DUP3 ADD MSTORE POP JUMP JUMPDEST PUSH0 PUSH2 0x14B7 PUSH1 0x1A DUP4 PUSH2 0xC2D JUMP JUMPDEST SWAP2 POP PUSH2 0x14C2 DUP3 PUSH2 0x1483 JUMP JUMPDEST PUSH1 0x20 DUP3 ADD SWAP1 POP SWAP2 SWAP1 POP JUMP JUMPDEST PUSH0 PUSH1 0x20 DUP3 ADD SWAP1 POP DUP2 DUP2 SUB PUSH0 DUP4 ADD MSTORE PUSH2 0x14E4 DUP2 PUSH2 0x14AB JUMP JUMPDEST SWAP1 POP SWAP2 SWAP1 POP JUMP JUMPDEST PUSH0 DUP2 SWAP1 POP DUP2 PUSH0 MSTORE PUSH1 0x20 PUSH0 KECCAK256 SWAP1 POP SWAP2 SWAP1 POP JUMP JUMPDEST PUSH0 PUSH1 0x20 PUSH1 0x1F DUP4 ADD DIV SWAP1 POP SWAP2 SWAP1 POP JUMP JUMPDEST PUSH0 DUP3 DUP3 SHL SWAP1 POP SWAP3 SWAP2 POP POP JUMP JUMPDEST PUSH0 PUSH1 0x8 DUP4 MUL PUSH2 0x1547 PUSH32 0xFFFFFFFFFFFFFFFFFFFFFFFFFFFFFFFFFFFFFFFFFFFFFFFFFFFFFFFFFFFFFFFF DUP3 PUSH2 0x150C JUMP JUMPDEST PUSH2 0x1551 DUP7 DUP4 PUSH2 0x150C JUMP JUMPDEST SWAP6 POP DUP1 NOT DUP5 AND SWAP4 POP DUP1 DUP7 AND DUP5 OR SWAP3 POP POP POP SWAP4 SWAP3 POP POP POP JUMP JUMPDEST PUSH0 DUP2 SWAP1 POP SWAP2 SWAP1 POP JUMP JUMPDEST PUSH0 PUSH2 0x158C PUSH2 0x1587 PUSH2 0x1582 DUP5 PUSH2 0xB6D JUMP JUMPDEST PUSH2 0x1569 JUMP JUMPDEST PUSH2 0xB6D JUMP JUMPDEST SWAP1 POP SWAP2 SWAP1 POP JUMP JUMPDEST PUSH0 DUP2 SWAP1 POP SWAP2 SWAP1 POP JUMP JUMPDEST PUSH2 0x15A5 DUP4 PUSH2 0x1572 JUMP JUMPDEST PUSH2 0x15B9 PUSH2 0x15B1 DUP3 PUSH2 0x1593 JUMP JUMPDEST DUP5 DUP5 SLOAD PUSH2 0x1518 JUMP JUMPDEST DUP3 SSTORE POP POP POP POP JUMP JUMPDEST PUSH0 SWAP1 JUMP JUMPDEST PUSH2 0x15CD PUSH2 0x15C1 JUMP JUMPDEST PUSH2 0x15D8 DUP2 DUP5 DUP5 PUSH2 0x159C JUMP JUMPDEST POP POP POP JUMP JUMPDEST JUMPDEST DUP2 DUP2 LT ISZERO PUSH2 0x15FB JUMPI PUSH2 0x15F0 PUSH0 DUP3 PUSH2 0x15C5 JUMP JUMPDEST PUSH1 0x1 DUP2 ADD SWAP1 POP PUSH2 0x15DE JUMP JUMPDEST POP POP JUMP JUMPDEST PUSH1 0x1F DUP3 GT ISZERO PUSH2 0x1640 JUMPI PUSH2 0x1611 DUP2 PUSH2 0x14EB JUMP JUMPDEST PUSH2 0x161A DUP5 PUSH2 0x14FD JUMP JUMPDEST DUP2 ADD PUSH1 0x20 DUP6 LT ISZERO PUSH2 0x1629 JUMPI DUP2 SWAP1 POP JUMPDEST PUSH2 0x163D PUSH2 0x1635 DUP6 PUSH2 0x14FD JUMP JUMPDEST DUP4 ADD DUP3 PUSH2 0x15DD JUMP JUMPDEST POP POP JUMPDEST POP POP POP JUMP JUMPDEST PUSH0 DUP3 DUP3 SHR SWAP1 POP SWAP3 SWAP2 POP POP JUMP JUMPDEST PUSH0 PUSH2 0x1660 PUSH0 NOT DUP5 PUSH1 0x8 MUL PUSH2 0x1645 JUMP JUMPDEST NOT DUP1 DUP4 AND SWAP2 POP POP SWAP3 SWAP2 POP POP JUMP JUMPDEST PUSH0 PUSH2 0x1678 DUP4 DUP4 PUSH2 0x1651 JUMP JUMPDEST SWAP2 POP DUP3 PUSH1 0x2 MUL DUP3 OR SWAP1 POP SWAP3 SWAP2 POP POP JUMP JUMPDEST PUSH2 0x1691 DUP3 PUSH2 0xC23 JUMP JUMPDEST PUSH8 0xFFFFFFFFFFFFFFFF DUP2 GT ISZERO PUSH2 0x16AA JUMPI PUSH2 0x16A9 PUSH2 0xD78 JUMP JUMPDEST JUMPDEST PUSH2 0x16B4 DUP3 SLOAD PUSH2 0x1267 JUMP JUMPDEST PUSH2 0x16BF DUP3 DUP3 DUP6 PUSH2 0x15FF JUMP JUMPDEST PUSH0 PUSH1 0x20 SWAP1 POP PUSH1 0x1F DUP4 GT PUSH1 0x1 DUP2 EQ PUSH2 0x16F0 JUMPI PUSH0 DUP5 ISZERO PUSH2 0x16DE JUMPI DUP3 DUP8 ADD MLOAD SWAP1 POP JUMPDEST PUSH2 0x16E8 DUP6 DUP3 PUSH2 0x166D JUMP JUMPDEST DUP7 SSTORE POP PUSH2 0x174F JUMP JUMPDEST PUSH1 0x1F NOT DUP5 AND PUSH2 0x16FE DUP7 PUSH2 0x14EB JUMP JUMPDEST PUSH0 JUMPDEST DUP3 DUP2 LT ISZERO PUSH2 0x1725 JUMPI DUP5 DUP10 ADD MLOAD DUP3 SSTORE PUSH1 0x1 DUP3 ADD SWAP2 POP PUSH1 0x20 DUP6 ADD SWAP5 POP PUSH1 0x20 DUP2 ADD SWAP1 POP PUSH2 0x1700 JUMP JUMPDEST DUP7 DUP4 LT ISZERO PUSH2 0x1742 JUMPI DUP5 DUP10 ADD MLOAD PUSH2 0x173E PUSH1 0x1F DUP10 AND DUP3 PUSH2 0x1651 JUMP JUMPDEST DUP4 SSTORE POP JUMPDEST PUSH1 0x1 PUSH1 0x2 DUP9 MUL ADD DUP9 SSTORE POP POP POP JUMPDEST POP POP POP POP POP POP JUMP INVALID LOG2 PUSH5 0x6970667358 0x22 SLT KECCAK256 0x4B 0x29 NOT DUP11 LOG0 0xD5 OR SWAP1 0x4E 0xF8 PUSH12 0xCCA6F2616D2BA7CD9F269DEB PUSH21 0xFD4C2F4DD653E0164736F6C634300081A00330000 "
				},
				"gasEstimates": {
					"creation": {
						"codeDepositCost": "1205800",
						"executionCost": "infinite",
						"totalCost": "infinite"
					},
					"external": {
						"addCandidates(string[])": "infinite",
						"candidates(uint256)": "infinite",
						"chairperson()": "2528",
						"endVote()": "28849",
						"giveRightToVote(address)": "29375",
						"startVote()": "28871",
						"state()": "2620",
						"vote(uint256)": "infinite",
						"voters(address)": "infinite",
						"winningCandidate()": "infinite"
					}
				},
				"methodIdentifiers": {
					"addCandidates(string[])": "a999e562",
					"candidates(uint256)": "3477ee2e",
					"chairperson()": "2e4176cf",
					"endVote()": "b9223946",
					"giveRightToVote(address)": "9e7b8d61",
					"startVote()": "4c0a6af0",
					"state()": "c19d93fb",
					"vote(uint256)": "0121b93f",
					"voters(address)": "a3ec138d",
					"winningCandidate()": "d28178d7"
				}
			},
			"storageLayout": {
				"storage": [
					{
						"astId": 17,
						"contract": "Voting Sytem.sol:Ballot",
						"label": "chairperson",
						"offset": 0,
						"slot": "0",
						"type": "t_address"
					},
					{
						"astId": 22,
						"contract": "Voting Sytem.sol:Ballot",
						"label": "voters",
						"offset": 0,
						"slot": "1",
						"type": "t_mapping(t_address,t_struct(Voter)10_storage)"
					},
					{
						"astId": 26,
						"contract": "Voting Sytem.sol:Ballot",
						"label": "candidates",
						"offset": 0,
						"slot": "2",
						"type": "t_array(t_struct(Candidate)15_storage)dyn_storage"
					},
					{
						"astId": 33,
						"contract": "Voting Sytem.sol:Ballot",
						"label": "state",
						"offset": 0,
						"slot": "3",
						"type": "t_enum(State)30"
					}
				],
				"types": {
					"t_address": {
						"encoding": "inplace",
						"label": "address",
						"numberOfBytes": "20"
					},
					"t_array(t_struct(Candidate)15_storage)dyn_storage": {
						"base": "t_struct(Candidate)15_storage",
						"encoding": "dynamic_array",
						"label": "struct Ballot.Candidate[]",
						"numberOfBytes": "32"
					},
					"t_bool": {
						"encoding": "inplace",
						"label": "bool",
						"numberOfBytes": "1"
					},
					"t_enum(State)30": {
						"encoding": "inplace",
						"label": "enum Ballot.State",
						"numberOfBytes": "1"
					},
					"t_mapping(t_address,t_struct(Voter)10_storage)": {
						"encoding": "mapping",
						"key": "t_address",
						"label": "mapping(address => struct Ballot.Voter)",
						"numberOfBytes": "32",
						"value": "t_struct(Voter)10_storage"
					},
					"t_string_storage": {
						"encoding": "bytes",
						"label": "string",
						"numberOfBytes": "32"
					},
					"t_struct(Candidate)15_storage": {
						"encoding": "inplace",
						"label": "struct Ballot.Candidate",
						"members": [
							{
								"astId": 12,
								"contract": "Voting Sytem.sol:Ballot",
								"label": "name",
								"offset": 0,
								"slot": "0",
								"type": "t_string_storage"
							},
							{
								"astId": 14,
								"contract": "Voting Sytem.sol:Ballot",
								"label": "voteCount",
								"offset": 0,
								"slot": "1",
								"type": "t_uint256"
							}
						],
						"numberOfBytes": "64"
					},
					"t_struct(Voter)10_storage": {
						"encoding": "inplace",
						"label": "struct Ballot.Voter",
						"members": [
							{
								"astId": 5,
								"contract": "Voting Sytem.sol:Ballot",
								"label": "weight",
								"offset": 0,
								"slot": "0",
								"type": "t_uint256"
							},
							{
								"astId": 7,
								"contract": "Voting Sytem.sol:Ballot",
								"label": "voted",
								"offset": 0,
								"slot": "1",
								"type": "t_bool"
							},
							{
								"astId": 9,
								"contract": "Voting Sytem.sol:Ballot",
								"label": "vote",
								"offset": 0,
								"slot": "2",
								"type": "t_uint256"
							}
						],
						"numberOfBytes": "96"
					},
					"t_uint256": {
						"encoding": "inplace",
						"label": "uint256",
						"numberOfBytes": "32"
					}
				}
			},
			"userdoc": {
				"kind": "user",
				"methods": {},
				"version": 1
			}
		}
	}
}