{
	"Voting Sytem.sol": {
		"Ballot": {
			"abi": [
				{
					"inputs": [
						{
							"internalType": "string[]",
							"name": "candidateNames",
							"type": "string[]"
						}
					],
					"stateMutability": "nonpayable",
					"type": "constructor"
				},
				{
					"anonymous": false,
					"inputs": [
						{
							"indexed": false,
							"internalType": "string",
							"name": "name",
							"type": "string"
						}
					],
					"name": "CandidateAdded",
					"type": "event"
				},
				{
					"anonymous": false,
					"inputs": [],
					"name": "ElectionEnded",
					"type": "event"
				},
				{
					"anonymous": false,
					"inputs": [],
					"name": "ElectionStarted",
					"type": "event"
				},
				{
					"anonymous": false,
					"inputs": [
						{
							"indexed": false,
							"internalType": "address",
							"name": "voter",
							"type": "address"
						},
						{
							"indexed": false,
							"internalType": "uint256",
							"name": "candidate",
							"type": "uint256"
						}
					],
					"name": "Voted",
					"type": "event"
				},
				{
					"anonymous": false,
					"inputs": [
						{
							"indexed": false,
							"internalType": "address",
							"name": "voter",
							"type": "address"
						}
					],
					"name": "VoterRegistered",
					"type": "event"
				},
				{
					"inputs": [
						{
							"internalType": "string",
							"name": "candidateName",
							"type": "string"
						}
					],
					"name": "addCandidate",
					"outputs": [],
					"stateMutability": "nonpayable",
					"type": "function"
				},
				{
					"inputs": [
						{
							"internalType": "uint256",
							"name": "",
							"type": "uint256"
						}
					],
					"name": "candidates",
					"outputs": [
						{
							"internalType": "string",
							"name": "name",
							"type": "string"
						},
						{
							"internalType": "uint256",
							"name": "voteCount",
							"type": "uint256"
						}
					],
					"stateMutability": "view",
					"type": "function"
				},
				{
					"inputs": [],
					"name": "chairperson",
					"outputs": [
						{
							"internalType": "address",
							"name": "",
							"type": "address"
						}
					],
					"stateMutability": "view",
					"type": "function"
				},
				{
					"inputs": [],
					"name": "endVote",
					"outputs": [],
					"stateMutability": "nonpayable",
					"type": "function"
				},
				{
					"inputs": [],
					"name": "getCurrentVotes",
					"outputs": [
						{
							"components": [
								{
									"internalType": "string",
									"name": "name",
									"type": "string"
								},
								{
									"internalType": "uint256",
									"name": "voteCount",
									"type": "uint256"
								}
							],
							"internalType": "struct Ballot.Candidate[]",
							"name": "",
							"type": "tuple[]"
						}
					],
					"stateMutability": "view",
					"type": "function"
				},
				{
					"inputs": [],
					"name": "registerAsVoter",
					"outputs": [],
					"stateMutability": "nonpayable",
					"type": "function"
				},
				{
					"inputs": [],
					"name": "startVote",
					"outputs": [],
					"stateMutability": "nonpayable",
					"type": "function"
				},
				{
					"inputs": [],
					"name": "state",
					"outputs": [
						{
							"internalType": "enum Ballot.State",
							"name": "",
							"type": "uint8"
						}
					],
					"stateMutability": "view",
					"type": "function"
				},
				{
					"inputs": [
						{
							"internalType": "uint256",
							"name": "candidate",
							"type": "uint256"
						}
					],
					"name": "vote",
					"outputs": [],
					"stateMutability": "nonpayable",
					"type": "function"
				},
				{
					"inputs": [
						{
							"internalType": "address",
							"name": "",
							"type": "address"
						}
					],
					"name": "voters",
					"outputs": [
						{
							"internalType": "uint256",
							"name": "weight",
							"type": "uint256"
						},
						{
							"internalType": "bool",
							"name": "voted",
							"type": "bool"
						},
						{
							"internalType": "uint256",
							"name": "vote",
							"type": "uint256"
						}
					],
					"stateMutability": "view",
					"type": "function"
				},
				{
					"inputs": [],
					"name": "winningCandidate",
					"outputs": [
						{
							"internalType": "string",
							"name": "winnerName_",
							"type": "string"
						}
					],
					"stateMutability": "view",
					"type": "function"
				}
			],
			"devdoc": {
				"details": "Implements voting process along with vote delegation",
				"kind": "dev",
				"methods": {},
				"title": "Ballot",
				"version": 1
			},
			"evm": {
				"assembly": "    /* \"Voting Sytem.sol\":186:3154  contract Ballot {... */\n  mstore(0x40, 0x80)\n    /* \"Voting Sytem.sol\":810:1133  constructor(string[] memory candidateNames) {... */\n  callvalue\n  dup1\n  iszero\n  tag_1\n  jumpi\n  0x00\n  dup1\n  revert\ntag_1:\n  pop\n  mload(0x40)\n  sub(codesize, bytecodeSize)\n  dup1\n  bytecodeSize\n  dup4\n  codecopy\n  dup2\n  dup2\n  add\n  0x40\n  mstore\n  dup2\n  add\n  swap1\n  tag_2\n  swap2\n  swap1\n  tag_3\n  jump\t// in\ntag_2:\n    /* \"Voting Sytem.sol\":879:889  msg.sender */\n  caller\n    /* \"Voting Sytem.sol\":865:876  chairperson */\n  0x00\n  dup1\n    /* \"Voting Sytem.sol\":865:889  chairperson = msg.sender */\n  0x0100\n  exp\n  dup2\n  sload\n  dup2\n  0xffffffffffffffffffffffffffffffffffffffff\n  mul\n  not\n  and\n  swap1\n  dup4\n  0xffffffffffffffffffffffffffffffffffffffff\n  and\n  mul\n  or\n  swap1\n  sstore\n  pop\n    /* \"Voting Sytem.sol\":929:930  1 */\n  0x01\n    /* \"Voting Sytem.sol\":900:906  voters */\n  dup1\n    /* \"Voting Sytem.sol\":900:919  voters[chairperson] */\n  0x00\n    /* \"Voting Sytem.sol\":907:918  chairperson */\n  dup1\n  0x00\n  swap1\n  sload\n  swap1\n  0x0100\n  exp\n  swap1\n  div\n  0xffffffffffffffffffffffffffffffffffffffff\n  and\n    /* \"Voting Sytem.sol\":900:919  voters[chairperson] */\n  0xffffffffffffffffffffffffffffffffffffffff\n  and\n  0xffffffffffffffffffffffffffffffffffffffff\n  and\n  dup2\n  mstore\n  0x20\n  add\n  swap1\n  dup2\n  mstore\n  0x20\n  add\n  0x00\n  keccak256\n    /* \"Voting Sytem.sol\":900:926  voters[chairperson].weight */\n  0x00\n  add\n    /* \"Voting Sytem.sol\":900:930  voters[chairperson].weight = 1 */\n  dup2\n  swap1\n  sstore\n  pop\n    /* \"Voting Sytem.sol\":949:962  State.Created */\n  0x00\n    /* \"Voting Sytem.sol\":941:946  state */\n  0x03\n  0x00\n    /* \"Voting Sytem.sol\":941:962  state = State.Created */\n  0x0100\n  exp\n  dup2\n  sload\n  dup2\n  0xff\n  mul\n  not\n  and\n  swap1\n  dup4\n  0x02\n  dup2\n  gt\n  iszero\n  tag_6\n  jumpi\n  tag_7\n  tag_8\n  jump\t// in\ntag_7:\ntag_6:\n  mul\n  or\n  swap1\n  sstore\n  pop\n    /* \"Voting Sytem.sol\":988:994  uint i */\n  0x00\n    /* \"Voting Sytem.sol\":983:1126  for (uint i = 0; i < candidateNames.length; i++) {... */\ntag_9:\n    /* \"Voting Sytem.sol\":1004:1018  candidateNames */\n  dup2\n    /* \"Voting Sytem.sol\":1004:1025  candidateNames.length */\n  mload\n    /* \"Voting Sytem.sol\":1000:1001  i */\n  dup2\n    /* \"Voting Sytem.sol\":1000:1025  i < candidateNames.length */\n  lt\n    /* \"Voting Sytem.sol\":983:1126  for (uint i = 0; i < candidateNames.length; i++) {... */\n  iszero\n  tag_10\n  jumpi\n    /* \"Voting Sytem.sol\":1047:1057  candidates */\n  0x02\n    /* \"Voting Sytem.sol\":1063:1113  Candidate({name: candidateNames[i], voteCount: 0}) */\n  mload(0x40)\n  dup1\n  0x40\n  add\n  0x40\n  mstore\n  dup1\n    /* \"Voting Sytem.sol\":1080:1094  candidateNames */\n  dup5\n    /* \"Voting Sytem.sol\":1095:1096  i */\n  dup5\n    /* \"Voting Sytem.sol\":1080:1097  candidateNames[i] */\n  dup2\n  mload\n  dup2\n  lt\n  tag_12\n  jumpi\n  tag_13\n  tag_14\n  jump\t// in\ntag_13:\ntag_12:\n  0x20\n  mul\n  0x20\n  add\n  add\n  mload\n    /* \"Voting Sytem.sol\":1063:1113  Candidate({name: candidateNames[i], voteCount: 0}) */\n  dup2\n  mstore\n  0x20\n  add\n    /* \"Voting Sytem.sol\":1110:1111  0 */\n  0x00\n    /* \"Voting Sytem.sol\":1063:1113  Candidate({name: candidateNames[i], voteCount: 0}) */\n  dup2\n  mstore\n  pop\n    /* \"Voting Sytem.sol\":1047:1114  candidates.push(Candidate({name: candidateNames[i], voteCount: 0})) */\n  swap1\n  dup1\n  0x01\n  dup2\n  sload\n  add\n  dup1\n  dup3\n  sstore\n  dup1\n  swap2\n  pop\n  pop\n  0x01\n  swap1\n  sub\n  swap1\n  0x00\n  mstore\n  keccak256(0x00, 0x20)\n  swap1\n  0x02\n  mul\n  add\n  0x00\n  swap1\n  swap2\n  swap1\n  swap2\n  swap1\n  swap2\n  pop\n  0x00\n  dup3\n  add\n  mload\n  dup2\n  0x00\n  add\n  swap1\n  dup2\n  tag_16\n  swap2\n  swap1\n  tag_17\n  jump\t// in\ntag_16:\n  pop\n  0x20\n  dup3\n  add\n  mload\n  dup2\n  0x01\n  add\n  sstore\n  pop\n  pop\n    /* \"Voting Sytem.sol\":1027:1030  i++ */\n  dup1\n  dup1\n  0x01\n  add\n  swap2\n  pop\n  pop\n    /* \"Voting Sytem.sol\":983:1126  for (uint i = 0; i < candidateNames.length; i++) {... */\n  jump(tag_9)\ntag_10:\n  pop\n    /* \"Voting Sytem.sol\":810:1133  constructor(string[] memory candidateNames) {... */\n  pop\n    /* \"Voting Sytem.sol\":186:3154  contract Ballot {... */\n  jump(tag_18)\n    /* \"#utility.yul\":7:82   */\ntag_19:\n    /* \"#utility.yul\":40:46   */\n  0x00\n    /* \"#utility.yul\":73:75   */\n  0x40\n    /* \"#utility.yul\":67:76   */\n  mload\n    /* \"#utility.yul\":57:76   */\n  swap1\n  pop\n    /* \"#utility.yul\":7:82   */\n  swap1\n  jump\t// out\n    /* \"#utility.yul\":88:205   */\ntag_20:\n    /* \"#utility.yul\":197:198   */\n  0x00\n    /* \"#utility.yul\":194:195   */\n  dup1\n    /* \"#utility.yul\":187:199   */\n  revert\n    /* \"#utility.yul\":211:328   */\ntag_21:\n    /* \"#utility.yul\":320:321   */\n  0x00\n    /* \"#utility.yul\":317:318   */\n  dup1\n    /* \"#utility.yul\":310:322   */\n  revert\n    /* \"#utility.yul\":334:451   */\ntag_22:\n    /* \"#utility.yul\":443:444   */\n  0x00\n    /* \"#utility.yul\":440:441   */\n  dup1\n    /* \"#utility.yul\":433:445   */\n  revert\n    /* \"#utility.yul\":457:559   */\ntag_23:\n    /* \"#utility.yul\":498:504   */\n  0x00\n    /* \"#utility.yul\":549:551   */\n  0x1f\n    /* \"#utility.yul\":545:552   */\n  not\n    /* \"#utility.yul\":540:542   */\n  0x1f\n    /* \"#utility.yul\":533:538   */\n  dup4\n    /* \"#utility.yul\":529:543   */\n  add\n    /* \"#utility.yul\":525:553   */\n  and\n    /* \"#utility.yul\":515:553   */\n  swap1\n  pop\n    /* \"#utility.yul\":457:559   */\n  swap2\n  swap1\n  pop\n  jump\t// out\n    /* \"#utility.yul\":565:745   */\ntag_24:\n    /* \"#utility.yul\":613:690   */\n  0x4e487b7100000000000000000000000000000000000000000000000000000000\n    /* \"#utility.yul\":610:611   */\n  0x00\n    /* \"#utility.yul\":603:691   */\n  mstore\n    /* \"#utility.yul\":710:714   */\n  0x41\n    /* \"#utility.yul\":707:708   */\n  0x04\n    /* \"#utility.yul\":700:715   */\n  mstore\n    /* \"#utility.yul\":734:738   */\n  0x24\n    /* \"#utility.yul\":731:732   */\n  0x00\n    /* \"#utility.yul\":724:739   */\n  revert\n    /* \"#utility.yul\":751:1032   */\ntag_25:\n    /* \"#utility.yul\":834:861   */\n  tag_63\n    /* \"#utility.yul\":856:860   */\n  dup3\n    /* \"#utility.yul\":834:861   */\n  tag_23\n  jump\t// in\ntag_63:\n    /* \"#utility.yul\":826:832   */\n  dup2\n    /* \"#utility.yul\":822:862   */\n  add\n    /* \"#utility.yul\":964:970   */\n  dup2\n    /* \"#utility.yul\":952:962   */\n  dup2\n    /* \"#utility.yul\":949:971   */\n  lt\n    /* \"#utility.yul\":928:946   */\n  0xffffffffffffffff\n    /* \"#utility.yul\":916:926   */\n  dup3\n    /* \"#utility.yul\":913:947   */\n  gt\n    /* \"#utility.yul\":910:972   */\n  or\n    /* \"#utility.yul\":907:995   */\n  iszero\n  tag_64\n  jumpi\n    /* \"#utility.yul\":975:993   */\n  tag_65\n  tag_24\n  jump\t// in\ntag_65:\n    /* \"#utility.yul\":907:995   */\ntag_64:\n    /* \"#utility.yul\":1015:1025   */\n  dup1\n    /* \"#utility.yul\":1011:1013   */\n  0x40\n    /* \"#utility.yul\":1004:1026   */\n  mstore\n    /* \"#utility.yul\":794:1032   */\n  pop\n    /* \"#utility.yul\":751:1032   */\n  pop\n  pop\n  jump\t// out\n    /* \"#utility.yul\":1038:1167   */\ntag_26:\n    /* \"#utility.yul\":1072:1078   */\n  0x00\n    /* \"#utility.yul\":1099:1119   */\n  tag_67\n  tag_19\n  jump\t// in\ntag_67:\n    /* \"#utility.yul\":1089:1119   */\n  swap1\n  pop\n    /* \"#utility.yul\":1128:1161   */\n  tag_68\n    /* \"#utility.yul\":1156:1160   */\n  dup3\n    /* \"#utility.yul\":1148:1154   */\n  dup3\n    /* \"#utility.yul\":1128:1161   */\n  tag_25\n  jump\t// in\ntag_68:\n    /* \"#utility.yul\":1038:1167   */\n  swap2\n  swap1\n  pop\n  jump\t// out\n    /* \"#utility.yul\":1173:1494   */\ntag_27:\n    /* \"#utility.yul\":1260:1264   */\n  0x00\n    /* \"#utility.yul\":1350:1368   */\n  0xffffffffffffffff\n    /* \"#utility.yul\":1342:1348   */\n  dup3\n    /* \"#utility.yul\":1339:1369   */\n  gt\n    /* \"#utility.yul\":1336:1392   */\n  iszero\n  tag_70\n  jumpi\n    /* \"#utility.yul\":1372:1390   */\n  tag_71\n  tag_24\n  jump\t// in\ntag_71:\n    /* \"#utility.yul\":1336:1392   */\ntag_70:\n    /* \"#utility.yul\":1422:1426   */\n  0x20\n    /* \"#utility.yul\":1414:1420   */\n  dup3\n    /* \"#utility.yul\":1410:1427   */\n  mul\n    /* \"#utility.yul\":1402:1427   */\n  swap1\n  pop\n    /* \"#utility.yul\":1482:1486   */\n  0x20\n    /* \"#utility.yul\":1476:1480   */\n  dup2\n    /* \"#utility.yul\":1472:1487   */\n  add\n    /* \"#utility.yul\":1464:1487   */\n  swap1\n  pop\n    /* \"#utility.yul\":1173:1494   */\n  swap2\n  swap1\n  pop\n  jump\t// out\n    /* \"#utility.yul\":1500:1617   */\ntag_28:\n    /* \"#utility.yul\":1609:1610   */\n  0x00\n    /* \"#utility.yul\":1606:1607   */\n  dup1\n    /* \"#utility.yul\":1599:1611   */\n  revert\n    /* \"#utility.yul\":1623:1740   */\ntag_29:\n    /* \"#utility.yul\":1732:1733   */\n  0x00\n    /* \"#utility.yul\":1729:1730   */\n  dup1\n    /* \"#utility.yul\":1722:1734   */\n  revert\n    /* \"#utility.yul\":1746:2054   */\ntag_30:\n    /* \"#utility.yul\":1808:1812   */\n  0x00\n    /* \"#utility.yul\":1898:1916   */\n  0xffffffffffffffff\n    /* \"#utility.yul\":1890:1896   */\n  dup3\n    /* \"#utility.yul\":1887:1917   */\n  gt\n    /* \"#utility.yul\":1884:1940   */\n  iszero\n  tag_75\n  jumpi\n    /* \"#utility.yul\":1920:1938   */\n  tag_76\n  tag_24\n  jump\t// in\ntag_76:\n    /* \"#utility.yul\":1884:1940   */\ntag_75:\n    /* \"#utility.yul\":1958:1987   */\n  tag_77\n    /* \"#utility.yul\":1980:1986   */\n  dup3\n    /* \"#utility.yul\":1958:1987   */\n  tag_23\n  jump\t// in\ntag_77:\n    /* \"#utility.yul\":1950:1987   */\n  swap1\n  pop\n    /* \"#utility.yul\":2042:2046   */\n  0x20\n    /* \"#utility.yul\":2036:2040   */\n  dup2\n    /* \"#utility.yul\":2032:2047   */\n  add\n    /* \"#utility.yul\":2024:2047   */\n  swap1\n  pop\n    /* \"#utility.yul\":1746:2054   */\n  swap2\n  swap1\n  pop\n  jump\t// out\n    /* \"#utility.yul\":2060:2199   */\ntag_31:\n    /* \"#utility.yul\":2149:2155   */\n  dup3\n    /* \"#utility.yul\":2144:2147   */\n  dup2\n    /* \"#utility.yul\":2139:2142   */\n  dup4\n    /* \"#utility.yul\":2133:2156   */\n  mcopy\n    /* \"#utility.yul\":2190:2191   */\n  0x00\n    /* \"#utility.yul\":2181:2187   */\n  dup4\n    /* \"#utility.yul\":2176:2179   */\n  dup4\n    /* \"#utility.yul\":2172:2188   */\n  add\n    /* \"#utility.yul\":2165:2192   */\n  mstore\n    /* \"#utility.yul\":2060:2199   */\n  pop\n  pop\n  pop\n  jump\t// out\n    /* \"#utility.yul\":2205:2639   */\ntag_32:\n    /* \"#utility.yul\":2294:2299   */\n  0x00\n    /* \"#utility.yul\":2319:2385   */\n  tag_80\n    /* \"#utility.yul\":2335:2384   */\n  tag_81\n    /* \"#utility.yul\":2377:2383   */\n  dup5\n    /* \"#utility.yul\":2335:2384   */\n  tag_30\n  jump\t// in\ntag_81:\n    /* \"#utility.yul\":2319:2385   */\n  tag_26\n  jump\t// in\ntag_80:\n    /* \"#utility.yul\":2310:2385   */\n  swap1\n  pop\n    /* \"#utility.yul\":2408:2414   */\n  dup3\n    /* \"#utility.yul\":2401:2406   */\n  dup2\n    /* \"#utility.yul\":2394:2415   */\n  mstore\n    /* \"#utility.yul\":2446:2450   */\n  0x20\n    /* \"#utility.yul\":2439:2444   */\n  dup2\n    /* \"#utility.yul\":2435:2451   */\n  add\n    /* \"#utility.yul\":2484:2487   */\n  dup5\n    /* \"#utility.yul\":2475:2481   */\n  dup5\n    /* \"#utility.yul\":2470:2473   */\n  dup5\n    /* \"#utility.yul\":2466:2482   */\n  add\n    /* \"#utility.yul\":2463:2488   */\n  gt\n    /* \"#utility.yul\":2460:2572   */\n  iszero\n  tag_82\n  jumpi\n    /* \"#utility.yul\":2491:2570   */\n  tag_83\n  tag_29\n  jump\t// in\ntag_83:\n    /* \"#utility.yul\":2460:2572   */\ntag_82:\n    /* \"#utility.yul\":2581:2633   */\n  tag_84\n    /* \"#utility.yul\":2626:2632   */\n  dup5\n    /* \"#utility.yul\":2621:2624   */\n  dup3\n    /* \"#utility.yul\":2616:2619   */\n  dup6\n    /* \"#utility.yul\":2581:2633   */\n  tag_31\n  jump\t// in\ntag_84:\n    /* \"#utility.yul\":2300:2639   */\n  pop\n    /* \"#utility.yul\":2205:2639   */\n  swap4\n  swap3\n  pop\n  pop\n  pop\n  jump\t// out\n    /* \"#utility.yul\":2659:3014   */\ntag_33:\n    /* \"#utility.yul\":2726:2731   */\n  0x00\n    /* \"#utility.yul\":2775:2778   */\n  dup3\n    /* \"#utility.yul\":2768:2772   */\n  0x1f\n    /* \"#utility.yul\":2760:2766   */\n  dup4\n    /* \"#utility.yul\":2756:2773   */\n  add\n    /* \"#utility.yul\":2752:2779   */\n  slt\n    /* \"#utility.yul\":2742:2864   */\n  tag_86\n  jumpi\n    /* \"#utility.yul\":2783:2862   */\n  tag_87\n  tag_22\n  jump\t// in\ntag_87:\n    /* \"#utility.yul\":2742:2864   */\ntag_86:\n    /* \"#utility.yul\":2893:2899   */\n  dup2\n    /* \"#utility.yul\":2887:2900   */\n  mload\n    /* \"#utility.yul\":2918:3008   */\n  tag_88\n    /* \"#utility.yul\":3004:3007   */\n  dup5\n    /* \"#utility.yul\":2996:3002   */\n  dup3\n    /* \"#utility.yul\":2989:2993   */\n  0x20\n    /* \"#utility.yul\":2981:2987   */\n  dup7\n    /* \"#utility.yul\":2977:2994   */\n  add\n    /* \"#utility.yul\":2918:3008   */\n  tag_32\n  jump\t// in\ntag_88:\n    /* \"#utility.yul\":2909:3008   */\n  swap2\n  pop\n    /* \"#utility.yul\":2732:3014   */\n  pop\n    /* \"#utility.yul\":2659:3014   */\n  swap3\n  swap2\n  pop\n  pop\n  jump\t// out\n    /* \"#utility.yul\":3036:3996   */\ntag_34:\n    /* \"#utility.yul\":3153:3158   */\n  0x00\n    /* \"#utility.yul\":3178:3269   */\n  tag_90\n    /* \"#utility.yul\":3194:3268   */\n  tag_91\n    /* \"#utility.yul\":3261:3267   */\n  dup5\n    /* \"#utility.yul\":3194:3268   */\n  tag_27\n  jump\t// in\ntag_91:\n    /* \"#utility.yul\":3178:3269   */\n  tag_26\n  jump\t// in\ntag_90:\n    /* \"#utility.yul\":3169:3269   */\n  swap1\n  pop\n    /* \"#utility.yul\":3289:3294   */\n  dup1\n    /* \"#utility.yul\":3318:3324   */\n  dup4\n    /* \"#utility.yul\":3311:3316   */\n  dup3\n    /* \"#utility.yul\":3304:3325   */\n  mstore\n    /* \"#utility.yul\":3352:3356   */\n  0x20\n    /* \"#utility.yul\":3345:3350   */\n  dup3\n    /* \"#utility.yul\":3341:3357   */\n  add\n    /* \"#utility.yul\":3334:3357   */\n  swap1\n  pop\n    /* \"#utility.yul\":3405:3409   */\n  0x20\n    /* \"#utility.yul\":3397:3403   */\n  dup5\n    /* \"#utility.yul\":3393:3410   */\n  mul\n    /* \"#utility.yul\":3385:3391   */\n  dup4\n    /* \"#utility.yul\":3381:3411   */\n  add\n    /* \"#utility.yul\":3434:3437   */\n  dup6\n    /* \"#utility.yul\":3426:3432   */\n  dup2\n    /* \"#utility.yul\":3423:3438   */\n  gt\n    /* \"#utility.yul\":3420:3542   */\n  iszero\n  tag_92\n  jumpi\n    /* \"#utility.yul\":3453:3532   */\n  tag_93\n  tag_28\n  jump\t// in\ntag_93:\n    /* \"#utility.yul\":3420:3542   */\ntag_92:\n    /* \"#utility.yul\":3568:3574   */\n  dup4\n    /* \"#utility.yul\":3551:3990   */\ntag_94:\n    /* \"#utility.yul\":3585:3591   */\n  dup2\n    /* \"#utility.yul\":3580:3583   */\n  dup2\n    /* \"#utility.yul\":3577:3592   */\n  lt\n    /* \"#utility.yul\":3551:3990   */\n  iszero\n  tag_96\n  jumpi\n    /* \"#utility.yul\":3667:3670   */\n  dup1\n    /* \"#utility.yul\":3661:3671   */\n  mload\n    /* \"#utility.yul\":3703:3721   */\n  0xffffffffffffffff\n    /* \"#utility.yul\":3690:3701   */\n  dup2\n    /* \"#utility.yul\":3687:3722   */\n  gt\n    /* \"#utility.yul\":3684:3806   */\n  iszero\n  tag_97\n  jumpi\n    /* \"#utility.yul\":3725:3804   */\n  tag_98\n  tag_22\n  jump\t// in\ntag_98:\n    /* \"#utility.yul\":3684:3806   */\ntag_97:\n    /* \"#utility.yul\":3849:3860   */\n  dup1\n    /* \"#utility.yul\":3841:3847   */\n  dup7\n    /* \"#utility.yul\":3837:3861   */\n  add\n    /* \"#utility.yul\":3887:3945   */\n  tag_99\n    /* \"#utility.yul\":3941:3944   */\n  dup10\n    /* \"#utility.yul\":3929:3939   */\n  dup3\n    /* \"#utility.yul\":3887:3945   */\n  tag_33\n  jump\t// in\ntag_99:\n    /* \"#utility.yul\":3882:3885   */\n  dup6\n    /* \"#utility.yul\":3875:3946   */\n  mstore\n    /* \"#utility.yul\":3975:3979   */\n  0x20\n    /* \"#utility.yul\":3970:3973   */\n  dup6\n    /* \"#utility.yul\":3966:3980   */\n  add\n    /* \"#utility.yul\":3959:3980   */\n  swap5\n  pop\n    /* \"#utility.yul\":3627:3990   */\n  pop\n  pop\n    /* \"#utility.yul\":3611:3615   */\n  0x20\n    /* \"#utility.yul\":3606:3609   */\n  dup2\n    /* \"#utility.yul\":3602:3616   */\n  add\n    /* \"#utility.yul\":3595:3616   */\n  swap1\n  pop\n    /* \"#utility.yul\":3551:3990   */\n  jump(tag_94)\ntag_96:\n    /* \"#utility.yul\":3555:3576   */\n  pop\n    /* \"#utility.yul\":3159:3996   */\n  pop\n  pop\n    /* \"#utility.yul\":3036:3996   */\n  swap4\n  swap3\n  pop\n  pop\n  pop\n  jump\t// out\n    /* \"#utility.yul\":4018:4423   */\ntag_35:\n    /* \"#utility.yul\":4110:4115   */\n  0x00\n    /* \"#utility.yul\":4159:4162   */\n  dup3\n    /* \"#utility.yul\":4152:4156   */\n  0x1f\n    /* \"#utility.yul\":4144:4150   */\n  dup4\n    /* \"#utility.yul\":4140:4157   */\n  add\n    /* \"#utility.yul\":4136:4163   */\n  slt\n    /* \"#utility.yul\":4126:4248   */\n  tag_101\n  jumpi\n    /* \"#utility.yul\":4167:4246   */\n  tag_102\n  tag_22\n  jump\t// in\ntag_102:\n    /* \"#utility.yul\":4126:4248   */\ntag_101:\n    /* \"#utility.yul\":4277:4283   */\n  dup2\n    /* \"#utility.yul\":4271:4284   */\n  mload\n    /* \"#utility.yul\":4302:4417   */\n  tag_103\n    /* \"#utility.yul\":4413:4416   */\n  dup5\n    /* \"#utility.yul\":4405:4411   */\n  dup3\n    /* \"#utility.yul\":4398:4402   */\n  0x20\n    /* \"#utility.yul\":4390:4396   */\n  dup7\n    /* \"#utility.yul\":4386:4403   */\n  add\n    /* \"#utility.yul\":4302:4417   */\n  tag_34\n  jump\t// in\ntag_103:\n    /* \"#utility.yul\":4293:4417   */\n  swap2\n  pop\n    /* \"#utility.yul\":4116:4423   */\n  pop\n    /* \"#utility.yul\":4018:4423   */\n  swap3\n  swap2\n  pop\n  pop\n  jump\t// out\n    /* \"#utility.yul\":4429:5003   */\ntag_3:\n    /* \"#utility.yul\":4534:4540   */\n  0x00\n    /* \"#utility.yul\":4583:4585   */\n  0x20\n    /* \"#utility.yul\":4571:4580   */\n  dup3\n    /* \"#utility.yul\":4562:4569   */\n  dup5\n    /* \"#utility.yul\":4558:4581   */\n  sub\n    /* \"#utility.yul\":4554:4586   */\n  slt\n    /* \"#utility.yul\":4551:4670   */\n  iszero\n  tag_105\n  jumpi\n    /* \"#utility.yul\":4589:4668   */\n  tag_106\n  tag_20\n  jump\t// in\ntag_106:\n    /* \"#utility.yul\":4551:4670   */\ntag_105:\n    /* \"#utility.yul\":4730:4731   */\n  0x00\n    /* \"#utility.yul\":4719:4728   */\n  dup3\n    /* \"#utility.yul\":4715:4732   */\n  add\n    /* \"#utility.yul\":4709:4733   */\n  mload\n    /* \"#utility.yul\":4760:4778   */\n  0xffffffffffffffff\n    /* \"#utility.yul\":4752:4758   */\n  dup2\n    /* \"#utility.yul\":4749:4779   */\n  gt\n    /* \"#utility.yul\":4746:4863   */\n  iszero\n  tag_107\n  jumpi\n    /* \"#utility.yul\":4782:4861   */\n  tag_108\n  tag_21\n  jump\t// in\ntag_108:\n    /* \"#utility.yul\":4746:4863   */\ntag_107:\n    /* \"#utility.yul\":4887:4986   */\n  tag_109\n    /* \"#utility.yul\":4978:4985   */\n  dup5\n    /* \"#utility.yul\":4969:4975   */\n  dup3\n    /* \"#utility.yul\":4958:4967   */\n  dup6\n    /* \"#utility.yul\":4954:4976   */\n  add\n    /* \"#utility.yul\":4887:4986   */\n  tag_35\n  jump\t// in\ntag_109:\n    /* \"#utility.yul\":4877:4986   */\n  swap2\n  pop\n    /* \"#utility.yul\":4680:4996   */\n  pop\n    /* \"#utility.yul\":4429:5003   */\n  swap3\n  swap2\n  pop\n  pop\n  jump\t// out\n    /* \"#utility.yul\":5009:5189   */\ntag_8:\n    /* \"#utility.yul\":5057:5134   */\n  0x4e487b7100000000000000000000000000000000000000000000000000000000\n    /* \"#utility.yul\":5054:5055   */\n  0x00\n    /* \"#utility.yul\":5047:5135   */\n  mstore\n    /* \"#utility.yul\":5154:5158   */\n  0x21\n    /* \"#utility.yul\":5151:5152   */\n  0x04\n    /* \"#utility.yul\":5144:5159   */\n  mstore\n    /* \"#utility.yul\":5178:5182   */\n  0x24\n    /* \"#utility.yul\":5175:5176   */\n  0x00\n    /* \"#utility.yul\":5168:5183   */\n  revert\n    /* \"#utility.yul\":5195:5375   */\ntag_14:\n    /* \"#utility.yul\":5243:5320   */\n  0x4e487b7100000000000000000000000000000000000000000000000000000000\n    /* \"#utility.yul\":5240:5241   */\n  0x00\n    /* \"#utility.yul\":5233:5321   */\n  mstore\n    /* \"#utility.yul\":5340:5344   */\n  0x32\n    /* \"#utility.yul\":5337:5338   */\n  0x04\n    /* \"#utility.yul\":5330:5345   */\n  mstore\n    /* \"#utility.yul\":5364:5368   */\n  0x24\n    /* \"#utility.yul\":5361:5362   */\n  0x00\n    /* \"#utility.yul\":5354:5369   */\n  revert\n    /* \"#utility.yul\":5381:5480   */\ntag_36:\n    /* \"#utility.yul\":5433:5439   */\n  0x00\n    /* \"#utility.yul\":5467:5472   */\n  dup2\n    /* \"#utility.yul\":5461:5473   */\n  mload\n    /* \"#utility.yul\":5451:5473   */\n  swap1\n  pop\n    /* \"#utility.yul\":5381:5480   */\n  swap2\n  swap1\n  pop\n  jump\t// out\n    /* \"#utility.yul\":5486:5666   */\ntag_37:\n    /* \"#utility.yul\":5534:5611   */\n  0x4e487b7100000000000000000000000000000000000000000000000000000000\n    /* \"#utility.yul\":5531:5532   */\n  0x00\n    /* \"#utility.yul\":5524:5612   */\n  mstore\n    /* \"#utility.yul\":5631:5635   */\n  0x22\n    /* \"#utility.yul\":5628:5629   */\n  0x04\n    /* \"#utility.yul\":5621:5636   */\n  mstore\n    /* \"#utility.yul\":5655:5659   */\n  0x24\n    /* \"#utility.yul\":5652:5653   */\n  0x00\n    /* \"#utility.yul\":5645:5660   */\n  revert\n    /* \"#utility.yul\":5672:5992   */\ntag_38:\n    /* \"#utility.yul\":5716:5722   */\n  0x00\n    /* \"#utility.yul\":5753:5754   */\n  0x02\n    /* \"#utility.yul\":5747:5751   */\n  dup3\n    /* \"#utility.yul\":5743:5755   */\n  div\n    /* \"#utility.yul\":5733:5755   */\n  swap1\n  pop\n    /* \"#utility.yul\":5800:5801   */\n  0x01\n    /* \"#utility.yul\":5794:5798   */\n  dup3\n    /* \"#utility.yul\":5790:5802   */\n  and\n    /* \"#utility.yul\":5821:5839   */\n  dup1\n    /* \"#utility.yul\":5811:5892   */\n  tag_115\n  jumpi\n    /* \"#utility.yul\":5877:5881   */\n  0x7f\n    /* \"#utility.yul\":5869:5875   */\n  dup3\n    /* \"#utility.yul\":5865:5882   */\n  and\n    /* \"#utility.yul\":5855:5882   */\n  swap2\n  pop\n    /* \"#utility.yul\":5811:5892   */\ntag_115:\n    /* \"#utility.yul\":5939:5941   */\n  0x20\n    /* \"#utility.yul\":5931:5937   */\n  dup3\n    /* \"#utility.yul\":5928:5942   */\n  lt\n    /* \"#utility.yul\":5908:5926   */\n  dup2\n    /* \"#utility.yul\":5905:5943   */\n  sub\n    /* \"#utility.yul\":5902:5986   */\n  tag_116\n  jumpi\n    /* \"#utility.yul\":5958:5976   */\n  tag_117\n  tag_37\n  jump\t// in\ntag_117:\n    /* \"#utility.yul\":5902:5986   */\ntag_116:\n    /* \"#utility.yul\":5723:5992   */\n  pop\n    /* \"#utility.yul\":5672:5992   */\n  swap2\n  swap1\n  pop\n  jump\t// out\n    /* \"#utility.yul\":5998:6139   */\ntag_39:\n    /* \"#utility.yul\":6047:6051   */\n  0x00\n    /* \"#utility.yul\":6070:6073   */\n  dup2\n    /* \"#utility.yul\":6062:6073   */\n  swap1\n  pop\n    /* \"#utility.yul\":6093:6096   */\n  dup2\n    /* \"#utility.yul\":6090:6091   */\n  0x00\n    /* \"#utility.yul\":6083:6097   */\n  mstore\n    /* \"#utility.yul\":6127:6131   */\n  0x20\n    /* \"#utility.yul\":6124:6125   */\n  0x00\n    /* \"#utility.yul\":6114:6132   */\n  keccak256\n    /* \"#utility.yul\":6106:6132   */\n  swap1\n  pop\n    /* \"#utility.yul\":5998:6139   */\n  swap2\n  swap1\n  pop\n  jump\t// out\n    /* \"#utility.yul\":6145:6238   */\ntag_40:\n    /* \"#utility.yul\":6182:6188   */\n  0x00\n    /* \"#utility.yul\":6229:6231   */\n  0x20\n    /* \"#utility.yul\":6224:6226   */\n  0x1f\n    /* \"#utility.yul\":6217:6222   */\n  dup4\n    /* \"#utility.yul\":6213:6227   */\n  add\n    /* \"#utility.yul\":6209:6232   */\n  div\n    /* \"#utility.yul\":6199:6232   */\n  swap1\n  pop\n    /* \"#utility.yul\":6145:6238   */\n  swap2\n  swap1\n  pop\n  jump\t// out\n    /* \"#utility.yul\":6244:6351   */\ntag_41:\n    /* \"#utility.yul\":6288:6296   */\n  0x00\n    /* \"#utility.yul\":6338:6343   */\n  dup3\n    /* \"#utility.yul\":6332:6336   */\n  dup3\n    /* \"#utility.yul\":6328:6344   */\n  shl\n    /* \"#utility.yul\":6307:6344   */\n  swap1\n  pop\n    /* \"#utility.yul\":6244:6351   */\n  swap3\n  swap2\n  pop\n  pop\n  jump\t// out\n    /* \"#utility.yul\":6357:6750   */\ntag_42:\n    /* \"#utility.yul\":6426:6432   */\n  0x00\n    /* \"#utility.yul\":6476:6477   */\n  0x08\n    /* \"#utility.yul\":6464:6474   */\n  dup4\n    /* \"#utility.yul\":6460:6478   */\n  mul\n    /* \"#utility.yul\":6499:6596   */\n  tag_122\n    /* \"#utility.yul\":6529:6595   */\n  0xffffffffffffffffffffffffffffffffffffffffffffffffffffffffffffffff\n    /* \"#utility.yul\":6518:6527   */\n  dup3\n    /* \"#utility.yul\":6499:6596   */\n  tag_41\n  jump\t// in\ntag_122:\n    /* \"#utility.yul\":6617:6656   */\n  tag_123\n    /* \"#utility.yul\":6647:6655   */\n  dup7\n    /* \"#utility.yul\":6636:6645   */\n  dup4\n    /* \"#utility.yul\":6617:6656   */\n  tag_41\n  jump\t// in\ntag_123:\n    /* \"#utility.yul\":6605:6656   */\n  swap6\n  pop\n    /* \"#utility.yul\":6689:6693   */\n  dup1\n    /* \"#utility.yul\":6685:6694   */\n  not\n    /* \"#utility.yul\":6678:6683   */\n  dup5\n    /* \"#utility.yul\":6674:6695   */\n  and\n    /* \"#utility.yul\":6665:6695   */\n  swap4\n  pop\n    /* \"#utility.yul\":6738:6742   */\n  dup1\n    /* \"#utility.yul\":6728:6736   */\n  dup7\n    /* \"#utility.yul\":6724:6743   */\n  and\n    /* \"#utility.yul\":6717:6722   */\n  dup5\n    /* \"#utility.yul\":6714:6744   */\n  or\n    /* \"#utility.yul\":6704:6744   */\n  swap3\n  pop\n    /* \"#utility.yul\":6433:6750   */\n  pop\n  pop\n    /* \"#utility.yul\":6357:6750   */\n  swap4\n  swap3\n  pop\n  pop\n  pop\n  jump\t// out\n    /* \"#utility.yul\":6756:6833   */\ntag_43:\n    /* \"#utility.yul\":6793:6800   */\n  0x00\n    /* \"#utility.yul\":6822:6827   */\n  dup2\n    /* \"#utility.yul\":6811:6827   */\n  swap1\n  pop\n    /* \"#utility.yul\":6756:6833   */\n  swap2\n  swap1\n  pop\n  jump\t// out\n    /* \"#utility.yul\":6839:6899   */\ntag_44:\n    /* \"#utility.yul\":6867:6870   */\n  0x00\n    /* \"#utility.yul\":6888:6893   */\n  dup2\n    /* \"#utility.yul\":6881:6893   */\n  swap1\n  pop\n    /* \"#utility.yul\":6839:6899   */\n  swap2\n  swap1\n  pop\n  jump\t// out\n    /* \"#utility.yul\":6905:7047   */\ntag_45:\n    /* \"#utility.yul\":6955:6964   */\n  0x00\n    /* \"#utility.yul\":6988:7041   */\n  tag_127\n    /* \"#utility.yul\":7006:7040   */\n  tag_128\n    /* \"#utility.yul\":7015:7039   */\n  tag_129\n    /* \"#utility.yul\":7033:7038   */\n  dup5\n    /* \"#utility.yul\":7015:7039   */\n  tag_43\n  jump\t// in\ntag_129:\n    /* \"#utility.yul\":7006:7040   */\n  tag_44\n  jump\t// in\ntag_128:\n    /* \"#utility.yul\":6988:7041   */\n  tag_43\n  jump\t// in\ntag_127:\n    /* \"#utility.yul\":6975:7041   */\n  swap1\n  pop\n    /* \"#utility.yul\":6905:7047   */\n  swap2\n  swap1\n  pop\n  jump\t// out\n    /* \"#utility.yul\":7053:7128   */\ntag_46:\n    /* \"#utility.yul\":7096:7099   */\n  0x00\n    /* \"#utility.yul\":7117:7122   */\n  dup2\n    /* \"#utility.yul\":7110:7122   */\n  swap1\n  pop\n    /* \"#utility.yul\":7053:7128   */\n  swap2\n  swap1\n  pop\n  jump\t// out\n    /* \"#utility.yul\":7134:7403   */\ntag_47:\n    /* \"#utility.yul\":7244:7283   */\n  tag_132\n    /* \"#utility.yul\":7275:7282   */\n  dup4\n    /* \"#utility.yul\":7244:7283   */\n  tag_45\n  jump\t// in\ntag_132:\n    /* \"#utility.yul\":7305:7396   */\n  tag_133\n    /* \"#utility.yul\":7354:7395   */\n  tag_134\n    /* \"#utility.yul\":7378:7394   */\n  dup3\n    /* \"#utility.yul\":7354:7395   */\n  tag_46\n  jump\t// in\ntag_134:\n    /* \"#utility.yul\":7346:7352   */\n  dup5\n    /* \"#utility.yul\":7339:7343   */\n  dup5\n    /* \"#utility.yul\":7333:7344   */\n  sload\n    /* \"#utility.yul\":7305:7396   */\n  tag_42\n  jump\t// in\ntag_133:\n    /* \"#utility.yul\":7299:7303   */\n  dup3\n    /* \"#utility.yul\":7292:7397   */\n  sstore\n    /* \"#utility.yul\":7210:7403   */\n  pop\n    /* \"#utility.yul\":7134:7403   */\n  pop\n  pop\n  pop\n  jump\t// out\n    /* \"#utility.yul\":7409:7482   */\ntag_48:\n    /* \"#utility.yul\":7454:7457   */\n  0x00\n    /* \"#utility.yul\":7409:7482   */\n  swap1\n  jump\t// out\n    /* \"#utility.yul\":7488:7677   */\ntag_49:\n    /* \"#utility.yul\":7565:7597   */\n  tag_137\n  tag_48\n  jump\t// in\ntag_137:\n    /* \"#utility.yul\":7606:7671   */\n  tag_138\n    /* \"#utility.yul\":7664:7670   */\n  dup2\n    /* \"#utility.yul\":7656:7662   */\n  dup5\n    /* \"#utility.yul\":7650:7654   */\n  dup5\n    /* \"#utility.yul\":7606:7671   */\n  tag_47\n  jump\t// in\ntag_138:\n    /* \"#utility.yul\":7541:7677   */\n  pop\n    /* \"#utility.yul\":7488:7677   */\n  pop\n  pop\n  jump\t// out\n    /* \"#utility.yul\":7683:7869   */\ntag_50:\n    /* \"#utility.yul\":7743:7863   */\ntag_140:\n    /* \"#utility.yul\":7760:7763   */\n  dup2\n    /* \"#utility.yul\":7753:7758   */\n  dup2\n    /* \"#utility.yul\":7750:7764   */\n  lt\n    /* \"#utility.yul\":7743:7863   */\n  iszero\n  tag_142\n  jumpi\n    /* \"#utility.yul\":7814:7853   */\n  tag_143\n    /* \"#utility.yul\":7851:7852   */\n  0x00\n    /* \"#utility.yul\":7844:7849   */\n  dup3\n    /* \"#utility.yul\":7814:7853   */\n  tag_49\n  jump\t// in\ntag_143:\n    /* \"#utility.yul\":7787:7788   */\n  0x01\n    /* \"#utility.yul\":7780:7785   */\n  dup2\n    /* \"#utility.yul\":7776:7789   */\n  add\n    /* \"#utility.yul\":7767:7789   */\n  swap1\n  pop\n    /* \"#utility.yul\":7743:7863   */\n  jump(tag_140)\ntag_142:\n    /* \"#utility.yul\":7683:7869   */\n  pop\n  pop\n  jump\t// out\n    /* \"#utility.yul\":7875:8418   */\ntag_51:\n    /* \"#utility.yul\":7976:7978   */\n  0x1f\n    /* \"#utility.yul\":7971:7974   */\n  dup3\n    /* \"#utility.yul\":7968:7979   */\n  gt\n    /* \"#utility.yul\":7965:8411   */\n  iszero\n  tag_145\n  jumpi\n    /* \"#utility.yul\":8010:8048   */\n  tag_146\n    /* \"#utility.yul\":8042:8047   */\n  dup2\n    /* \"#utility.yul\":8010:8048   */\n  tag_39\n  jump\t// in\ntag_146:\n    /* \"#utility.yul\":8094:8123   */\n  tag_147\n    /* \"#utility.yul\":8112:8122   */\n  dup5\n    /* \"#utility.yul\":8094:8123   */\n  tag_40\n  jump\t// in\ntag_147:\n    /* \"#utility.yul\":8084:8092   */\n  dup2\n    /* \"#utility.yul\":8080:8124   */\n  add\n    /* \"#utility.yul\":8277:8279   */\n  0x20\n    /* \"#utility.yul\":8265:8275   */\n  dup6\n    /* \"#utility.yul\":8262:8280   */\n  lt\n    /* \"#utility.yul\":8259:8308   */\n  iszero\n  tag_148\n  jumpi\n    /* \"#utility.yul\":8298:8306   */\n  dup2\n    /* \"#utility.yul\":8283:8306   */\n  swap1\n  pop\n    /* \"#utility.yul\":8259:8308   */\ntag_148:\n    /* \"#utility.yul\":8321:8401   */\n  tag_149\n    /* \"#utility.yul\":8377:8399   */\n  tag_150\n    /* \"#utility.yul\":8395:8398   */\n  dup6\n    /* \"#utility.yul\":8377:8399   */\n  tag_40\n  jump\t// in\ntag_150:\n    /* \"#utility.yul\":8367:8375   */\n  dup4\n    /* \"#utility.yul\":8363:8400   */\n  add\n    /* \"#utility.yul\":8350:8361   */\n  dup3\n    /* \"#utility.yul\":8321:8401   */\n  tag_50\n  jump\t// in\ntag_149:\n    /* \"#utility.yul\":7980:8411   */\n  pop\n  pop\n    /* \"#utility.yul\":7965:8411   */\ntag_145:\n    /* \"#utility.yul\":7875:8418   */\n  pop\n  pop\n  pop\n  jump\t// out\n    /* \"#utility.yul\":8424:8541   */\ntag_52:\n    /* \"#utility.yul\":8478:8486   */\n  0x00\n    /* \"#utility.yul\":8528:8533   */\n  dup3\n    /* \"#utility.yul\":8522:8526   */\n  dup3\n    /* \"#utility.yul\":8518:8534   */\n  shr\n    /* \"#utility.yul\":8497:8534   */\n  swap1\n  pop\n    /* \"#utility.yul\":8424:8541   */\n  swap3\n  swap2\n  pop\n  pop\n  jump\t// out\n    /* \"#utility.yul\":8547:8716   */\ntag_53:\n    /* \"#utility.yul\":8591:8597   */\n  0x00\n    /* \"#utility.yul\":8624:8675   */\n  tag_153\n    /* \"#utility.yul\":8672:8673   */\n  0x00\n    /* \"#utility.yul\":8668:8674   */\n  not\n    /* \"#utility.yul\":8660:8665   */\n  dup5\n    /* \"#utility.yul\":8657:8658   */\n  0x08\n    /* \"#utility.yul\":8653:8666   */\n  mul\n    /* \"#utility.yul\":8624:8675   */\n  tag_52\n  jump\t// in\ntag_153:\n    /* \"#utility.yul\":8620:8676   */\n  not\n    /* \"#utility.yul\":8705:8709   */\n  dup1\n    /* \"#utility.yul\":8699:8703   */\n  dup4\n    /* \"#utility.yul\":8695:8710   */\n  and\n    /* \"#utility.yul\":8685:8710   */\n  swap2\n  pop\n    /* \"#utility.yul\":8598:8716   */\n  pop\n    /* \"#utility.yul\":8547:8716   */\n  swap3\n  swap2\n  pop\n  pop\n  jump\t// out\n    /* \"#utility.yul\":8721:9016   */\ntag_54:\n    /* \"#utility.yul\":8797:8801   */\n  0x00\n    /* \"#utility.yul\":8943:8972   */\n  tag_155\n    /* \"#utility.yul\":8968:8971   */\n  dup4\n    /* \"#utility.yul\":8962:8966   */\n  dup4\n    /* \"#utility.yul\":8943:8972   */\n  tag_53\n  jump\t// in\ntag_155:\n    /* \"#utility.yul\":8935:8972   */\n  swap2\n  pop\n    /* \"#utility.yul\":9005:9008   */\n  dup3\n    /* \"#utility.yul\":9002:9003   */\n  0x02\n    /* \"#utility.yul\":8998:9009   */\n  mul\n    /* \"#utility.yul\":8992:8996   */\n  dup3\n    /* \"#utility.yul\":8989:9010   */\n  or\n    /* \"#utility.yul\":8981:9010   */\n  swap1\n  pop\n    /* \"#utility.yul\":8721:9016   */\n  swap3\n  swap2\n  pop\n  pop\n  jump\t// out\n    /* \"#utility.yul\":9021:10416   */\ntag_17:\n    /* \"#utility.yul\":9138:9175   */\n  tag_157\n    /* \"#utility.yul\":9171:9174   */\n  dup3\n    /* \"#utility.yul\":9138:9175   */\n  tag_36\n  jump\t// in\ntag_157:\n    /* \"#utility.yul\":9240:9258   */\n  0xffffffffffffffff\n    /* \"#utility.yul\":9232:9238   */\n  dup2\n    /* \"#utility.yul\":9229:9259   */\n  gt\n    /* \"#utility.yul\":9226:9282   */\n  iszero\n  tag_158\n  jumpi\n    /* \"#utility.yul\":9262:9280   */\n  tag_159\n  tag_24\n  jump\t// in\ntag_159:\n    /* \"#utility.yul\":9226:9282   */\ntag_158:\n    /* \"#utility.yul\":9306:9344   */\n  tag_160\n    /* \"#utility.yul\":9338:9342   */\n  dup3\n    /* \"#utility.yul\":9332:9343   */\n  sload\n    /* \"#utility.yul\":9306:9344   */\n  tag_38\n  jump\t// in\ntag_160:\n    /* \"#utility.yul\":9391:9458   */\n  tag_161\n    /* \"#utility.yul\":9451:9457   */\n  dup3\n    /* \"#utility.yul\":9443:9449   */\n  dup3\n    /* \"#utility.yul\":9437:9441   */\n  dup6\n    /* \"#utility.yul\":9391:9458   */\n  tag_51\n  jump\t// in\ntag_161:\n    /* \"#utility.yul\":9485:9486   */\n  0x00\n    /* \"#utility.yul\":9509:9513   */\n  0x20\n    /* \"#utility.yul\":9496:9513   */\n  swap1\n  pop\n    /* \"#utility.yul\":9541:9543   */\n  0x1f\n    /* \"#utility.yul\":9533:9539   */\n  dup4\n    /* \"#utility.yul\":9530:9544   */\n  gt\n    /* \"#utility.yul\":9558:9559   */\n  0x01\n    /* \"#utility.yul\":9553:10171   */\n  dup2\n  eq\n  tag_163\n  jumpi\n    /* \"#utility.yul\":10215:10216   */\n  0x00\n    /* \"#utility.yul\":10232:10238   */\n  dup5\n    /* \"#utility.yul\":10229:10306   */\n  iszero\n  tag_164\n  jumpi\n    /* \"#utility.yul\":10281:10290   */\n  dup3\n    /* \"#utility.yul\":10276:10279   */\n  dup8\n    /* \"#utility.yul\":10272:10291   */\n  add\n    /* \"#utility.yul\":10266:10292   */\n  mload\n    /* \"#utility.yul\":10257:10292   */\n  swap1\n  pop\n    /* \"#utility.yul\":10229:10306   */\ntag_164:\n    /* \"#utility.yul\":10332:10399   */\n  tag_165\n    /* \"#utility.yul\":10392:10398   */\n  dup6\n    /* \"#utility.yul\":10385:10390   */\n  dup3\n    /* \"#utility.yul\":10332:10399   */\n  tag_54\n  jump\t// in\ntag_165:\n    /* \"#utility.yul\":10326:10330   */\n  dup7\n    /* \"#utility.yul\":10319:10400   */\n  sstore\n    /* \"#utility.yul\":10188:10410   */\n  pop\n    /* \"#utility.yul\":9523:10410   */\n  jump(tag_162)\n    /* \"#utility.yul\":9553:10171   */\ntag_163:\n    /* \"#utility.yul\":9605:9609   */\n  0x1f\n    /* \"#utility.yul\":9601:9610   */\n  not\n    /* \"#utility.yul\":9593:9599   */\n  dup5\n    /* \"#utility.yul\":9589:9611   */\n  and\n    /* \"#utility.yul\":9639:9676   */\n  tag_166\n    /* \"#utility.yul\":9671:9675   */\n  dup7\n    /* \"#utility.yul\":9639:9676   */\n  tag_39\n  jump\t// in\ntag_166:\n    /* \"#utility.yul\":9698:9699   */\n  0x00\n    /* \"#utility.yul\":9712:9920   */\ntag_167:\n    /* \"#utility.yul\":9726:9733   */\n  dup3\n    /* \"#utility.yul\":9723:9724   */\n  dup2\n    /* \"#utility.yul\":9720:9734   */\n  lt\n    /* \"#utility.yul\":9712:9920   */\n  iszero\n  tag_169\n  jumpi\n    /* \"#utility.yul\":9805:9814   */\n  dup5\n    /* \"#utility.yul\":9800:9803   */\n  dup10\n    /* \"#utility.yul\":9796:9815   */\n  add\n    /* \"#utility.yul\":9790:9816   */\n  mload\n    /* \"#utility.yul\":9782:9788   */\n  dup3\n    /* \"#utility.yul\":9775:9817   */\n  sstore\n    /* \"#utility.yul\":9856:9857   */\n  0x01\n    /* \"#utility.yul\":9848:9854   */\n  dup3\n    /* \"#utility.yul\":9844:9858   */\n  add\n    /* \"#utility.yul\":9834:9858   */\n  swap2\n  pop\n    /* \"#utility.yul\":9903:9905   */\n  0x20\n    /* \"#utility.yul\":9892:9901   */\n  dup6\n    /* \"#utility.yul\":9888:9906   */\n  add\n    /* \"#utility.yul\":9875:9906   */\n  swap5\n  pop\n    /* \"#utility.yul\":9749:9753   */\n  0x20\n    /* \"#utility.yul\":9746:9747   */\n  dup2\n    /* \"#utility.yul\":9742:9754   */\n  add\n    /* \"#utility.yul\":9737:9754   */\n  swap1\n  pop\n    /* \"#utility.yul\":9712:9920   */\n  jump(tag_167)\ntag_169:\n    /* \"#utility.yul\":9948:9954   */\n  dup7\n    /* \"#utility.yul\":9939:9946   */\n  dup4\n    /* \"#utility.yul\":9936:9955   */\n  lt\n    /* \"#utility.yul\":9933:10112   */\n  iszero\n  tag_170\n  jumpi\n    /* \"#utility.yul\":10006:10015   */\n  dup5\n    /* \"#utility.yul\":10001:10004   */\n  dup10\n    /* \"#utility.yul\":9997:10016   */\n  add\n    /* \"#utility.yul\":9991:10017   */\n  mload\n    /* \"#utility.yul\":10049:10097   */\n  tag_171\n    /* \"#utility.yul\":10091:10095   */\n  0x1f\n    /* \"#utility.yul\":10083:10089   */\n  dup10\n    /* \"#utility.yul\":10079:10096   */\n  and\n    /* \"#utility.yul\":10068:10077   */\n  dup3\n    /* \"#utility.yul\":10049:10097   */\n  tag_53\n  jump\t// in\ntag_171:\n    /* \"#utility.yul\":10041:10047   */\n  dup4\n    /* \"#utility.yul\":10034:10098   */\n  sstore\n    /* \"#utility.yul\":9956:10112   */\n  pop\n    /* \"#utility.yul\":9933:10112   */\ntag_170:\n    /* \"#utility.yul\":10158:10159   */\n  0x01\n    /* \"#utility.yul\":10154:10155   */\n  0x02\n    /* \"#utility.yul\":10146:10152   */\n  dup9\n    /* \"#utility.yul\":10142:10156   */\n  mul\n    /* \"#utility.yul\":10138:10160   */\n  add\n    /* \"#utility.yul\":10132:10136   */\n  dup9\n    /* \"#utility.yul\":10125:10161   */\n  sstore\n    /* \"#utility.yul\":9560:10171   */\n  pop\n  pop\n  pop\n    /* \"#utility.yul\":9523:10410   */\ntag_162:\n  pop\n    /* \"#utility.yul\":9113:10416   */\n  pop\n  pop\n  pop\n    /* \"#utility.yul\":9021:10416   */\n  pop\n  pop\n  jump\t// out\n    /* \"Voting Sytem.sol\":186:3154  contract Ballot {... */\ntag_18:\n  dataSize(sub_0)\n  dup1\n  dataOffset(sub_0)\n  0x00\n  codecopy\n  0x00\n  return\nstop\n\nsub_0: assembly {\n        /* \"Voting Sytem.sol\":186:3154  contract Ballot {... */\n      mstore(0x40, 0x80)\n      callvalue\n      dup1\n      iszero\n      tag_1\n      jumpi\n      0x00\n      dup1\n      revert\n    tag_1:\n      pop\n      jumpi(tag_2, lt(calldatasize, 0x04))\n      shr(0xe0, calldataload(0x00))\n      dup1\n      0x72b4ca47\n      gt\n      tag_14\n      jumpi\n      dup1\n      0x72b4ca47\n      eq\n      tag_8\n      jumpi\n      dup1\n      0x78668658\n      eq\n      tag_9\n      jumpi\n      dup1\n      0xa3ec138d\n      eq\n      tag_10\n      jumpi\n      dup1\n      0xb9223946\n      eq\n      tag_11\n      jumpi\n      dup1\n      0xc19d93fb\n      eq\n      tag_12\n      jumpi\n      dup1\n      0xd28178d7\n      eq\n      tag_13\n      jumpi\n      jump(tag_2)\n    tag_14:\n      dup1\n      0x0121b93f\n      eq\n      tag_3\n      jumpi\n      dup1\n      0x2e4176cf\n      eq\n      tag_4\n      jumpi\n      dup1\n      0x3477ee2e\n      eq\n      tag_5\n      jumpi\n      dup1\n      0x462e91ec\n      eq\n      tag_6\n      jumpi\n      dup1\n      0x4c0a6af0\n      eq\n      tag_7\n      jumpi\n    tag_2:\n      0x00\n      dup1\n      revert\n        /* \"Voting Sytem.sol\":2231:2625  function vote(uint candidate) public inState(State.Voting) {... */\n    tag_3:\n      tag_15\n      0x04\n      dup1\n      calldatasize\n      sub\n      dup2\n      add\n      swap1\n      tag_16\n      swap2\n      swap1\n      tag_17\n      jump\t// in\n    tag_16:\n      tag_18\n      jump\t// in\n    tag_15:\n      stop\n        /* \"Voting Sytem.sol\":387:413  address public chairperson */\n    tag_4:\n      tag_19\n      tag_20\n      jump\t// in\n    tag_19:\n      mload(0x40)\n      tag_21\n      swap2\n      swap1\n      tag_22\n      jump\t// in\n    tag_21:\n      mload(0x40)\n      dup1\n      swap2\n      sub\n      swap1\n      return\n        /* \"Voting Sytem.sol\":466:495  Candidate[] public candidates */\n    tag_5:\n      tag_23\n      0x04\n      dup1\n      calldatasize\n      sub\n      dup2\n      add\n      swap1\n      tag_24\n      swap2\n      swap1\n      tag_17\n      jump\t// in\n    tag_24:\n      tag_25\n      jump\t// in\n    tag_23:\n      mload(0x40)\n      tag_26\n      swap3\n      swap2\n      swap1\n      tag_27\n      jump\t// in\n    tag_26:\n      mload(0x40)\n      dup1\n      swap2\n      sub\n      swap1\n      return\n        /* \"Voting Sytem.sol\":1699:1923  function addCandidate(string memory candidateName) public onlyChairperson inState(State.Created) {... */\n    tag_6:\n      tag_28\n      0x04\n      dup1\n      calldatasize\n      sub\n      dup2\n      add\n      swap1\n      tag_29\n      swap2\n      swap1\n      tag_30\n      jump\t// in\n    tag_29:\n      tag_31\n      jump\t// in\n    tag_28:\n      stop\n        /* \"Voting Sytem.sol\":1935:2074  function startVote() public onlyChairperson inState(State.Created) {... */\n    tag_7:\n      tag_32\n      tag_33\n      jump\t// in\n    tag_32:\n      stop\n        /* \"Voting Sytem.sol\":2637:2741  function getCurrentVotes() public view returns (Candidate[] memory) {... */\n    tag_8:\n      tag_34\n      tag_35\n      jump\t// in\n    tag_34:\n      mload(0x40)\n      tag_36\n      swap2\n      swap1\n      tag_37\n      jump\t// in\n    tag_36:\n      mload(0x40)\n      dup1\n      swap2\n      sub\n      swap1\n      return\n        /* \"Voting Sytem.sol\":1489:1687  function registerAsVoter() public {... */\n    tag_9:\n      tag_38\n      tag_39\n      jump\t// in\n    tag_38:\n      stop\n        /* \"Voting Sytem.sol\":420:459  mapping(address => Voter) public voters */\n    tag_10:\n      tag_40\n      0x04\n      dup1\n      calldatasize\n      sub\n      dup2\n      add\n      swap1\n      tag_41\n      swap2\n      swap1\n      tag_42\n      jump\t// in\n    tag_41:\n      tag_43\n      jump\t// in\n    tag_40:\n      mload(0x40)\n      tag_44\n      swap4\n      swap3\n      swap2\n      swap1\n      tag_45\n      jump\t// in\n    tag_44:\n      mload(0x40)\n      dup1\n      swap2\n      sub\n      swap1\n      return\n        /* \"Voting Sytem.sol\":2086:2219  function endVote() public onlyChairperson inState(State.Voting) {... */\n    tag_11:\n      tag_46\n      tag_47\n      jump\t// in\n    tag_46:\n      stop\n        /* \"Voting Sytem.sol\":551:569  State public state */\n    tag_12:\n      tag_48\n      tag_49\n      jump\t// in\n    tag_48:\n      mload(0x40)\n      tag_50\n      swap2\n      swap1\n      tag_51\n      jump\t// in\n    tag_50:\n      mload(0x40)\n      dup1\n      swap2\n      sub\n      swap1\n      return\n        /* \"Voting Sytem.sol\":2753:3151  function winningCandidate() public view inState(State.Ended) returns (string memory winnerName_) {... */\n    tag_13:\n      tag_52\n      tag_53\n      jump\t// in\n    tag_52:\n      mload(0x40)\n      tag_54\n      swap2\n      swap1\n      tag_55\n      jump\t// in\n    tag_54:\n      mload(0x40)\n      dup1\n      swap2\n      sub\n      swap1\n      return\n        /* \"Voting Sytem.sol\":2231:2625  function vote(uint candidate) public inState(State.Voting) {... */\n    tag_18:\n        /* \"Voting Sytem.sol\":2276:2288  State.Voting */\n      0x01\n        /* \"Voting Sytem.sol\":1370:1376  _state */\n      dup1\n        /* \"Voting Sytem.sol\":1361:1376  state == _state */\n      0x02\n      dup2\n      gt\n      iszero\n      tag_57\n      jumpi\n      tag_58\n      tag_59\n      jump\t// in\n    tag_58:\n    tag_57:\n        /* \"Voting Sytem.sol\":1361:1366  state */\n      0x03\n      0x00\n      swap1\n      sload\n      swap1\n      0x0100\n      exp\n      swap1\n      div\n      0xff\n      and\n        /* \"Voting Sytem.sol\":1361:1376  state == _state */\n      0x02\n      dup2\n      gt\n      iszero\n      tag_60\n      jumpi\n      tag_61\n      tag_59\n      jump\t// in\n    tag_61:\n    tag_60:\n      eq\n        /* \"Voting Sytem.sol\":1353:1410  require(state == _state, \"Invalid state for this action\") */\n      tag_62\n      jumpi\n      mload(0x40)\n      0x08c379a000000000000000000000000000000000000000000000000000000000\n      dup2\n      mstore\n      0x04\n      add\n      tag_63\n      swap1\n      tag_64\n      jump\t// in\n    tag_63:\n      mload(0x40)\n      dup1\n      swap2\n      sub\n      swap1\n      revert\n    tag_62:\n        /* \"Voting Sytem.sol\":2301:2321  Voter storage sender */\n      0x00\n        /* \"Voting Sytem.sol\":2324:2330  voters */\n      0x01\n        /* \"Voting Sytem.sol\":2324:2342  voters[msg.sender] */\n      0x00\n        /* \"Voting Sytem.sol\":2331:2341  msg.sender */\n      caller\n        /* \"Voting Sytem.sol\":2324:2342  voters[msg.sender] */\n      0xffffffffffffffffffffffffffffffffffffffff\n      and\n      0xffffffffffffffffffffffffffffffffffffffff\n      and\n      dup2\n      mstore\n      0x20\n      add\n      swap1\n      dup2\n      mstore\n      0x20\n      add\n      0x00\n      keccak256\n        /* \"Voting Sytem.sol\":2301:2342  Voter storage sender = voters[msg.sender] */\n      swap1\n      pop\n        /* \"Voting Sytem.sol\":2378:2379  0 */\n      0x00\n        /* \"Voting Sytem.sol\":2361:2367  sender */\n      dup2\n        /* \"Voting Sytem.sol\":2361:2374  sender.weight */\n      0x00\n      add\n      sload\n        /* \"Voting Sytem.sol\":2361:2379  sender.weight != 0 */\n      sub\n        /* \"Voting Sytem.sol\":2353:2400  require(sender.weight != 0, \"No right to vote\") */\n      tag_66\n      jumpi\n      mload(0x40)\n      0x08c379a000000000000000000000000000000000000000000000000000000000\n      dup2\n      mstore\n      0x04\n      add\n      tag_67\n      swap1\n      tag_68\n      jump\t// in\n    tag_67:\n      mload(0x40)\n      dup1\n      swap2\n      sub\n      swap1\n      revert\n    tag_66:\n        /* \"Voting Sytem.sol\":2420:2426  sender */\n      dup1\n        /* \"Voting Sytem.sol\":2420:2432  sender.voted */\n      0x01\n      add\n      0x00\n      swap1\n      sload\n      swap1\n      0x0100\n      exp\n      swap1\n      div\n      0xff\n      and\n        /* \"Voting Sytem.sol\":2419:2432  !sender.voted */\n      iszero\n        /* \"Voting Sytem.sol\":2411:2450  require(!sender.voted, \"Already voted\") */\n      tag_69\n      jumpi\n      mload(0x40)\n      0x08c379a000000000000000000000000000000000000000000000000000000000\n      dup2\n      mstore\n      0x04\n      add\n      tag_70\n      swap1\n      tag_71\n      jump\t// in\n    tag_70:\n      mload(0x40)\n      dup1\n      swap2\n      sub\n      swap1\n      revert\n    tag_69:\n        /* \"Voting Sytem.sol\":2476:2480  true */\n      0x01\n        /* \"Voting Sytem.sol\":2461:2467  sender */\n      dup2\n        /* \"Voting Sytem.sol\":2461:2473  sender.voted */\n      0x01\n      add\n      0x00\n        /* \"Voting Sytem.sol\":2461:2480  sender.voted = true */\n      0x0100\n      exp\n      dup2\n      sload\n      dup2\n      0xff\n      mul\n      not\n      and\n      swap1\n      dup4\n      iszero\n      iszero\n      mul\n      or\n      swap1\n      sstore\n      pop\n        /* \"Voting Sytem.sol\":2505:2514  candidate */\n      dup3\n        /* \"Voting Sytem.sol\":2491:2497  sender */\n      dup2\n        /* \"Voting Sytem.sol\":2491:2502  sender.vote */\n      0x02\n      add\n        /* \"Voting Sytem.sol\":2491:2514  sender.vote = candidate */\n      dup2\n      swap1\n      sstore\n      pop\n        /* \"Voting Sytem.sol\":2560:2566  sender */\n      dup1\n        /* \"Voting Sytem.sol\":2560:2573  sender.weight */\n      0x00\n      add\n      sload\n        /* \"Voting Sytem.sol\":2525:2535  candidates */\n      0x02\n        /* \"Voting Sytem.sol\":2536:2545  candidate */\n      dup5\n        /* \"Voting Sytem.sol\":2525:2546  candidates[candidate] */\n      dup2\n      sload\n      dup2\n      lt\n      tag_72\n      jumpi\n      tag_73\n      tag_74\n      jump\t// in\n    tag_73:\n    tag_72:\n      swap1\n      0x00\n      mstore\n      keccak256(0x00, 0x20)\n      swap1\n      0x02\n      mul\n      add\n        /* \"Voting Sytem.sol\":2525:2556  candidates[candidate].voteCount */\n      0x01\n      add\n      0x00\n        /* \"Voting Sytem.sol\":2525:2573  candidates[candidate].voteCount += sender.weight */\n      dup3\n      dup3\n      sload\n      tag_76\n      swap2\n      swap1\n      tag_77\n      jump\t// in\n    tag_76:\n      swap3\n      pop\n      pop\n      dup2\n      swap1\n      sstore\n      pop\n        /* \"Voting Sytem.sol\":2589:2617  Voted(msg.sender, candidate) */\n      0x4d99b957a2bc29a30ebd96a7be8e68fe50a3c701db28a91436490b7d53870ca4\n        /* \"Voting Sytem.sol\":2595:2605  msg.sender */\n      caller\n        /* \"Voting Sytem.sol\":2607:2616  candidate */\n      dup5\n        /* \"Voting Sytem.sol\":2589:2617  Voted(msg.sender, candidate) */\n      mload(0x40)\n      tag_78\n      swap3\n      swap2\n      swap1\n      tag_79\n      jump\t// in\n    tag_78:\n      mload(0x40)\n      dup1\n      swap2\n      sub\n      swap1\n      log1\n        /* \"Voting Sytem.sol\":2290:2625  {... */\n      pop\n        /* \"Voting Sytem.sol\":2231:2625  function vote(uint candidate) public inState(State.Voting) {... */\n      pop\n      pop\n      jump\t// out\n        /* \"Voting Sytem.sol\":387:413  address public chairperson */\n    tag_20:\n      0x00\n      dup1\n      sload\n      swap1\n      0x0100\n      exp\n      swap1\n      div\n      0xffffffffffffffffffffffffffffffffffffffff\n      and\n      dup2\n      jump\t// out\n        /* \"Voting Sytem.sol\":466:495  Candidate[] public candidates */\n    tag_25:\n      0x02\n      dup2\n      dup2\n      sload\n      dup2\n      lt\n      tag_80\n      jumpi\n      0x00\n      dup1\n      revert\n    tag_80:\n      swap1\n      0x00\n      mstore\n      keccak256(0x00, 0x20)\n      swap1\n      0x02\n      mul\n      add\n      0x00\n      swap2\n      pop\n      swap1\n      pop\n      dup1\n      0x00\n      add\n      dup1\n      sload\n      tag_82\n      swap1\n      tag_83\n      jump\t// in\n    tag_82:\n      dup1\n      0x1f\n      add\n      0x20\n      dup1\n      swap2\n      div\n      mul\n      0x20\n      add\n      mload(0x40)\n      swap1\n      dup2\n      add\n      0x40\n      mstore\n      dup1\n      swap3\n      swap2\n      swap1\n      dup2\n      dup2\n      mstore\n      0x20\n      add\n      dup3\n      dup1\n      sload\n      tag_84\n      swap1\n      tag_83\n      jump\t// in\n    tag_84:\n      dup1\n      iszero\n      tag_85\n      jumpi\n      dup1\n      0x1f\n      lt\n      tag_86\n      jumpi\n      0x0100\n      dup1\n      dup4\n      sload\n      div\n      mul\n      dup4\n      mstore\n      swap2\n      0x20\n      add\n      swap2\n      jump(tag_85)\n    tag_86:\n      dup3\n      add\n      swap2\n      swap1\n      0x00\n      mstore\n      keccak256(0x00, 0x20)\n      swap1\n    tag_87:\n      dup2\n      sload\n      dup2\n      mstore\n      swap1\n      0x01\n      add\n      swap1\n      0x20\n      add\n      dup1\n      dup4\n      gt\n      tag_87\n      jumpi\n      dup3\n      swap1\n      sub\n      0x1f\n      and\n      dup3\n      add\n      swap2\n    tag_85:\n      pop\n      pop\n      pop\n      pop\n      pop\n      swap1\n      dup1\n      0x01\n      add\n      sload\n      swap1\n      pop\n      dup3\n      jump\t// out\n        /* \"Voting Sytem.sol\":1699:1923  function addCandidate(string memory candidateName) public onlyChairperson inState(State.Created) {... */\n    tag_31:\n        /* \"Voting Sytem.sol\":1223:1234  chairperson */\n      0x00\n      dup1\n      sload\n      swap1\n      0x0100\n      exp\n      swap1\n      div\n      0xffffffffffffffffffffffffffffffffffffffff\n      and\n        /* \"Voting Sytem.sol\":1209:1234  msg.sender == chairperson */\n      0xffffffffffffffffffffffffffffffffffffffff\n      and\n        /* \"Voting Sytem.sol\":1209:1219  msg.sender */\n      caller\n        /* \"Voting Sytem.sol\":1209:1234  msg.sender == chairperson */\n      0xffffffffffffffffffffffffffffffffffffffff\n      and\n      eq\n        /* \"Voting Sytem.sol\":1201:1279  require(msg.sender == chairperson, \"Only chairperson can perform this action\") */\n      tag_89\n      jumpi\n      mload(0x40)\n      0x08c379a000000000000000000000000000000000000000000000000000000000\n      dup2\n      mstore\n      0x04\n      add\n      tag_90\n      swap1\n      tag_91\n      jump\t// in\n    tag_90:\n      mload(0x40)\n      dup1\n      swap2\n      sub\n      swap1\n      revert\n    tag_89:\n        /* \"Voting Sytem.sol\":1781:1794  State.Created */\n      0x00\n        /* \"Voting Sytem.sol\":1370:1376  _state */\n      dup1\n        /* \"Voting Sytem.sol\":1361:1376  state == _state */\n      0x02\n      dup2\n      gt\n      iszero\n      tag_93\n      jumpi\n      tag_94\n      tag_59\n      jump\t// in\n    tag_94:\n    tag_93:\n        /* \"Voting Sytem.sol\":1361:1366  state */\n      0x03\n      0x00\n      swap1\n      sload\n      swap1\n      0x0100\n      exp\n      swap1\n      div\n      0xff\n      and\n        /* \"Voting Sytem.sol\":1361:1376  state == _state */\n      0x02\n      dup2\n      gt\n      iszero\n      tag_95\n      jumpi\n      tag_96\n      tag_59\n      jump\t// in\n    tag_96:\n    tag_95:\n      eq\n        /* \"Voting Sytem.sol\":1353:1410  require(state == _state, \"Invalid state for this action\") */\n      tag_97\n      jumpi\n      mload(0x40)\n      0x08c379a000000000000000000000000000000000000000000000000000000000\n      dup2\n      mstore\n      0x04\n      add\n      tag_98\n      swap1\n      tag_64\n      jump\t// in\n    tag_98:\n      mload(0x40)\n      dup1\n      swap2\n      sub\n      swap1\n      revert\n    tag_97:\n        /* \"Voting Sytem.sol\":1807:1817  candidates */\n      0x02\n        /* \"Voting Sytem.sol\":1823:1869  Candidate({name: candidateName, voteCount: 0}) */\n      mload(0x40)\n      dup1\n      0x40\n      add\n      0x40\n      mstore\n      dup1\n        /* \"Voting Sytem.sol\":1840:1853  candidateName */\n      dup5\n        /* \"Voting Sytem.sol\":1823:1869  Candidate({name: candidateName, voteCount: 0}) */\n      dup2\n      mstore\n      0x20\n      add\n        /* \"Voting Sytem.sol\":1866:1867  0 */\n      0x00\n        /* \"Voting Sytem.sol\":1823:1869  Candidate({name: candidateName, voteCount: 0}) */\n      dup2\n      mstore\n      pop\n        /* \"Voting Sytem.sol\":1807:1870  candidates.push(Candidate({name: candidateName, voteCount: 0})) */\n      swap1\n      dup1\n      0x01\n      dup2\n      sload\n      add\n      dup1\n      dup3\n      sstore\n      dup1\n      swap2\n      pop\n      pop\n      0x01\n      swap1\n      sub\n      swap1\n      0x00\n      mstore\n      keccak256(0x00, 0x20)\n      swap1\n      0x02\n      mul\n      add\n      0x00\n      swap1\n      swap2\n      swap1\n      swap2\n      swap1\n      swap2\n      pop\n      0x00\n      dup3\n      add\n      mload\n      dup2\n      0x00\n      add\n      swap1\n      dup2\n      tag_101\n      swap2\n      swap1\n      tag_102\n      jump\t// in\n    tag_101:\n      pop\n      0x20\n      dup3\n      add\n      mload\n      dup2\n      0x01\n      add\n      sstore\n      pop\n      pop\n        /* \"Voting Sytem.sol\":1886:1915  CandidateAdded(candidateName) */\n      0xf29562dad1599aea0ebb142466120aab326d5efa8f839df82a9c064bf78e8938\n        /* \"Voting Sytem.sol\":1901:1914  candidateName */\n      dup3\n        /* \"Voting Sytem.sol\":1886:1915  CandidateAdded(candidateName) */\n      mload(0x40)\n      tag_103\n      swap2\n      swap1\n      tag_55\n      jump\t// in\n    tag_103:\n      mload(0x40)\n      dup1\n      swap2\n      sub\n      swap1\n      log1\n        /* \"Voting Sytem.sol\":1290:1291  _ */\n      pop\n        /* \"Voting Sytem.sol\":1699:1923  function addCandidate(string memory candidateName) public onlyChairperson inState(State.Created) {... */\n      pop\n      jump\t// out\n        /* \"Voting Sytem.sol\":1935:2074  function startVote() public onlyChairperson inState(State.Created) {... */\n    tag_33:\n        /* \"Voting Sytem.sol\":1223:1234  chairperson */\n      0x00\n      dup1\n      sload\n      swap1\n      0x0100\n      exp\n      swap1\n      div\n      0xffffffffffffffffffffffffffffffffffffffff\n      and\n        /* \"Voting Sytem.sol\":1209:1234  msg.sender == chairperson */\n      0xffffffffffffffffffffffffffffffffffffffff\n      and\n        /* \"Voting Sytem.sol\":1209:1219  msg.sender */\n      caller\n        /* \"Voting Sytem.sol\":1209:1234  msg.sender == chairperson */\n      0xffffffffffffffffffffffffffffffffffffffff\n      and\n      eq\n        /* \"Voting Sytem.sol\":1201:1279  require(msg.sender == chairperson, \"Only chairperson can perform this action\") */\n      tag_105\n      jumpi\n      mload(0x40)\n      0x08c379a000000000000000000000000000000000000000000000000000000000\n      dup2\n      mstore\n      0x04\n      add\n      tag_106\n      swap1\n      tag_91\n      jump\t// in\n    tag_106:\n      mload(0x40)\n      dup1\n      swap2\n      sub\n      swap1\n      revert\n    tag_105:\n        /* \"Voting Sytem.sol\":1987:2000  State.Created */\n      0x00\n        /* \"Voting Sytem.sol\":1370:1376  _state */\n      dup1\n        /* \"Voting Sytem.sol\":1361:1376  state == _state */\n      0x02\n      dup2\n      gt\n      iszero\n      tag_108\n      jumpi\n      tag_109\n      tag_59\n      jump\t// in\n    tag_109:\n    tag_108:\n        /* \"Voting Sytem.sol\":1361:1366  state */\n      0x03\n      0x00\n      swap1\n      sload\n      swap1\n      0x0100\n      exp\n      swap1\n      div\n      0xff\n      and\n        /* \"Voting Sytem.sol\":1361:1376  state == _state */\n      0x02\n      dup2\n      gt\n      iszero\n      tag_110\n      jumpi\n      tag_111\n      tag_59\n      jump\t// in\n    tag_111:\n    tag_110:\n      eq\n        /* \"Voting Sytem.sol\":1353:1410  require(state == _state, \"Invalid state for this action\") */\n      tag_112\n      jumpi\n      mload(0x40)\n      0x08c379a000000000000000000000000000000000000000000000000000000000\n      dup2\n      mstore\n      0x04\n      add\n      tag_113\n      swap1\n      tag_64\n      jump\t// in\n    tag_113:\n      mload(0x40)\n      dup1\n      swap2\n      sub\n      swap1\n      revert\n    tag_112:\n        /* \"Voting Sytem.sol\":2021:2033  State.Voting */\n      0x01\n        /* \"Voting Sytem.sol\":2013:2018  state */\n      0x03\n      0x00\n        /* \"Voting Sytem.sol\":2013:2033  state = State.Voting */\n      0x0100\n      exp\n      dup2\n      sload\n      dup2\n      0xff\n      mul\n      not\n      and\n      swap1\n      dup4\n      0x02\n      dup2\n      gt\n      iszero\n      tag_115\n      jumpi\n      tag_116\n      tag_59\n      jump\t// in\n    tag_116:\n    tag_115:\n      mul\n      or\n      swap1\n      sstore\n      pop\n        /* \"Voting Sytem.sol\":2049:2066  ElectionStarted() */\n      0xc475c26aa25ed8e85a7faa790e5f63b5d7ee1025f12821f4c9bfddd36ab4d112\n      mload(0x40)\n      mload(0x40)\n      dup1\n      swap2\n      sub\n      swap1\n      log1\n        /* \"Voting Sytem.sol\":1290:1291  _ */\n      pop\n        /* \"Voting Sytem.sol\":1935:2074  function startVote() public onlyChairperson inState(State.Created) {... */\n      jump\t// out\n        /* \"Voting Sytem.sol\":2637:2741  function getCurrentVotes() public view returns (Candidate[] memory) {... */\n    tag_35:\n        /* \"Voting Sytem.sol\":2685:2703  Candidate[] memory */\n      0x60\n        /* \"Voting Sytem.sol\":2723:2733  candidates */\n      0x02\n        /* \"Voting Sytem.sol\":2716:2733  return candidates */\n      dup1\n      sload\n      dup1\n      0x20\n      mul\n      0x20\n      add\n      mload(0x40)\n      swap1\n      dup2\n      add\n      0x40\n      mstore\n      dup1\n      swap3\n      swap2\n      swap1\n      dup2\n      dup2\n      mstore\n      0x20\n      add\n      0x00\n      swap1\n    tag_118:\n      dup3\n      dup3\n      lt\n      iszero\n      tag_119\n      jumpi\n      dup4\n      dup3\n      swap1\n      0x00\n      mstore\n      keccak256(0x00, 0x20)\n      swap1\n      0x02\n      mul\n      add\n      mload(0x40)\n      dup1\n      0x40\n      add\n      0x40\n      mstore\n      swap1\n      dup2\n      0x00\n      dup3\n      add\n      dup1\n      sload\n      tag_121\n      swap1\n      tag_83\n      jump\t// in\n    tag_121:\n      dup1\n      0x1f\n      add\n      0x20\n      dup1\n      swap2\n      div\n      mul\n      0x20\n      add\n      mload(0x40)\n      swap1\n      dup2\n      add\n      0x40\n      mstore\n      dup1\n      swap3\n      swap2\n      swap1\n      dup2\n      dup2\n      mstore\n      0x20\n      add\n      dup3\n      dup1\n      sload\n      tag_122\n      swap1\n      tag_83\n      jump\t// in\n    tag_122:\n      dup1\n      iszero\n      tag_123\n      jumpi\n      dup1\n      0x1f\n      lt\n      tag_124\n      jumpi\n      0x0100\n      dup1\n      dup4\n      sload\n      div\n      mul\n      dup4\n      mstore\n      swap2\n      0x20\n      add\n      swap2\n      jump(tag_123)\n    tag_124:\n      dup3\n      add\n      swap2\n      swap1\n      0x00\n      mstore\n      keccak256(0x00, 0x20)\n      swap1\n    tag_125:\n      dup2\n      sload\n      dup2\n      mstore\n      swap1\n      0x01\n      add\n      swap1\n      0x20\n      add\n      dup1\n      dup4\n      gt\n      tag_125\n      jumpi\n      dup3\n      swap1\n      sub\n      0x1f\n      and\n      dup3\n      add\n      swap2\n    tag_123:\n      pop\n      pop\n      pop\n      pop\n      pop\n      dup2\n      mstore\n      0x20\n      add\n      0x01\n      dup3\n      add\n      sload\n      dup2\n      mstore\n      pop\n      pop\n      dup2\n      mstore\n      0x20\n      add\n      swap1\n      0x01\n      add\n      swap1\n      jump(tag_118)\n    tag_119:\n      pop\n      pop\n      pop\n      pop\n      swap1\n      pop\n        /* \"Voting Sytem.sol\":2637:2741  function getCurrentVotes() public view returns (Candidate[] memory) {... */\n      swap1\n      jump\t// out\n        /* \"Voting Sytem.sol\":1489:1687  function registerAsVoter() public {... */\n    tag_39:\n        /* \"Voting Sytem.sol\":1571:1572  0 */\n      0x00\n        /* \"Voting Sytem.sol\":1542:1548  voters */\n      0x01\n        /* \"Voting Sytem.sol\":1542:1560  voters[msg.sender] */\n      0x00\n        /* \"Voting Sytem.sol\":1549:1559  msg.sender */\n      caller\n        /* \"Voting Sytem.sol\":1542:1560  voters[msg.sender] */\n      0xffffffffffffffffffffffffffffffffffffffff\n      and\n      0xffffffffffffffffffffffffffffffffffffffff\n      and\n      dup2\n      mstore\n      0x20\n      add\n      swap1\n      dup2\n      mstore\n      0x20\n      add\n      0x00\n      keccak256\n        /* \"Voting Sytem.sol\":1542:1567  voters[msg.sender].weight */\n      0x00\n      add\n      sload\n        /* \"Voting Sytem.sol\":1542:1572  voters[msg.sender].weight == 0 */\n      eq\n        /* \"Voting Sytem.sol\":1534:1596  require(voters[msg.sender].weight == 0, \"Already registered.\") */\n      tag_127\n      jumpi\n      mload(0x40)\n      0x08c379a000000000000000000000000000000000000000000000000000000000\n      dup2\n      mstore\n      0x04\n      add\n      tag_128\n      swap1\n      tag_129\n      jump\t// in\n    tag_128:\n      mload(0x40)\n      dup1\n      swap2\n      sub\n      swap1\n      revert\n    tag_127:\n        /* \"Voting Sytem.sol\":1635:1636  1 */\n      0x01\n        /* \"Voting Sytem.sol\":1607:1613  voters */\n      dup1\n        /* \"Voting Sytem.sol\":1607:1625  voters[msg.sender] */\n      0x00\n        /* \"Voting Sytem.sol\":1614:1624  msg.sender */\n      caller\n        /* \"Voting Sytem.sol\":1607:1625  voters[msg.sender] */\n      0xffffffffffffffffffffffffffffffffffffffff\n      and\n      0xffffffffffffffffffffffffffffffffffffffff\n      and\n      dup2\n      mstore\n      0x20\n      add\n      swap1\n      dup2\n      mstore\n      0x20\n      add\n      0x00\n      keccak256\n        /* \"Voting Sytem.sol\":1607:1632  voters[msg.sender].weight */\n      0x00\n      add\n        /* \"Voting Sytem.sol\":1607:1636  voters[msg.sender].weight = 1 */\n      dup2\n      swap1\n      sstore\n      pop\n        /* \"Voting Sytem.sol\":1652:1679  VoterRegistered(msg.sender) */\n      0xb6be2187d059cc2a55fe29e0e503b566e1e0f8c8780096e185429350acffd3dd\n        /* \"Voting Sytem.sol\":1668:1678  msg.sender */\n      caller\n        /* \"Voting Sytem.sol\":1652:1679  VoterRegistered(msg.sender) */\n      mload(0x40)\n      tag_130\n      swap2\n      swap1\n      tag_22\n      jump\t// in\n    tag_130:\n      mload(0x40)\n      dup1\n      swap2\n      sub\n      swap1\n      log1\n        /* \"Voting Sytem.sol\":1489:1687  function registerAsVoter() public {... */\n      jump\t// out\n        /* \"Voting Sytem.sol\":420:459  mapping(address => Voter) public voters */\n    tag_43:\n      mstore(0x20, 0x01)\n      dup1\n      0x00\n      mstore\n      keccak256(0x00, 0x40)\n      0x00\n      swap2\n      pop\n      swap1\n      pop\n      dup1\n      0x00\n      add\n      sload\n      swap1\n      dup1\n      0x01\n      add\n      0x00\n      swap1\n      sload\n      swap1\n      0x0100\n      exp\n      swap1\n      div\n      0xff\n      and\n      swap1\n      dup1\n      0x02\n      add\n      sload\n      swap1\n      pop\n      dup4\n      jump\t// out\n        /* \"Voting Sytem.sol\":2086:2219  function endVote() public onlyChairperson inState(State.Voting) {... */\n    tag_47:\n        /* \"Voting Sytem.sol\":1223:1234  chairperson */\n      0x00\n      dup1\n      sload\n      swap1\n      0x0100\n      exp\n      swap1\n      div\n      0xffffffffffffffffffffffffffffffffffffffff\n      and\n        /* \"Voting Sytem.sol\":1209:1234  msg.sender == chairperson */\n      0xffffffffffffffffffffffffffffffffffffffff\n      and\n        /* \"Voting Sytem.sol\":1209:1219  msg.sender */\n      caller\n        /* \"Voting Sytem.sol\":1209:1234  msg.sender == chairperson */\n      0xffffffffffffffffffffffffffffffffffffffff\n      and\n      eq\n        /* \"Voting Sytem.sol\":1201:1279  require(msg.sender == chairperson, \"Only chairperson can perform this action\") */\n      tag_132\n      jumpi\n      mload(0x40)\n      0x08c379a000000000000000000000000000000000000000000000000000000000\n      dup2\n      mstore\n      0x04\n      add\n      tag_133\n      swap1\n      tag_91\n      jump\t// in\n    tag_133:\n      mload(0x40)\n      dup1\n      swap2\n      sub\n      swap1\n      revert\n    tag_132:\n        /* \"Voting Sytem.sol\":2136:2148  State.Voting */\n      0x01\n        /* \"Voting Sytem.sol\":1370:1376  _state */\n      dup1\n        /* \"Voting Sytem.sol\":1361:1376  state == _state */\n      0x02\n      dup2\n      gt\n      iszero\n      tag_135\n      jumpi\n      tag_136\n      tag_59\n      jump\t// in\n    tag_136:\n    tag_135:\n        /* \"Voting Sytem.sol\":1361:1366  state */\n      0x03\n      0x00\n      swap1\n      sload\n      swap1\n      0x0100\n      exp\n      swap1\n      div\n      0xff\n      and\n        /* \"Voting Sytem.sol\":1361:1376  state == _state */\n      0x02\n      dup2\n      gt\n      iszero\n      tag_137\n      jumpi\n      tag_138\n      tag_59\n      jump\t// in\n    tag_138:\n    tag_137:\n      eq\n        /* \"Voting Sytem.sol\":1353:1410  require(state == _state, \"Invalid state for this action\") */\n      tag_139\n      jumpi\n      mload(0x40)\n      0x08c379a000000000000000000000000000000000000000000000000000000000\n      dup2\n      mstore\n      0x04\n      add\n      tag_140\n      swap1\n      tag_64\n      jump\t// in\n    tag_140:\n      mload(0x40)\n      dup1\n      swap2\n      sub\n      swap1\n      revert\n    tag_139:\n        /* \"Voting Sytem.sol\":2169:2180  State.Ended */\n      0x02\n        /* \"Voting Sytem.sol\":2161:2166  state */\n      0x03\n      0x00\n        /* \"Voting Sytem.sol\":2161:2180  state = State.Ended */\n      0x0100\n      exp\n      dup2\n      sload\n      dup2\n      0xff\n      mul\n      not\n      and\n      swap1\n      dup4\n      0x02\n      dup2\n      gt\n      iszero\n      tag_142\n      jumpi\n      tag_143\n      tag_59\n      jump\t// in\n    tag_143:\n    tag_142:\n      mul\n      or\n      swap1\n      sstore\n      pop\n        /* \"Voting Sytem.sol\":2196:2211  ElectionEnded() */\n      0x66ec723071e4bb646f7b35d31bc2dee8510979bd8c180edd0690d4f5e802f1e4\n      mload(0x40)\n      mload(0x40)\n      dup1\n      swap2\n      sub\n      swap1\n      log1\n        /* \"Voting Sytem.sol\":1290:1291  _ */\n      pop\n        /* \"Voting Sytem.sol\":2086:2219  function endVote() public onlyChairperson inState(State.Voting) {... */\n      jump\t// out\n        /* \"Voting Sytem.sol\":551:569  State public state */\n    tag_49:\n      0x03\n      0x00\n      swap1\n      sload\n      swap1\n      0x0100\n      exp\n      swap1\n      div\n      0xff\n      and\n      dup2\n      jump\t// out\n        /* \"Voting Sytem.sol\":2753:3151  function winningCandidate() public view inState(State.Ended) returns (string memory winnerName_) {... */\n    tag_53:\n        /* \"Voting Sytem.sol\":2823:2848  string memory winnerName_ */\n      0x60\n        /* \"Voting Sytem.sol\":2801:2812  State.Ended */\n      0x02\n        /* \"Voting Sytem.sol\":1370:1376  _state */\n      dup1\n        /* \"Voting Sytem.sol\":1361:1376  state == _state */\n      0x02\n      dup2\n      gt\n      iszero\n      tag_145\n      jumpi\n      tag_146\n      tag_59\n      jump\t// in\n    tag_146:\n    tag_145:\n        /* \"Voting Sytem.sol\":1361:1366  state */\n      0x03\n      0x00\n      swap1\n      sload\n      swap1\n      0x0100\n      exp\n      swap1\n      div\n      0xff\n      and\n        /* \"Voting Sytem.sol\":1361:1376  state == _state */\n      0x02\n      dup2\n      gt\n      iszero\n      tag_147\n      jumpi\n      tag_148\n      tag_59\n      jump\t// in\n    tag_148:\n    tag_147:\n      eq\n        /* \"Voting Sytem.sol\":1353:1410  require(state == _state, \"Invalid state for this action\") */\n      tag_149\n      jumpi\n      mload(0x40)\n      0x08c379a000000000000000000000000000000000000000000000000000000000\n      dup2\n      mstore\n      0x04\n      add\n      tag_150\n      swap1\n      tag_64\n      jump\t// in\n    tag_150:\n      mload(0x40)\n      dup1\n      swap2\n      sub\n      swap1\n      revert\n    tag_149:\n        /* \"Voting Sytem.sol\":2861:2882  uint winningVoteCount */\n      0x00\n        /* \"Voting Sytem.sol\":2902:2908  uint i */\n      dup1\n        /* \"Voting Sytem.sol\":2897:3144  for (uint i = 0; i < candidates.length; i++) {... */\n    tag_152:\n        /* \"Voting Sytem.sol\":2918:2928  candidates */\n      0x02\n        /* \"Voting Sytem.sol\":2918:2935  candidates.length */\n      dup1\n      sload\n      swap1\n      pop\n        /* \"Voting Sytem.sol\":2914:2915  i */\n      dup2\n        /* \"Voting Sytem.sol\":2914:2935  i < candidates.length */\n      lt\n        /* \"Voting Sytem.sol\":2897:3144  for (uint i = 0; i < candidates.length; i++) {... */\n      iszero\n      tag_153\n      jumpi\n        /* \"Voting Sytem.sol\":2987:3003  winningVoteCount */\n      dup2\n        /* \"Voting Sytem.sol\":2961:2971  candidates */\n      0x02\n        /* \"Voting Sytem.sol\":2972:2973  i */\n      dup3\n        /* \"Voting Sytem.sol\":2961:2974  candidates[i] */\n      dup2\n      sload\n      dup2\n      lt\n      tag_155\n      jumpi\n      tag_156\n      tag_74\n      jump\t// in\n    tag_156:\n    tag_155:\n      swap1\n      0x00\n      mstore\n      keccak256(0x00, 0x20)\n      swap1\n      0x02\n      mul\n      add\n        /* \"Voting Sytem.sol\":2961:2984  candidates[i].voteCount */\n      0x01\n      add\n      sload\n        /* \"Voting Sytem.sol\":2961:3003  candidates[i].voteCount > winningVoteCount */\n      gt\n        /* \"Voting Sytem.sol\":2957:3133  if (candidates[i].voteCount > winningVoteCount) {... */\n      iszero\n      tag_158\n      jumpi\n        /* \"Voting Sytem.sol\":3043:3053  candidates */\n      0x02\n        /* \"Voting Sytem.sol\":3054:3055  i */\n      dup2\n        /* \"Voting Sytem.sol\":3043:3056  candidates[i] */\n      dup2\n      sload\n      dup2\n      lt\n      tag_159\n      jumpi\n      tag_160\n      tag_74\n      jump\t// in\n    tag_160:\n    tag_159:\n      swap1\n      0x00\n      mstore\n      keccak256(0x00, 0x20)\n      swap1\n      0x02\n      mul\n      add\n        /* \"Voting Sytem.sol\":3043:3066  candidates[i].voteCount */\n      0x01\n      add\n      sload\n        /* \"Voting Sytem.sol\":3024:3066  winningVoteCount = candidates[i].voteCount */\n      swap2\n      pop\n        /* \"Voting Sytem.sol\":3099:3109  candidates */\n      0x02\n        /* \"Voting Sytem.sol\":3110:3111  i */\n      dup2\n        /* \"Voting Sytem.sol\":3099:3112  candidates[i] */\n      dup2\n      sload\n      dup2\n      lt\n      tag_162\n      jumpi\n      tag_163\n      tag_74\n      jump\t// in\n    tag_163:\n    tag_162:\n      swap1\n      0x00\n      mstore\n      keccak256(0x00, 0x20)\n      swap1\n      0x02\n      mul\n      add\n        /* \"Voting Sytem.sol\":3099:3117  candidates[i].name */\n      0x00\n      add\n        /* \"Voting Sytem.sol\":3085:3117  winnerName_ = candidates[i].name */\n      dup1\n      sload\n      tag_165\n      swap1\n      tag_83\n      jump\t// in\n    tag_165:\n      dup1\n      0x1f\n      add\n      0x20\n      dup1\n      swap2\n      div\n      mul\n      0x20\n      add\n      mload(0x40)\n      swap1\n      dup2\n      add\n      0x40\n      mstore\n      dup1\n      swap3\n      swap2\n      swap1\n      dup2\n      dup2\n      mstore\n      0x20\n      add\n      dup3\n      dup1\n      sload\n      tag_166\n      swap1\n      tag_83\n      jump\t// in\n    tag_166:\n      dup1\n      iszero\n      tag_167\n      jumpi\n      dup1\n      0x1f\n      lt\n      tag_168\n      jumpi\n      0x0100\n      dup1\n      dup4\n      sload\n      div\n      mul\n      dup4\n      mstore\n      swap2\n      0x20\n      add\n      swap2\n      jump(tag_167)\n    tag_168:\n      dup3\n      add\n      swap2\n      swap1\n      0x00\n      mstore\n      keccak256(0x00, 0x20)\n      swap1\n    tag_169:\n      dup2\n      sload\n      dup2\n      mstore\n      swap1\n      0x01\n      add\n      swap1\n      0x20\n      add\n      dup1\n      dup4\n      gt\n      tag_169\n      jumpi\n      dup3\n      swap1\n      sub\n      0x1f\n      and\n      dup3\n      add\n      swap2\n    tag_167:\n      pop\n      pop\n      pop\n      pop\n      pop\n      swap4\n      pop\n        /* \"Voting Sytem.sol\":2957:3133  if (candidates[i].voteCount > winningVoteCount) {... */\n    tag_158:\n        /* \"Voting Sytem.sol\":2937:2940  i++ */\n      dup1\n      dup1\n      0x01\n      add\n      swap2\n      pop\n      pop\n        /* \"Voting Sytem.sol\":2897:3144  for (uint i = 0; i < candidates.length; i++) {... */\n      jump(tag_152)\n    tag_153:\n      pop\n        /* \"Voting Sytem.sol\":2850:3151  {... */\n      pop\n        /* \"Voting Sytem.sol\":2753:3151  function winningCandidate() public view inState(State.Ended) returns (string memory winnerName_) {... */\n      pop\n      swap1\n      jump\t// out\n        /* \"#utility.yul\":7:82   */\n    tag_170:\n        /* \"#utility.yul\":40:46   */\n      0x00\n        /* \"#utility.yul\":73:75   */\n      0x40\n        /* \"#utility.yul\":67:76   */\n      mload\n        /* \"#utility.yul\":57:76   */\n      swap1\n      pop\n        /* \"#utility.yul\":7:82   */\n      swap1\n      jump\t// out\n        /* \"#utility.yul\":88:205   */\n    tag_171:\n        /* \"#utility.yul\":197:198   */\n      0x00\n        /* \"#utility.yul\":194:195   */\n      dup1\n        /* \"#utility.yul\":187:199   */\n      revert\n        /* \"#utility.yul\":211:328   */\n    tag_172:\n        /* \"#utility.yul\":320:321   */\n      0x00\n        /* \"#utility.yul\":317:318   */\n      dup1\n        /* \"#utility.yul\":310:322   */\n      revert\n        /* \"#utility.yul\":334:411   */\n    tag_173:\n        /* \"#utility.yul\":371:378   */\n      0x00\n        /* \"#utility.yul\":400:405   */\n      dup2\n        /* \"#utility.yul\":389:405   */\n      swap1\n      pop\n        /* \"#utility.yul\":334:411   */\n      swap2\n      swap1\n      pop\n      jump\t// out\n        /* \"#utility.yul\":417:539   */\n    tag_174:\n        /* \"#utility.yul\":490:514   */\n      tag_245\n        /* \"#utility.yul\":508:513   */\n      dup2\n        /* \"#utility.yul\":490:514   */\n      tag_173\n      jump\t// in\n    tag_245:\n        /* \"#utility.yul\":483:488   */\n      dup2\n        /* \"#utility.yul\":480:515   */\n      eq\n        /* \"#utility.yul\":470:533   */\n      tag_246\n      jumpi\n        /* \"#utility.yul\":529:530   */\n      0x00\n        /* \"#utility.yul\":526:527   */\n      dup1\n        /* \"#utility.yul\":519:531   */\n      revert\n        /* \"#utility.yul\":470:533   */\n    tag_246:\n        /* \"#utility.yul\":417:539   */\n      pop\n      jump\t// out\n        /* \"#utility.yul\":545:684   */\n    tag_175:\n        /* \"#utility.yul\":591:596   */\n      0x00\n        /* \"#utility.yul\":629:635   */\n      dup2\n        /* \"#utility.yul\":616:636   */\n      calldataload\n        /* \"#utility.yul\":607:636   */\n      swap1\n      pop\n        /* \"#utility.yul\":645:678   */\n      tag_248\n        /* \"#utility.yul\":672:677   */\n      dup2\n        /* \"#utility.yul\":645:678   */\n      tag_174\n      jump\t// in\n    tag_248:\n        /* \"#utility.yul\":545:684   */\n      swap3\n      swap2\n      pop\n      pop\n      jump\t// out\n        /* \"#utility.yul\":690:1019   */\n    tag_17:\n        /* \"#utility.yul\":749:755   */\n      0x00\n        /* \"#utility.yul\":798:800   */\n      0x20\n        /* \"#utility.yul\":786:795   */\n      dup3\n        /* \"#utility.yul\":777:784   */\n      dup5\n        /* \"#utility.yul\":773:796   */\n      sub\n        /* \"#utility.yul\":769:801   */\n      slt\n        /* \"#utility.yul\":766:885   */\n      iszero\n      tag_250\n      jumpi\n        /* \"#utility.yul\":804:883   */\n      tag_251\n      tag_171\n      jump\t// in\n    tag_251:\n        /* \"#utility.yul\":766:885   */\n    tag_250:\n        /* \"#utility.yul\":924:925   */\n      0x00\n        /* \"#utility.yul\":949:1002   */\n      tag_252\n        /* \"#utility.yul\":994:1001   */\n      dup5\n        /* \"#utility.yul\":985:991   */\n      dup3\n        /* \"#utility.yul\":974:983   */\n      dup6\n        /* \"#utility.yul\":970:992   */\n      add\n        /* \"#utility.yul\":949:1002   */\n      tag_175\n      jump\t// in\n    tag_252:\n        /* \"#utility.yul\":939:1002   */\n      swap2\n      pop\n        /* \"#utility.yul\":895:1012   */\n      pop\n        /* \"#utility.yul\":690:1019   */\n      swap3\n      swap2\n      pop\n      pop\n      jump\t// out\n        /* \"#utility.yul\":1025:1151   */\n    tag_176:\n        /* \"#utility.yul\":1062:1069   */\n      0x00\n        /* \"#utility.yul\":1102:1144   */\n      0xffffffffffffffffffffffffffffffffffffffff\n        /* \"#utility.yul\":1095:1100   */\n      dup3\n        /* \"#utility.yul\":1091:1145   */\n      and\n        /* \"#utility.yul\":1080:1145   */\n      swap1\n      pop\n        /* \"#utility.yul\":1025:1151   */\n      swap2\n      swap1\n      pop\n      jump\t// out\n        /* \"#utility.yul\":1157:1253   */\n    tag_177:\n        /* \"#utility.yul\":1194:1201   */\n      0x00\n        /* \"#utility.yul\":1223:1247   */\n      tag_255\n        /* \"#utility.yul\":1241:1246   */\n      dup3\n        /* \"#utility.yul\":1223:1247   */\n      tag_176\n      jump\t// in\n    tag_255:\n        /* \"#utility.yul\":1212:1247   */\n      swap1\n      pop\n        /* \"#utility.yul\":1157:1253   */\n      swap2\n      swap1\n      pop\n      jump\t// out\n        /* \"#utility.yul\":1259:1377   */\n    tag_178:\n        /* \"#utility.yul\":1346:1370   */\n      tag_257\n        /* \"#utility.yul\":1364:1369   */\n      dup2\n        /* \"#utility.yul\":1346:1370   */\n      tag_177\n      jump\t// in\n    tag_257:\n        /* \"#utility.yul\":1341:1344   */\n      dup3\n        /* \"#utility.yul\":1334:1371   */\n      mstore\n        /* \"#utility.yul\":1259:1377   */\n      pop\n      pop\n      jump\t// out\n        /* \"#utility.yul\":1383:1605   */\n    tag_22:\n        /* \"#utility.yul\":1476:1480   */\n      0x00\n        /* \"#utility.yul\":1514:1516   */\n      0x20\n        /* \"#utility.yul\":1503:1512   */\n      dup3\n        /* \"#utility.yul\":1499:1517   */\n      add\n        /* \"#utility.yul\":1491:1517   */\n      swap1\n      pop\n        /* \"#utility.yul\":1527:1598   */\n      tag_259\n        /* \"#utility.yul\":1595:1596   */\n      0x00\n        /* \"#utility.yul\":1584:1593   */\n      dup4\n        /* \"#utility.yul\":1580:1597   */\n      add\n        /* \"#utility.yul\":1571:1577   */\n      dup5\n        /* \"#utility.yul\":1527:1598   */\n      tag_178\n      jump\t// in\n    tag_259:\n        /* \"#utility.yul\":1383:1605   */\n      swap3\n      swap2\n      pop\n      pop\n      jump\t// out\n        /* \"#utility.yul\":1611:1710   */\n    tag_179:\n        /* \"#utility.yul\":1663:1669   */\n      0x00\n        /* \"#utility.yul\":1697:1702   */\n      dup2\n        /* \"#utility.yul\":1691:1703   */\n      mload\n        /* \"#utility.yul\":1681:1703   */\n      swap1\n      pop\n        /* \"#utility.yul\":1611:1710   */\n      swap2\n      swap1\n      pop\n      jump\t// out\n        /* \"#utility.yul\":1716:1885   */\n    tag_180:\n        /* \"#utility.yul\":1800:1811   */\n      0x00\n        /* \"#utility.yul\":1834:1840   */\n      dup3\n        /* \"#utility.yul\":1829:1832   */\n      dup3\n        /* \"#utility.yul\":1822:1841   */\n      mstore\n        /* \"#utility.yul\":1874:1878   */\n      0x20\n        /* \"#utility.yul\":1869:1872   */\n      dup3\n        /* \"#utility.yul\":1865:1879   */\n      add\n        /* \"#utility.yul\":1850:1879   */\n      swap1\n      pop\n        /* \"#utility.yul\":1716:1885   */\n      swap3\n      swap2\n      pop\n      pop\n      jump\t// out\n        /* \"#utility.yul\":1891:2030   */\n    tag_181:\n        /* \"#utility.yul\":1980:1986   */\n      dup3\n        /* \"#utility.yul\":1975:1978   */\n      dup2\n        /* \"#utility.yul\":1970:1973   */\n      dup4\n        /* \"#utility.yul\":1964:1987   */\n      mcopy\n        /* \"#utility.yul\":2021:2022   */\n      0x00\n        /* \"#utility.yul\":2012:2018   */\n      dup4\n        /* \"#utility.yul\":2007:2010   */\n      dup4\n        /* \"#utility.yul\":2003:2019   */\n      add\n        /* \"#utility.yul\":1996:2023   */\n      mstore\n        /* \"#utility.yul\":1891:2030   */\n      pop\n      pop\n      pop\n      jump\t// out\n        /* \"#utility.yul\":2036:2138   */\n    tag_182:\n        /* \"#utility.yul\":2077:2083   */\n      0x00\n        /* \"#utility.yul\":2128:2130   */\n      0x1f\n        /* \"#utility.yul\":2124:2131   */\n      not\n        /* \"#utility.yul\":2119:2121   */\n      0x1f\n        /* \"#utility.yul\":2112:2117   */\n      dup4\n        /* \"#utility.yul\":2108:2122   */\n      add\n        /* \"#utility.yul\":2104:2132   */\n      and\n        /* \"#utility.yul\":2094:2132   */\n      swap1\n      pop\n        /* \"#utility.yul\":2036:2138   */\n      swap2\n      swap1\n      pop\n      jump\t// out\n        /* \"#utility.yul\":2144:2521   */\n    tag_183:\n        /* \"#utility.yul\":2232:2235   */\n      0x00\n        /* \"#utility.yul\":2260:2299   */\n      tag_265\n        /* \"#utility.yul\":2293:2298   */\n      dup3\n        /* \"#utility.yul\":2260:2299   */\n      tag_179\n      jump\t// in\n    tag_265:\n        /* \"#utility.yul\":2315:2386   */\n      tag_266\n        /* \"#utility.yul\":2379:2385   */\n      dup2\n        /* \"#utility.yul\":2374:2377   */\n      dup6\n        /* \"#utility.yul\":2315:2386   */\n      tag_180\n      jump\t// in\n    tag_266:\n        /* \"#utility.yul\":2308:2386   */\n      swap4\n      pop\n        /* \"#utility.yul\":2395:2460   */\n      tag_267\n        /* \"#utility.yul\":2453:2459   */\n      dup2\n        /* \"#utility.yul\":2448:2451   */\n      dup6\n        /* \"#utility.yul\":2441:2445   */\n      0x20\n        /* \"#utility.yul\":2434:2439   */\n      dup7\n        /* \"#utility.yul\":2430:2446   */\n      add\n        /* \"#utility.yul\":2395:2460   */\n      tag_181\n      jump\t// in\n    tag_267:\n        /* \"#utility.yul\":2485:2514   */\n      tag_268\n        /* \"#utility.yul\":2507:2513   */\n      dup2\n        /* \"#utility.yul\":2485:2514   */\n      tag_182\n      jump\t// in\n    tag_268:\n        /* \"#utility.yul\":2480:2483   */\n      dup5\n        /* \"#utility.yul\":2476:2515   */\n      add\n        /* \"#utility.yul\":2469:2515   */\n      swap2\n      pop\n        /* \"#utility.yul\":2236:2521   */\n      pop\n        /* \"#utility.yul\":2144:2521   */\n      swap3\n      swap2\n      pop\n      pop\n      jump\t// out\n        /* \"#utility.yul\":2527:2645   */\n    tag_184:\n        /* \"#utility.yul\":2614:2638   */\n      tag_270\n        /* \"#utility.yul\":2632:2637   */\n      dup2\n        /* \"#utility.yul\":2614:2638   */\n      tag_173\n      jump\t// in\n    tag_270:\n        /* \"#utility.yul\":2609:2612   */\n      dup3\n        /* \"#utility.yul\":2602:2639   */\n      mstore\n        /* \"#utility.yul\":2527:2645   */\n      pop\n      pop\n      jump\t// out\n        /* \"#utility.yul\":2651:3074   */\n    tag_27:\n        /* \"#utility.yul\":2792:2796   */\n      0x00\n        /* \"#utility.yul\":2830:2832   */\n      0x40\n        /* \"#utility.yul\":2819:2828   */\n      dup3\n        /* \"#utility.yul\":2815:2833   */\n      add\n        /* \"#utility.yul\":2807:2833   */\n      swap1\n      pop\n        /* \"#utility.yul\":2879:2888   */\n      dup2\n        /* \"#utility.yul\":2873:2877   */\n      dup2\n        /* \"#utility.yul\":2869:2889   */\n      sub\n        /* \"#utility.yul\":2865:2866   */\n      0x00\n        /* \"#utility.yul\":2854:2863   */\n      dup4\n        /* \"#utility.yul\":2850:2867   */\n      add\n        /* \"#utility.yul\":2843:2890   */\n      mstore\n        /* \"#utility.yul\":2907:2985   */\n      tag_272\n        /* \"#utility.yul\":2980:2984   */\n      dup2\n        /* \"#utility.yul\":2971:2977   */\n      dup6\n        /* \"#utility.yul\":2907:2985   */\n      tag_183\n      jump\t// in\n    tag_272:\n        /* \"#utility.yul\":2899:2985   */\n      swap1\n      pop\n        /* \"#utility.yul\":2995:3067   */\n      tag_273\n        /* \"#utility.yul\":3063:3065   */\n      0x20\n        /* \"#utility.yul\":3052:3061   */\n      dup4\n        /* \"#utility.yul\":3048:3066   */\n      add\n        /* \"#utility.yul\":3039:3045   */\n      dup5\n        /* \"#utility.yul\":2995:3067   */\n      tag_184\n      jump\t// in\n    tag_273:\n        /* \"#utility.yul\":2651:3074   */\n      swap4\n      swap3\n      pop\n      pop\n      pop\n      jump\t// out\n        /* \"#utility.yul\":3080:3197   */\n    tag_185:\n        /* \"#utility.yul\":3189:3190   */\n      0x00\n        /* \"#utility.yul\":3186:3187   */\n      dup1\n        /* \"#utility.yul\":3179:3191   */\n      revert\n        /* \"#utility.yul\":3203:3320   */\n    tag_186:\n        /* \"#utility.yul\":3312:3313   */\n      0x00\n        /* \"#utility.yul\":3309:3310   */\n      dup1\n        /* \"#utility.yul\":3302:3314   */\n      revert\n        /* \"#utility.yul\":3326:3506   */\n    tag_187:\n        /* \"#utility.yul\":3374:3451   */\n      0x4e487b7100000000000000000000000000000000000000000000000000000000\n        /* \"#utility.yul\":3371:3372   */\n      0x00\n        /* \"#utility.yul\":3364:3452   */\n      mstore\n        /* \"#utility.yul\":3471:3475   */\n      0x41\n        /* \"#utility.yul\":3468:3469   */\n      0x04\n        /* \"#utility.yul\":3461:3476   */\n      mstore\n        /* \"#utility.yul\":3495:3499   */\n      0x24\n        /* \"#utility.yul\":3492:3493   */\n      0x00\n        /* \"#utility.yul\":3485:3500   */\n      revert\n        /* \"#utility.yul\":3512:3793   */\n    tag_188:\n        /* \"#utility.yul\":3595:3622   */\n      tag_278\n        /* \"#utility.yul\":3617:3621   */\n      dup3\n        /* \"#utility.yul\":3595:3622   */\n      tag_182\n      jump\t// in\n    tag_278:\n        /* \"#utility.yul\":3587:3593   */\n      dup2\n        /* \"#utility.yul\":3583:3623   */\n      add\n        /* \"#utility.yul\":3725:3731   */\n      dup2\n        /* \"#utility.yul\":3713:3723   */\n      dup2\n        /* \"#utility.yul\":3710:3732   */\n      lt\n        /* \"#utility.yul\":3689:3707   */\n      0xffffffffffffffff\n        /* \"#utility.yul\":3677:3687   */\n      dup3\n        /* \"#utility.yul\":3674:3708   */\n      gt\n        /* \"#utility.yul\":3671:3733   */\n      or\n        /* \"#utility.yul\":3668:3756   */\n      iszero\n      tag_279\n      jumpi\n        /* \"#utility.yul\":3736:3754   */\n      tag_280\n      tag_187\n      jump\t// in\n    tag_280:\n        /* \"#utility.yul\":3668:3756   */\n    tag_279:\n        /* \"#utility.yul\":3776:3786   */\n      dup1\n        /* \"#utility.yul\":3772:3774   */\n      0x40\n        /* \"#utility.yul\":3765:3787   */\n      mstore\n        /* \"#utility.yul\":3555:3793   */\n      pop\n        /* \"#utility.yul\":3512:3793   */\n      pop\n      pop\n      jump\t// out\n        /* \"#utility.yul\":3799:3928   */\n    tag_189:\n        /* \"#utility.yul\":3833:3839   */\n      0x00\n        /* \"#utility.yul\":3860:3880   */\n      tag_282\n      tag_170\n      jump\t// in\n    tag_282:\n        /* \"#utility.yul\":3850:3880   */\n      swap1\n      pop\n        /* \"#utility.yul\":3889:3922   */\n      tag_283\n        /* \"#utility.yul\":3917:3921   */\n      dup3\n        /* \"#utility.yul\":3909:3915   */\n      dup3\n        /* \"#utility.yul\":3889:3922   */\n      tag_188\n      jump\t// in\n    tag_283:\n        /* \"#utility.yul\":3799:3928   */\n      swap2\n      swap1\n      pop\n      jump\t// out\n        /* \"#utility.yul\":3934:4242   */\n    tag_190:\n        /* \"#utility.yul\":3996:4000   */\n      0x00\n        /* \"#utility.yul\":4086:4104   */\n      0xffffffffffffffff\n        /* \"#utility.yul\":4078:4084   */\n      dup3\n        /* \"#utility.yul\":4075:4105   */\n      gt\n        /* \"#utility.yul\":4072:4128   */\n      iszero\n      tag_285\n      jumpi\n        /* \"#utility.yul\":4108:4126   */\n      tag_286\n      tag_187\n      jump\t// in\n    tag_286:\n        /* \"#utility.yul\":4072:4128   */\n    tag_285:\n        /* \"#utility.yul\":4146:4175   */\n      tag_287\n        /* \"#utility.yul\":4168:4174   */\n      dup3\n        /* \"#utility.yul\":4146:4175   */\n      tag_182\n      jump\t// in\n    tag_287:\n        /* \"#utility.yul\":4138:4175   */\n      swap1\n      pop\n        /* \"#utility.yul\":4230:4234   */\n      0x20\n        /* \"#utility.yul\":4224:4228   */\n      dup2\n        /* \"#utility.yul\":4220:4235   */\n      add\n        /* \"#utility.yul\":4212:4235   */\n      swap1\n      pop\n        /* \"#utility.yul\":3934:4242   */\n      swap2\n      swap1\n      pop\n      jump\t// out\n        /* \"#utility.yul\":4248:4396   */\n    tag_191:\n        /* \"#utility.yul\":4346:4352   */\n      dup3\n        /* \"#utility.yul\":4341:4344   */\n      dup2\n        /* \"#utility.yul\":4336:4339   */\n      dup4\n        /* \"#utility.yul\":4323:4353   */\n      calldatacopy\n        /* \"#utility.yul\":4387:4388   */\n      0x00\n        /* \"#utility.yul\":4378:4384   */\n      dup4\n        /* \"#utility.yul\":4373:4376   */\n      dup4\n        /* \"#utility.yul\":4369:4385   */\n      add\n        /* \"#utility.yul\":4362:4389   */\n      mstore\n        /* \"#utility.yul\":4248:4396   */\n      pop\n      pop\n      pop\n      jump\t// out\n        /* \"#utility.yul\":4402:4827   */\n    tag_192:\n        /* \"#utility.yul\":4480:4485   */\n      0x00\n        /* \"#utility.yul\":4505:4571   */\n      tag_290\n        /* \"#utility.yul\":4521:4570   */\n      tag_291\n        /* \"#utility.yul\":4563:4569   */\n      dup5\n        /* \"#utility.yul\":4521:4570   */\n      tag_190\n      jump\t// in\n    tag_291:\n        /* \"#utility.yul\":4505:4571   */\n      tag_189\n      jump\t// in\n    tag_290:\n        /* \"#utility.yul\":4496:4571   */\n      swap1\n      pop\n        /* \"#utility.yul\":4594:4600   */\n      dup3\n        /* \"#utility.yul\":4587:4592   */\n      dup2\n        /* \"#utility.yul\":4580:4601   */\n      mstore\n        /* \"#utility.yul\":4632:4636   */\n      0x20\n        /* \"#utility.yul\":4625:4630   */\n      dup2\n        /* \"#utility.yul\":4621:4637   */\n      add\n        /* \"#utility.yul\":4670:4673   */\n      dup5\n        /* \"#utility.yul\":4661:4667   */\n      dup5\n        /* \"#utility.yul\":4656:4659   */\n      dup5\n        /* \"#utility.yul\":4652:4668   */\n      add\n        /* \"#utility.yul\":4649:4674   */\n      gt\n        /* \"#utility.yul\":4646:4758   */\n      iszero\n      tag_292\n      jumpi\n        /* \"#utility.yul\":4677:4756   */\n      tag_293\n      tag_186\n      jump\t// in\n    tag_293:\n        /* \"#utility.yul\":4646:4758   */\n    tag_292:\n        /* \"#utility.yul\":4767:4821   */\n      tag_294\n        /* \"#utility.yul\":4814:4820   */\n      dup5\n        /* \"#utility.yul\":4809:4812   */\n      dup3\n        /* \"#utility.yul\":4804:4807   */\n      dup6\n        /* \"#utility.yul\":4767:4821   */\n      tag_191\n      jump\t// in\n    tag_294:\n        /* \"#utility.yul\":4486:4827   */\n      pop\n        /* \"#utility.yul\":4402:4827   */\n      swap4\n      swap3\n      pop\n      pop\n      pop\n      jump\t// out\n        /* \"#utility.yul\":4847:5187   */\n    tag_193:\n        /* \"#utility.yul\":4903:4908   */\n      0x00\n        /* \"#utility.yul\":4952:4955   */\n      dup3\n        /* \"#utility.yul\":4945:4949   */\n      0x1f\n        /* \"#utility.yul\":4937:4943   */\n      dup4\n        /* \"#utility.yul\":4933:4950   */\n      add\n        /* \"#utility.yul\":4929:4956   */\n      slt\n        /* \"#utility.yul\":4919:5041   */\n      tag_296\n      jumpi\n        /* \"#utility.yul\":4960:5039   */\n      tag_297\n      tag_185\n      jump\t// in\n    tag_297:\n        /* \"#utility.yul\":4919:5041   */\n    tag_296:\n        /* \"#utility.yul\":5077:5083   */\n      dup2\n        /* \"#utility.yul\":5064:5084   */\n      calldataload\n        /* \"#utility.yul\":5102:5181   */\n      tag_298\n        /* \"#utility.yul\":5177:5180   */\n      dup5\n        /* \"#utility.yul\":5169:5175   */\n      dup3\n        /* \"#utility.yul\":5162:5166   */\n      0x20\n        /* \"#utility.yul\":5154:5160   */\n      dup7\n        /* \"#utility.yul\":5150:5167   */\n      add\n        /* \"#utility.yul\":5102:5181   */\n      tag_192\n      jump\t// in\n    tag_298:\n        /* \"#utility.yul\":5093:5181   */\n      swap2\n      pop\n        /* \"#utility.yul\":4909:5187   */\n      pop\n        /* \"#utility.yul\":4847:5187   */\n      swap3\n      swap2\n      pop\n      pop\n      jump\t// out\n        /* \"#utility.yul\":5193:5702   */\n    tag_30:\n        /* \"#utility.yul\":5262:5268   */\n      0x00\n        /* \"#utility.yul\":5311:5313   */\n      0x20\n        /* \"#utility.yul\":5299:5308   */\n      dup3\n        /* \"#utility.yul\":5290:5297   */\n      dup5\n        /* \"#utility.yul\":5286:5309   */\n      sub\n        /* \"#utility.yul\":5282:5314   */\n      slt\n        /* \"#utility.yul\":5279:5398   */\n      iszero\n      tag_300\n      jumpi\n        /* \"#utility.yul\":5317:5396   */\n      tag_301\n      tag_171\n      jump\t// in\n    tag_301:\n        /* \"#utility.yul\":5279:5398   */\n    tag_300:\n        /* \"#utility.yul\":5465:5466   */\n      0x00\n        /* \"#utility.yul\":5454:5463   */\n      dup3\n        /* \"#utility.yul\":5450:5467   */\n      add\n        /* \"#utility.yul\":5437:5468   */\n      calldataload\n        /* \"#utility.yul\":5495:5513   */\n      0xffffffffffffffff\n        /* \"#utility.yul\":5487:5493   */\n      dup2\n        /* \"#utility.yul\":5484:5514   */\n      gt\n        /* \"#utility.yul\":5481:5598   */\n      iszero\n      tag_302\n      jumpi\n        /* \"#utility.yul\":5517:5596   */\n      tag_303\n      tag_172\n      jump\t// in\n    tag_303:\n        /* \"#utility.yul\":5481:5598   */\n    tag_302:\n        /* \"#utility.yul\":5622:5685   */\n      tag_304\n        /* \"#utility.yul\":5677:5684   */\n      dup5\n        /* \"#utility.yul\":5668:5674   */\n      dup3\n        /* \"#utility.yul\":5657:5666   */\n      dup6\n        /* \"#utility.yul\":5653:5675   */\n      add\n        /* \"#utility.yul\":5622:5685   */\n      tag_193\n      jump\t// in\n    tag_304:\n        /* \"#utility.yul\":5612:5685   */\n      swap2\n      pop\n        /* \"#utility.yul\":5408:5695   */\n      pop\n        /* \"#utility.yul\":5193:5702   */\n      swap3\n      swap2\n      pop\n      pop\n      jump\t// out\n        /* \"#utility.yul\":5708:5847   */\n    tag_194:\n        /* \"#utility.yul\":5800:5806   */\n      0x00\n        /* \"#utility.yul\":5834:5839   */\n      dup2\n        /* \"#utility.yul\":5828:5840   */\n      mload\n        /* \"#utility.yul\":5818:5840   */\n      swap1\n      pop\n        /* \"#utility.yul\":5708:5847   */\n      swap2\n      swap1\n      pop\n      jump\t// out\n        /* \"#utility.yul\":5853:6062   */\n    tag_195:\n        /* \"#utility.yul\":5977:5988   */\n      0x00\n        /* \"#utility.yul\":6011:6017   */\n      dup3\n        /* \"#utility.yul\":6006:6009   */\n      dup3\n        /* \"#utility.yul\":5999:6018   */\n      mstore\n        /* \"#utility.yul\":6051:6055   */\n      0x20\n        /* \"#utility.yul\":6046:6049   */\n      dup3\n        /* \"#utility.yul\":6042:6056   */\n      add\n        /* \"#utility.yul\":6027:6056   */\n      swap1\n      pop\n        /* \"#utility.yul\":5853:6062   */\n      swap3\n      swap2\n      pop\n      pop\n      jump\t// out\n        /* \"#utility.yul\":6068:6225   */\n    tag_196:\n        /* \"#utility.yul\":6160:6164   */\n      0x00\n        /* \"#utility.yul\":6183:6186   */\n      dup2\n        /* \"#utility.yul\":6175:6186   */\n      swap1\n      pop\n        /* \"#utility.yul\":6213:6217   */\n      0x20\n        /* \"#utility.yul\":6208:6211   */\n      dup3\n        /* \"#utility.yul\":6204:6218   */\n      add\n        /* \"#utility.yul\":6196:6218   */\n      swap1\n      pop\n        /* \"#utility.yul\":6068:6225   */\n      swap2\n      swap1\n      pop\n      jump\t// out\n        /* \"#utility.yul\":6231:6390   */\n    tag_197:\n        /* \"#utility.yul\":6305:6316   */\n      0x00\n        /* \"#utility.yul\":6339:6345   */\n      dup3\n        /* \"#utility.yul\":6334:6337   */\n      dup3\n        /* \"#utility.yul\":6327:6346   */\n      mstore\n        /* \"#utility.yul\":6379:6383   */\n      0x20\n        /* \"#utility.yul\":6374:6377   */\n      dup3\n        /* \"#utility.yul\":6370:6384   */\n      add\n        /* \"#utility.yul\":6355:6384   */\n      swap1\n      pop\n        /* \"#utility.yul\":6231:6390   */\n      swap3\n      swap2\n      pop\n      pop\n      jump\t// out\n        /* \"#utility.yul\":6396:6753   */\n    tag_198:\n        /* \"#utility.yul\":6474:6477   */\n      0x00\n        /* \"#utility.yul\":6502:6541   */\n      tag_310\n        /* \"#utility.yul\":6535:6540   */\n      dup3\n        /* \"#utility.yul\":6502:6541   */\n      tag_179\n      jump\t// in\n    tag_310:\n        /* \"#utility.yul\":6557:6618   */\n      tag_311\n        /* \"#utility.yul\":6611:6617   */\n      dup2\n        /* \"#utility.yul\":6606:6609   */\n      dup6\n        /* \"#utility.yul\":6557:6618   */\n      tag_197\n      jump\t// in\n    tag_311:\n        /* \"#utility.yul\":6550:6618   */\n      swap4\n      pop\n        /* \"#utility.yul\":6627:6692   */\n      tag_312\n        /* \"#utility.yul\":6685:6691   */\n      dup2\n        /* \"#utility.yul\":6680:6683   */\n      dup6\n        /* \"#utility.yul\":6673:6677   */\n      0x20\n        /* \"#utility.yul\":6666:6671   */\n      dup7\n        /* \"#utility.yul\":6662:6678   */\n      add\n        /* \"#utility.yul\":6627:6692   */\n      tag_181\n      jump\t// in\n    tag_312:\n        /* \"#utility.yul\":6717:6746   */\n      tag_313\n        /* \"#utility.yul\":6739:6745   */\n      dup2\n        /* \"#utility.yul\":6717:6746   */\n      tag_182\n      jump\t// in\n    tag_313:\n        /* \"#utility.yul\":6712:6715   */\n      dup5\n        /* \"#utility.yul\":6708:6747   */\n      add\n        /* \"#utility.yul\":6701:6747   */\n      swap2\n      pop\n        /* \"#utility.yul\":6478:6753   */\n      pop\n        /* \"#utility.yul\":6396:6753   */\n      swap3\n      swap2\n      pop\n      pop\n      jump\t// out\n        /* \"#utility.yul\":6759:6867   */\n    tag_199:\n        /* \"#utility.yul\":6836:6860   */\n      tag_315\n        /* \"#utility.yul\":6854:6859   */\n      dup2\n        /* \"#utility.yul\":6836:6860   */\n      tag_173\n      jump\t// in\n    tag_315:\n        /* \"#utility.yul\":6831:6834   */\n      dup3\n        /* \"#utility.yul\":6824:6861   */\n      mstore\n        /* \"#utility.yul\":6759:6867   */\n      pop\n      pop\n      jump\t// out\n        /* \"#utility.yul\":6931:7532   */\n    tag_200:\n        /* \"#utility.yul\":7040:7043   */\n      0x00\n        /* \"#utility.yul\":7076:7080   */\n      0x40\n        /* \"#utility.yul\":7071:7074   */\n      dup4\n        /* \"#utility.yul\":7067:7081   */\n      add\n        /* \"#utility.yul\":7163:7167   */\n      0x00\n        /* \"#utility.yul\":7156:7161   */\n      dup4\n        /* \"#utility.yul\":7152:7168   */\n      add\n        /* \"#utility.yul\":7146:7169   */\n      mload\n        /* \"#utility.yul\":7216:7219   */\n      dup5\n        /* \"#utility.yul\":7210:7214   */\n      dup3\n        /* \"#utility.yul\":7206:7220   */\n      sub\n        /* \"#utility.yul\":7199:7203   */\n      0x00\n        /* \"#utility.yul\":7194:7197   */\n      dup7\n        /* \"#utility.yul\":7190:7204   */\n      add\n        /* \"#utility.yul\":7183:7221   */\n      mstore\n        /* \"#utility.yul\":7242:7315   */\n      tag_317\n        /* \"#utility.yul\":7310:7314   */\n      dup3\n        /* \"#utility.yul\":7296:7308   */\n      dup3\n        /* \"#utility.yul\":7242:7315   */\n      tag_198\n      jump\t// in\n    tag_317:\n        /* \"#utility.yul\":7234:7315   */\n      swap2\n      pop\n        /* \"#utility.yul\":7091:7326   */\n      pop\n        /* \"#utility.yul\":7413:7417   */\n      0x20\n        /* \"#utility.yul\":7406:7411   */\n      dup4\n        /* \"#utility.yul\":7402:7418   */\n      add\n        /* \"#utility.yul\":7396:7419   */\n      mload\n        /* \"#utility.yul\":7432:7495   */\n      tag_318\n        /* \"#utility.yul\":7489:7493   */\n      0x20\n        /* \"#utility.yul\":7484:7487   */\n      dup7\n        /* \"#utility.yul\":7480:7494   */\n      add\n        /* \"#utility.yul\":7466:7478   */\n      dup3\n        /* \"#utility.yul\":7432:7495   */\n      tag_199\n      jump\t// in\n    tag_318:\n        /* \"#utility.yul\":7336:7505   */\n      pop\n        /* \"#utility.yul\":7522:7526   */\n      dup1\n        /* \"#utility.yul\":7515:7526   */\n      swap2\n      pop\n        /* \"#utility.yul\":7045:7532   */\n      pop\n        /* \"#utility.yul\":6931:7532   */\n      swap3\n      swap2\n      pop\n      pop\n      jump\t// out\n        /* \"#utility.yul\":7538:7794   */\n    tag_201:\n        /* \"#utility.yul\":7657:7667   */\n      0x00\n        /* \"#utility.yul\":7692:7788   */\n      tag_320\n        /* \"#utility.yul\":7784:7787   */\n      dup4\n        /* \"#utility.yul\":7776:7782   */\n      dup4\n        /* \"#utility.yul\":7692:7788   */\n      tag_200\n      jump\t// in\n    tag_320:\n        /* \"#utility.yul\":7678:7788   */\n      swap1\n      pop\n        /* \"#utility.yul\":7538:7794   */\n      swap3\n      swap2\n      pop\n      pop\n      jump\t// out\n        /* \"#utility.yul\":7800:7938   */\n    tag_202:\n        /* \"#utility.yul\":7895:7899   */\n      0x00\n        /* \"#utility.yul\":7927:7931   */\n      0x20\n        /* \"#utility.yul\":7922:7925   */\n      dup3\n        /* \"#utility.yul\":7918:7932   */\n      add\n        /* \"#utility.yul\":7910:7932   */\n      swap1\n      pop\n        /* \"#utility.yul\":7800:7938   */\n      swap2\n      swap1\n      pop\n      jump\t// out\n        /* \"#utility.yul\":8006:9117   */\n    tag_203:\n        /* \"#utility.yul\":8175:8178   */\n      0x00\n        /* \"#utility.yul\":8204:8283   */\n      tag_323\n        /* \"#utility.yul\":8277:8282   */\n      dup3\n        /* \"#utility.yul\":8204:8283   */\n      tag_194\n      jump\t// in\n    tag_323:\n        /* \"#utility.yul\":8299:8410   */\n      tag_324\n        /* \"#utility.yul\":8403:8409   */\n      dup2\n        /* \"#utility.yul\":8398:8401   */\n      dup6\n        /* \"#utility.yul\":8299:8410   */\n      tag_195\n      jump\t// in\n    tag_324:\n        /* \"#utility.yul\":8292:8410   */\n      swap4\n      pop\n        /* \"#utility.yul\":8436:8439   */\n      dup4\n        /* \"#utility.yul\":8481:8485   */\n      0x20\n        /* \"#utility.yul\":8473:8479   */\n      dup3\n        /* \"#utility.yul\":8469:8486   */\n      mul\n        /* \"#utility.yul\":8464:8467   */\n      dup6\n        /* \"#utility.yul\":8460:8487   */\n      add\n        /* \"#utility.yul\":8511:8592   */\n      tag_325\n        /* \"#utility.yul\":8586:8591   */\n      dup6\n        /* \"#utility.yul\":8511:8592   */\n      tag_196\n      jump\t// in\n    tag_325:\n        /* \"#utility.yul\":8615:8622   */\n      dup1\n        /* \"#utility.yul\":8646:8647   */\n      0x00\n        /* \"#utility.yul\":8631:9072   */\n    tag_326:\n        /* \"#utility.yul\":8656:8662   */\n      dup6\n        /* \"#utility.yul\":8653:8654   */\n      dup2\n        /* \"#utility.yul\":8650:8663   */\n      lt\n        /* \"#utility.yul\":8631:9072   */\n      iszero\n      tag_328\n      jumpi\n        /* \"#utility.yul\":8727:8736   */\n      dup5\n        /* \"#utility.yul\":8721:8725   */\n      dup5\n        /* \"#utility.yul\":8717:8737   */\n      sub\n        /* \"#utility.yul\":8712:8715   */\n      dup10\n        /* \"#utility.yul\":8705:8738   */\n      mstore\n        /* \"#utility.yul\":8778:8784   */\n      dup2\n        /* \"#utility.yul\":8772:8785   */\n      mload\n        /* \"#utility.yul\":8806:8920   */\n      tag_329\n        /* \"#utility.yul\":8915:8919   */\n      dup6\n        /* \"#utility.yul\":8900:8913   */\n      dup3\n        /* \"#utility.yul\":8806:8920   */\n      tag_201\n      jump\t// in\n    tag_329:\n        /* \"#utility.yul\":8798:8920   */\n      swap5\n      pop\n        /* \"#utility.yul\":8943:9028   */\n      tag_330\n        /* \"#utility.yul\":9021:9027   */\n      dup4\n        /* \"#utility.yul\":8943:9028   */\n      tag_202\n      jump\t// in\n    tag_330:\n        /* \"#utility.yul\":8933:9028   */\n      swap3\n      pop\n        /* \"#utility.yul\":9057:9061   */\n      0x20\n        /* \"#utility.yul\":9052:9055   */\n      dup11\n        /* \"#utility.yul\":9048:9062   */\n      add\n        /* \"#utility.yul\":9041:9062   */\n      swap10\n      pop\n        /* \"#utility.yul\":8691:9072   */\n      pop\n        /* \"#utility.yul\":8678:8679   */\n      0x01\n        /* \"#utility.yul\":8675:8676   */\n      dup2\n        /* \"#utility.yul\":8671:8680   */\n      add\n        /* \"#utility.yul\":8666:8680   */\n      swap1\n      pop\n        /* \"#utility.yul\":8631:9072   */\n      jump(tag_326)\n    tag_328:\n        /* \"#utility.yul\":8635:8649   */\n      pop\n        /* \"#utility.yul\":9088:9092   */\n      dup3\n        /* \"#utility.yul\":9081:9092   */\n      swap8\n      pop\n        /* \"#utility.yul\":9108:9111   */\n      dup8\n        /* \"#utility.yul\":9101:9111   */\n      swap6\n      pop\n        /* \"#utility.yul\":8180:9117   */\n      pop\n      pop\n      pop\n      pop\n      pop\n        /* \"#utility.yul\":8006:9117   */\n      swap3\n      swap2\n      pop\n      pop\n      jump\t// out\n        /* \"#utility.yul\":9123:9596   */\n    tag_37:\n        /* \"#utility.yul\":9316:9320   */\n      0x00\n        /* \"#utility.yul\":9354:9356   */\n      0x20\n        /* \"#utility.yul\":9343:9352   */\n      dup3\n        /* \"#utility.yul\":9339:9357   */\n      add\n        /* \"#utility.yul\":9331:9357   */\n      swap1\n      pop\n        /* \"#utility.yul\":9403:9412   */\n      dup2\n        /* \"#utility.yul\":9397:9401   */\n      dup2\n        /* \"#utility.yul\":9393:9413   */\n      sub\n        /* \"#utility.yul\":9389:9390   */\n      0x00\n        /* \"#utility.yul\":9378:9387   */\n      dup4\n        /* \"#utility.yul\":9374:9391   */\n      add\n        /* \"#utility.yul\":9367:9414   */\n      mstore\n        /* \"#utility.yul\":9431:9589   */\n      tag_332\n        /* \"#utility.yul\":9584:9588   */\n      dup2\n        /* \"#utility.yul\":9575:9581   */\n      dup5\n        /* \"#utility.yul\":9431:9589   */\n      tag_203\n      jump\t// in\n    tag_332:\n        /* \"#utility.yul\":9423:9589   */\n      swap1\n      pop\n        /* \"#utility.yul\":9123:9596   */\n      swap3\n      swap2\n      pop\n      pop\n      jump\t// out\n        /* \"#utility.yul\":9602:9724   */\n    tag_204:\n        /* \"#utility.yul\":9675:9699   */\n      tag_334\n        /* \"#utility.yul\":9693:9698   */\n      dup2\n        /* \"#utility.yul\":9675:9699   */\n      tag_177\n      jump\t// in\n    tag_334:\n        /* \"#utility.yul\":9668:9673   */\n      dup2\n        /* \"#utility.yul\":9665:9700   */\n      eq\n        /* \"#utility.yul\":9655:9718   */\n      tag_335\n      jumpi\n        /* \"#utility.yul\":9714:9715   */\n      0x00\n        /* \"#utility.yul\":9711:9712   */\n      dup1\n        /* \"#utility.yul\":9704:9716   */\n      revert\n        /* \"#utility.yul\":9655:9718   */\n    tag_335:\n        /* \"#utility.yul\":9602:9724   */\n      pop\n      jump\t// out\n        /* \"#utility.yul\":9730:9869   */\n    tag_205:\n        /* \"#utility.yul\":9776:9781   */\n      0x00\n        /* \"#utility.yul\":9814:9820   */\n      dup2\n        /* \"#utility.yul\":9801:9821   */\n      calldataload\n        /* \"#utility.yul\":9792:9821   */\n      swap1\n      pop\n        /* \"#utility.yul\":9830:9863   */\n      tag_337\n        /* \"#utility.yul\":9857:9862   */\n      dup2\n        /* \"#utility.yul\":9830:9863   */\n      tag_204\n      jump\t// in\n    tag_337:\n        /* \"#utility.yul\":9730:9869   */\n      swap3\n      swap2\n      pop\n      pop\n      jump\t// out\n        /* \"#utility.yul\":9875:10204   */\n    tag_42:\n        /* \"#utility.yul\":9934:9940   */\n      0x00\n        /* \"#utility.yul\":9983:9985   */\n      0x20\n        /* \"#utility.yul\":9971:9980   */\n      dup3\n        /* \"#utility.yul\":9962:9969   */\n      dup5\n        /* \"#utility.yul\":9958:9981   */\n      sub\n        /* \"#utility.yul\":9954:9986   */\n      slt\n        /* \"#utility.yul\":9951:10070   */\n      iszero\n      tag_339\n      jumpi\n        /* \"#utility.yul\":9989:10068   */\n      tag_340\n      tag_171\n      jump\t// in\n    tag_340:\n        /* \"#utility.yul\":9951:10070   */\n    tag_339:\n        /* \"#utility.yul\":10109:10110   */\n      0x00\n        /* \"#utility.yul\":10134:10187   */\n      tag_341\n        /* \"#utility.yul\":10179:10186   */\n      dup5\n        /* \"#utility.yul\":10170:10176   */\n      dup3\n        /* \"#utility.yul\":10159:10168   */\n      dup6\n        /* \"#utility.yul\":10155:10177   */\n      add\n        /* \"#utility.yul\":10134:10187   */\n      tag_205\n      jump\t// in\n    tag_341:\n        /* \"#utility.yul\":10124:10187   */\n      swap2\n      pop\n        /* \"#utility.yul\":10080:10197   */\n      pop\n        /* \"#utility.yul\":9875:10204   */\n      swap3\n      swap2\n      pop\n      pop\n      jump\t// out\n        /* \"#utility.yul\":10210:10300   */\n    tag_206:\n        /* \"#utility.yul\":10244:10251   */\n      0x00\n        /* \"#utility.yul\":10287:10292   */\n      dup2\n        /* \"#utility.yul\":10280:10293   */\n      iszero\n        /* \"#utility.yul\":10273:10294   */\n      iszero\n        /* \"#utility.yul\":10262:10294   */\n      swap1\n      pop\n        /* \"#utility.yul\":10210:10300   */\n      swap2\n      swap1\n      pop\n      jump\t// out\n        /* \"#utility.yul\":10306:10415   */\n    tag_207:\n        /* \"#utility.yul\":10387:10408   */\n      tag_344\n        /* \"#utility.yul\":10402:10407   */\n      dup2\n        /* \"#utility.yul\":10387:10408   */\n      tag_206\n      jump\t// in\n    tag_344:\n        /* \"#utility.yul\":10382:10385   */\n      dup3\n        /* \"#utility.yul\":10375:10409   */\n      mstore\n        /* \"#utility.yul\":10306:10415   */\n      pop\n      pop\n      jump\t// out\n        /* \"#utility.yul\":10421:10851   */\n    tag_45:\n        /* \"#utility.yul\":10564:10568   */\n      0x00\n        /* \"#utility.yul\":10602:10604   */\n      0x60\n        /* \"#utility.yul\":10591:10600   */\n      dup3\n        /* \"#utility.yul\":10587:10605   */\n      add\n        /* \"#utility.yul\":10579:10605   */\n      swap1\n      pop\n        /* \"#utility.yul\":10615:10686   */\n      tag_346\n        /* \"#utility.yul\":10683:10684   */\n      0x00\n        /* \"#utility.yul\":10672:10681   */\n      dup4\n        /* \"#utility.yul\":10668:10685   */\n      add\n        /* \"#utility.yul\":10659:10665   */\n      dup7\n        /* \"#utility.yul\":10615:10686   */\n      tag_184\n      jump\t// in\n    tag_346:\n        /* \"#utility.yul\":10696:10762   */\n      tag_347\n        /* \"#utility.yul\":10758:10760   */\n      0x20\n        /* \"#utility.yul\":10747:10756   */\n      dup4\n        /* \"#utility.yul\":10743:10761   */\n      add\n        /* \"#utility.yul\":10734:10740   */\n      dup6\n        /* \"#utility.yul\":10696:10762   */\n      tag_207\n      jump\t// in\n    tag_347:\n        /* \"#utility.yul\":10772:10844   */\n      tag_348\n        /* \"#utility.yul\":10840:10842   */\n      0x40\n        /* \"#utility.yul\":10829:10838   */\n      dup4\n        /* \"#utility.yul\":10825:10843   */\n      add\n        /* \"#utility.yul\":10816:10822   */\n      dup5\n        /* \"#utility.yul\":10772:10844   */\n      tag_184\n      jump\t// in\n    tag_348:\n        /* \"#utility.yul\":10421:10851   */\n      swap5\n      swap4\n      pop\n      pop\n      pop\n      pop\n      jump\t// out\n        /* \"#utility.yul\":10857:11037   */\n    tag_59:\n        /* \"#utility.yul\":10905:10982   */\n      0x4e487b7100000000000000000000000000000000000000000000000000000000\n        /* \"#utility.yul\":10902:10903   */\n      0x00\n        /* \"#utility.yul\":10895:10983   */\n      mstore\n        /* \"#utility.yul\":11002:11006   */\n      0x21\n        /* \"#utility.yul\":10999:11000   */\n      0x04\n        /* \"#utility.yul\":10992:11007   */\n      mstore\n        /* \"#utility.yul\":11026:11030   */\n      0x24\n        /* \"#utility.yul\":11023:11024   */\n      0x00\n        /* \"#utility.yul\":11016:11031   */\n      revert\n        /* \"#utility.yul\":11043:11156   */\n    tag_208:\n        /* \"#utility.yul\":11124:11125   */\n      0x03\n        /* \"#utility.yul\":11117:11122   */\n      dup2\n        /* \"#utility.yul\":11114:11126   */\n      lt\n        /* \"#utility.yul\":11104:11150   */\n      tag_351\n      jumpi\n        /* \"#utility.yul\":11130:11148   */\n      tag_352\n      tag_59\n      jump\t// in\n    tag_352:\n        /* \"#utility.yul\":11104:11150   */\n    tag_351:\n        /* \"#utility.yul\":11043:11156   */\n      pop\n      jump\t// out\n        /* \"#utility.yul\":11162:11289   */\n    tag_209:\n        /* \"#utility.yul\":11207:11214   */\n      0x00\n        /* \"#utility.yul\":11236:11241   */\n      dup2\n        /* \"#utility.yul\":11225:11241   */\n      swap1\n      pop\n        /* \"#utility.yul\":11242:11283   */\n      tag_354\n        /* \"#utility.yul\":11277:11282   */\n      dup3\n        /* \"#utility.yul\":11242:11283   */\n      tag_208\n      jump\t// in\n    tag_354:\n        /* \"#utility.yul\":11162:11289   */\n      swap2\n      swap1\n      pop\n      jump\t// out\n        /* \"#utility.yul\":11295:11422   */\n    tag_210:\n        /* \"#utility.yul\":11351:11360   */\n      0x00\n        /* \"#utility.yul\":11384:11416   */\n      tag_356\n        /* \"#utility.yul\":11410:11415   */\n      dup3\n        /* \"#utility.yul\":11384:11416   */\n      tag_209\n      jump\t// in\n    tag_356:\n        /* \"#utility.yul\":11371:11416   */\n      swap1\n      pop\n        /* \"#utility.yul\":11295:11422   */\n      swap2\n      swap1\n      pop\n      jump\t// out\n        /* \"#utility.yul\":11428:11571   */\n    tag_211:\n        /* \"#utility.yul\":11521:11564   */\n      tag_358\n        /* \"#utility.yul\":11558:11563   */\n      dup2\n        /* \"#utility.yul\":11521:11564   */\n      tag_210\n      jump\t// in\n    tag_358:\n        /* \"#utility.yul\":11516:11519   */\n      dup3\n        /* \"#utility.yul\":11509:11565   */\n      mstore\n        /* \"#utility.yul\":11428:11571   */\n      pop\n      pop\n      jump\t// out\n        /* \"#utility.yul\":11577:11811   */\n    tag_51:\n        /* \"#utility.yul\":11676:11680   */\n      0x00\n        /* \"#utility.yul\":11714:11716   */\n      0x20\n        /* \"#utility.yul\":11703:11712   */\n      dup3\n        /* \"#utility.yul\":11699:11717   */\n      add\n        /* \"#utility.yul\":11691:11717   */\n      swap1\n      pop\n        /* \"#utility.yul\":11727:11804   */\n      tag_360\n        /* \"#utility.yul\":11801:11802   */\n      0x00\n        /* \"#utility.yul\":11790:11799   */\n      dup4\n        /* \"#utility.yul\":11786:11803   */\n      add\n        /* \"#utility.yul\":11777:11783   */\n      dup5\n        /* \"#utility.yul\":11727:11804   */\n      tag_211\n      jump\t// in\n    tag_360:\n        /* \"#utility.yul\":11577:11811   */\n      swap3\n      swap2\n      pop\n      pop\n      jump\t// out\n        /* \"#utility.yul\":11817:12130   */\n    tag_55:\n        /* \"#utility.yul\":11930:11934   */\n      0x00\n        /* \"#utility.yul\":11968:11970   */\n      0x20\n        /* \"#utility.yul\":11957:11966   */\n      dup3\n        /* \"#utility.yul\":11953:11971   */\n      add\n        /* \"#utility.yul\":11945:11971   */\n      swap1\n      pop\n        /* \"#utility.yul\":12017:12026   */\n      dup2\n        /* \"#utility.yul\":12011:12015   */\n      dup2\n        /* \"#utility.yul\":12007:12027   */\n      sub\n        /* \"#utility.yul\":12003:12004   */\n      0x00\n        /* \"#utility.yul\":11992:12001   */\n      dup4\n        /* \"#utility.yul\":11988:12005   */\n      add\n        /* \"#utility.yul\":11981:12028   */\n      mstore\n        /* \"#utility.yul\":12045:12123   */\n      tag_362\n        /* \"#utility.yul\":12118:12122   */\n      dup2\n        /* \"#utility.yul\":12109:12115   */\n      dup5\n        /* \"#utility.yul\":12045:12123   */\n      tag_183\n      jump\t// in\n    tag_362:\n        /* \"#utility.yul\":12037:12123   */\n      swap1\n      pop\n        /* \"#utility.yul\":11817:12130   */\n      swap3\n      swap2\n      pop\n      pop\n      jump\t// out\n        /* \"#utility.yul\":12136:12315   */\n    tag_212:\n        /* \"#utility.yul\":12276:12307   */\n      0x496e76616c696420737461746520666f72207468697320616374696f6e000000\n        /* \"#utility.yul\":12272:12273   */\n      0x00\n        /* \"#utility.yul\":12264:12270   */\n      dup3\n        /* \"#utility.yul\":12260:12274   */\n      add\n        /* \"#utility.yul\":12253:12308   */\n      mstore\n        /* \"#utility.yul\":12136:12315   */\n      pop\n      jump\t// out\n        /* \"#utility.yul\":12321:12687   */\n    tag_213:\n        /* \"#utility.yul\":12463:12466   */\n      0x00\n        /* \"#utility.yul\":12484:12551   */\n      tag_365\n        /* \"#utility.yul\":12548:12550   */\n      0x1d\n        /* \"#utility.yul\":12543:12546   */\n      dup4\n        /* \"#utility.yul\":12484:12551   */\n      tag_180\n      jump\t// in\n    tag_365:\n        /* \"#utility.yul\":12477:12551   */\n      swap2\n      pop\n        /* \"#utility.yul\":12560:12653   */\n      tag_366\n        /* \"#utility.yul\":12649:12652   */\n      dup3\n        /* \"#utility.yul\":12560:12653   */\n      tag_212\n      jump\t// in\n    tag_366:\n        /* \"#utility.yul\":12678:12680   */\n      0x20\n        /* \"#utility.yul\":12673:12676   */\n      dup3\n        /* \"#utility.yul\":12669:12681   */\n      add\n        /* \"#utility.yul\":12662:12681   */\n      swap1\n      pop\n        /* \"#utility.yul\":12321:12687   */\n      swap2\n      swap1\n      pop\n      jump\t// out\n        /* \"#utility.yul\":12693:13112   */\n    tag_64:\n        /* \"#utility.yul\":12859:12863   */\n      0x00\n        /* \"#utility.yul\":12897:12899   */\n      0x20\n        /* \"#utility.yul\":12886:12895   */\n      dup3\n        /* \"#utility.yul\":12882:12900   */\n      add\n        /* \"#utility.yul\":12874:12900   */\n      swap1\n      pop\n        /* \"#utility.yul\":12946:12955   */\n      dup2\n        /* \"#utility.yul\":12940:12944   */\n      dup2\n        /* \"#utility.yul\":12936:12956   */\n      sub\n        /* \"#utility.yul\":12932:12933   */\n      0x00\n        /* \"#utility.yul\":12921:12930   */\n      dup4\n        /* \"#utility.yul\":12917:12934   */\n      add\n        /* \"#utility.yul\":12910:12957   */\n      mstore\n        /* \"#utility.yul\":12974:13105   */\n      tag_368\n        /* \"#utility.yul\":13100:13104   */\n      dup2\n        /* \"#utility.yul\":12974:13105   */\n      tag_213\n      jump\t// in\n    tag_368:\n        /* \"#utility.yul\":12966:13105   */\n      swap1\n      pop\n        /* \"#utility.yul\":12693:13112   */\n      swap2\n      swap1\n      pop\n      jump\t// out\n        /* \"#utility.yul\":13118:13284   */\n    tag_214:\n        /* \"#utility.yul\":13258:13276   */\n      0x4e6f20726967687420746f20766f746500000000000000000000000000000000\n        /* \"#utility.yul\":13254:13255   */\n      0x00\n        /* \"#utility.yul\":13246:13252   */\n      dup3\n        /* \"#utility.yul\":13242:13256   */\n      add\n        /* \"#utility.yul\":13235:13277   */\n      mstore\n        /* \"#utility.yul\":13118:13284   */\n      pop\n      jump\t// out\n        /* \"#utility.yul\":13290:13656   */\n    tag_215:\n        /* \"#utility.yul\":13432:13435   */\n      0x00\n        /* \"#utility.yul\":13453:13520   */\n      tag_371\n        /* \"#utility.yul\":13517:13519   */\n      0x10\n        /* \"#utility.yul\":13512:13515   */\n      dup4\n        /* \"#utility.yul\":13453:13520   */\n      tag_180\n      jump\t// in\n    tag_371:\n        /* \"#utility.yul\":13446:13520   */\n      swap2\n      pop\n        /* \"#utility.yul\":13529:13622   */\n      tag_372\n        /* \"#utility.yul\":13618:13621   */\n      dup3\n        /* \"#utility.yul\":13529:13622   */\n      tag_214\n      jump\t// in\n    tag_372:\n        /* \"#utility.yul\":13647:13649   */\n      0x20\n        /* \"#utility.yul\":13642:13645   */\n      dup3\n        /* \"#utility.yul\":13638:13650   */\n      add\n        /* \"#utility.yul\":13631:13650   */\n      swap1\n      pop\n        /* \"#utility.yul\":13290:13656   */\n      swap2\n      swap1\n      pop\n      jump\t// out\n        /* \"#utility.yul\":13662:14081   */\n    tag_68:\n        /* \"#utility.yul\":13828:13832   */\n      0x00\n        /* \"#utility.yul\":13866:13868   */\n      0x20\n        /* \"#utility.yul\":13855:13864   */\n      dup3\n        /* \"#utility.yul\":13851:13869   */\n      add\n        /* \"#utility.yul\":13843:13869   */\n      swap1\n      pop\n        /* \"#utility.yul\":13915:13924   */\n      dup2\n        /* \"#utility.yul\":13909:13913   */\n      dup2\n        /* \"#utility.yul\":13905:13925   */\n      sub\n        /* \"#utility.yul\":13901:13902   */\n      0x00\n        /* \"#utility.yul\":13890:13899   */\n      dup4\n        /* \"#utility.yul\":13886:13903   */\n      add\n        /* \"#utility.yul\":13879:13926   */\n      mstore\n        /* \"#utility.yul\":13943:14074   */\n      tag_374\n        /* \"#utility.yul\":14069:14073   */\n      dup2\n        /* \"#utility.yul\":13943:14074   */\n      tag_215\n      jump\t// in\n    tag_374:\n        /* \"#utility.yul\":13935:14074   */\n      swap1\n      pop\n        /* \"#utility.yul\":13662:14081   */\n      swap2\n      swap1\n      pop\n      jump\t// out\n        /* \"#utility.yul\":14087:14250   */\n    tag_216:\n        /* \"#utility.yul\":14227:14242   */\n      0x416c726561647920766f74656400000000000000000000000000000000000000\n        /* \"#utility.yul\":14223:14224   */\n      0x00\n        /* \"#utility.yul\":14215:14221   */\n      dup3\n        /* \"#utility.yul\":14211:14225   */\n      add\n        /* \"#utility.yul\":14204:14243   */\n      mstore\n        /* \"#utility.yul\":14087:14250   */\n      pop\n      jump\t// out\n        /* \"#utility.yul\":14256:14622   */\n    tag_217:\n        /* \"#utility.yul\":14398:14401   */\n      0x00\n        /* \"#utility.yul\":14419:14486   */\n      tag_377\n        /* \"#utility.yul\":14483:14485   */\n      0x0d\n        /* \"#utility.yul\":14478:14481   */\n      dup4\n        /* \"#utility.yul\":14419:14486   */\n      tag_180\n      jump\t// in\n    tag_377:\n        /* \"#utility.yul\":14412:14486   */\n      swap2\n      pop\n        /* \"#utility.yul\":14495:14588   */\n      tag_378\n        /* \"#utility.yul\":14584:14587   */\n      dup3\n        /* \"#utility.yul\":14495:14588   */\n      tag_216\n      jump\t// in\n    tag_378:\n        /* \"#utility.yul\":14613:14615   */\n      0x20\n        /* \"#utility.yul\":14608:14611   */\n      dup3\n        /* \"#utility.yul\":14604:14616   */\n      add\n        /* \"#utility.yul\":14597:14616   */\n      swap1\n      pop\n        /* \"#utility.yul\":14256:14622   */\n      swap2\n      swap1\n      pop\n      jump\t// out\n        /* \"#utility.yul\":14628:15047   */\n    tag_71:\n        /* \"#utility.yul\":14794:14798   */\n      0x00\n        /* \"#utility.yul\":14832:14834   */\n      0x20\n        /* \"#utility.yul\":14821:14830   */\n      dup3\n        /* \"#utility.yul\":14817:14835   */\n      add\n        /* \"#utility.yul\":14809:14835   */\n      swap1\n      pop\n        /* \"#utility.yul\":14881:14890   */\n      dup2\n        /* \"#utility.yul\":14875:14879   */\n      dup2\n        /* \"#utility.yul\":14871:14891   */\n      sub\n        /* \"#utility.yul\":14867:14868   */\n      0x00\n        /* \"#utility.yul\":14856:14865   */\n      dup4\n        /* \"#utility.yul\":14852:14869   */\n      add\n        /* \"#utility.yul\":14845:14892   */\n      mstore\n        /* \"#utility.yul\":14909:15040   */\n      tag_380\n        /* \"#utility.yul\":15035:15039   */\n      dup2\n        /* \"#utility.yul\":14909:15040   */\n      tag_217\n      jump\t// in\n    tag_380:\n        /* \"#utility.yul\":14901:15040   */\n      swap1\n      pop\n        /* \"#utility.yul\":14628:15047   */\n      swap2\n      swap1\n      pop\n      jump\t// out\n        /* \"#utility.yul\":15053:15233   */\n    tag_74:\n        /* \"#utility.yul\":15101:15178   */\n      0x4e487b7100000000000000000000000000000000000000000000000000000000\n        /* \"#utility.yul\":15098:15099   */\n      0x00\n        /* \"#utility.yul\":15091:15179   */\n      mstore\n        /* \"#utility.yul\":15198:15202   */\n      0x32\n        /* \"#utility.yul\":15195:15196   */\n      0x04\n        /* \"#utility.yul\":15188:15203   */\n      mstore\n        /* \"#utility.yul\":15222:15226   */\n      0x24\n        /* \"#utility.yul\":15219:15220   */\n      0x00\n        /* \"#utility.yul\":15212:15227   */\n      revert\n        /* \"#utility.yul\":15239:15419   */\n    tag_218:\n        /* \"#utility.yul\":15287:15364   */\n      0x4e487b7100000000000000000000000000000000000000000000000000000000\n        /* \"#utility.yul\":15284:15285   */\n      0x00\n        /* \"#utility.yul\":15277:15365   */\n      mstore\n        /* \"#utility.yul\":15384:15388   */\n      0x11\n        /* \"#utility.yul\":15381:15382   */\n      0x04\n        /* \"#utility.yul\":15374:15389   */\n      mstore\n        /* \"#utility.yul\":15408:15412   */\n      0x24\n        /* \"#utility.yul\":15405:15406   */\n      0x00\n        /* \"#utility.yul\":15398:15413   */\n      revert\n        /* \"#utility.yul\":15425:15616   */\n    tag_77:\n        /* \"#utility.yul\":15465:15468   */\n      0x00\n        /* \"#utility.yul\":15484:15504   */\n      tag_384\n        /* \"#utility.yul\":15502:15503   */\n      dup3\n        /* \"#utility.yul\":15484:15504   */\n      tag_173\n      jump\t// in\n    tag_384:\n        /* \"#utility.yul\":15479:15504   */\n      swap2\n      pop\n        /* \"#utility.yul\":15518:15538   */\n      tag_385\n        /* \"#utility.yul\":15536:15537   */\n      dup4\n        /* \"#utility.yul\":15518:15538   */\n      tag_173\n      jump\t// in\n    tag_385:\n        /* \"#utility.yul\":15513:15538   */\n      swap3\n      pop\n        /* \"#utility.yul\":15561:15562   */\n      dup3\n        /* \"#utility.yul\":15558:15559   */\n      dup3\n        /* \"#utility.yul\":15554:15563   */\n      add\n        /* \"#utility.yul\":15547:15563   */\n      swap1\n      pop\n        /* \"#utility.yul\":15582:15585   */\n      dup1\n        /* \"#utility.yul\":15579:15580   */\n      dup3\n        /* \"#utility.yul\":15576:15586   */\n      gt\n        /* \"#utility.yul\":15573:15609   */\n      iszero\n      tag_386\n      jumpi\n        /* \"#utility.yul\":15589:15607   */\n      tag_387\n      tag_218\n      jump\t// in\n    tag_387:\n        /* \"#utility.yul\":15573:15609   */\n    tag_386:\n        /* \"#utility.yul\":15425:15616   */\n      swap3\n      swap2\n      pop\n      pop\n      jump\t// out\n        /* \"#utility.yul\":15622:15954   */\n    tag_79:\n        /* \"#utility.yul\":15743:15747   */\n      0x00\n        /* \"#utility.yul\":15781:15783   */\n      0x40\n        /* \"#utility.yul\":15770:15779   */\n      dup3\n        /* \"#utility.yul\":15766:15784   */\n      add\n        /* \"#utility.yul\":15758:15784   */\n      swap1\n      pop\n        /* \"#utility.yul\":15794:15865   */\n      tag_389\n        /* \"#utility.yul\":15862:15863   */\n      0x00\n        /* \"#utility.yul\":15851:15860   */\n      dup4\n        /* \"#utility.yul\":15847:15864   */\n      add\n        /* \"#utility.yul\":15838:15844   */\n      dup6\n        /* \"#utility.yul\":15794:15865   */\n      tag_178\n      jump\t// in\n    tag_389:\n        /* \"#utility.yul\":15875:15947   */\n      tag_390\n        /* \"#utility.yul\":15943:15945   */\n      0x20\n        /* \"#utility.yul\":15932:15941   */\n      dup4\n        /* \"#utility.yul\":15928:15946   */\n      add\n        /* \"#utility.yul\":15919:15925   */\n      dup5\n        /* \"#utility.yul\":15875:15947   */\n      tag_184\n      jump\t// in\n    tag_390:\n        /* \"#utility.yul\":15622:15954   */\n      swap4\n      swap3\n      pop\n      pop\n      pop\n      jump\t// out\n        /* \"#utility.yul\":15960:16140   */\n    tag_219:\n        /* \"#utility.yul\":16008:16085   */\n      0x4e487b7100000000000000000000000000000000000000000000000000000000\n        /* \"#utility.yul\":16005:16006   */\n      0x00\n        /* \"#utility.yul\":15998:16086   */\n      mstore\n        /* \"#utility.yul\":16105:16109   */\n      0x22\n        /* \"#utility.yul\":16102:16103   */\n      0x04\n        /* \"#utility.yul\":16095:16110   */\n      mstore\n        /* \"#utility.yul\":16129:16133   */\n      0x24\n        /* \"#utility.yul\":16126:16127   */\n      0x00\n        /* \"#utility.yul\":16119:16134   */\n      revert\n        /* \"#utility.yul\":16146:16466   */\n    tag_83:\n        /* \"#utility.yul\":16190:16196   */\n      0x00\n        /* \"#utility.yul\":16227:16228   */\n      0x02\n        /* \"#utility.yul\":16221:16225   */\n      dup3\n        /* \"#utility.yul\":16217:16229   */\n      div\n        /* \"#utility.yul\":16207:16229   */\n      swap1\n      pop\n        /* \"#utility.yul\":16274:16275   */\n      0x01\n        /* \"#utility.yul\":16268:16272   */\n      dup3\n        /* \"#utility.yul\":16264:16276   */\n      and\n        /* \"#utility.yul\":16295:16313   */\n      dup1\n        /* \"#utility.yul\":16285:16366   */\n      tag_393\n      jumpi\n        /* \"#utility.yul\":16351:16355   */\n      0x7f\n        /* \"#utility.yul\":16343:16349   */\n      dup3\n        /* \"#utility.yul\":16339:16356   */\n      and\n        /* \"#utility.yul\":16329:16356   */\n      swap2\n      pop\n        /* \"#utility.yul\":16285:16366   */\n    tag_393:\n        /* \"#utility.yul\":16413:16415   */\n      0x20\n        /* \"#utility.yul\":16405:16411   */\n      dup3\n        /* \"#utility.yul\":16402:16416   */\n      lt\n        /* \"#utility.yul\":16382:16400   */\n      dup2\n        /* \"#utility.yul\":16379:16417   */\n      sub\n        /* \"#utility.yul\":16376:16460   */\n      tag_394\n      jumpi\n        /* \"#utility.yul\":16432:16450   */\n      tag_395\n      tag_219\n      jump\t// in\n    tag_395:\n        /* \"#utility.yul\":16376:16460   */\n    tag_394:\n        /* \"#utility.yul\":16197:16466   */\n      pop\n        /* \"#utility.yul\":16146:16466   */\n      swap2\n      swap1\n      pop\n      jump\t// out\n        /* \"#utility.yul\":16472:16699   */\n    tag_220:\n        /* \"#utility.yul\":16612:16646   */\n      0x4f6e6c79206368616972706572736f6e2063616e20706572666f726d20746869\n        /* \"#utility.yul\":16608:16609   */\n      0x00\n        /* \"#utility.yul\":16600:16606   */\n      dup3\n        /* \"#utility.yul\":16596:16610   */\n      add\n        /* \"#utility.yul\":16589:16647   */\n      mstore\n        /* \"#utility.yul\":16681:16691   */\n      0x7320616374696f6e000000000000000000000000000000000000000000000000\n        /* \"#utility.yul\":16676:16678   */\n      0x20\n        /* \"#utility.yul\":16668:16674   */\n      dup3\n        /* \"#utility.yul\":16664:16679   */\n      add\n        /* \"#utility.yul\":16657:16692   */\n      mstore\n        /* \"#utility.yul\":16472:16699   */\n      pop\n      jump\t// out\n        /* \"#utility.yul\":16705:17071   */\n    tag_221:\n        /* \"#utility.yul\":16847:16850   */\n      0x00\n        /* \"#utility.yul\":16868:16935   */\n      tag_398\n        /* \"#utility.yul\":16932:16934   */\n      0x28\n        /* \"#utility.yul\":16927:16930   */\n      dup4\n        /* \"#utility.yul\":16868:16935   */\n      tag_180\n      jump\t// in\n    tag_398:\n        /* \"#utility.yul\":16861:16935   */\n      swap2\n      pop\n        /* \"#utility.yul\":16944:17037   */\n      tag_399\n        /* \"#utility.yul\":17033:17036   */\n      dup3\n        /* \"#utility.yul\":16944:17037   */\n      tag_220\n      jump\t// in\n    tag_399:\n        /* \"#utility.yul\":17062:17064   */\n      0x40\n        /* \"#utility.yul\":17057:17060   */\n      dup3\n        /* \"#utility.yul\":17053:17065   */\n      add\n        /* \"#utility.yul\":17046:17065   */\n      swap1\n      pop\n        /* \"#utility.yul\":16705:17071   */\n      swap2\n      swap1\n      pop\n      jump\t// out\n        /* \"#utility.yul\":17077:17496   */\n    tag_91:\n        /* \"#utility.yul\":17243:17247   */\n      0x00\n        /* \"#utility.yul\":17281:17283   */\n      0x20\n        /* \"#utility.yul\":17270:17279   */\n      dup3\n        /* \"#utility.yul\":17266:17284   */\n      add\n        /* \"#utility.yul\":17258:17284   */\n      swap1\n      pop\n        /* \"#utility.yul\":17330:17339   */\n      dup2\n        /* \"#utility.yul\":17324:17328   */\n      dup2\n        /* \"#utility.yul\":17320:17340   */\n      sub\n        /* \"#utility.yul\":17316:17317   */\n      0x00\n        /* \"#utility.yul\":17305:17314   */\n      dup4\n        /* \"#utility.yul\":17301:17318   */\n      add\n        /* \"#utility.yul\":17294:17341   */\n      mstore\n        /* \"#utility.yul\":17358:17489   */\n      tag_401\n        /* \"#utility.yul\":17484:17488   */\n      dup2\n        /* \"#utility.yul\":17358:17489   */\n      tag_221\n      jump\t// in\n    tag_401:\n        /* \"#utility.yul\":17350:17489   */\n      swap1\n      pop\n        /* \"#utility.yul\":17077:17496   */\n      swap2\n      swap1\n      pop\n      jump\t// out\n        /* \"#utility.yul\":17502:17643   */\n    tag_222:\n        /* \"#utility.yul\":17551:17555   */\n      0x00\n        /* \"#utility.yul\":17574:17577   */\n      dup2\n        /* \"#utility.yul\":17566:17577   */\n      swap1\n      pop\n        /* \"#utility.yul\":17597:17600   */\n      dup2\n        /* \"#utility.yul\":17594:17595   */\n      0x00\n        /* \"#utility.yul\":17587:17601   */\n      mstore\n        /* \"#utility.yul\":17631:17635   */\n      0x20\n        /* \"#utility.yul\":17628:17629   */\n      0x00\n        /* \"#utility.yul\":17618:17636   */\n      keccak256\n        /* \"#utility.yul\":17610:17636   */\n      swap1\n      pop\n        /* \"#utility.yul\":17502:17643   */\n      swap2\n      swap1\n      pop\n      jump\t// out\n        /* \"#utility.yul\":17649:17742   */\n    tag_223:\n        /* \"#utility.yul\":17686:17692   */\n      0x00\n        /* \"#utility.yul\":17733:17735   */\n      0x20\n        /* \"#utility.yul\":17728:17730   */\n      0x1f\n        /* \"#utility.yul\":17721:17726   */\n      dup4\n        /* \"#utility.yul\":17717:17731   */\n      add\n        /* \"#utility.yul\":17713:17736   */\n      div\n        /* \"#utility.yul\":17703:17736   */\n      swap1\n      pop\n        /* \"#utility.yul\":17649:17742   */\n      swap2\n      swap1\n      pop\n      jump\t// out\n        /* \"#utility.yul\":17748:17855   */\n    tag_224:\n        /* \"#utility.yul\":17792:17800   */\n      0x00\n        /* \"#utility.yul\":17842:17847   */\n      dup3\n        /* \"#utility.yul\":17836:17840   */\n      dup3\n        /* \"#utility.yul\":17832:17848   */\n      shl\n        /* \"#utility.yul\":17811:17848   */\n      swap1\n      pop\n        /* \"#utility.yul\":17748:17855   */\n      swap3\n      swap2\n      pop\n      pop\n      jump\t// out\n        /* \"#utility.yul\":17861:18254   */\n    tag_225:\n        /* \"#utility.yul\":17930:17936   */\n      0x00\n        /* \"#utility.yul\":17980:17981   */\n      0x08\n        /* \"#utility.yul\":17968:17978   */\n      dup4\n        /* \"#utility.yul\":17964:17982   */\n      mul\n        /* \"#utility.yul\":18003:18100   */\n      tag_406\n        /* \"#utility.yul\":18033:18099   */\n      0xffffffffffffffffffffffffffffffffffffffffffffffffffffffffffffffff\n        /* \"#utility.yul\":18022:18031   */\n      dup3\n        /* \"#utility.yul\":18003:18100   */\n      tag_224\n      jump\t// in\n    tag_406:\n        /* \"#utility.yul\":18121:18160   */\n      tag_407\n        /* \"#utility.yul\":18151:18159   */\n      dup7\n        /* \"#utility.yul\":18140:18149   */\n      dup4\n        /* \"#utility.yul\":18121:18160   */\n      tag_224\n      jump\t// in\n    tag_407:\n        /* \"#utility.yul\":18109:18160   */\n      swap6\n      pop\n        /* \"#utility.yul\":18193:18197   */\n      dup1\n        /* \"#utility.yul\":18189:18198   */\n      not\n        /* \"#utility.yul\":18182:18187   */\n      dup5\n        /* \"#utility.yul\":18178:18199   */\n      and\n        /* \"#utility.yul\":18169:18199   */\n      swap4\n      pop\n        /* \"#utility.yul\":18242:18246   */\n      dup1\n        /* \"#utility.yul\":18232:18240   */\n      dup7\n        /* \"#utility.yul\":18228:18247   */\n      and\n        /* \"#utility.yul\":18221:18226   */\n      dup5\n        /* \"#utility.yul\":18218:18248   */\n      or\n        /* \"#utility.yul\":18208:18248   */\n      swap3\n      pop\n        /* \"#utility.yul\":17937:18254   */\n      pop\n      pop\n        /* \"#utility.yul\":17861:18254   */\n      swap4\n      swap3\n      pop\n      pop\n      pop\n      jump\t// out\n        /* \"#utility.yul\":18260:18320   */\n    tag_226:\n        /* \"#utility.yul\":18288:18291   */\n      0x00\n        /* \"#utility.yul\":18309:18314   */\n      dup2\n        /* \"#utility.yul\":18302:18314   */\n      swap1\n      pop\n        /* \"#utility.yul\":18260:18320   */\n      swap2\n      swap1\n      pop\n      jump\t// out\n        /* \"#utility.yul\":18326:18468   */\n    tag_227:\n        /* \"#utility.yul\":18376:18385   */\n      0x00\n        /* \"#utility.yul\":18409:18462   */\n      tag_410\n        /* \"#utility.yul\":18427:18461   */\n      tag_411\n        /* \"#utility.yul\":18436:18460   */\n      tag_412\n        /* \"#utility.yul\":18454:18459   */\n      dup5\n        /* \"#utility.yul\":18436:18460   */\n      tag_173\n      jump\t// in\n    tag_412:\n        /* \"#utility.yul\":18427:18461   */\n      tag_226\n      jump\t// in\n    tag_411:\n        /* \"#utility.yul\":18409:18462   */\n      tag_173\n      jump\t// in\n    tag_410:\n        /* \"#utility.yul\":18396:18462   */\n      swap1\n      pop\n        /* \"#utility.yul\":18326:18468   */\n      swap2\n      swap1\n      pop\n      jump\t// out\n        /* \"#utility.yul\":18474:18549   */\n    tag_228:\n        /* \"#utility.yul\":18517:18520   */\n      0x00\n        /* \"#utility.yul\":18538:18543   */\n      dup2\n        /* \"#utility.yul\":18531:18543   */\n      swap1\n      pop\n        /* \"#utility.yul\":18474:18549   */\n      swap2\n      swap1\n      pop\n      jump\t// out\n        /* \"#utility.yul\":18555:18824   */\n    tag_229:\n        /* \"#utility.yul\":18665:18704   */\n      tag_415\n        /* \"#utility.yul\":18696:18703   */\n      dup4\n        /* \"#utility.yul\":18665:18704   */\n      tag_227\n      jump\t// in\n    tag_415:\n        /* \"#utility.yul\":18726:18817   */\n      tag_416\n        /* \"#utility.yul\":18775:18816   */\n      tag_417\n        /* \"#utility.yul\":18799:18815   */\n      dup3\n        /* \"#utility.yul\":18775:18816   */\n      tag_228\n      jump\t// in\n    tag_417:\n        /* \"#utility.yul\":18767:18773   */\n      dup5\n        /* \"#utility.yul\":18760:18764   */\n      dup5\n        /* \"#utility.yul\":18754:18765   */\n      sload\n        /* \"#utility.yul\":18726:18817   */\n      tag_225\n      jump\t// in\n    tag_416:\n        /* \"#utility.yul\":18720:18724   */\n      dup3\n        /* \"#utility.yul\":18713:18818   */\n      sstore\n        /* \"#utility.yul\":18631:18824   */\n      pop\n        /* \"#utility.yul\":18555:18824   */\n      pop\n      pop\n      pop\n      jump\t// out\n        /* \"#utility.yul\":18830:18903   */\n    tag_230:\n        /* \"#utility.yul\":18875:18878   */\n      0x00\n        /* \"#utility.yul\":18830:18903   */\n      swap1\n      jump\t// out\n        /* \"#utility.yul\":18909:19098   */\n    tag_231:\n        /* \"#utility.yul\":18986:19018   */\n      tag_420\n      tag_230\n      jump\t// in\n    tag_420:\n        /* \"#utility.yul\":19027:19092   */\n      tag_421\n        /* \"#utility.yul\":19085:19091   */\n      dup2\n        /* \"#utility.yul\":19077:19083   */\n      dup5\n        /* \"#utility.yul\":19071:19075   */\n      dup5\n        /* \"#utility.yul\":19027:19092   */\n      tag_229\n      jump\t// in\n    tag_421:\n        /* \"#utility.yul\":18962:19098   */\n      pop\n        /* \"#utility.yul\":18909:19098   */\n      pop\n      pop\n      jump\t// out\n        /* \"#utility.yul\":19104:19290   */\n    tag_232:\n        /* \"#utility.yul\":19164:19284   */\n    tag_423:\n        /* \"#utility.yul\":19181:19184   */\n      dup2\n        /* \"#utility.yul\":19174:19179   */\n      dup2\n        /* \"#utility.yul\":19171:19185   */\n      lt\n        /* \"#utility.yul\":19164:19284   */\n      iszero\n      tag_425\n      jumpi\n        /* \"#utility.yul\":19235:19274   */\n      tag_426\n        /* \"#utility.yul\":19272:19273   */\n      0x00\n        /* \"#utility.yul\":19265:19270   */\n      dup3\n        /* \"#utility.yul\":19235:19274   */\n      tag_231\n      jump\t// in\n    tag_426:\n        /* \"#utility.yul\":19208:19209   */\n      0x01\n        /* \"#utility.yul\":19201:19206   */\n      dup2\n        /* \"#utility.yul\":19197:19210   */\n      add\n        /* \"#utility.yul\":19188:19210   */\n      swap1\n      pop\n        /* \"#utility.yul\":19164:19284   */\n      jump(tag_423)\n    tag_425:\n        /* \"#utility.yul\":19104:19290   */\n      pop\n      pop\n      jump\t// out\n        /* \"#utility.yul\":19296:19839   */\n    tag_233:\n        /* \"#utility.yul\":19397:19399   */\n      0x1f\n        /* \"#utility.yul\":19392:19395   */\n      dup3\n        /* \"#utility.yul\":19389:19400   */\n      gt\n        /* \"#utility.yul\":19386:19832   */\n      iszero\n      tag_428\n      jumpi\n        /* \"#utility.yul\":19431:19469   */\n      tag_429\n        /* \"#utility.yul\":19463:19468   */\n      dup2\n        /* \"#utility.yul\":19431:19469   */\n      tag_222\n      jump\t// in\n    tag_429:\n        /* \"#utility.yul\":19515:19544   */\n      tag_430\n        /* \"#utility.yul\":19533:19543   */\n      dup5\n        /* \"#utility.yul\":19515:19544   */\n      tag_223\n      jump\t// in\n    tag_430:\n        /* \"#utility.yul\":19505:19513   */\n      dup2\n        /* \"#utility.yul\":19501:19545   */\n      add\n        /* \"#utility.yul\":19698:19700   */\n      0x20\n        /* \"#utility.yul\":19686:19696   */\n      dup6\n        /* \"#utility.yul\":19683:19701   */\n      lt\n        /* \"#utility.yul\":19680:19729   */\n      iszero\n      tag_431\n      jumpi\n        /* \"#utility.yul\":19719:19727   */\n      dup2\n        /* \"#utility.yul\":19704:19727   */\n      swap1\n      pop\n        /* \"#utility.yul\":19680:19729   */\n    tag_431:\n        /* \"#utility.yul\":19742:19822   */\n      tag_432\n        /* \"#utility.yul\":19798:19820   */\n      tag_433\n        /* \"#utility.yul\":19816:19819   */\n      dup6\n        /* \"#utility.yul\":19798:19820   */\n      tag_223\n      jump\t// in\n    tag_433:\n        /* \"#utility.yul\":19788:19796   */\n      dup4\n        /* \"#utility.yul\":19784:19821   */\n      add\n        /* \"#utility.yul\":19771:19782   */\n      dup3\n        /* \"#utility.yul\":19742:19822   */\n      tag_232\n      jump\t// in\n    tag_432:\n        /* \"#utility.yul\":19401:19832   */\n      pop\n      pop\n        /* \"#utility.yul\":19386:19832   */\n    tag_428:\n        /* \"#utility.yul\":19296:19839   */\n      pop\n      pop\n      pop\n      jump\t// out\n        /* \"#utility.yul\":19845:19962   */\n    tag_234:\n        /* \"#utility.yul\":19899:19907   */\n      0x00\n        /* \"#utility.yul\":19949:19954   */\n      dup3\n        /* \"#utility.yul\":19943:19947   */\n      dup3\n        /* \"#utility.yul\":19939:19955   */\n      shr\n        /* \"#utility.yul\":19918:19955   */\n      swap1\n      pop\n        /* \"#utility.yul\":19845:19962   */\n      swap3\n      swap2\n      pop\n      pop\n      jump\t// out\n        /* \"#utility.yul\":19968:20137   */\n    tag_235:\n        /* \"#utility.yul\":20012:20018   */\n      0x00\n        /* \"#utility.yul\":20045:20096   */\n      tag_436\n        /* \"#utility.yul\":20093:20094   */\n      0x00\n        /* \"#utility.yul\":20089:20095   */\n      not\n        /* \"#utility.yul\":20081:20086   */\n      dup5\n        /* \"#utility.yul\":20078:20079   */\n      0x08\n        /* \"#utility.yul\":20074:20087   */\n      mul\n        /* \"#utility.yul\":20045:20096   */\n      tag_234\n      jump\t// in\n    tag_436:\n        /* \"#utility.yul\":20041:20097   */\n      not\n        /* \"#utility.yul\":20126:20130   */\n      dup1\n        /* \"#utility.yul\":20120:20124   */\n      dup4\n        /* \"#utility.yul\":20116:20131   */\n      and\n        /* \"#utility.yul\":20106:20131   */\n      swap2\n      pop\n        /* \"#utility.yul\":20019:20137   */\n      pop\n        /* \"#utility.yul\":19968:20137   */\n      swap3\n      swap2\n      pop\n      pop\n      jump\t// out\n        /* \"#utility.yul\":20142:20437   */\n    tag_236:\n        /* \"#utility.yul\":20218:20222   */\n      0x00\n        /* \"#utility.yul\":20364:20393   */\n      tag_438\n        /* \"#utility.yul\":20389:20392   */\n      dup4\n        /* \"#utility.yul\":20383:20387   */\n      dup4\n        /* \"#utility.yul\":20364:20393   */\n      tag_235\n      jump\t// in\n    tag_438:\n        /* \"#utility.yul\":20356:20393   */\n      swap2\n      pop\n        /* \"#utility.yul\":20426:20429   */\n      dup3\n        /* \"#utility.yul\":20423:20424   */\n      0x02\n        /* \"#utility.yul\":20419:20430   */\n      mul\n        /* \"#utility.yul\":20413:20417   */\n      dup3\n        /* \"#utility.yul\":20410:20431   */\n      or\n        /* \"#utility.yul\":20402:20431   */\n      swap1\n      pop\n        /* \"#utility.yul\":20142:20437   */\n      swap3\n      swap2\n      pop\n      pop\n      jump\t// out\n        /* \"#utility.yul\":20442:21837   */\n    tag_102:\n        /* \"#utility.yul\":20559:20596   */\n      tag_440\n        /* \"#utility.yul\":20592:20595   */\n      dup3\n        /* \"#utility.yul\":20559:20596   */\n      tag_179\n      jump\t// in\n    tag_440:\n        /* \"#utility.yul\":20661:20679   */\n      0xffffffffffffffff\n        /* \"#utility.yul\":20653:20659   */\n      dup2\n        /* \"#utility.yul\":20650:20680   */\n      gt\n        /* \"#utility.yul\":20647:20703   */\n      iszero\n      tag_441\n      jumpi\n        /* \"#utility.yul\":20683:20701   */\n      tag_442\n      tag_187\n      jump\t// in\n    tag_442:\n        /* \"#utility.yul\":20647:20703   */\n    tag_441:\n        /* \"#utility.yul\":20727:20765   */\n      tag_443\n        /* \"#utility.yul\":20759:20763   */\n      dup3\n        /* \"#utility.yul\":20753:20764   */\n      sload\n        /* \"#utility.yul\":20727:20765   */\n      tag_83\n      jump\t// in\n    tag_443:\n        /* \"#utility.yul\":20812:20879   */\n      tag_444\n        /* \"#utility.yul\":20872:20878   */\n      dup3\n        /* \"#utility.yul\":20864:20870   */\n      dup3\n        /* \"#utility.yul\":20858:20862   */\n      dup6\n        /* \"#utility.yul\":20812:20879   */\n      tag_233\n      jump\t// in\n    tag_444:\n        /* \"#utility.yul\":20906:20907   */\n      0x00\n        /* \"#utility.yul\":20930:20934   */\n      0x20\n        /* \"#utility.yul\":20917:20934   */\n      swap1\n      pop\n        /* \"#utility.yul\":20962:20964   */\n      0x1f\n        /* \"#utility.yul\":20954:20960   */\n      dup4\n        /* \"#utility.yul\":20951:20965   */\n      gt\n        /* \"#utility.yul\":20979:20980   */\n      0x01\n        /* \"#utility.yul\":20974:21592   */\n      dup2\n      eq\n      tag_446\n      jumpi\n        /* \"#utility.yul\":21636:21637   */\n      0x00\n        /* \"#utility.yul\":21653:21659   */\n      dup5\n        /* \"#utility.yul\":21650:21727   */\n      iszero\n      tag_447\n      jumpi\n        /* \"#utility.yul\":21702:21711   */\n      dup3\n        /* \"#utility.yul\":21697:21700   */\n      dup8\n        /* \"#utility.yul\":21693:21712   */\n      add\n        /* \"#utility.yul\":21687:21713   */\n      mload\n        /* \"#utility.yul\":21678:21713   */\n      swap1\n      pop\n        /* \"#utility.yul\":21650:21727   */\n    tag_447:\n        /* \"#utility.yul\":21753:21820   */\n      tag_448\n        /* \"#utility.yul\":21813:21819   */\n      dup6\n        /* \"#utility.yul\":21806:21811   */\n      dup3\n        /* \"#utility.yul\":21753:21820   */\n      tag_236\n      jump\t// in\n    tag_448:\n        /* \"#utility.yul\":21747:21751   */\n      dup7\n        /* \"#utility.yul\":21740:21821   */\n      sstore\n        /* \"#utility.yul\":21609:21831   */\n      pop\n        /* \"#utility.yul\":20944:21831   */\n      jump(tag_445)\n        /* \"#utility.yul\":20974:21592   */\n    tag_446:\n        /* \"#utility.yul\":21026:21030   */\n      0x1f\n        /* \"#utility.yul\":21022:21031   */\n      not\n        /* \"#utility.yul\":21014:21020   */\n      dup5\n        /* \"#utility.yul\":21010:21032   */\n      and\n        /* \"#utility.yul\":21060:21097   */\n      tag_449\n        /* \"#utility.yul\":21092:21096   */\n      dup7\n        /* \"#utility.yul\":21060:21097   */\n      tag_222\n      jump\t// in\n    tag_449:\n        /* \"#utility.yul\":21119:21120   */\n      0x00\n        /* \"#utility.yul\":21133:21341   */\n    tag_450:\n        /* \"#utility.yul\":21147:21154   */\n      dup3\n        /* \"#utility.yul\":21144:21145   */\n      dup2\n        /* \"#utility.yul\":21141:21155   */\n      lt\n        /* \"#utility.yul\":21133:21341   */\n      iszero\n      tag_452\n      jumpi\n        /* \"#utility.yul\":21226:21235   */\n      dup5\n        /* \"#utility.yul\":21221:21224   */\n      dup10\n        /* \"#utility.yul\":21217:21236   */\n      add\n        /* \"#utility.yul\":21211:21237   */\n      mload\n        /* \"#utility.yul\":21203:21209   */\n      dup3\n        /* \"#utility.yul\":21196:21238   */\n      sstore\n        /* \"#utility.yul\":21277:21278   */\n      0x01\n        /* \"#utility.yul\":21269:21275   */\n      dup3\n        /* \"#utility.yul\":21265:21279   */\n      add\n        /* \"#utility.yul\":21255:21279   */\n      swap2\n      pop\n        /* \"#utility.yul\":21324:21326   */\n      0x20\n        /* \"#utility.yul\":21313:21322   */\n      dup6\n        /* \"#utility.yul\":21309:21327   */\n      add\n        /* \"#utility.yul\":21296:21327   */\n      swap5\n      pop\n        /* \"#utility.yul\":21170:21174   */\n      0x20\n        /* \"#utility.yul\":21167:21168   */\n      dup2\n        /* \"#utility.yul\":21163:21175   */\n      add\n        /* \"#utility.yul\":21158:21175   */\n      swap1\n      pop\n        /* \"#utility.yul\":21133:21341   */\n      jump(tag_450)\n    tag_452:\n        /* \"#utility.yul\":21369:21375   */\n      dup7\n        /* \"#utility.yul\":21360:21367   */\n      dup4\n        /* \"#utility.yul\":21357:21376   */\n      lt\n        /* \"#utility.yul\":21354:21533   */\n      iszero\n      tag_453\n      jumpi\n        /* \"#utility.yul\":21427:21436   */\n      dup5\n        /* \"#utility.yul\":21422:21425   */\n      dup10\n        /* \"#utility.yul\":21418:21437   */\n      add\n        /* \"#utility.yul\":21412:21438   */\n      mload\n        /* \"#utility.yul\":21470:21518   */\n      tag_454\n        /* \"#utility.yul\":21512:21516   */\n      0x1f\n        /* \"#utility.yul\":21504:21510   */\n      dup10\n        /* \"#utility.yul\":21500:21517   */\n      and\n        /* \"#utility.yul\":21489:21498   */\n      dup3\n        /* \"#utility.yul\":21470:21518   */\n      tag_235\n      jump\t// in\n    tag_454:\n        /* \"#utility.yul\":21462:21468   */\n      dup4\n        /* \"#utility.yul\":21455:21519   */\n      sstore\n        /* \"#utility.yul\":21377:21533   */\n      pop\n        /* \"#utility.yul\":21354:21533   */\n    tag_453:\n        /* \"#utility.yul\":21579:21580   */\n      0x01\n        /* \"#utility.yul\":21575:21576   */\n      0x02\n        /* \"#utility.yul\":21567:21573   */\n      dup9\n        /* \"#utility.yul\":21563:21577   */\n      mul\n        /* \"#utility.yul\":21559:21581   */\n      add\n        /* \"#utility.yul\":21553:21557   */\n      dup9\n        /* \"#utility.yul\":21546:21582   */\n      sstore\n        /* \"#utility.yul\":20981:21592   */\n      pop\n      pop\n      pop\n        /* \"#utility.yul\":20944:21831   */\n    tag_445:\n      pop\n        /* \"#utility.yul\":20534:21837   */\n      pop\n      pop\n      pop\n        /* \"#utility.yul\":20442:21837   */\n      pop\n      pop\n      jump\t// out\n        /* \"#utility.yul\":21843:22012   */\n    tag_237:\n        /* \"#utility.yul\":21983:22004   */\n      0x416c726561647920726567697374657265642e00000000000000000000000000\n        /* \"#utility.yul\":21979:21980   */\n      0x00\n        /* \"#utility.yul\":21971:21977   */\n      dup3\n        /* \"#utility.yul\":21967:21981   */\n      add\n        /* \"#utility.yul\":21960:22005   */\n      mstore\n        /* \"#utility.yul\":21843:22012   */\n      pop\n      jump\t// out\n        /* \"#utility.yul\":22018:22384   */\n    tag_238:\n        /* \"#utility.yul\":22160:22163   */\n      0x00\n        /* \"#utility.yul\":22181:22248   */\n      tag_457\n        /* \"#utility.yul\":22245:22247   */\n      0x13\n        /* \"#utility.yul\":22240:22243   */\n      dup4\n        /* \"#utility.yul\":22181:22248   */\n      tag_180\n      jump\t// in\n    tag_457:\n        /* \"#utility.yul\":22174:22248   */\n      swap2\n      pop\n        /* \"#utility.yul\":22257:22350   */\n      tag_458\n        /* \"#utility.yul\":22346:22349   */\n      dup3\n        /* \"#utility.yul\":22257:22350   */\n      tag_237\n      jump\t// in\n    tag_458:\n        /* \"#utility.yul\":22375:22377   */\n      0x20\n        /* \"#utility.yul\":22370:22373   */\n      dup3\n        /* \"#utility.yul\":22366:22378   */\n      add\n        /* \"#utility.yul\":22359:22378   */\n      swap1\n      pop\n        /* \"#utility.yul\":22018:22384   */\n      swap2\n      swap1\n      pop\n      jump\t// out\n        /* \"#utility.yul\":22390:22809   */\n    tag_129:\n        /* \"#utility.yul\":22556:22560   */\n      0x00\n        /* \"#utility.yul\":22594:22596   */\n      0x20\n        /* \"#utility.yul\":22583:22592   */\n      dup3\n        /* \"#utility.yul\":22579:22597   */\n      add\n        /* \"#utility.yul\":22571:22597   */\n      swap1\n      pop\n        /* \"#utility.yul\":22643:22652   */\n      dup2\n        /* \"#utility.yul\":22637:22641   */\n      dup2\n        /* \"#utility.yul\":22633:22653   */\n      sub\n        /* \"#utility.yul\":22629:22630   */\n      0x00\n        /* \"#utility.yul\":22618:22627   */\n      dup4\n        /* \"#utility.yul\":22614:22631   */\n      add\n        /* \"#utility.yul\":22607:22654   */\n      mstore\n        /* \"#utility.yul\":22671:22802   */\n      tag_460\n        /* \"#utility.yul\":22797:22801   */\n      dup2\n        /* \"#utility.yul\":22671:22802   */\n      tag_238\n      jump\t// in\n    tag_460:\n        /* \"#utility.yul\":22663:22802   */\n      swap1\n      pop\n        /* \"#utility.yul\":22390:22809   */\n      swap2\n      swap1\n      pop\n      jump\t// out\n\n    auxdata: 0xa264697066735822122084628ba02c3954748089765e07b0da12dbe0c6f2d83c3d5a5d25d1518767d42864736f6c634300081a0033\n}\n",
				"bytecode": {
					"linkReferences": {},
					"object": "608060405234801561000f575f80fd5b50604051611f8f380380611f8f833981810160405281019061003191906103c2565b335f806101000a81548173ffffffffffffffffffffffffffffffffffffffff021916908373ffffffffffffffffffffffffffffffffffffffff1602179055506001805f805f9054906101000a900473ffffffffffffffffffffffffffffffffffffffff1673ffffffffffffffffffffffffffffffffffffffff1673ffffffffffffffffffffffffffffffffffffffff1681526020019081526020015f205f01819055505f60035f6101000a81548160ff021916908360028111156100f8576100f7610409565b5b02179055505f5b815181101561018c576002604051806040016040528084848151811061012857610127610436565b5b602002602001015181526020015f815250908060018154018082558091505060019003905f5260205f2090600202015f909190919091505f820151815f0190816101729190610670565b5060208201518160010155505080806001019150506100ff565b505061073f565b5f604051905090565b5f80fd5b5f80fd5b5f80fd5b5f601f19601f8301169050919050565b7f4e487b71000000000000000000000000000000000000000000000000000000005f52604160045260245ffd5b6101ee826101a8565b810181811067ffffffffffffffff8211171561020d5761020c6101b8565b5b80604052505050565b5f61021f610193565b905061022b82826101e5565b919050565b5f67ffffffffffffffff82111561024a576102496101b8565b5b602082029050602081019050919050565b5f80fd5b5f80fd5b5f67ffffffffffffffff82111561027d5761027c6101b8565b5b610286826101a8565b9050602081019050919050565b8281835e5f83830152505050565b5f6102b36102ae84610263565b610216565b9050828152602081018484840111156102cf576102ce61025f565b5b6102da848285610293565b509392505050565b5f82601f8301126102f6576102f56101a4565b5b81516103068482602086016102a1565b91505092915050565b5f61032161031c84610230565b610216565b905080838252602082019050602084028301858111156103445761034361025b565b5b835b8181101561038b57805167ffffffffffffffff811115610369576103686101a4565b5b80860161037689826102e2565b85526020850194505050602081019050610346565b5050509392505050565b5f82601f8301126103a9576103a86101a4565b5b81516103b984826020860161030f565b91505092915050565b5f602082840312156103d7576103d661019c565b5b5f82015167ffffffffffffffff8111156103f4576103f36101a0565b5b61040084828501610395565b91505092915050565b7f4e487b71000000000000000000000000000000000000000000000000000000005f52602160045260245ffd5b7f4e487b71000000000000000000000000000000000000000000000000000000005f52603260045260245ffd5b5f81519050919050565b7f4e487b71000000000000000000000000000000000000000000000000000000005f52602260045260245ffd5b5f60028204905060018216806104b157607f821691505b6020821081036104c4576104c361046d565b5b50919050565b5f819050815f5260205f209050919050565b5f6020601f8301049050919050565b5f82821b905092915050565b5f600883026105267fffffffffffffffffffffffffffffffffffffffffffffffffffffffffffffffff826104eb565b61053086836104eb565b95508019841693508086168417925050509392505050565b5f819050919050565b5f819050919050565b5f61057461056f61056a84610548565b610551565b610548565b9050919050565b5f819050919050565b61058d8361055a565b6105a16105998261057b565b8484546104f7565b825550505050565b5f90565b6105b56105a9565b6105c0818484610584565b505050565b5b818110156105e3576105d85f826105ad565b6001810190506105c6565b5050565b601f821115610628576105f9816104ca565b610602846104dc565b81016020851015610611578190505b61062561061d856104dc565b8301826105c5565b50505b505050565b5f82821c905092915050565b5f6106485f198460080261062d565b1980831691505092915050565b5f6106608383610639565b9150826002028217905092915050565b61067982610463565b67ffffffffffffffff811115610692576106916101b8565b5b61069c825461049a565b6106a78282856105e7565b5f60209050601f8311600181146106d8575f84156106c6578287015190505b6106d08582610655565b865550610737565b601f1984166106e6866104ca565b5f5b8281101561070d578489015182556001820191506020850194506020810190506106e8565b8683101561072a5784890151610726601f891682610639565b8355505b6001600288020188555050505b505050505050565b6118438061074c5f395ff3fe608060405234801561000f575f80fd5b50600436106100a7575f3560e01c806372b4ca471161006f57806372b4ca471461013c578063786686581461015a578063a3ec138d14610164578063b922394614610196578063c19d93fb146101a0578063d28178d7146101be576100a7565b80630121b93f146100ab5780632e4176cf146100c75780633477ee2e146100e5578063462e91ec146101165780634c0a6af014610132575b5f80fd5b6100c560048036038101906100c09190610d03565b6101dc565b005b6100cf6103c7565b6040516100dc9190610d6d565b60405180910390f35b6100ff60048036038101906100fa9190610d03565b6103ea565b60405161010d929190610e05565b60405180910390f35b610130600480360381019061012b9190610f5f565b61049f565b005b61013a610639565b005b610144610794565b60405161015191906110f2565b60405180910390f35b610162610889565b005b61017e6004803603810190610179919061113c565b610987565b60405161018d93929190611181565b60405180910390f35b61019e6109b9565b005b6101a8610b15565b6040516101b59190611229565b60405180910390f35b6101c6610b27565b6040516101d39190611242565b60405180910390f35b60018060028111156101f1576101f06111b6565b5b60035f9054906101000a900460ff166002811115610212576102116111b6565b5b14610252576040517f08c379a0000000000000000000000000000000000000000000000000000000008152600401610249906112ac565b60405180910390fd5b5f60015f3373ffffffffffffffffffffffffffffffffffffffff1673ffffffffffffffffffffffffffffffffffffffff1681526020019081526020015f2090505f815f0154036102d7576040517f08c379a00000000000000000000000000000000000000000000000000000000081526004016102ce90611314565b60405180910390fd5b806001015f9054906101000a900460ff1615610328576040517f08c379a000000000000000000000000000000000000000000000000000000000815260040161031f9061137c565b60405180910390fd5b6001816001015f6101000a81548160ff021916908315150217905550828160020181905550805f0154600284815481106103655761036461139a565b5b905f5260205f2090600202016001015f82825461038291906113f4565b925050819055507f4d99b957a2bc29a30ebd96a7be8e68fe50a3c701db28a91436490b7d53870ca433846040516103ba929190611427565b60405180910390a1505050565b5f8054906101000a900473ffffffffffffffffffffffffffffffffffffffff1681565b600281815481106103f9575f80fd5b905f5260205f2090600202015f91509050805f0180546104189061147b565b80601f01602080910402602001604051908101604052809291908181526020018280546104449061147b565b801561048f5780601f106104665761010080835404028352916020019161048f565b820191905f5260205f20905b81548152906001019060200180831161047257829003601f168201915b5050505050908060010154905082565b5f8054906101000a900473ffffffffffffffffffffffffffffffffffffffff1673ffffffffffffffffffffffffffffffffffffffff163373ffffffffffffffffffffffffffffffffffffffff161461052c576040517f08c379a00000000000000000000000000000000000000000000000000000000081526004016105239061151b565b60405180910390fd5b5f8060028111156105405761053f6111b6565b5b60035f9054906101000a900460ff166002811115610561576105606111b6565b5b146105a1576040517f08c379a0000000000000000000000000000000000000000000000000000000008152600401610598906112ac565b60405180910390fd5b600260405180604001604052808481526020015f815250908060018154018082558091505060019003905f5260205f2090600202015f909190919091505f820151815f0190816105f191906116d6565b506020820151816001015550507ff29562dad1599aea0ebb142466120aab326d5efa8f839df82a9c064bf78e89388260405161062d9190611242565b60405180910390a15050565b5f8054906101000a900473ffffffffffffffffffffffffffffffffffffffff1673ffffffffffffffffffffffffffffffffffffffff163373ffffffffffffffffffffffffffffffffffffffff16146106c6576040517f08c379a00000000000000000000000000000000000000000000000000000000081526004016106bd9061151b565b60405180910390fd5b5f8060028111156106da576106d96111b6565b5b60035f9054906101000a900460ff1660028111156106fb576106fa6111b6565b5b1461073b576040517f08c379a0000000000000000000000000000000000000000000000000000000008152600401610732906112ac565b60405180910390fd5b600160035f6101000a81548160ff021916908360028111156107605761075f6111b6565b5b02179055507fc475c26aa25ed8e85a7faa790e5f63b5d7ee1025f12821f4c9bfddd36ab4d11260405160405180910390a150565b60606002805480602002602001604051908101604052809291908181526020015f905b82821015610880578382905f5260205f2090600202016040518060400160405290815f820180546107e79061147b565b80601f01602080910402602001604051908101604052809291908181526020018280546108139061147b565b801561085e5780601f106108355761010080835404028352916020019161085e565b820191905f5260205f20905b81548152906001019060200180831161084157829003601f168201915b50505050508152602001600182015481525050815260200190600101906107b7565b50505050905090565b5f60015f3373ffffffffffffffffffffffffffffffffffffffff1673ffffffffffffffffffffffffffffffffffffffff1681526020019081526020015f205f01541461090a576040517f08c379a0000000000000000000000000000000000000000000000000000000008152600401610901906117ef565b60405180910390fd5b6001805f3373ffffffffffffffffffffffffffffffffffffffff1673ffffffffffffffffffffffffffffffffffffffff1681526020019081526020015f205f01819055507fb6be2187d059cc2a55fe29e0e503b566e1e0f8c8780096e185429350acffd3dd3360405161097d9190610d6d565b60405180910390a1565b6001602052805f5260405f205f91509050805f015490806001015f9054906101000a900460ff16908060020154905083565b5f8054906101000a900473ffffffffffffffffffffffffffffffffffffffff1673ffffffffffffffffffffffffffffffffffffffff163373ffffffffffffffffffffffffffffffffffffffff1614610a46576040517f08c379a0000000000000000000000000000000000000000000000000000000008152600401610a3d9061151b565b60405180910390fd5b6001806002811115610a5b57610a5a6111b6565b5b60035f9054906101000a900460ff166002811115610a7c57610a7b6111b6565b5b14610abc576040517f08c379a0000000000000000000000000000000000000000000000000000000008152600401610ab3906112ac565b60405180910390fd5b600260035f6101000a81548160ff02191690836002811115610ae157610ae06111b6565b5b02179055507f66ec723071e4bb646f7b35d31bc2dee8510979bd8c180edd0690d4f5e802f1e460405160405180910390a150565b60035f9054906101000a900460ff1681565b60606002806002811115610b3e57610b3d6111b6565b5b60035f9054906101000a900460ff166002811115610b5f57610b5e6111b6565b5b14610b9f576040517f08c379a0000000000000000000000000000000000000000000000000000000008152600401610b96906112ac565b60405180910390fd5b5f805b600280549050811015610cb9578160028281548110610bc457610bc361139a565b5b905f5260205f209060020201600101541115610cac5760028181548110610bee57610bed61139a565b5b905f5260205f20906002020160010154915060028181548110610c1457610c1361139a565b5b905f5260205f2090600202015f018054610c2d9061147b565b80601f0160208091040260200160405190810160405280929190818152602001828054610c599061147b565b8015610ca45780601f10610c7b57610100808354040283529160200191610ca4565b820191905f5260205f20905b815481529060010190602001808311610c8757829003601f168201915b505050505093505b8080600101915050610ba2565b50505090565b5f604051905090565b5f80fd5b5f80fd5b5f819050919050565b610ce281610cd0565b8114610cec575f80fd5b50565b5f81359050610cfd81610cd9565b92915050565b5f60208284031215610d1857610d17610cc8565b5b5f610d2584828501610cef565b91505092915050565b5f73ffffffffffffffffffffffffffffffffffffffff82169050919050565b5f610d5782610d2e565b9050919050565b610d6781610d4d565b82525050565b5f602082019050610d805f830184610d5e565b92915050565b5f81519050919050565b5f82825260208201905092915050565b8281835e5f83830152505050565b5f601f19601f8301169050919050565b5f610dc882610d86565b610dd28185610d90565b9350610de2818560208601610da0565b610deb81610dae565b840191505092915050565b610dff81610cd0565b82525050565b5f6040820190508181035f830152610e1d8185610dbe565b9050610e2c6020830184610df6565b9392505050565b5f80fd5b5f80fd5b7f4e487b71000000000000000000000000000000000000000000000000000000005f52604160045260245ffd5b610e7182610dae565b810181811067ffffffffffffffff82111715610e9057610e8f610e3b565b5b80604052505050565b5f610ea2610cbf565b9050610eae8282610e68565b919050565b5f67ffffffffffffffff821115610ecd57610ecc610e3b565b5b610ed682610dae565b9050602081019050919050565b828183375f83830152505050565b5f610f03610efe84610eb3565b610e99565b905082815260208101848484011115610f1f57610f1e610e37565b5b610f2a848285610ee3565b509392505050565b5f82601f830112610f4657610f45610e33565b5b8135610f56848260208601610ef1565b91505092915050565b5f60208284031215610f7457610f73610cc8565b5b5f82013567ffffffffffffffff811115610f9157610f90610ccc565b5b610f9d84828501610f32565b91505092915050565b5f81519050919050565b5f82825260208201905092915050565b5f819050602082019050919050565b5f82825260208201905092915050565b5f610fe982610d86565b610ff38185610fcf565b9350611003818560208601610da0565b61100c81610dae565b840191505092915050565b61102081610cd0565b82525050565b5f604083015f8301518482035f8601526110408282610fdf565b91505060208301516110556020860182611017565b508091505092915050565b5f61106b8383611026565b905092915050565b5f602082019050919050565b5f61108982610fa6565b6110938185610fb0565b9350836020820285016110a585610fc0565b805f5b858110156110e057848403895281516110c18582611060565b94506110cc83611073565b925060208a019950506001810190506110a8565b50829750879550505050505092915050565b5f6020820190508181035f83015261110a818461107f565b905092915050565b61111b81610d4d565b8114611125575f80fd5b50565b5f8135905061113681611112565b92915050565b5f6020828403121561115157611150610cc8565b5b5f61115e84828501611128565b91505092915050565b5f8115159050919050565b61117b81611167565b82525050565b5f6060820190506111945f830186610df6565b6111a16020830185611172565b6111ae6040830184610df6565b949350505050565b7f4e487b71000000000000000000000000000000000000000000000000000000005f52602160045260245ffd5b600381106111f4576111f36111b6565b5b50565b5f819050611204826111e3565b919050565b5f611213826111f7565b9050919050565b61122381611209565b82525050565b5f60208201905061123c5f83018461121a565b92915050565b5f6020820190508181035f83015261125a8184610dbe565b905092915050565b7f496e76616c696420737461746520666f72207468697320616374696f6e0000005f82015250565b5f611296601d83610d90565b91506112a182611262565b602082019050919050565b5f6020820190508181035f8301526112c38161128a565b9050919050565b7f4e6f20726967687420746f20766f7465000000000000000000000000000000005f82015250565b5f6112fe601083610d90565b9150611309826112ca565b602082019050919050565b5f6020820190508181035f83015261132b816112f2565b9050919050565b7f416c726561647920766f746564000000000000000000000000000000000000005f82015250565b5f611366600d83610d90565b915061137182611332565b602082019050919050565b5f6020820190508181035f8301526113938161135a565b9050919050565b7f4e487b71000000000000000000000000000000000000000000000000000000005f52603260045260245ffd5b7f4e487b71000000000000000000000000000000000000000000000000000000005f52601160045260245ffd5b5f6113fe82610cd0565b915061140983610cd0565b9250828201905080821115611421576114206113c7565b5b92915050565b5f60408201905061143a5f830185610d5e565b6114476020830184610df6565b9392505050565b7f4e487b71000000000000000000000000000000000000000000000000000000005f52602260045260245ffd5b5f600282049050600182168061149257607f821691505b6020821081036114a5576114a461144e565b5b50919050565b7f4f6e6c79206368616972706572736f6e2063616e20706572666f726d207468695f8201527f7320616374696f6e000000000000000000000000000000000000000000000000602082015250565b5f611505602883610d90565b9150611510826114ab565b604082019050919050565b5f6020820190508181035f830152611532816114f9565b9050919050565b5f819050815f5260205f209050919050565b5f6020601f8301049050919050565b5f82821b905092915050565b5f600883026115957fffffffffffffffffffffffffffffffffffffffffffffffffffffffffffffffff8261155a565b61159f868361155a565b95508019841693508086168417925050509392505050565b5f819050919050565b5f6115da6115d56115d084610cd0565b6115b7565b610cd0565b9050919050565b5f819050919050565b6115f3836115c0565b6116076115ff826115e1565b848454611566565b825550505050565b5f90565b61161b61160f565b6116268184846115ea565b505050565b5b818110156116495761163e5f82611613565b60018101905061162c565b5050565b601f82111561168e5761165f81611539565b6116688461154b565b81016020851015611677578190505b61168b6116838561154b565b83018261162b565b50505b505050565b5f82821c905092915050565b5f6116ae5f1984600802611693565b1980831691505092915050565b5f6116c6838361169f565b9150826002028217905092915050565b6116df82610d86565b67ffffffffffffffff8111156116f8576116f7610e3b565b5b611702825461147b565b61170d82828561164d565b5f60209050601f83116001811461173e575f841561172c578287015190505b61173685826116bb565b86555061179d565b601f19841661174c86611539565b5f5b828110156117735784890151825560018201915060208501945060208101905061174e565b86831015611790578489015161178c601f89168261169f565b8355505b6001600288020188555050505b505050505050565b7f416c726561647920726567697374657265642e000000000000000000000000005f82015250565b5f6117d9601383610d90565b91506117e4826117a5565b602082019050919050565b5f6020820190508181035f830152611806816117cd565b905091905056fea264697066735822122084628ba02c3954748089765e07b0da12dbe0c6f2d83c3d5a5d25d1518767d42864736f6c634300081a0033",
					"opcodes": "PUSH1 0x80 PUSH1 0x40 MSTORE CALLVALUE DUP1 ISZERO PUSH2 0xF JUMPI PUSH0 DUP1 REVERT JUMPDEST POP PUSH1 0x40 MLOAD PUSH2 0x1F8F CODESIZE SUB DUP1 PUSH2 0x1F8F DUP4 CODECOPY DUP2 DUP2 ADD PUSH1 0x40 MSTORE DUP2 ADD SWAP1 PUSH2 0x31 SWAP2 SWAP1 PUSH2 0x3C2 JUMP JUMPDEST CALLER PUSH0 DUP1 PUSH2 0x100 EXP DUP2 SLOAD DUP2 PUSH20 0xFFFFFFFFFFFFFFFFFFFFFFFFFFFFFFFFFFFFFFFF MUL NOT AND SWAP1 DUP4 PUSH20 0xFFFFFFFFFFFFFFFFFFFFFFFFFFFFFFFFFFFFFFFF AND MUL OR SWAP1 SSTORE POP PUSH1 0x1 DUP1 PUSH0 DUP1 PUSH0 SWAP1 SLOAD SWAP1 PUSH2 0x100 EXP SWAP1 DIV PUSH20 0xFFFFFFFFFFFFFFFFFFFFFFFFFFFFFFFFFFFFFFFF AND PUSH20 0xFFFFFFFFFFFFFFFFFFFFFFFFFFFFFFFFFFFFFFFF AND PUSH20 0xFFFFFFFFFFFFFFFFFFFFFFFFFFFFFFFFFFFFFFFF AND DUP2 MSTORE PUSH1 0x20 ADD SWAP1 DUP2 MSTORE PUSH1 0x20 ADD PUSH0 KECCAK256 PUSH0 ADD DUP2 SWAP1 SSTORE POP PUSH0 PUSH1 0x3 PUSH0 PUSH2 0x100 EXP DUP2 SLOAD DUP2 PUSH1 0xFF MUL NOT AND SWAP1 DUP4 PUSH1 0x2 DUP2 GT ISZERO PUSH2 0xF8 JUMPI PUSH2 0xF7 PUSH2 0x409 JUMP JUMPDEST JUMPDEST MUL OR SWAP1 SSTORE POP PUSH0 JUMPDEST DUP2 MLOAD DUP2 LT ISZERO PUSH2 0x18C JUMPI PUSH1 0x2 PUSH1 0x40 MLOAD DUP1 PUSH1 0x40 ADD PUSH1 0x40 MSTORE DUP1 DUP5 DUP5 DUP2 MLOAD DUP2 LT PUSH2 0x128 JUMPI PUSH2 0x127 PUSH2 0x436 JUMP JUMPDEST JUMPDEST PUSH1 0x20 MUL PUSH1 0x20 ADD ADD MLOAD DUP2 MSTORE PUSH1 0x20 ADD PUSH0 DUP2 MSTORE POP SWAP1 DUP1 PUSH1 0x1 DUP2 SLOAD ADD DUP1 DUP3 SSTORE DUP1 SWAP2 POP POP PUSH1 0x1 SWAP1 SUB SWAP1 PUSH0 MSTORE PUSH1 0x20 PUSH0 KECCAK256 SWAP1 PUSH1 0x2 MUL ADD PUSH0 SWAP1 SWAP2 SWAP1 SWAP2 SWAP1 SWAP2 POP PUSH0 DUP3 ADD MLOAD DUP2 PUSH0 ADD SWAP1 DUP2 PUSH2 0x172 SWAP2 SWAP1 PUSH2 0x670 JUMP JUMPDEST POP PUSH1 0x20 DUP3 ADD MLOAD DUP2 PUSH1 0x1 ADD SSTORE POP POP DUP1 DUP1 PUSH1 0x1 ADD SWAP2 POP POP PUSH2 0xFF JUMP JUMPDEST POP POP PUSH2 0x73F JUMP JUMPDEST PUSH0 PUSH1 0x40 MLOAD SWAP1 POP SWAP1 JUMP JUMPDEST PUSH0 DUP1 REVERT JUMPDEST PUSH0 DUP1 REVERT JUMPDEST PUSH0 DUP1 REVERT JUMPDEST PUSH0 PUSH1 0x1F NOT PUSH1 0x1F DUP4 ADD AND SWAP1 POP SWAP2 SWAP1 POP JUMP JUMPDEST PUSH32 0x4E487B7100000000000000000000000000000000000000000000000000000000 PUSH0 MSTORE PUSH1 0x41 PUSH1 0x4 MSTORE PUSH1 0x24 PUSH0 REVERT JUMPDEST PUSH2 0x1EE DUP3 PUSH2 0x1A8 JUMP JUMPDEST DUP2 ADD DUP2 DUP2 LT PUSH8 0xFFFFFFFFFFFFFFFF DUP3 GT OR ISZERO PUSH2 0x20D JUMPI PUSH2 0x20C PUSH2 0x1B8 JUMP JUMPDEST JUMPDEST DUP1 PUSH1 0x40 MSTORE POP POP POP JUMP JUMPDEST PUSH0 PUSH2 0x21F PUSH2 0x193 JUMP JUMPDEST SWAP1 POP PUSH2 0x22B DUP3 DUP3 PUSH2 0x1E5 JUMP JUMPDEST SWAP2 SWAP1 POP JUMP JUMPDEST PUSH0 PUSH8 0xFFFFFFFFFFFFFFFF DUP3 GT ISZERO PUSH2 0x24A JUMPI PUSH2 0x249 PUSH2 0x1B8 JUMP JUMPDEST JUMPDEST PUSH1 0x20 DUP3 MUL SWAP1 POP PUSH1 0x20 DUP2 ADD SWAP1 POP SWAP2 SWAP1 POP JUMP JUMPDEST PUSH0 DUP1 REVERT JUMPDEST PUSH0 DUP1 REVERT JUMPDEST PUSH0 PUSH8 0xFFFFFFFFFFFFFFFF DUP3 GT ISZERO PUSH2 0x27D JUMPI PUSH2 0x27C PUSH2 0x1B8 JUMP JUMPDEST JUMPDEST PUSH2 0x286 DUP3 PUSH2 0x1A8 JUMP JUMPDEST SWAP1 POP PUSH1 0x20 DUP2 ADD SWAP1 POP SWAP2 SWAP1 POP JUMP JUMPDEST DUP3 DUP2 DUP4 MCOPY PUSH0 DUP4 DUP4 ADD MSTORE POP POP POP JUMP JUMPDEST PUSH0 PUSH2 0x2B3 PUSH2 0x2AE DUP5 PUSH2 0x263 JUMP JUMPDEST PUSH2 0x216 JUMP JUMPDEST SWAP1 POP DUP3 DUP2 MSTORE PUSH1 0x20 DUP2 ADD DUP5 DUP5 DUP5 ADD GT ISZERO PUSH2 0x2CF JUMPI PUSH2 0x2CE PUSH2 0x25F JUMP JUMPDEST JUMPDEST PUSH2 0x2DA DUP5 DUP3 DUP6 PUSH2 0x293 JUMP JUMPDEST POP SWAP4 SWAP3 POP POP POP JUMP JUMPDEST PUSH0 DUP3 PUSH1 0x1F DUP4 ADD SLT PUSH2 0x2F6 JUMPI PUSH2 0x2F5 PUSH2 0x1A4 JUMP JUMPDEST JUMPDEST DUP2 MLOAD PUSH2 0x306 DUP5 DUP3 PUSH1 0x20 DUP7 ADD PUSH2 0x2A1 JUMP JUMPDEST SWAP2 POP POP SWAP3 SWAP2 POP POP JUMP JUMPDEST PUSH0 PUSH2 0x321 PUSH2 0x31C DUP5 PUSH2 0x230 JUMP JUMPDEST PUSH2 0x216 JUMP JUMPDEST SWAP1 POP DUP1 DUP4 DUP3 MSTORE PUSH1 0x20 DUP3 ADD SWAP1 POP PUSH1 0x20 DUP5 MUL DUP4 ADD DUP6 DUP2 GT ISZERO PUSH2 0x344 JUMPI PUSH2 0x343 PUSH2 0x25B JUMP JUMPDEST JUMPDEST DUP4 JUMPDEST DUP2 DUP2 LT ISZERO PUSH2 0x38B JUMPI DUP1 MLOAD PUSH8 0xFFFFFFFFFFFFFFFF DUP2 GT ISZERO PUSH2 0x369 JUMPI PUSH2 0x368 PUSH2 0x1A4 JUMP JUMPDEST JUMPDEST DUP1 DUP7 ADD PUSH2 0x376 DUP10 DUP3 PUSH2 0x2E2 JUMP JUMPDEST DUP6 MSTORE PUSH1 0x20 DUP6 ADD SWAP5 POP POP POP PUSH1 0x20 DUP2 ADD SWAP1 POP PUSH2 0x346 JUMP JUMPDEST POP POP POP SWAP4 SWAP3 POP POP POP JUMP JUMPDEST PUSH0 DUP3 PUSH1 0x1F DUP4 ADD SLT PUSH2 0x3A9 JUMPI PUSH2 0x3A8 PUSH2 0x1A4 JUMP JUMPDEST JUMPDEST DUP2 MLOAD PUSH2 0x3B9 DUP5 DUP3 PUSH1 0x20 DUP7 ADD PUSH2 0x30F JUMP JUMPDEST SWAP2 POP POP SWAP3 SWAP2 POP POP JUMP JUMPDEST PUSH0 PUSH1 0x20 DUP3 DUP5 SUB SLT ISZERO PUSH2 0x3D7 JUMPI PUSH2 0x3D6 PUSH2 0x19C JUMP JUMPDEST JUMPDEST PUSH0 DUP3 ADD MLOAD PUSH8 0xFFFFFFFFFFFFFFFF DUP2 GT ISZERO PUSH2 0x3F4 JUMPI PUSH2 0x3F3 PUSH2 0x1A0 JUMP JUMPDEST JUMPDEST PUSH2 0x400 DUP5 DUP3 DUP6 ADD PUSH2 0x395 JUMP JUMPDEST SWAP2 POP POP SWAP3 SWAP2 POP POP JUMP JUMPDEST PUSH32 0x4E487B7100000000000000000000000000000000000000000000000000000000 PUSH0 MSTORE PUSH1 0x21 PUSH1 0x4 MSTORE PUSH1 0x24 PUSH0 REVERT JUMPDEST PUSH32 0x4E487B7100000000000000000000000000000000000000000000000000000000 PUSH0 MSTORE PUSH1 0x32 PUSH1 0x4 MSTORE PUSH1 0x24 PUSH0 REVERT JUMPDEST PUSH0 DUP2 MLOAD SWAP1 POP SWAP2 SWAP1 POP JUMP JUMPDEST PUSH32 0x4E487B7100000000000000000000000000000000000000000000000000000000 PUSH0 MSTORE PUSH1 0x22 PUSH1 0x4 MSTORE PUSH1 0x24 PUSH0 REVERT JUMPDEST PUSH0 PUSH1 0x2 DUP3 DIV SWAP1 POP PUSH1 0x1 DUP3 AND DUP1 PUSH2 0x4B1 JUMPI PUSH1 0x7F DUP3 AND SWAP2 POP JUMPDEST PUSH1 0x20 DUP3 LT DUP2 SUB PUSH2 0x4C4 JUMPI PUSH2 0x4C3 PUSH2 0x46D JUMP JUMPDEST JUMPDEST POP SWAP2 SWAP1 POP JUMP JUMPDEST PUSH0 DUP2 SWAP1 POP DUP2 PUSH0 MSTORE PUSH1 0x20 PUSH0 KECCAK256 SWAP1 POP SWAP2 SWAP1 POP JUMP JUMPDEST PUSH0 PUSH1 0x20 PUSH1 0x1F DUP4 ADD DIV SWAP1 POP SWAP2 SWAP1 POP JUMP JUMPDEST PUSH0 DUP3 DUP3 SHL SWAP1 POP SWAP3 SWAP2 POP POP JUMP JUMPDEST PUSH0 PUSH1 0x8 DUP4 MUL PUSH2 0x526 PUSH32 0xFFFFFFFFFFFFFFFFFFFFFFFFFFFFFFFFFFFFFFFFFFFFFFFFFFFFFFFFFFFFFFFF DUP3 PUSH2 0x4EB JUMP JUMPDEST PUSH2 0x530 DUP7 DUP4 PUSH2 0x4EB JUMP JUMPDEST SWAP6 POP DUP1 NOT DUP5 AND SWAP4 POP DUP1 DUP7 AND DUP5 OR SWAP3 POP POP POP SWAP4 SWAP3 POP POP POP JUMP JUMPDEST PUSH0 DUP2 SWAP1 POP SWAP2 SWAP1 POP JUMP JUMPDEST PUSH0 DUP2 SWAP1 POP SWAP2 SWAP1 POP JUMP JUMPDEST PUSH0 PUSH2 0x574 PUSH2 0x56F PUSH2 0x56A DUP5 PUSH2 0x548 JUMP JUMPDEST PUSH2 0x551 JUMP JUMPDEST PUSH2 0x548 JUMP JUMPDEST SWAP1 POP SWAP2 SWAP1 POP JUMP JUMPDEST PUSH0 DUP2 SWAP1 POP SWAP2 SWAP1 POP JUMP JUMPDEST PUSH2 0x58D DUP4 PUSH2 0x55A JUMP JUMPDEST PUSH2 0x5A1 PUSH2 0x599 DUP3 PUSH2 0x57B JUMP JUMPDEST DUP5 DUP5 SLOAD PUSH2 0x4F7 JUMP JUMPDEST DUP3 SSTORE POP POP POP POP JUMP JUMPDEST PUSH0 SWAP1 JUMP JUMPDEST PUSH2 0x5B5 PUSH2 0x5A9 JUMP JUMPDEST PUSH2 0x5C0 DUP2 DUP5 DUP5 PUSH2 0x584 JUMP JUMPDEST POP POP POP JUMP JUMPDEST JUMPDEST DUP2 DUP2 LT ISZERO PUSH2 0x5E3 JUMPI PUSH2 0x5D8 PUSH0 DUP3 PUSH2 0x5AD JUMP JUMPDEST PUSH1 0x1 DUP2 ADD SWAP1 POP PUSH2 0x5C6 JUMP JUMPDEST POP POP JUMP JUMPDEST PUSH1 0x1F DUP3 GT ISZERO PUSH2 0x628 JUMPI PUSH2 0x5F9 DUP2 PUSH2 0x4CA JUMP JUMPDEST PUSH2 0x602 DUP5 PUSH2 0x4DC JUMP JUMPDEST DUP2 ADD PUSH1 0x20 DUP6 LT ISZERO PUSH2 0x611 JUMPI DUP2 SWAP1 POP JUMPDEST PUSH2 0x625 PUSH2 0x61D DUP6 PUSH2 0x4DC JUMP JUMPDEST DUP4 ADD DUP3 PUSH2 0x5C5 JUMP JUMPDEST POP POP JUMPDEST POP POP POP JUMP JUMPDEST PUSH0 DUP3 DUP3 SHR SWAP1 POP SWAP3 SWAP2 POP POP JUMP JUMPDEST PUSH0 PUSH2 0x648 PUSH0 NOT DUP5 PUSH1 0x8 MUL PUSH2 0x62D JUMP JUMPDEST NOT DUP1 DUP4 AND SWAP2 POP POP SWAP3 SWAP2 POP POP JUMP JUMPDEST PUSH0 PUSH2 0x660 DUP4 DUP4 PUSH2 0x639 JUMP JUMPDEST SWAP2 POP DUP3 PUSH1 0x2 MUL DUP3 OR SWAP1 POP SWAP3 SWAP2 POP POP JUMP JUMPDEST PUSH2 0x679 DUP3 PUSH2 0x463 JUMP JUMPDEST PUSH8 0xFFFFFFFFFFFFFFFF DUP2 GT ISZERO PUSH2 0x692 JUMPI PUSH2 0x691 PUSH2 0x1B8 JUMP JUMPDEST JUMPDEST PUSH2 0x69C DUP3 SLOAD PUSH2 0x49A JUMP JUMPDEST PUSH2 0x6A7 DUP3 DUP3 DUP6 PUSH2 0x5E7 JUMP JUMPDEST PUSH0 PUSH1 0x20 SWAP1 POP PUSH1 0x1F DUP4 GT PUSH1 0x1 DUP2 EQ PUSH2 0x6D8 JUMPI PUSH0 DUP5 ISZERO PUSH2 0x6C6 JUMPI DUP3 DUP8 ADD MLOAD SWAP1 POP JUMPDEST PUSH2 0x6D0 DUP6 DUP3 PUSH2 0x655 JUMP JUMPDEST DUP7 SSTORE POP PUSH2 0x737 JUMP JUMPDEST PUSH1 0x1F NOT DUP5 AND PUSH2 0x6E6 DUP7 PUSH2 0x4CA JUMP JUMPDEST PUSH0 JUMPDEST DUP3 DUP2 LT ISZERO PUSH2 0x70D JUMPI DUP5 DUP10 ADD MLOAD DUP3 SSTORE PUSH1 0x1 DUP3 ADD SWAP2 POP PUSH1 0x20 DUP6 ADD SWAP5 POP PUSH1 0x20 DUP2 ADD SWAP1 POP PUSH2 0x6E8 JUMP JUMPDEST DUP7 DUP4 LT ISZERO PUSH2 0x72A JUMPI DUP5 DUP10 ADD MLOAD PUSH2 0x726 PUSH1 0x1F DUP10 AND DUP3 PUSH2 0x639 JUMP JUMPDEST DUP4 SSTORE POP JUMPDEST PUSH1 0x1 PUSH1 0x2 DUP9 MUL ADD DUP9 SSTORE POP POP POP JUMPDEST POP POP POP POP POP POP JUMP JUMPDEST PUSH2 0x1843 DUP1 PUSH2 0x74C PUSH0 CODECOPY PUSH0 RETURN INVALID PUSH1 0x80 PUSH1 0x40 MSTORE CALLVALUE DUP1 ISZERO PUSH2 0xF JUMPI PUSH0 DUP1 REVERT JUMPDEST POP PUSH1 0x4 CALLDATASIZE LT PUSH2 0xA7 JUMPI PUSH0 CALLDATALOAD PUSH1 0xE0 SHR DUP1 PUSH4 0x72B4CA47 GT PUSH2 0x6F JUMPI DUP1 PUSH4 0x72B4CA47 EQ PUSH2 0x13C JUMPI DUP1 PUSH4 0x78668658 EQ PUSH2 0x15A JUMPI DUP1 PUSH4 0xA3EC138D EQ PUSH2 0x164 JUMPI DUP1 PUSH4 0xB9223946 EQ PUSH2 0x196 JUMPI DUP1 PUSH4 0xC19D93FB EQ PUSH2 0x1A0 JUMPI DUP1 PUSH4 0xD28178D7 EQ PUSH2 0x1BE JUMPI PUSH2 0xA7 JUMP JUMPDEST DUP1 PUSH4 0x121B93F EQ PUSH2 0xAB JUMPI DUP1 PUSH4 0x2E4176CF EQ PUSH2 0xC7 JUMPI DUP1 PUSH4 0x3477EE2E EQ PUSH2 0xE5 JUMPI DUP1 PUSH4 0x462E91EC EQ PUSH2 0x116 JUMPI DUP1 PUSH4 0x4C0A6AF0 EQ PUSH2 0x132 JUMPI JUMPDEST PUSH0 DUP1 REVERT JUMPDEST PUSH2 0xC5 PUSH1 0x4 DUP1 CALLDATASIZE SUB DUP2 ADD SWAP1 PUSH2 0xC0 SWAP2 SWAP1 PUSH2 0xD03 JUMP JUMPDEST PUSH2 0x1DC JUMP JUMPDEST STOP JUMPDEST PUSH2 0xCF PUSH2 0x3C7 JUMP JUMPDEST PUSH1 0x40 MLOAD PUSH2 0xDC SWAP2 SWAP1 PUSH2 0xD6D JUMP JUMPDEST PUSH1 0x40 MLOAD DUP1 SWAP2 SUB SWAP1 RETURN JUMPDEST PUSH2 0xFF PUSH1 0x4 DUP1 CALLDATASIZE SUB DUP2 ADD SWAP1 PUSH2 0xFA SWAP2 SWAP1 PUSH2 0xD03 JUMP JUMPDEST PUSH2 0x3EA JUMP JUMPDEST PUSH1 0x40 MLOAD PUSH2 0x10D SWAP3 SWAP2 SWAP1 PUSH2 0xE05 JUMP JUMPDEST PUSH1 0x40 MLOAD DUP1 SWAP2 SUB SWAP1 RETURN JUMPDEST PUSH2 0x130 PUSH1 0x4 DUP1 CALLDATASIZE SUB DUP2 ADD SWAP1 PUSH2 0x12B SWAP2 SWAP1 PUSH2 0xF5F JUMP JUMPDEST PUSH2 0x49F JUMP JUMPDEST STOP JUMPDEST PUSH2 0x13A PUSH2 0x639 JUMP JUMPDEST STOP JUMPDEST PUSH2 0x144 PUSH2 0x794 JUMP JUMPDEST PUSH1 0x40 MLOAD PUSH2 0x151 SWAP2 SWAP1 PUSH2 0x10F2 JUMP JUMPDEST PUSH1 0x40 MLOAD DUP1 SWAP2 SUB SWAP1 RETURN JUMPDEST PUSH2 0x162 PUSH2 0x889 JUMP JUMPDEST STOP JUMPDEST PUSH2 0x17E PUSH1 0x4 DUP1 CALLDATASIZE SUB DUP2 ADD SWAP1 PUSH2 0x179 SWAP2 SWAP1 PUSH2 0x113C JUMP JUMPDEST PUSH2 0x987 JUMP JUMPDEST PUSH1 0x40 MLOAD PUSH2 0x18D SWAP4 SWAP3 SWAP2 SWAP1 PUSH2 0x1181 JUMP JUMPDEST PUSH1 0x40 MLOAD DUP1 SWAP2 SUB SWAP1 RETURN JUMPDEST PUSH2 0x19E PUSH2 0x9B9 JUMP JUMPDEST STOP JUMPDEST PUSH2 0x1A8 PUSH2 0xB15 JUMP JUMPDEST PUSH1 0x40 MLOAD PUSH2 0x1B5 SWAP2 SWAP1 PUSH2 0x1229 JUMP JUMPDEST PUSH1 0x40 MLOAD DUP1 SWAP2 SUB SWAP1 RETURN JUMPDEST PUSH2 0x1C6 PUSH2 0xB27 JUMP JUMPDEST PUSH1 0x40 MLOAD PUSH2 0x1D3 SWAP2 SWAP1 PUSH2 0x1242 JUMP JUMPDEST PUSH1 0x40 MLOAD DUP1 SWAP2 SUB SWAP1 RETURN JUMPDEST PUSH1 0x1 DUP1 PUSH1 0x2 DUP2 GT ISZERO PUSH2 0x1F1 JUMPI PUSH2 0x1F0 PUSH2 0x11B6 JUMP JUMPDEST JUMPDEST PUSH1 0x3 PUSH0 SWAP1 SLOAD SWAP1 PUSH2 0x100 EXP SWAP1 DIV PUSH1 0xFF AND PUSH1 0x2 DUP2 GT ISZERO PUSH2 0x212 JUMPI PUSH2 0x211 PUSH2 0x11B6 JUMP JUMPDEST JUMPDEST EQ PUSH2 0x252 JUMPI PUSH1 0x40 MLOAD PUSH32 0x8C379A000000000000000000000000000000000000000000000000000000000 DUP2 MSTORE PUSH1 0x4 ADD PUSH2 0x249 SWAP1 PUSH2 0x12AC JUMP JUMPDEST PUSH1 0x40 MLOAD DUP1 SWAP2 SUB SWAP1 REVERT JUMPDEST PUSH0 PUSH1 0x1 PUSH0 CALLER PUSH20 0xFFFFFFFFFFFFFFFFFFFFFFFFFFFFFFFFFFFFFFFF AND PUSH20 0xFFFFFFFFFFFFFFFFFFFFFFFFFFFFFFFFFFFFFFFF AND DUP2 MSTORE PUSH1 0x20 ADD SWAP1 DUP2 MSTORE PUSH1 0x20 ADD PUSH0 KECCAK256 SWAP1 POP PUSH0 DUP2 PUSH0 ADD SLOAD SUB PUSH2 0x2D7 JUMPI PUSH1 0x40 MLOAD PUSH32 0x8C379A000000000000000000000000000000000000000000000000000000000 DUP2 MSTORE PUSH1 0x4 ADD PUSH2 0x2CE SWAP1 PUSH2 0x1314 JUMP JUMPDEST PUSH1 0x40 MLOAD DUP1 SWAP2 SUB SWAP1 REVERT JUMPDEST DUP1 PUSH1 0x1 ADD PUSH0 SWAP1 SLOAD SWAP1 PUSH2 0x100 EXP SWAP1 DIV PUSH1 0xFF AND ISZERO PUSH2 0x328 JUMPI PUSH1 0x40 MLOAD PUSH32 0x8C379A000000000000000000000000000000000000000000000000000000000 DUP2 MSTORE PUSH1 0x4 ADD PUSH2 0x31F SWAP1 PUSH2 0x137C JUMP JUMPDEST PUSH1 0x40 MLOAD DUP1 SWAP2 SUB SWAP1 REVERT JUMPDEST PUSH1 0x1 DUP2 PUSH1 0x1 ADD PUSH0 PUSH2 0x100 EXP DUP2 SLOAD DUP2 PUSH1 0xFF MUL NOT AND SWAP1 DUP4 ISZERO ISZERO MUL OR SWAP1 SSTORE POP DUP3 DUP2 PUSH1 0x2 ADD DUP2 SWAP1 SSTORE POP DUP1 PUSH0 ADD SLOAD PUSH1 0x2 DUP5 DUP2 SLOAD DUP2 LT PUSH2 0x365 JUMPI PUSH2 0x364 PUSH2 0x139A JUMP JUMPDEST JUMPDEST SWAP1 PUSH0 MSTORE PUSH1 0x20 PUSH0 KECCAK256 SWAP1 PUSH1 0x2 MUL ADD PUSH1 0x1 ADD PUSH0 DUP3 DUP3 SLOAD PUSH2 0x382 SWAP2 SWAP1 PUSH2 0x13F4 JUMP JUMPDEST SWAP3 POP POP DUP2 SWAP1 SSTORE POP PUSH32 0x4D99B957A2BC29A30EBD96A7BE8E68FE50A3C701DB28A91436490B7D53870CA4 CALLER DUP5 PUSH1 0x40 MLOAD PUSH2 0x3BA SWAP3 SWAP2 SWAP1 PUSH2 0x1427 JUMP JUMPDEST PUSH1 0x40 MLOAD DUP1 SWAP2 SUB SWAP1 LOG1 POP POP POP JUMP JUMPDEST PUSH0 DUP1 SLOAD SWAP1 PUSH2 0x100 EXP SWAP1 DIV PUSH20 0xFFFFFFFFFFFFFFFFFFFFFFFFFFFFFFFFFFFFFFFF AND DUP2 JUMP JUMPDEST PUSH1 0x2 DUP2 DUP2 SLOAD DUP2 LT PUSH2 0x3F9 JUMPI PUSH0 DUP1 REVERT JUMPDEST SWAP1 PUSH0 MSTORE PUSH1 0x20 PUSH0 KECCAK256 SWAP1 PUSH1 0x2 MUL ADD PUSH0 SWAP2 POP SWAP1 POP DUP1 PUSH0 ADD DUP1 SLOAD PUSH2 0x418 SWAP1 PUSH2 0x147B JUMP JUMPDEST DUP1 PUSH1 0x1F ADD PUSH1 0x20 DUP1 SWAP2 DIV MUL PUSH1 0x20 ADD PUSH1 0x40 MLOAD SWAP1 DUP2 ADD PUSH1 0x40 MSTORE DUP1 SWAP3 SWAP2 SWAP1 DUP2 DUP2 MSTORE PUSH1 0x20 ADD DUP3 DUP1 SLOAD PUSH2 0x444 SWAP1 PUSH2 0x147B JUMP JUMPDEST DUP1 ISZERO PUSH2 0x48F JUMPI DUP1 PUSH1 0x1F LT PUSH2 0x466 JUMPI PUSH2 0x100 DUP1 DUP4 SLOAD DIV MUL DUP4 MSTORE SWAP2 PUSH1 0x20 ADD SWAP2 PUSH2 0x48F JUMP JUMPDEST DUP3 ADD SWAP2 SWAP1 PUSH0 MSTORE PUSH1 0x20 PUSH0 KECCAK256 SWAP1 JUMPDEST DUP2 SLOAD DUP2 MSTORE SWAP1 PUSH1 0x1 ADD SWAP1 PUSH1 0x20 ADD DUP1 DUP4 GT PUSH2 0x472 JUMPI DUP3 SWAP1 SUB PUSH1 0x1F AND DUP3 ADD SWAP2 JUMPDEST POP POP POP POP POP SWAP1 DUP1 PUSH1 0x1 ADD SLOAD SWAP1 POP DUP3 JUMP JUMPDEST PUSH0 DUP1 SLOAD SWAP1 PUSH2 0x100 EXP SWAP1 DIV PUSH20 0xFFFFFFFFFFFFFFFFFFFFFFFFFFFFFFFFFFFFFFFF AND PUSH20 0xFFFFFFFFFFFFFFFFFFFFFFFFFFFFFFFFFFFFFFFF AND CALLER PUSH20 0xFFFFFFFFFFFFFFFFFFFFFFFFFFFFFFFFFFFFFFFF AND EQ PUSH2 0x52C JUMPI PUSH1 0x40 MLOAD PUSH32 0x8C379A000000000000000000000000000000000000000000000000000000000 DUP2 MSTORE PUSH1 0x4 ADD PUSH2 0x523 SWAP1 PUSH2 0x151B JUMP JUMPDEST PUSH1 0x40 MLOAD DUP1 SWAP2 SUB SWAP1 REVERT JUMPDEST PUSH0 DUP1 PUSH1 0x2 DUP2 GT ISZERO PUSH2 0x540 JUMPI PUSH2 0x53F PUSH2 0x11B6 JUMP JUMPDEST JUMPDEST PUSH1 0x3 PUSH0 SWAP1 SLOAD SWAP1 PUSH2 0x100 EXP SWAP1 DIV PUSH1 0xFF AND PUSH1 0x2 DUP2 GT ISZERO PUSH2 0x561 JUMPI PUSH2 0x560 PUSH2 0x11B6 JUMP JUMPDEST JUMPDEST EQ PUSH2 0x5A1 JUMPI PUSH1 0x40 MLOAD PUSH32 0x8C379A000000000000000000000000000000000000000000000000000000000 DUP2 MSTORE PUSH1 0x4 ADD PUSH2 0x598 SWAP1 PUSH2 0x12AC JUMP JUMPDEST PUSH1 0x40 MLOAD DUP1 SWAP2 SUB SWAP1 REVERT JUMPDEST PUSH1 0x2 PUSH1 0x40 MLOAD DUP1 PUSH1 0x40 ADD PUSH1 0x40 MSTORE DUP1 DUP5 DUP2 MSTORE PUSH1 0x20 ADD PUSH0 DUP2 MSTORE POP SWAP1 DUP1 PUSH1 0x1 DUP2 SLOAD ADD DUP1 DUP3 SSTORE DUP1 SWAP2 POP POP PUSH1 0x1 SWAP1 SUB SWAP1 PUSH0 MSTORE PUSH1 0x20 PUSH0 KECCAK256 SWAP1 PUSH1 0x2 MUL ADD PUSH0 SWAP1 SWAP2 SWAP1 SWAP2 SWAP1 SWAP2 POP PUSH0 DUP3 ADD MLOAD DUP2 PUSH0 ADD SWAP1 DUP2 PUSH2 0x5F1 SWAP2 SWAP1 PUSH2 0x16D6 JUMP JUMPDEST POP PUSH1 0x20 DUP3 ADD MLOAD DUP2 PUSH1 0x1 ADD SSTORE POP POP PUSH32 0xF29562DAD1599AEA0EBB142466120AAB326D5EFA8F839DF82A9C064BF78E8938 DUP3 PUSH1 0x40 MLOAD PUSH2 0x62D SWAP2 SWAP1 PUSH2 0x1242 JUMP JUMPDEST PUSH1 0x40 MLOAD DUP1 SWAP2 SUB SWAP1 LOG1 POP POP JUMP JUMPDEST PUSH0 DUP1 SLOAD SWAP1 PUSH2 0x100 EXP SWAP1 DIV PUSH20 0xFFFFFFFFFFFFFFFFFFFFFFFFFFFFFFFFFFFFFFFF AND PUSH20 0xFFFFFFFFFFFFFFFFFFFFFFFFFFFFFFFFFFFFFFFF AND CALLER PUSH20 0xFFFFFFFFFFFFFFFFFFFFFFFFFFFFFFFFFFFFFFFF AND EQ PUSH2 0x6C6 JUMPI PUSH1 0x40 MLOAD PUSH32 0x8C379A000000000000000000000000000000000000000000000000000000000 DUP2 MSTORE PUSH1 0x4 ADD PUSH2 0x6BD SWAP1 PUSH2 0x151B JUMP JUMPDEST PUSH1 0x40 MLOAD DUP1 SWAP2 SUB SWAP1 REVERT JUMPDEST PUSH0 DUP1 PUSH1 0x2 DUP2 GT ISZERO PUSH2 0x6DA JUMPI PUSH2 0x6D9 PUSH2 0x11B6 JUMP JUMPDEST JUMPDEST PUSH1 0x3 PUSH0 SWAP1 SLOAD SWAP1 PUSH2 0x100 EXP SWAP1 DIV PUSH1 0xFF AND PUSH1 0x2 DUP2 GT ISZERO PUSH2 0x6FB JUMPI PUSH2 0x6FA PUSH2 0x11B6 JUMP JUMPDEST JUMPDEST EQ PUSH2 0x73B JUMPI PUSH1 0x40 MLOAD PUSH32 0x8C379A000000000000000000000000000000000000000000000000000000000 DUP2 MSTORE PUSH1 0x4 ADD PUSH2 0x732 SWAP1 PUSH2 0x12AC JUMP JUMPDEST PUSH1 0x40 MLOAD DUP1 SWAP2 SUB SWAP1 REVERT JUMPDEST PUSH1 0x1 PUSH1 0x3 PUSH0 PUSH2 0x100 EXP DUP2 SLOAD DUP2 PUSH1 0xFF MUL NOT AND SWAP1 DUP4 PUSH1 0x2 DUP2 GT ISZERO PUSH2 0x760 JUMPI PUSH2 0x75F PUSH2 0x11B6 JUMP JUMPDEST JUMPDEST MUL OR SWAP1 SSTORE POP PUSH32 0xC475C26AA25ED8E85A7FAA790E5F63B5D7EE1025F12821F4C9BFDDD36AB4D112 PUSH1 0x40 MLOAD PUSH1 0x40 MLOAD DUP1 SWAP2 SUB SWAP1 LOG1 POP JUMP JUMPDEST PUSH1 0x60 PUSH1 0x2 DUP1 SLOAD DUP1 PUSH1 0x20 MUL PUSH1 0x20 ADD PUSH1 0x40 MLOAD SWAP1 DUP2 ADD PUSH1 0x40 MSTORE DUP1 SWAP3 SWAP2 SWAP1 DUP2 DUP2 MSTORE PUSH1 0x20 ADD PUSH0 SWAP1 JUMPDEST DUP3 DUP3 LT ISZERO PUSH2 0x880 JUMPI DUP4 DUP3 SWAP1 PUSH0 MSTORE PUSH1 0x20 PUSH0 KECCAK256 SWAP1 PUSH1 0x2 MUL ADD PUSH1 0x40 MLOAD DUP1 PUSH1 0x40 ADD PUSH1 0x40 MSTORE SWAP1 DUP2 PUSH0 DUP3 ADD DUP1 SLOAD PUSH2 0x7E7 SWAP1 PUSH2 0x147B JUMP JUMPDEST DUP1 PUSH1 0x1F ADD PUSH1 0x20 DUP1 SWAP2 DIV MUL PUSH1 0x20 ADD PUSH1 0x40 MLOAD SWAP1 DUP2 ADD PUSH1 0x40 MSTORE DUP1 SWAP3 SWAP2 SWAP1 DUP2 DUP2 MSTORE PUSH1 0x20 ADD DUP3 DUP1 SLOAD PUSH2 0x813 SWAP1 PUSH2 0x147B JUMP JUMPDEST DUP1 ISZERO PUSH2 0x85E JUMPI DUP1 PUSH1 0x1F LT PUSH2 0x835 JUMPI PUSH2 0x100 DUP1 DUP4 SLOAD DIV MUL DUP4 MSTORE SWAP2 PUSH1 0x20 ADD SWAP2 PUSH2 0x85E JUMP JUMPDEST DUP3 ADD SWAP2 SWAP1 PUSH0 MSTORE PUSH1 0x20 PUSH0 KECCAK256 SWAP1 JUMPDEST DUP2 SLOAD DUP2 MSTORE SWAP1 PUSH1 0x1 ADD SWAP1 PUSH1 0x20 ADD DUP1 DUP4 GT PUSH2 0x841 JUMPI DUP3 SWAP1 SUB PUSH1 0x1F AND DUP3 ADD SWAP2 JUMPDEST POP POP POP POP POP DUP2 MSTORE PUSH1 0x20 ADD PUSH1 0x1 DUP3 ADD SLOAD DUP2 MSTORE POP POP DUP2 MSTORE PUSH1 0x20 ADD SWAP1 PUSH1 0x1 ADD SWAP1 PUSH2 0x7B7 JUMP JUMPDEST POP POP POP POP SWAP1 POP SWAP1 JUMP JUMPDEST PUSH0 PUSH1 0x1 PUSH0 CALLER PUSH20 0xFFFFFFFFFFFFFFFFFFFFFFFFFFFFFFFFFFFFFFFF AND PUSH20 0xFFFFFFFFFFFFFFFFFFFFFFFFFFFFFFFFFFFFFFFF AND DUP2 MSTORE PUSH1 0x20 ADD SWAP1 DUP2 MSTORE PUSH1 0x20 ADD PUSH0 KECCAK256 PUSH0 ADD SLOAD EQ PUSH2 0x90A JUMPI PUSH1 0x40 MLOAD PUSH32 0x8C379A000000000000000000000000000000000000000000000000000000000 DUP2 MSTORE PUSH1 0x4 ADD PUSH2 0x901 SWAP1 PUSH2 0x17EF JUMP JUMPDEST PUSH1 0x40 MLOAD DUP1 SWAP2 SUB SWAP1 REVERT JUMPDEST PUSH1 0x1 DUP1 PUSH0 CALLER PUSH20 0xFFFFFFFFFFFFFFFFFFFFFFFFFFFFFFFFFFFFFFFF AND PUSH20 0xFFFFFFFFFFFFFFFFFFFFFFFFFFFFFFFFFFFFFFFF AND DUP2 MSTORE PUSH1 0x20 ADD SWAP1 DUP2 MSTORE PUSH1 0x20 ADD PUSH0 KECCAK256 PUSH0 ADD DUP2 SWAP1 SSTORE POP PUSH32 0xB6BE2187D059CC2A55FE29E0E503B566E1E0F8C8780096E185429350ACFFD3DD CALLER PUSH1 0x40 MLOAD PUSH2 0x97D SWAP2 SWAP1 PUSH2 0xD6D JUMP JUMPDEST PUSH1 0x40 MLOAD DUP1 SWAP2 SUB SWAP1 LOG1 JUMP JUMPDEST PUSH1 0x1 PUSH1 0x20 MSTORE DUP1 PUSH0 MSTORE PUSH1 0x40 PUSH0 KECCAK256 PUSH0 SWAP2 POP SWAP1 POP DUP1 PUSH0 ADD SLOAD SWAP1 DUP1 PUSH1 0x1 ADD PUSH0 SWAP1 SLOAD SWAP1 PUSH2 0x100 EXP SWAP1 DIV PUSH1 0xFF AND SWAP1 DUP1 PUSH1 0x2 ADD SLOAD SWAP1 POP DUP4 JUMP JUMPDEST PUSH0 DUP1 SLOAD SWAP1 PUSH2 0x100 EXP SWAP1 DIV PUSH20 0xFFFFFFFFFFFFFFFFFFFFFFFFFFFFFFFFFFFFFFFF AND PUSH20 0xFFFFFFFFFFFFFFFFFFFFFFFFFFFFFFFFFFFFFFFF AND CALLER PUSH20 0xFFFFFFFFFFFFFFFFFFFFFFFFFFFFFFFFFFFFFFFF AND EQ PUSH2 0xA46 JUMPI PUSH1 0x40 MLOAD PUSH32 0x8C379A000000000000000000000000000000000000000000000000000000000 DUP2 MSTORE PUSH1 0x4 ADD PUSH2 0xA3D SWAP1 PUSH2 0x151B JUMP JUMPDEST PUSH1 0x40 MLOAD DUP1 SWAP2 SUB SWAP1 REVERT JUMPDEST PUSH1 0x1 DUP1 PUSH1 0x2 DUP2 GT ISZERO PUSH2 0xA5B JUMPI PUSH2 0xA5A PUSH2 0x11B6 JUMP JUMPDEST JUMPDEST PUSH1 0x3 PUSH0 SWAP1 SLOAD SWAP1 PUSH2 0x100 EXP SWAP1 DIV PUSH1 0xFF AND PUSH1 0x2 DUP2 GT ISZERO PUSH2 0xA7C JUMPI PUSH2 0xA7B PUSH2 0x11B6 JUMP JUMPDEST JUMPDEST EQ PUSH2 0xABC JUMPI PUSH1 0x40 MLOAD PUSH32 0x8C379A000000000000000000000000000000000000000000000000000000000 DUP2 MSTORE PUSH1 0x4 ADD PUSH2 0xAB3 SWAP1 PUSH2 0x12AC JUMP JUMPDEST PUSH1 0x40 MLOAD DUP1 SWAP2 SUB SWAP1 REVERT JUMPDEST PUSH1 0x2 PUSH1 0x3 PUSH0 PUSH2 0x100 EXP DUP2 SLOAD DUP2 PUSH1 0xFF MUL NOT AND SWAP1 DUP4 PUSH1 0x2 DUP2 GT ISZERO PUSH2 0xAE1 JUMPI PUSH2 0xAE0 PUSH2 0x11B6 JUMP JUMPDEST JUMPDEST MUL OR SWAP1 SSTORE POP PUSH32 0x66EC723071E4BB646F7B35D31BC2DEE8510979BD8C180EDD0690D4F5E802F1E4 PUSH1 0x40 MLOAD PUSH1 0x40 MLOAD DUP1 SWAP2 SUB SWAP1 LOG1 POP JUMP JUMPDEST PUSH1 0x3 PUSH0 SWAP1 SLOAD SWAP1 PUSH2 0x100 EXP SWAP1 DIV PUSH1 0xFF AND DUP2 JUMP JUMPDEST PUSH1 0x60 PUSH1 0x2 DUP1 PUSH1 0x2 DUP2 GT ISZERO PUSH2 0xB3E JUMPI PUSH2 0xB3D PUSH2 0x11B6 JUMP JUMPDEST JUMPDEST PUSH1 0x3 PUSH0 SWAP1 SLOAD SWAP1 PUSH2 0x100 EXP SWAP1 DIV PUSH1 0xFF AND PUSH1 0x2 DUP2 GT ISZERO PUSH2 0xB5F JUMPI PUSH2 0xB5E PUSH2 0x11B6 JUMP JUMPDEST JUMPDEST EQ PUSH2 0xB9F JUMPI PUSH1 0x40 MLOAD PUSH32 0x8C379A000000000000000000000000000000000000000000000000000000000 DUP2 MSTORE PUSH1 0x4 ADD PUSH2 0xB96 SWAP1 PUSH2 0x12AC JUMP JUMPDEST PUSH1 0x40 MLOAD DUP1 SWAP2 SUB SWAP1 REVERT JUMPDEST PUSH0 DUP1 JUMPDEST PUSH1 0x2 DUP1 SLOAD SWAP1 POP DUP2 LT ISZERO PUSH2 0xCB9 JUMPI DUP2 PUSH1 0x2 DUP3 DUP2 SLOAD DUP2 LT PUSH2 0xBC4 JUMPI PUSH2 0xBC3 PUSH2 0x139A JUMP JUMPDEST JUMPDEST SWAP1 PUSH0 MSTORE PUSH1 0x20 PUSH0 KECCAK256 SWAP1 PUSH1 0x2 MUL ADD PUSH1 0x1 ADD SLOAD GT ISZERO PUSH2 0xCAC JUMPI PUSH1 0x2 DUP2 DUP2 SLOAD DUP2 LT PUSH2 0xBEE JUMPI PUSH2 0xBED PUSH2 0x139A JUMP JUMPDEST JUMPDEST SWAP1 PUSH0 MSTORE PUSH1 0x20 PUSH0 KECCAK256 SWAP1 PUSH1 0x2 MUL ADD PUSH1 0x1 ADD SLOAD SWAP2 POP PUSH1 0x2 DUP2 DUP2 SLOAD DUP2 LT PUSH2 0xC14 JUMPI PUSH2 0xC13 PUSH2 0x139A JUMP JUMPDEST JUMPDEST SWAP1 PUSH0 MSTORE PUSH1 0x20 PUSH0 KECCAK256 SWAP1 PUSH1 0x2 MUL ADD PUSH0 ADD DUP1 SLOAD PUSH2 0xC2D SWAP1 PUSH2 0x147B JUMP JUMPDEST DUP1 PUSH1 0x1F ADD PUSH1 0x20 DUP1 SWAP2 DIV MUL PUSH1 0x20 ADD PUSH1 0x40 MLOAD SWAP1 DUP2 ADD PUSH1 0x40 MSTORE DUP1 SWAP3 SWAP2 SWAP1 DUP2 DUP2 MSTORE PUSH1 0x20 ADD DUP3 DUP1 SLOAD PUSH2 0xC59 SWAP1 PUSH2 0x147B JUMP JUMPDEST DUP1 ISZERO PUSH2 0xCA4 JUMPI DUP1 PUSH1 0x1F LT PUSH2 0xC7B JUMPI PUSH2 0x100 DUP1 DUP4 SLOAD DIV MUL DUP4 MSTORE SWAP2 PUSH1 0x20 ADD SWAP2 PUSH2 0xCA4 JUMP JUMPDEST DUP3 ADD SWAP2 SWAP1 PUSH0 MSTORE PUSH1 0x20 PUSH0 KECCAK256 SWAP1 JUMPDEST DUP2 SLOAD DUP2 MSTORE SWAP1 PUSH1 0x1 ADD SWAP1 PUSH1 0x20 ADD DUP1 DUP4 GT PUSH2 0xC87 JUMPI DUP3 SWAP1 SUB PUSH1 0x1F AND DUP3 ADD SWAP2 JUMPDEST POP POP POP POP POP SWAP4 POP JUMPDEST DUP1 DUP1 PUSH1 0x1 ADD SWAP2 POP POP PUSH2 0xBA2 JUMP JUMPDEST POP POP POP SWAP1 JUMP JUMPDEST PUSH0 PUSH1 0x40 MLOAD SWAP1 POP SWAP1 JUMP JUMPDEST PUSH0 DUP1 REVERT JUMPDEST PUSH0 DUP1 REVERT JUMPDEST PUSH0 DUP2 SWAP1 POP SWAP2 SWAP1 POP JUMP JUMPDEST PUSH2 0xCE2 DUP2 PUSH2 0xCD0 JUMP JUMPDEST DUP2 EQ PUSH2 0xCEC JUMPI PUSH0 DUP1 REVERT JUMPDEST POP JUMP JUMPDEST PUSH0 DUP2 CALLDATALOAD SWAP1 POP PUSH2 0xCFD DUP2 PUSH2 0xCD9 JUMP JUMPDEST SWAP3 SWAP2 POP POP JUMP JUMPDEST PUSH0 PUSH1 0x20 DUP3 DUP5 SUB SLT ISZERO PUSH2 0xD18 JUMPI PUSH2 0xD17 PUSH2 0xCC8 JUMP JUMPDEST JUMPDEST PUSH0 PUSH2 0xD25 DUP5 DUP3 DUP6 ADD PUSH2 0xCEF JUMP JUMPDEST SWAP2 POP POP SWAP3 SWAP2 POP POP JUMP JUMPDEST PUSH0 PUSH20 0xFFFFFFFFFFFFFFFFFFFFFFFFFFFFFFFFFFFFFFFF DUP3 AND SWAP1 POP SWAP2 SWAP1 POP JUMP JUMPDEST PUSH0 PUSH2 0xD57 DUP3 PUSH2 0xD2E JUMP JUMPDEST SWAP1 POP SWAP2 SWAP1 POP JUMP JUMPDEST PUSH2 0xD67 DUP2 PUSH2 0xD4D JUMP JUMPDEST DUP3 MSTORE POP POP JUMP JUMPDEST PUSH0 PUSH1 0x20 DUP3 ADD SWAP1 POP PUSH2 0xD80 PUSH0 DUP4 ADD DUP5 PUSH2 0xD5E JUMP JUMPDEST SWAP3 SWAP2 POP POP JUMP JUMPDEST PUSH0 DUP2 MLOAD SWAP1 POP SWAP2 SWAP1 POP JUMP JUMPDEST PUSH0 DUP3 DUP3 MSTORE PUSH1 0x20 DUP3 ADD SWAP1 POP SWAP3 SWAP2 POP POP JUMP JUMPDEST DUP3 DUP2 DUP4 MCOPY PUSH0 DUP4 DUP4 ADD MSTORE POP POP POP JUMP JUMPDEST PUSH0 PUSH1 0x1F NOT PUSH1 0x1F DUP4 ADD AND SWAP1 POP SWAP2 SWAP1 POP JUMP JUMPDEST PUSH0 PUSH2 0xDC8 DUP3 PUSH2 0xD86 JUMP JUMPDEST PUSH2 0xDD2 DUP2 DUP6 PUSH2 0xD90 JUMP JUMPDEST SWAP4 POP PUSH2 0xDE2 DUP2 DUP6 PUSH1 0x20 DUP7 ADD PUSH2 0xDA0 JUMP JUMPDEST PUSH2 0xDEB DUP2 PUSH2 0xDAE JUMP JUMPDEST DUP5 ADD SWAP2 POP POP SWAP3 SWAP2 POP POP JUMP JUMPDEST PUSH2 0xDFF DUP2 PUSH2 0xCD0 JUMP JUMPDEST DUP3 MSTORE POP POP JUMP JUMPDEST PUSH0 PUSH1 0x40 DUP3 ADD SWAP1 POP DUP2 DUP2 SUB PUSH0 DUP4 ADD MSTORE PUSH2 0xE1D DUP2 DUP6 PUSH2 0xDBE JUMP JUMPDEST SWAP1 POP PUSH2 0xE2C PUSH1 0x20 DUP4 ADD DUP5 PUSH2 0xDF6 JUMP JUMPDEST SWAP4 SWAP3 POP POP POP JUMP JUMPDEST PUSH0 DUP1 REVERT JUMPDEST PUSH0 DUP1 REVERT JUMPDEST PUSH32 0x4E487B7100000000000000000000000000000000000000000000000000000000 PUSH0 MSTORE PUSH1 0x41 PUSH1 0x4 MSTORE PUSH1 0x24 PUSH0 REVERT JUMPDEST PUSH2 0xE71 DUP3 PUSH2 0xDAE JUMP JUMPDEST DUP2 ADD DUP2 DUP2 LT PUSH8 0xFFFFFFFFFFFFFFFF DUP3 GT OR ISZERO PUSH2 0xE90 JUMPI PUSH2 0xE8F PUSH2 0xE3B JUMP JUMPDEST JUMPDEST DUP1 PUSH1 0x40 MSTORE POP POP POP JUMP JUMPDEST PUSH0 PUSH2 0xEA2 PUSH2 0xCBF JUMP JUMPDEST SWAP1 POP PUSH2 0xEAE DUP3 DUP3 PUSH2 0xE68 JUMP JUMPDEST SWAP2 SWAP1 POP JUMP JUMPDEST PUSH0 PUSH8 0xFFFFFFFFFFFFFFFF DUP3 GT ISZERO PUSH2 0xECD JUMPI PUSH2 0xECC PUSH2 0xE3B JUMP JUMPDEST JUMPDEST PUSH2 0xED6 DUP3 PUSH2 0xDAE JUMP JUMPDEST SWAP1 POP PUSH1 0x20 DUP2 ADD SWAP1 POP SWAP2 SWAP1 POP JUMP JUMPDEST DUP3 DUP2 DUP4 CALLDATACOPY PUSH0 DUP4 DUP4 ADD MSTORE POP POP POP JUMP JUMPDEST PUSH0 PUSH2 0xF03 PUSH2 0xEFE DUP5 PUSH2 0xEB3 JUMP JUMPDEST PUSH2 0xE99 JUMP JUMPDEST SWAP1 POP DUP3 DUP2 MSTORE PUSH1 0x20 DUP2 ADD DUP5 DUP5 DUP5 ADD GT ISZERO PUSH2 0xF1F JUMPI PUSH2 0xF1E PUSH2 0xE37 JUMP JUMPDEST JUMPDEST PUSH2 0xF2A DUP5 DUP3 DUP6 PUSH2 0xEE3 JUMP JUMPDEST POP SWAP4 SWAP3 POP POP POP JUMP JUMPDEST PUSH0 DUP3 PUSH1 0x1F DUP4 ADD SLT PUSH2 0xF46 JUMPI PUSH2 0xF45 PUSH2 0xE33 JUMP JUMPDEST JUMPDEST DUP2 CALLDATALOAD PUSH2 0xF56 DUP5 DUP3 PUSH1 0x20 DUP7 ADD PUSH2 0xEF1 JUMP JUMPDEST SWAP2 POP POP SWAP3 SWAP2 POP POP JUMP JUMPDEST PUSH0 PUSH1 0x20 DUP3 DUP5 SUB SLT ISZERO PUSH2 0xF74 JUMPI PUSH2 0xF73 PUSH2 0xCC8 JUMP JUMPDEST JUMPDEST PUSH0 DUP3 ADD CALLDATALOAD PUSH8 0xFFFFFFFFFFFFFFFF DUP2 GT ISZERO PUSH2 0xF91 JUMPI PUSH2 0xF90 PUSH2 0xCCC JUMP JUMPDEST JUMPDEST PUSH2 0xF9D DUP5 DUP3 DUP6 ADD PUSH2 0xF32 JUMP JUMPDEST SWAP2 POP POP SWAP3 SWAP2 POP POP JUMP JUMPDEST PUSH0 DUP2 MLOAD SWAP1 POP SWAP2 SWAP1 POP JUMP JUMPDEST PUSH0 DUP3 DUP3 MSTORE PUSH1 0x20 DUP3 ADD SWAP1 POP SWAP3 SWAP2 POP POP JUMP JUMPDEST PUSH0 DUP2 SWAP1 POP PUSH1 0x20 DUP3 ADD SWAP1 POP SWAP2 SWAP1 POP JUMP JUMPDEST PUSH0 DUP3 DUP3 MSTORE PUSH1 0x20 DUP3 ADD SWAP1 POP SWAP3 SWAP2 POP POP JUMP JUMPDEST PUSH0 PUSH2 0xFE9 DUP3 PUSH2 0xD86 JUMP JUMPDEST PUSH2 0xFF3 DUP2 DUP6 PUSH2 0xFCF JUMP JUMPDEST SWAP4 POP PUSH2 0x1003 DUP2 DUP6 PUSH1 0x20 DUP7 ADD PUSH2 0xDA0 JUMP JUMPDEST PUSH2 0x100C DUP2 PUSH2 0xDAE JUMP JUMPDEST DUP5 ADD SWAP2 POP POP SWAP3 SWAP2 POP POP JUMP JUMPDEST PUSH2 0x1020 DUP2 PUSH2 0xCD0 JUMP JUMPDEST DUP3 MSTORE POP POP JUMP JUMPDEST PUSH0 PUSH1 0x40 DUP4 ADD PUSH0 DUP4 ADD MLOAD DUP5 DUP3 SUB PUSH0 DUP7 ADD MSTORE PUSH2 0x1040 DUP3 DUP3 PUSH2 0xFDF JUMP JUMPDEST SWAP2 POP POP PUSH1 0x20 DUP4 ADD MLOAD PUSH2 0x1055 PUSH1 0x20 DUP7 ADD DUP3 PUSH2 0x1017 JUMP JUMPDEST POP DUP1 SWAP2 POP POP SWAP3 SWAP2 POP POP JUMP JUMPDEST PUSH0 PUSH2 0x106B DUP4 DUP4 PUSH2 0x1026 JUMP JUMPDEST SWAP1 POP SWAP3 SWAP2 POP POP JUMP JUMPDEST PUSH0 PUSH1 0x20 DUP3 ADD SWAP1 POP SWAP2 SWAP1 POP JUMP JUMPDEST PUSH0 PUSH2 0x1089 DUP3 PUSH2 0xFA6 JUMP JUMPDEST PUSH2 0x1093 DUP2 DUP6 PUSH2 0xFB0 JUMP JUMPDEST SWAP4 POP DUP4 PUSH1 0x20 DUP3 MUL DUP6 ADD PUSH2 0x10A5 DUP6 PUSH2 0xFC0 JUMP JUMPDEST DUP1 PUSH0 JUMPDEST DUP6 DUP2 LT ISZERO PUSH2 0x10E0 JUMPI DUP5 DUP5 SUB DUP10 MSTORE DUP2 MLOAD PUSH2 0x10C1 DUP6 DUP3 PUSH2 0x1060 JUMP JUMPDEST SWAP5 POP PUSH2 0x10CC DUP4 PUSH2 0x1073 JUMP JUMPDEST SWAP3 POP PUSH1 0x20 DUP11 ADD SWAP10 POP POP PUSH1 0x1 DUP2 ADD SWAP1 POP PUSH2 0x10A8 JUMP JUMPDEST POP DUP3 SWAP8 POP DUP8 SWAP6 POP POP POP POP POP POP SWAP3 SWAP2 POP POP JUMP JUMPDEST PUSH0 PUSH1 0x20 DUP3 ADD SWAP1 POP DUP2 DUP2 SUB PUSH0 DUP4 ADD MSTORE PUSH2 0x110A DUP2 DUP5 PUSH2 0x107F JUMP JUMPDEST SWAP1 POP SWAP3 SWAP2 POP POP JUMP JUMPDEST PUSH2 0x111B DUP2 PUSH2 0xD4D JUMP JUMPDEST DUP2 EQ PUSH2 0x1125 JUMPI PUSH0 DUP1 REVERT JUMPDEST POP JUMP JUMPDEST PUSH0 DUP2 CALLDATALOAD SWAP1 POP PUSH2 0x1136 DUP2 PUSH2 0x1112 JUMP JUMPDEST SWAP3 SWAP2 POP POP JUMP JUMPDEST PUSH0 PUSH1 0x20 DUP3 DUP5 SUB SLT ISZERO PUSH2 0x1151 JUMPI PUSH2 0x1150 PUSH2 0xCC8 JUMP JUMPDEST JUMPDEST PUSH0 PUSH2 0x115E DUP5 DUP3 DUP6 ADD PUSH2 0x1128 JUMP JUMPDEST SWAP2 POP POP SWAP3 SWAP2 POP POP JUMP JUMPDEST PUSH0 DUP2 ISZERO ISZERO SWAP1 POP SWAP2 SWAP1 POP JUMP JUMPDEST PUSH2 0x117B DUP2 PUSH2 0x1167 JUMP JUMPDEST DUP3 MSTORE POP POP JUMP JUMPDEST PUSH0 PUSH1 0x60 DUP3 ADD SWAP1 POP PUSH2 0x1194 PUSH0 DUP4 ADD DUP7 PUSH2 0xDF6 JUMP JUMPDEST PUSH2 0x11A1 PUSH1 0x20 DUP4 ADD DUP6 PUSH2 0x1172 JUMP JUMPDEST PUSH2 0x11AE PUSH1 0x40 DUP4 ADD DUP5 PUSH2 0xDF6 JUMP JUMPDEST SWAP5 SWAP4 POP POP POP POP JUMP JUMPDEST PUSH32 0x4E487B7100000000000000000000000000000000000000000000000000000000 PUSH0 MSTORE PUSH1 0x21 PUSH1 0x4 MSTORE PUSH1 0x24 PUSH0 REVERT JUMPDEST PUSH1 0x3 DUP2 LT PUSH2 0x11F4 JUMPI PUSH2 0x11F3 PUSH2 0x11B6 JUMP JUMPDEST JUMPDEST POP JUMP JUMPDEST PUSH0 DUP2 SWAP1 POP PUSH2 0x1204 DUP3 PUSH2 0x11E3 JUMP JUMPDEST SWAP2 SWAP1 POP JUMP JUMPDEST PUSH0 PUSH2 0x1213 DUP3 PUSH2 0x11F7 JUMP JUMPDEST SWAP1 POP SWAP2 SWAP1 POP JUMP JUMPDEST PUSH2 0x1223 DUP2 PUSH2 0x1209 JUMP JUMPDEST DUP3 MSTORE POP POP JUMP JUMPDEST PUSH0 PUSH1 0x20 DUP3 ADD SWAP1 POP PUSH2 0x123C PUSH0 DUP4 ADD DUP5 PUSH2 0x121A JUMP JUMPDEST SWAP3 SWAP2 POP POP JUMP JUMPDEST PUSH0 PUSH1 0x20 DUP3 ADD SWAP1 POP DUP2 DUP2 SUB PUSH0 DUP4 ADD MSTORE PUSH2 0x125A DUP2 DUP5 PUSH2 0xDBE JUMP JUMPDEST SWAP1 POP SWAP3 SWAP2 POP POP JUMP JUMPDEST PUSH32 0x496E76616C696420737461746520666F72207468697320616374696F6E000000 PUSH0 DUP3 ADD MSTORE POP JUMP JUMPDEST PUSH0 PUSH2 0x1296 PUSH1 0x1D DUP4 PUSH2 0xD90 JUMP JUMPDEST SWAP2 POP PUSH2 0x12A1 DUP3 PUSH2 0x1262 JUMP JUMPDEST PUSH1 0x20 DUP3 ADD SWAP1 POP SWAP2 SWAP1 POP JUMP JUMPDEST PUSH0 PUSH1 0x20 DUP3 ADD SWAP1 POP DUP2 DUP2 SUB PUSH0 DUP4 ADD MSTORE PUSH2 0x12C3 DUP2 PUSH2 0x128A JUMP JUMPDEST SWAP1 POP SWAP2 SWAP1 POP JUMP JUMPDEST PUSH32 0x4E6F20726967687420746F20766F746500000000000000000000000000000000 PUSH0 DUP3 ADD MSTORE POP JUMP JUMPDEST PUSH0 PUSH2 0x12FE PUSH1 0x10 DUP4 PUSH2 0xD90 JUMP JUMPDEST SWAP2 POP PUSH2 0x1309 DUP3 PUSH2 0x12CA JUMP JUMPDEST PUSH1 0x20 DUP3 ADD SWAP1 POP SWAP2 SWAP1 POP JUMP JUMPDEST PUSH0 PUSH1 0x20 DUP3 ADD SWAP1 POP DUP2 DUP2 SUB PUSH0 DUP4 ADD MSTORE PUSH2 0x132B DUP2 PUSH2 0x12F2 JUMP JUMPDEST SWAP1 POP SWAP2 SWAP1 POP JUMP JUMPDEST PUSH32 0x416C726561647920766F74656400000000000000000000000000000000000000 PUSH0 DUP3 ADD MSTORE POP JUMP JUMPDEST PUSH0 PUSH2 0x1366 PUSH1 0xD DUP4 PUSH2 0xD90 JUMP JUMPDEST SWAP2 POP PUSH2 0x1371 DUP3 PUSH2 0x1332 JUMP JUMPDEST PUSH1 0x20 DUP3 ADD SWAP1 POP SWAP2 SWAP1 POP JUMP JUMPDEST PUSH0 PUSH1 0x20 DUP3 ADD SWAP1 POP DUP2 DUP2 SUB PUSH0 DUP4 ADD MSTORE PUSH2 0x1393 DUP2 PUSH2 0x135A JUMP JUMPDEST SWAP1 POP SWAP2 SWAP1 POP JUMP JUMPDEST PUSH32 0x4E487B7100000000000000000000000000000000000000000000000000000000 PUSH0 MSTORE PUSH1 0x32 PUSH1 0x4 MSTORE PUSH1 0x24 PUSH0 REVERT JUMPDEST PUSH32 0x4E487B7100000000000000000000000000000000000000000000000000000000 PUSH0 MSTORE PUSH1 0x11 PUSH1 0x4 MSTORE PUSH1 0x24 PUSH0 REVERT JUMPDEST PUSH0 PUSH2 0x13FE DUP3 PUSH2 0xCD0 JUMP JUMPDEST SWAP2 POP PUSH2 0x1409 DUP4 PUSH2 0xCD0 JUMP JUMPDEST SWAP3 POP DUP3 DUP3 ADD SWAP1 POP DUP1 DUP3 GT ISZERO PUSH2 0x1421 JUMPI PUSH2 0x1420 PUSH2 0x13C7 JUMP JUMPDEST JUMPDEST SWAP3 SWAP2 POP POP JUMP JUMPDEST PUSH0 PUSH1 0x40 DUP3 ADD SWAP1 POP PUSH2 0x143A PUSH0 DUP4 ADD DUP6 PUSH2 0xD5E JUMP JUMPDEST PUSH2 0x1447 PUSH1 0x20 DUP4 ADD DUP5 PUSH2 0xDF6 JUMP JUMPDEST SWAP4 SWAP3 POP POP POP JUMP JUMPDEST PUSH32 0x4E487B7100000000000000000000000000000000000000000000000000000000 PUSH0 MSTORE PUSH1 0x22 PUSH1 0x4 MSTORE PUSH1 0x24 PUSH0 REVERT JUMPDEST PUSH0 PUSH1 0x2 DUP3 DIV SWAP1 POP PUSH1 0x1 DUP3 AND DUP1 PUSH2 0x1492 JUMPI PUSH1 0x7F DUP3 AND SWAP2 POP JUMPDEST PUSH1 0x20 DUP3 LT DUP2 SUB PUSH2 0x14A5 JUMPI PUSH2 0x14A4 PUSH2 0x144E JUMP JUMPDEST JUMPDEST POP SWAP2 SWAP1 POP JUMP JUMPDEST PUSH32 0x4F6E6C79206368616972706572736F6E2063616E20706572666F726D20746869 PUSH0 DUP3 ADD MSTORE PUSH32 0x7320616374696F6E000000000000000000000000000000000000000000000000 PUSH1 0x20 DUP3 ADD MSTORE POP JUMP JUMPDEST PUSH0 PUSH2 0x1505 PUSH1 0x28 DUP4 PUSH2 0xD90 JUMP JUMPDEST SWAP2 POP PUSH2 0x1510 DUP3 PUSH2 0x14AB JUMP JUMPDEST PUSH1 0x40 DUP3 ADD SWAP1 POP SWAP2 SWAP1 POP JUMP JUMPDEST PUSH0 PUSH1 0x20 DUP3 ADD SWAP1 POP DUP2 DUP2 SUB PUSH0 DUP4 ADD MSTORE PUSH2 0x1532 DUP2 PUSH2 0x14F9 JUMP JUMPDEST SWAP1 POP SWAP2 SWAP1 POP JUMP JUMPDEST PUSH0 DUP2 SWAP1 POP DUP2 PUSH0 MSTORE PUSH1 0x20 PUSH0 KECCAK256 SWAP1 POP SWAP2 SWAP1 POP JUMP JUMPDEST PUSH0 PUSH1 0x20 PUSH1 0x1F DUP4 ADD DIV SWAP1 POP SWAP2 SWAP1 POP JUMP JUMPDEST PUSH0 DUP3 DUP3 SHL SWAP1 POP SWAP3 SWAP2 POP POP JUMP JUMPDEST PUSH0 PUSH1 0x8 DUP4 MUL PUSH2 0x1595 PUSH32 0xFFFFFFFFFFFFFFFFFFFFFFFFFFFFFFFFFFFFFFFFFFFFFFFFFFFFFFFFFFFFFFFF DUP3 PUSH2 0x155A JUMP JUMPDEST PUSH2 0x159F DUP7 DUP4 PUSH2 0x155A JUMP JUMPDEST SWAP6 POP DUP1 NOT DUP5 AND SWAP4 POP DUP1 DUP7 AND DUP5 OR SWAP3 POP POP POP SWAP4 SWAP3 POP POP POP JUMP JUMPDEST PUSH0 DUP2 SWAP1 POP SWAP2 SWAP1 POP JUMP JUMPDEST PUSH0 PUSH2 0x15DA PUSH2 0x15D5 PUSH2 0x15D0 DUP5 PUSH2 0xCD0 JUMP JUMPDEST PUSH2 0x15B7 JUMP JUMPDEST PUSH2 0xCD0 JUMP JUMPDEST SWAP1 POP SWAP2 SWAP1 POP JUMP JUMPDEST PUSH0 DUP2 SWAP1 POP SWAP2 SWAP1 POP JUMP JUMPDEST PUSH2 0x15F3 DUP4 PUSH2 0x15C0 JUMP JUMPDEST PUSH2 0x1607 PUSH2 0x15FF DUP3 PUSH2 0x15E1 JUMP JUMPDEST DUP5 DUP5 SLOAD PUSH2 0x1566 JUMP JUMPDEST DUP3 SSTORE POP POP POP POP JUMP JUMPDEST PUSH0 SWAP1 JUMP JUMPDEST PUSH2 0x161B PUSH2 0x160F JUMP JUMPDEST PUSH2 0x1626 DUP2 DUP5 DUP5 PUSH2 0x15EA JUMP JUMPDEST POP POP POP JUMP JUMPDEST JUMPDEST DUP2 DUP2 LT ISZERO PUSH2 0x1649 JUMPI PUSH2 0x163E PUSH0 DUP3 PUSH2 0x1613 JUMP JUMPDEST PUSH1 0x1 DUP2 ADD SWAP1 POP PUSH2 0x162C JUMP JUMPDEST POP POP JUMP JUMPDEST PUSH1 0x1F DUP3 GT ISZERO PUSH2 0x168E JUMPI PUSH2 0x165F DUP2 PUSH2 0x1539 JUMP JUMPDEST PUSH2 0x1668 DUP5 PUSH2 0x154B JUMP JUMPDEST DUP2 ADD PUSH1 0x20 DUP6 LT ISZERO PUSH2 0x1677 JUMPI DUP2 SWAP1 POP JUMPDEST PUSH2 0x168B PUSH2 0x1683 DUP6 PUSH2 0x154B JUMP JUMPDEST DUP4 ADD DUP3 PUSH2 0x162B JUMP JUMPDEST POP POP JUMPDEST POP POP POP JUMP JUMPDEST PUSH0 DUP3 DUP3 SHR SWAP1 POP SWAP3 SWAP2 POP POP JUMP JUMPDEST PUSH0 PUSH2 0x16AE PUSH0 NOT DUP5 PUSH1 0x8 MUL PUSH2 0x1693 JUMP JUMPDEST NOT DUP1 DUP4 AND SWAP2 POP POP SWAP3 SWAP2 POP POP JUMP JUMPDEST PUSH0 PUSH2 0x16C6 DUP4 DUP4 PUSH2 0x169F JUMP JUMPDEST SWAP2 POP DUP3 PUSH1 0x2 MUL DUP3 OR SWAP1 POP SWAP3 SWAP2 POP POP JUMP JUMPDEST PUSH2 0x16DF DUP3 PUSH2 0xD86 JUMP JUMPDEST PUSH8 0xFFFFFFFFFFFFFFFF DUP2 GT ISZERO PUSH2 0x16F8 JUMPI PUSH2 0x16F7 PUSH2 0xE3B JUMP JUMPDEST JUMPDEST PUSH2 0x1702 DUP3 SLOAD PUSH2 0x147B JUMP JUMPDEST PUSH2 0x170D DUP3 DUP3 DUP6 PUSH2 0x164D JUMP JUMPDEST PUSH0 PUSH1 0x20 SWAP1 POP PUSH1 0x1F DUP4 GT PUSH1 0x1 DUP2 EQ PUSH2 0x173E JUMPI PUSH0 DUP5 ISZERO PUSH2 0x172C JUMPI DUP3 DUP8 ADD MLOAD SWAP1 POP JUMPDEST PUSH2 0x1736 DUP6 DUP3 PUSH2 0x16BB JUMP JUMPDEST DUP7 SSTORE POP PUSH2 0x179D JUMP JUMPDEST PUSH1 0x1F NOT DUP5 AND PUSH2 0x174C DUP7 PUSH2 0x1539 JUMP JUMPDEST PUSH0 JUMPDEST DUP3 DUP2 LT ISZERO PUSH2 0x1773 JUMPI DUP5 DUP10 ADD MLOAD DUP3 SSTORE PUSH1 0x1 DUP3 ADD SWAP2 POP PUSH1 0x20 DUP6 ADD SWAP5 POP PUSH1 0x20 DUP2 ADD SWAP1 POP PUSH2 0x174E JUMP JUMPDEST DUP7 DUP4 LT ISZERO PUSH2 0x1790 JUMPI DUP5 DUP10 ADD MLOAD PUSH2 0x178C PUSH1 0x1F DUP10 AND DUP3 PUSH2 0x169F JUMP JUMPDEST DUP4 SSTORE POP JUMPDEST PUSH1 0x1 PUSH1 0x2 DUP9 MUL ADD DUP9 SSTORE POP POP POP JUMPDEST POP POP POP POP POP POP JUMP JUMPDEST PUSH32 0x416C726561647920726567697374657265642E00000000000000000000000000 PUSH0 DUP3 ADD MSTORE POP JUMP JUMPDEST PUSH0 PUSH2 0x17D9 PUSH1 0x13 DUP4 PUSH2 0xD90 JUMP JUMPDEST SWAP2 POP PUSH2 0x17E4 DUP3 PUSH2 0x17A5 JUMP JUMPDEST PUSH1 0x20 DUP3 ADD SWAP1 POP SWAP2 SWAP1 POP JUMP JUMPDEST PUSH0 PUSH1 0x20 DUP3 ADD SWAP1 POP DUP2 DUP2 SUB PUSH0 DUP4 ADD MSTORE PUSH2 0x1806 DUP2 PUSH2 0x17CD JUMP JUMPDEST SWAP1 POP SWAP2 SWAP1 POP JUMP INVALID LOG2 PUSH5 0x6970667358 0x22 SLT KECCAK256 DUP5 PUSH3 0x8BA02C CODECOPY SLOAD PUSH21 0x8089765E07B0DA12DBE0C6F2D83C3D5A5D25D15187 PUSH8 0xD42864736F6C6343 STOP ADDMOD BYTE STOP CALLER "
				},
				"gasEstimates": {
					"creation": {
						"codeDepositCost": "1242200",
						"executionCost": "infinite",
						"totalCost": "infinite"
					},
					"external": {
						"addCandidate(string)": "infinite",
						"candidates(uint256)": "infinite",
						"chairperson()": "2528",
						"endVote()": "29653",
						"getCurrentVotes()": "infinite",
						"registerAsVoter()": "25820",
						"startVote()": "29675",
						"state()": "2642",
						"vote(uint256)": "infinite",
						"voters(address)": "infinite",
						"winningCandidate()": "infinite"
					}
				},
				"methodIdentifiers": {
					"addCandidate(string)": "462e91ec",
					"candidates(uint256)": "3477ee2e",
					"chairperson()": "2e4176cf",
					"endVote()": "b9223946",
					"getCurrentVotes()": "72b4ca47",
					"registerAsVoter()": "78668658",
					"startVote()": "4c0a6af0",
					"state()": "c19d93fb",
					"vote(uint256)": "0121b93f",
					"voters(address)": "a3ec138d",
					"winningCandidate()": "d28178d7"
				}
			},
			"storageLayout": {
				"storage": [
					{
						"astId": 17,
						"contract": "Voting Sytem.sol:Ballot",
						"label": "chairperson",
						"offset": 0,
						"slot": "0",
						"type": "t_address"
					},
					{
						"astId": 22,
						"contract": "Voting Sytem.sol:Ballot",
						"label": "voters",
						"offset": 0,
						"slot": "1",
						"type": "t_mapping(t_address,t_struct(Voter)10_storage)"
					},
					{
						"astId": 26,
						"contract": "Voting Sytem.sol:Ballot",
						"label": "candidates",
						"offset": 0,
						"slot": "2",
						"type": "t_array(t_struct(Candidate)15_storage)dyn_storage"
					},
					{
						"astId": 33,
						"contract": "Voting Sytem.sol:Ballot",
						"label": "state",
						"offset": 0,
						"slot": "3",
						"type": "t_enum(State)30"
					}
				],
				"types": {
					"t_address": {
						"encoding": "inplace",
						"label": "address",
						"numberOfBytes": "20"
					},
					"t_array(t_struct(Candidate)15_storage)dyn_storage": {
						"base": "t_struct(Candidate)15_storage",
						"encoding": "dynamic_array",
						"label": "struct Ballot.Candidate[]",
						"numberOfBytes": "32"
					},
					"t_bool": {
						"encoding": "inplace",
						"label": "bool",
						"numberOfBytes": "1"
					},
					"t_enum(State)30": {
						"encoding": "inplace",
						"label": "enum Ballot.State",
						"numberOfBytes": "1"
					},
					"t_mapping(t_address,t_struct(Voter)10_storage)": {
						"encoding": "mapping",
						"key": "t_address",
						"label": "mapping(address => struct Ballot.Voter)",
						"numberOfBytes": "32",
						"value": "t_struct(Voter)10_storage"
					},
					"t_string_storage": {
						"encoding": "bytes",
						"label": "string",
						"numberOfBytes": "32"
					},
					"t_struct(Candidate)15_storage": {
						"encoding": "inplace",
						"label": "struct Ballot.Candidate",
						"members": [
							{
								"astId": 12,
								"contract": "Voting Sytem.sol:Ballot",
								"label": "name",
								"offset": 0,
								"slot": "0",
								"type": "t_string_storage"
							},
							{
								"astId": 14,
								"contract": "Voting Sytem.sol:Ballot",
								"label": "voteCount",
								"offset": 0,
								"slot": "1",
								"type": "t_uint256"
							}
						],
						"numberOfBytes": "64"
					},
					"t_struct(Voter)10_storage": {
						"encoding": "inplace",
						"label": "struct Ballot.Voter",
						"members": [
							{
								"astId": 5,
								"contract": "Voting Sytem.sol:Ballot",
								"label": "weight",
								"offset": 0,
								"slot": "0",
								"type": "t_uint256"
							},
							{
								"astId": 7,
								"contract": "Voting Sytem.sol:Ballot",
								"label": "voted",
								"offset": 0,
								"slot": "1",
								"type": "t_bool"
							},
							{
								"astId": 9,
								"contract": "Voting Sytem.sol:Ballot",
								"label": "vote",
								"offset": 0,
								"slot": "2",
								"type": "t_uint256"
							}
						],
						"numberOfBytes": "96"
					},
					"t_uint256": {
						"encoding": "inplace",
						"label": "uint256",
						"numberOfBytes": "32"
					}
				}
			},
			"userdoc": {
				"kind": "user",
				"methods": {},
				"version": 1
			}
		}
	}
}